{
  "_format": "hh-sol-artifact-1",
  "contractName": "LoanManager",
  "sourceName": "contracts/LoanManager.sol",
  "abi": [
    {
      "inputs": [
        {
          "internalType": "contract IERC20",
          "name": "_usdtToken",
          "type": "address"
        },
        {
          "internalType": "uint256",
          "name": "_initialNativeUsdtPrice",
          "type": "uint256"
        }
      ],
      "stateMutability": "nonpayable",
      "type": "constructor"
    },
    {
      "inputs": [],
      "name": "EnforcedPause",
      "type": "error"
    },
    {
      "inputs": [],
      "name": "ExpectedPause",
      "type": "error"
    },
    {
      "inputs": [],
      "name": "ReentrancyGuardReentrantCall",
      "type": "error"
    },
    {
      "anonymous": false,
      "inputs": [
        {
          "indexed": true,
          "internalType": "uint256",
          "name": "loanId",
          "type": "uint256"
        },
        {
          "indexed": true,
          "internalType": "address",
          "name": "lender",
          "type": "address"
        },
        {
          "indexed": true,
          "internalType": "address",
          "name": "borrower",
          "type": "address"
        }
      ],
      "name": "AutomaticMatch",
      "type": "event"
    },
    {
      "anonymous": false,
      "inputs": [
        {
          "indexed": true,
          "internalType": "address",
          "name": "token",
          "type": "address"
        },
        {
          "indexed": false,
          "internalType": "uint256",
          "name": "maxLTV",
          "type": "uint256"
        }
      ],
      "name": "CollateralAdded",
      "type": "event"
    },
    {
      "anonymous": false,
      "inputs": [
        {
          "indexed": true,
          "internalType": "uint256",
          "name": "loanId",
          "type": "uint256"
        },
        {
          "indexed": false,
          "internalType": "uint256",
          "name": "amount",
          "type": "uint256"
        }
      ],
      "name": "InterestAccrued",
      "type": "event"
    },
    {
      "anonymous": false,
      "inputs": [
        {
          "indexed": true,
          "internalType": "uint256",
          "name": "loanId",
          "type": "uint256"
        },
        {
          "indexed": true,
          "internalType": "address",
          "name": "borrower",
          "type": "address"
        },
        {
          "indexed": false,
          "internalType": "uint256",
          "name": "loanAmount",
          "type": "uint256"
        }
      ],
      "name": "LoanDisbursed",
      "type": "event"
    },
    {
      "anonymous": false,
      "inputs": [
        {
          "indexed": true,
          "internalType": "uint256",
          "name": "loanId",
          "type": "uint256"
        },
        {
          "indexed": true,
          "internalType": "address",
          "name": "lender",
          "type": "address"
        }
      ],
      "name": "LoanFunded",
      "type": "event"
    },
    {
      "anonymous": false,
      "inputs": [
        {
          "indexed": true,
          "internalType": "uint256",
          "name": "loanId",
          "type": "uint256"
        },
        {
          "indexed": true,
          "internalType": "address",
          "name": "liquidator",
          "type": "address"
        }
      ],
      "name": "LoanLiquidated",
      "type": "event"
    },
    {
      "anonymous": false,
      "inputs": [
        {
          "indexed": true,
          "internalType": "uint256",
          "name": "loanId",
          "type": "uint256"
        },
        {
          "indexed": true,
          "internalType": "address",
          "name": "lender",
          "type": "address"
        },
        {
          "indexed": false,
          "internalType": "uint256",
          "name": "loanAmount",
          "type": "uint256"
        }
      ],
      "name": "LoanLiquidated",
      "type": "event"
    },
    {
      "anonymous": false,
      "inputs": [
        {
          "indexed": true,
          "internalType": "uint256",
          "name": "loanId",
          "type": "uint256"
        },
        {
          "indexed": true,
          "internalType": "address",
          "name": "borrower",
          "type": "address"
        },
        {
          "indexed": false,
          "internalType": "uint256",
          "name": "amount",
          "type": "uint256"
        }
      ],
      "name": "LoanRepaid",
      "type": "event"
    },
    {
      "anonymous": false,
      "inputs": [
        {
          "indexed": true,
          "internalType": "uint256",
          "name": "loanId",
          "type": "uint256"
        },
        {
          "indexed": false,
          "internalType": "address",
          "name": "borrower",
          "type": "address"
        },
        {
          "indexed": false,
          "internalType": "uint256",
          "name": "amount",
          "type": "uint256"
        },
        {
          "indexed": false,
          "internalType": "uint256",
          "name": "collateral",
          "type": "uint256"
        },
        {
          "indexed": false,
          "internalType": "uint256",
          "name": "maxInterestRate",
          "type": "uint256"
        },
        {
          "indexed": false,
          "internalType": "uint256",
          "name": "duration",
          "type": "uint256"
        }
      ],
      "name": "LoanRequested",
      "type": "event"
    },
    {
      "anonymous": false,
      "inputs": [
        {
          "indexed": true,
          "internalType": "uint256",
          "name": "loanId",
          "type": "uint256"
        },
        {
          "indexed": true,
          "internalType": "address",
          "name": "borrower",
          "type": "address"
        },
        {
          "indexed": false,
          "internalType": "uint256",
          "name": "amount",
          "type": "uint256"
        }
      ],
      "name": "PartialRepayment",
      "type": "event"
    },
    {
      "anonymous": false,
      "inputs": [
        {
          "indexed": false,
          "internalType": "address",
          "name": "account",
          "type": "address"
        }
      ],
      "name": "Paused",
      "type": "event"
    },
    {
      "anonymous": false,
      "inputs": [
        {
          "indexed": false,
          "internalType": "uint256",
          "name": "newPrice",
          "type": "uint256"
        }
      ],
      "name": "PriceUpdated",
      "type": "event"
    },
    {
      "anonymous": false,
      "inputs": [
        {
          "indexed": true,
          "internalType": "uint256",
          "name": "loanId",
          "type": "uint256"
        },
        {
          "indexed": false,
          "internalType": "uint256",
          "name": "reward",
          "type": "uint256"
        }
      ],
      "name": "RewardCollected",
      "type": "event"
    },
    {
      "anonymous": false,
      "inputs": [
        {
          "indexed": false,
          "internalType": "address",
          "name": "owner",
          "type": "address"
        },
        {
          "indexed": false,
          "internalType": "uint256",
          "name": "contractBalance",
          "type": "uint256"
        }
      ],
      "name": "RewardsWithdrawn",
      "type": "event"
    },
    {
      "anonymous": false,
      "inputs": [
        {
          "indexed": false,
          "internalType": "address",
          "name": "account",
          "type": "address"
        }
      ],
      "name": "Unpaused",
      "type": "event"
    },
    {
      "inputs": [],
      "name": "allowanceCaller",
      "outputs": [
        {
          "internalType": "uint256",
          "name": "",
          "type": "uint256"
        }
      ],
      "stateMutability": "view",
      "type": "function"
    },
    {
      "inputs": [
        {
          "internalType": "address",
          "name": "",
          "type": "address"
        },
        {
          "internalType": "uint256",
          "name": "",
          "type": "uint256"
        }
      ],
      "name": "borrowerLoans",
      "outputs": [
        {
          "internalType": "uint256",
          "name": "",
          "type": "uint256"
        }
      ],
      "stateMutability": "view",
      "type": "function"
    },
    {
      "inputs": [],
      "name": "collateralizationRatio",
      "outputs": [
        {
          "internalType": "uint256",
          "name": "",
          "type": "uint256"
        }
      ],
      "stateMutability": "view",
      "type": "function"
    },
    {
      "inputs": [
        {
          "internalType": "uint256",
          "name": "loanId",
          "type": "uint256"
        }
      ],
      "name": "fundLoan",
      "outputs": [],
      "stateMutability": "nonpayable",
      "type": "function"
    },
    {
      "inputs": [],
      "name": "getAllLoanRequests",
      "outputs": [
        {
          "components": [
            {
              "internalType": "uint256",
              "name": "loanId",
              "type": "uint256"
            },
            {
              "internalType": "address",
              "name": "borrower",
              "type": "address"
            },
            {
              "internalType": "uint256",
              "name": "amount",
              "type": "uint256"
            },
            {
              "internalType": "uint256",
              "name": "maxInterestRate",
              "type": "uint256"
            },
            {
              "internalType": "uint256",
              "name": "dueDate",
              "type": "uint256"
            },
            {
              "internalType": "uint256",
              "name": "duration",
              "type": "uint256"
            },
            {
              "internalType": "uint256",
              "name": "collateralAmount",
              "type": "uint256"
            },
            {
              "internalType": "bool",
              "name": "isActive",
              "type": "bool"
            },
            {
              "internalType": "bool",
              "name": "hasRepaid",
              "type": "bool"
            }
          ],
          "internalType": "struct LoanStorage.LoanRequestDetail[]",
          "name": "",
          "type": "tuple[]"
        }
      ],
      "stateMutability": "view",
      "type": "function"
    },
    {
      "inputs": [],
      "name": "getNativePrice",
      "outputs": [
        {
          "internalType": "uint256",
          "name": "",
          "type": "uint256"
        }
      ],
      "stateMutability": "view",
      "type": "function"
    },
    {
      "inputs": [
        {
          "internalType": "uint256",
          "name": "loanAmount",
          "type": "uint256"
        }
      ],
      "name": "getRequiredCollateralAmount",
      "outputs": [
        {
          "internalType": "uint256",
          "name": "",
          "type": "uint256"
        }
      ],
      "stateMutability": "view",
      "type": "function"
    },
    {
      "inputs": [
        {
          "internalType": "uint256",
          "name": "loanId",
          "type": "uint256"
        }
      ],
      "name": "getTotalLoanPayment",
      "outputs": [
        {
          "internalType": "uint256",
          "name": "totalPayment",
          "type": "uint256"
        },
        {
          "internalType": "uint256",
          "name": "principal",
          "type": "uint256"
        },
        {
          "internalType": "uint256",
          "name": "interestAmount",
          "type": "uint256"
        }
      ],
      "stateMutability": "view",
      "type": "function"
    },
    {
      "inputs": [
        {
          "internalType": "address",
          "name": "",
          "type": "address"
        }
      ],
      "name": "lenderAvailableFunds",
      "outputs": [
        {
          "internalType": "uint256",
          "name": "",
          "type": "uint256"
        }
      ],
      "stateMutability": "view",
      "type": "function"
    },
    {
      "inputs": [
        {
          "internalType": "address",
          "name": "",
          "type": "address"
        },
        {
          "internalType": "uint256",
          "name": "",
          "type": "uint256"
        }
      ],
      "name": "lenderLoans",
      "outputs": [
        {
          "internalType": "uint256",
          "name": "",
          "type": "uint256"
        }
      ],
      "stateMutability": "view",
      "type": "function"
    },
    {
      "inputs": [
        {
          "internalType": "uint256",
          "name": "loanId",
          "type": "uint256"
        }
      ],
      "name": "liquidateOverdueLoan",
      "outputs": [],
      "stateMutability": "nonpayable",
      "type": "function"
    },
    {
      "inputs": [],
      "name": "liquidationThreshold",
      "outputs": [
        {
          "internalType": "uint256",
          "name": "",
          "type": "uint256"
        }
      ],
      "stateMutability": "view",
      "type": "function"
    },
    {
      "inputs": [],
      "name": "loanCounter",
      "outputs": [
        {
          "internalType": "uint256",
          "name": "",
          "type": "uint256"
        }
      ],
      "stateMutability": "view",
      "type": "function"
    },
    {
      "inputs": [
        {
          "internalType": "uint256",
          "name": "",
          "type": "uint256"
        }
      ],
      "name": "loanRequests",
      "outputs": [
        {
          "internalType": "uint256",
          "name": "amount",
          "type": "uint256"
        },
        {
          "internalType": "uint256",
          "name": "maxInterestRate",
          "type": "uint256"
        },
        {
          "internalType": "uint256",
          "name": "dueDate",
          "type": "uint256"
        },
        {
          "internalType": "uint256",
          "name": "duration",
          "type": "uint256"
        },
        {
          "internalType": "bool",
          "name": "matched",
          "type": "bool"
        }
      ],
      "stateMutability": "view",
      "type": "function"
    },
    {
      "inputs": [
        {
          "internalType": "uint256",
          "name": "",
          "type": "uint256"
        },
        {
          "internalType": "address",
          "name": "",
          "type": "address"
        }
      ],
      "name": "loansCollateral",
      "outputs": [
        {
          "internalType": "uint256",
          "name": "",
          "type": "uint256"
        }
      ],
      "stateMutability": "view",
      "type": "function"
    },
    {
      "inputs": [
        {
          "internalType": "uint256",
          "name": "",
          "type": "uint256"
        }
      ],
      "name": "loansCore",
      "outputs": [
        {
          "internalType": "address",
          "name": "borrower",
          "type": "address"
        },
        {
          "internalType": "address",
          "name": "lender",
          "type": "address"
        },
        {
          "internalType": "uint256",
          "name": "amount",
          "type": "uint256"
        },
        {
          "internalType": "uint256",
          "name": "collateral",
          "type": "uint256"
        },
        {
          "internalType": "uint256",
          "name": "interestRate",
          "type": "uint256"
        },
        {
          "internalType": "enum ILoanManager.InterestRateType",
          "name": "rateType",
          "type": "uint8"
        },
        {
          "internalType": "uint256",
          "name": "duration",
          "type": "uint256"
        }
      ],
      "stateMutability": "view",
      "type": "function"
    },
    {
      "inputs": [
        {
          "internalType": "uint256",
          "name": "",
          "type": "uint256"
        }
      ],
      "name": "loansInterest",
      "outputs": [
        {
          "internalType": "uint256",
          "name": "lastInterestAccrualTimestamp",
          "type": "uint256"
        },
        {
          "internalType": "uint256",
          "name": "accruedInterest",
          "type": "uint256"
        }
      ],
      "stateMutability": "view",
      "type": "function"
    },
    {
      "inputs": [
        {
          "internalType": "uint256",
          "name": "",
          "type": "uint256"
        }
      ],
      "name": "loansStatus",
      "outputs": [
        {
          "internalType": "uint256",
          "name": "startTime",
          "type": "uint256"
        },
        {
          "internalType": "bool",
          "name": "active",
          "type": "bool"
        },
        {
          "internalType": "bool",
          "name": "repaid",
          "type": "bool"
        },
        {
          "internalType": "bool",
          "name": "defaulted",
          "type": "bool"
        },
        {
          "internalType": "uint256",
          "name": "repaidAmount",
          "type": "uint256"
        }
      ],
      "stateMutability": "view",
      "type": "function"
    },
    {
      "inputs": [
        {
          "internalType": "uint256",
          "name": "loanId",
          "type": "uint256"
        },
        {
          "internalType": "uint256",
          "name": "amount",
          "type": "uint256"
        }
      ],
      "name": "makePartialRepayment",
      "outputs": [],
      "stateMutability": "nonpayable",
      "type": "function"
    },
    {
      "inputs": [],
      "name": "maxLoanAmount",
      "outputs": [
        {
          "internalType": "uint256",
          "name": "",
          "type": "uint256"
        }
      ],
      "stateMutability": "view",
      "type": "function"
    },
    {
      "inputs": [],
      "name": "minLoanAmount",
      "outputs": [
        {
          "internalType": "uint256",
          "name": "",
          "type": "uint256"
        }
      ],
      "stateMutability": "view",
      "type": "function"
    },
    {
      "inputs": [],
      "name": "nativeUsdtPrice",
      "outputs": [
        {
          "internalType": "uint256",
          "name": "",
          "type": "uint256"
        }
      ],
      "stateMutability": "view",
      "type": "function"
    },
    {
      "inputs": [],
      "name": "owner",
      "outputs": [
        {
          "internalType": "address",
          "name": "",
          "type": "address"
        }
      ],
      "stateMutability": "view",
      "type": "function"
    },
    {
      "inputs": [],
      "name": "paused",
      "outputs": [
        {
          "internalType": "bool",
          "name": "",
          "type": "bool"
        }
      ],
      "stateMutability": "view",
      "type": "function"
    },
    {
      "inputs": [],
      "name": "priceDecimals",
      "outputs": [
        {
          "internalType": "uint8",
          "name": "",
          "type": "uint8"
        }
      ],
      "stateMutability": "view",
      "type": "function"
    },
    {
      "inputs": [
        {
          "internalType": "uint256",
          "name": "loanId",
          "type": "uint256"
        }
      ],
      "name": "repayLoanWithReward",
      "outputs": [],
      "stateMutability": "nonpayable",
      "type": "function"
    },
    {
      "inputs": [
        {
          "internalType": "uint256",
          "name": "amount",
          "type": "uint256"
        },
        {
          "internalType": "uint256",
          "name": "maxInterestRate",
          "type": "uint256"
        },
        {
          "internalType": "uint256",
          "name": "duration",
          "type": "uint256"
        }
      ],
      "name": "requestLoan",
      "outputs": [],
      "stateMutability": "payable",
      "type": "function"
    },
    {
      "inputs": [
        {
          "internalType": "uint256",
          "name": "_minLoanAmount",
          "type": "uint256"
        },
        {
          "internalType": "uint256",
          "name": "_maxLoanAmount",
          "type": "uint256"
        }
      ],
      "name": "setLoanLimits",
      "outputs": [],
      "stateMutability": "nonpayable",
      "type": "function"
    },
    {
      "inputs": [
        {
          "internalType": "address",
          "name": "",
          "type": "address"
        }
      ],
      "name": "supportedCollaterals",
      "outputs": [
        {
          "internalType": "address",
          "name": "priceOracle",
          "type": "address"
        },
        {
          "internalType": "uint256",
          "name": "maxLTV",
          "type": "uint256"
        },
        {
          "internalType": "bool",
          "name": "isActive",
          "type": "bool"
        }
      ],
      "stateMutability": "view",
      "type": "function"
    },
    {
      "inputs": [
        {
          "internalType": "uint256",
          "name": "newRatio",
          "type": "uint256"
        }
      ],
      "name": "updateCollateralizationRatio",
      "outputs": [],
      "stateMutability": "nonpayable",
      "type": "function"
    },
    {
      "inputs": [
        {
          "internalType": "uint256",
          "name": "newThreshold",
          "type": "uint256"
        }
      ],
      "name": "updateLiquidationThreshold",
      "outputs": [],
      "stateMutability": "nonpayable",
      "type": "function"
    },
    {
      "inputs": [
        {
          "internalType": "uint256",
          "name": "_newPrice",
          "type": "uint256"
        }
      ],
      "name": "updateNativeUsdtPrice",
      "outputs": [],
      "stateMutability": "nonpayable",
      "type": "function"
    },
    {
      "inputs": [],
      "name": "usdtToken",
      "outputs": [
        {
          "internalType": "contract IERC20",
          "name": "",
          "type": "address"
        }
      ],
      "stateMutability": "view",
      "type": "function"
    },
    {
      "inputs": [
        {
          "internalType": "address",
          "name": "_owner",
          "type": "address"
        }
      ],
      "name": "withdrawRewards",
      "outputs": [],
      "stateMutability": "nonpayable",
      "type": "function"
    }
  ],
  "bytecode": "0x60806040526012600e60006101000a81548160ff021916908360ff1602179055506078600f55606e601055670de0b6b3a764000060125569152d02c7e14af68000006013553480156200005157600080fd5b5060405162005805380380620058058339818101604052810190620000779190620001e4565b6001600a819055506000600b60006101000a81548160ff02191690831515021790555081600b60016101000a81548173ffffffffffffffffffffffffffffffffffffffff021916908373ffffffffffffffffffffffffffffffffffffffff16021790555080600d8190555033600c60006101000a81548173ffffffffffffffffffffffffffffffffffffffff021916908373ffffffffffffffffffffffffffffffffffffffff16021790555050506200022b565b600080fd5b600073ffffffffffffffffffffffffffffffffffffffff82169050919050565b60006200015d8262000130565b9050919050565b6000620001718262000150565b9050919050565b620001838162000164565b81146200018f57600080fd5b50565b600081519050620001a38162000178565b92915050565b6000819050919050565b620001be81620001a9565b8114620001ca57600080fd5b50565b600081519050620001de81620001b3565b92915050565b60008060408385031215620001fe57620001fd6200012b565b5b60006200020e8582860162000192565b92505060206200022185828601620001cd565b9150509250929050565b6155ca806200023b6000396000f3fe6080604052600436106101f95760003560e01c80638af703151161010d578063d1b332f4116100a0578063e16ffcdc1161006f578063e16ffcdc14610768578063e3ed190214610793578063e91349d7146107d0578063edadbbfe14610813578063f5ebab0c1461082f576101f9565b8063d1b332f4146106a8578063d3b5be1a146106e9578063dcaf9c4414610712578063e06a91381461073d576101f9565b8063aaea7009116100dc578063aaea7009146105c1578063b29504e914610600578063b4580a6614610629578063cc8266461461066a576101f9565b80638af70315146105035780638da5cb5b1461054257806397a146c01461056d578063a98ad46c14610596576101f9565b80633cdb72f1116101905780635c975abb1161015f5780635c975abb1461043257806361851d651461045d57806372f94365146104865780637c6fe270146104b1578063846b909a146104da576101f9565b80633cdb72f1146103785780634031234c146103b557806342d86693146103e057806344992d1d14610409576101f9565b806317d960e0116101cc57806317d960e0146102a8578063197428bf146102e557806334d9289e146103225780633789cb881461034d576101f9565b806305300b28146101fe5780630607ec70146102295780630c9babc31461025257806317430c9e1461027d575b600080fd5b34801561020a57600080fd5b5061021361086c565b604051610220919061390c565b60405180910390f35b34801561023557600080fd5b50610250600480360381019061024b9190613962565b61087f565b005b34801561025e57600080fd5b5061026761095d565b6040516102749190613b61565b60405180910390f35b34801561028957600080fd5b50610292610d5f565b60405161029f9190613b92565b60405180910390f35b3480156102b457600080fd5b506102cf60048036038101906102ca9190613bd9565b610dad565b6040516102dc9190613b92565b60405180910390f35b3480156102f157600080fd5b5061030c60048036038101906103079190613c19565b610dd2565b6040516103199190613b92565b60405180910390f35b34801561032e57600080fd5b50610337610dea565b6040516103449190613b92565b60405180910390f35b34801561035957600080fd5b50610362610df0565b60405161036f9190613b92565b60405180910390f35b34801561038457600080fd5b5061039f600480360381019061039a9190613c46565b610df6565b6040516103ac9190613b92565b60405180910390f35b3480156103c157600080fd5b506103ca610e27565b6040516103d79190613b92565b60405180910390f35b3480156103ec57600080fd5b5061040760048036038101906104029190613c19565b610e2d565b005b34801561041557600080fd5b50610430600480360381019061042b9190613962565b6110cc565b005b34801561043e57600080fd5b5061044761119d565b6040516104549190613c95565b60405180910390f35b34801561046957600080fd5b50610484600480360381019061047f9190613962565b6111b4565b005b34801561049257600080fd5b5061049b611459565b6040516104a89190613b92565b60405180910390f35b3480156104bd57600080fd5b506104d860048036038101906104d39190613962565b61145f565b005b3480156104e657600080fd5b5061050160048036038101906104fc9190613962565b6119d2565b005b34801561050f57600080fd5b5061052a60048036038101906105259190613962565b6120e0565b60405161053993929190613cb0565b60405180910390f35b34801561054e57600080fd5b5061055761227b565b6040516105649190613cf6565b60405180910390f35b34801561057957600080fd5b50610594600480360381019061058f9190613d11565b6122a1565b005b3480156105a257600080fd5b506105ab6123c8565b6040516105b89190613db0565b60405180910390f35b3480156105cd57600080fd5b506105e860048036038101906105e39190613c19565b6123ee565b6040516105f793929190613dcb565b60405180910390f35b34801561060c57600080fd5b5061062760048036038101906106229190613d11565b612445565b005b34801561063557600080fd5b50610650600480360381019061064b9190613962565b6127c3565b604051610661959493929190613e02565b60405180910390f35b34801561067657600080fd5b50610691600480360381019061068c9190613962565b612820565b60405161069f929190613e55565b60405180910390f35b3480156106b457600080fd5b506106cf60048036038101906106ca9190613962565b612844565b6040516106e0959493929190613e7e565b60405180910390f35b3480156106f557600080fd5b50610710600480360381019061070b9190613962565b612887565b005b34801561071e57600080fd5b50610727612965565b6040516107349190613b92565b60405180910390f35b34801561074957600080fd5b5061075261296b565b60405161075f9190613b92565b60405180910390f35b34801561077457600080fd5b5061077d612971565b60405161078a9190613b92565b60405180910390f35b34801561079f57600080fd5b506107ba60048036038101906107b59190613c46565b612a16565b6040516107c79190613b92565b60405180910390f35b3480156107dc57600080fd5b506107f760048036038101906107f29190613962565b612a47565b60405161080a9796959493929190613f48565b60405180910390f35b61082d60048036038101906108289190613fb7565b612ad6565b005b34801561083b57600080fd5b5061085660048036038101906108519190613962565b612f28565b6040516108639190613b92565b60405180910390f35b600e60009054906101000a900460ff1681565b600c60009054906101000a900473ffffffffffffffffffffffffffffffffffffffff1673ffffffffffffffffffffffffffffffffffffffff163373ffffffffffffffffffffffffffffffffffffffff161461090f576040517f08c379a000000000000000000000000000000000000000000000000000000000815260040161090690614067565b60405180910390fd5b6064811015610953576040517f08c379a000000000000000000000000000000000000000000000000000000000815260040161094a906140d3565b60405180910390fd5b80600f8190555050565b6060600080600190505b6011548111610a05576000600660008381526020019081526020016000206040518060a0016040529081600082015481526020016001820154815260200160028201548152602001600382015481526020016004820160009054906101000a900460ff16151515158152505090506000816000015111156109f15782806109ed90614122565b9350505b5080806109fd90614122565b915050610967565b5060008167ffffffffffffffff811115610a2257610a2161416a565b5b604051908082528060200260200182016040528015610a5b57816020015b610a4861388a565b815260200190600190039081610a405790505b509050600080600190505b6011548111610d55576000600660008381526020019081526020016000206040518060a0016040529081600082015481526020016001820154815260200160028201548152602001600382015481526020016004820160009054906101000a900460ff16151515158152505090506000600160008481526020019081526020016000206040518060a0016040529081600082015481526020016001820160009054906101000a900460ff161515151581526020016001820160019054906101000a900460ff161515151581526020016001820160029054906101000a900460ff16151515158152602001600282015481525050905060008060008581526020019081526020016000206040518060e00160405290816000820160009054906101000a900473ffffffffffffffffffffffffffffffffffffffff1673ffffffffffffffffffffffffffffffffffffffff1673ffffffffffffffffffffffffffffffffffffffff1681526020016001820160009054906101000a900473ffffffffffffffffffffffffffffffffffffffff1673ffffffffffffffffffffffffffffffffffffffff1673ffffffffffffffffffffffffffffffffffffffff1681526020016002820154815260200160038201548152602001600482015481526020016005820160009054906101000a900460ff166001811115610c6957610c68613ed1565b5b6001811115610c7b57610c7a613ed1565b5b81526020016006820154815250509050600083600001511115610d3f57604051806101200160405280858152602001826000015173ffffffffffffffffffffffffffffffffffffffff168152602001846000015181526020018460200151815260200184604001518152602001846060015181526020018260600151815260200183602001511515815260200183604001511515815250868681518110610d2557610d24614199565b5b60200260200101819052508480610d3b90614122565b9550505b5050508080610d4d90614122565b915050610a66565b5081935050505090565b600080600d5411610da5576040517f08c379a0000000000000000000000000000000000000000000000000000000008152600401610d9c90614214565b60405180910390fd5b600d54905090565b6003602052816000526040600020602052806000526040600020600091509150505481565b60076020528060005260406000206000915090505481565b60115481565b600d5481565b60056020528160005260406000208181548110610e1257600080fd5b90600052602060002001600091509150505481565b60105481565b600c60009054906101000a900473ffffffffffffffffffffffffffffffffffffffff1673ffffffffffffffffffffffffffffffffffffffff163373ffffffffffffffffffffffffffffffffffffffff1614610ebd576040517f08c379a0000000000000000000000000000000000000000000000000000000008152600401610eb490614067565b60405180910390fd5b610ec5612f68565b6000600b60019054906101000a900473ffffffffffffffffffffffffffffffffffffffff1673ffffffffffffffffffffffffffffffffffffffff166370a08231306040518263ffffffff1660e01b8152600401610f229190613cf6565b602060405180830381865afa158015610f3f573d6000803e3d6000fd5b505050506040513d601f19601f82011682018060405250810190610f639190614249565b905060008111610fa8576040517f08c379a0000000000000000000000000000000000000000000000000000000008152600401610f9f906142c2565b60405180910390fd5b600b60019054906101000a900473ffffffffffffffffffffffffffffffffffffffff1673ffffffffffffffffffffffffffffffffffffffff1663a9059cbb83836040518363ffffffff1660e01b81526004016110059291906142e2565b6020604051808303816000875af1158015611024573d6000803e3d6000fd5b505050506040513d601f19601f820116820180604052508101906110489190614337565b611087576040517f08c379a000000000000000000000000000000000000000000000000000000000815260040161107e906143b0565b60405180910390fd5b7f8a43c4352486ec339f487f64af78ca5cbf06cd47833f073d3baf3a193e50316182826040516110b89291906142e2565b60405180910390a1506110c9612fae565b50565b600c60009054906101000a900473ffffffffffffffffffffffffffffffffffffffff1673ffffffffffffffffffffffffffffffffffffffff163373ffffffffffffffffffffffffffffffffffffffff161461115c576040517f08c379a000000000000000000000000000000000000000000000000000000000815260040161115390614067565b60405180910390fd5b80600d819055507f66cbca4f3c64fecf1dcb9ce094abcf7f68c3450a1d4e3a8e917dd621edb4ebe0816040516111929190613b92565b60405180910390a150565b6000600b60009054906101000a900460ff16905090565b6111bc612f68565b60008060008381526020019081526020016000209050600060016000848152602001908152602001600020905060006006600085815260200190815260200160002090508160010160009054906101000a900460ff16611251576040517f08c379a00000000000000000000000000000000000000000000000000000000081526004016112489061441c565b60405180910390fd5b80600201544211611297576040517f08c379a000000000000000000000000000000000000000000000000000000000815260040161128e90614488565b60405180910390fd5b8160010160019054906101000a900460ff16156112e9576040517f08c379a00000000000000000000000000000000000000000000000000000000081526004016112e0906144f4565b60405180910390fd5b60006112f4856120e0565b505090506000600e60009054906101000a900460ff16600a6113169190614647565b600d5486600301546113289190614692565b6113329190614703565b90506064601054826113449190614692565b61134e9190614703565b821161138f576040517f08c379a000000000000000000000000000000000000000000000000000000000815260040161138690614780565b60405180910390fd5b61139886612fb8565b60008460010160006101000a81548160ff02191690831515021790555060018460010160026101000a81548160ff0219169083151502179055508460010160009054906101000a900473ffffffffffffffffffffffffffffffffffffffff1673ffffffffffffffffffffffffffffffffffffffff16867f0256bdf47e9aff5784070d6cab332d79f81fc6b8c8ed875565982a423a389e3a87600301546040516114419190613b92565b60405180910390a35050505050611456612fae565b50565b60135481565b611467612f68565b60008060008381526020019081526020016000209050600060016000848152602001908152602001600020905060006002600085815260200190815260200160002090508160010160009054906101000a900460ff166114fc576040517f08c379a00000000000000000000000000000000000000000000000000000000081526004016114f39061441c565b60405180910390fd5b8260000160009054906101000a900473ffffffffffffffffffffffffffffffffffffffff1673ffffffffffffffffffffffffffffffffffffffff163373ffffffffffffffffffffffffffffffffffffffff161461158e576040517f08c379a0000000000000000000000000000000000000000000000000000000008152600401611585906147ec565b60405180910390fd5b611597846130b7565b600081600101549050600081116115e3576040517f08c379a00000000000000000000000000000000000000000000000000000000081526004016115da90614858565b60405180910390fd5b600060646014836115f49190614692565b6115fe9190614703565b90506000818361160e9190614878565b90504284600001819055506000856002015484886002015461163091906148ac565b61163a9190614878565b905086600201548111611682576040517f08c379a00000000000000000000000000000000000000000000000000000000081526004016116799061492c565b60405180910390fd5b600083116116c5576040517f08c379a00000000000000000000000000000000000000000000000000000000081526004016116bc90614998565b60405180910390fd5b600b60019054906101000a900473ffffffffffffffffffffffffffffffffffffffff1673ffffffffffffffffffffffffffffffffffffffff166323b872dd3330846040518463ffffffff1660e01b8152600401611724939291906149b8565b6020604051808303816000875af1158015611743573d6000803e3d6000fd5b505050506040513d601f19601f820116820180604052508101906117679190614337565b6117a6576040517f08c379a000000000000000000000000000000000000000000000000000000000815260040161179d90614a3b565b60405180910390fd5b60008288600201546117b891906148ac565b9050600b60019054906101000a900473ffffffffffffffffffffffffffffffffffffffff1673ffffffffffffffffffffffffffffffffffffffff1663a9059cbb8960010160009054906101000a900473ffffffffffffffffffffffffffffffffffffffff16836040518363ffffffff1660e01b815260040161183b9291906142e2565b6020604051808303816000875af115801561185a573d6000803e3d6000fd5b505050506040513d601f19601f8201168201806040525081019061187e9190614337565b6118bd576040517f08c379a00000000000000000000000000000000000000000000000000000000081526004016118b490614aa7565b60405180910390fd5b818760020160008282546118d191906148ac565b9250508190555060008760010160006101000a81548160ff02191690831515021790555060018760010160016101000a81548160ff02191690831515021790555060008760010160026101000a81548160ff02191690831515021790555061193889613236565b3373ffffffffffffffffffffffffffffffffffffffff16897f512d3e65b3e58c2187bb1872aa435dba5bd09c1c03823ba56ab70aac411e4a218460405161197f9190613b92565b60405180910390a3887f04e1ead5246a36f9da4a7f8ba0922ebab097b2349377e0b60b228a5e9d8ee587856040516119b79190613b92565b60405180910390a250505050505050506119cf612fae565b50565b6119da612f68565b600080600083815260200190815260200160002090506000600160008481526020019081526020016000209050600073ffffffffffffffffffffffffffffffffffffffff168260000160009054906101000a900473ffffffffffffffffffffffffffffffffffffffff1673ffffffffffffffffffffffffffffffffffffffff1603611a9a576040517f08c379a0000000000000000000000000000000000000000000000000000000008152600401611a9190614b13565b60405180910390fd5b8060010160009054906101000a900460ff1615611aec576040517f08c379a0000000000000000000000000000000000000000000000000000000008152600401611ae390614b7f565b60405180910390fd5b600073ffffffffffffffffffffffffffffffffffffffff168260010160009054906101000a900473ffffffffffffffffffffffffffffffffffffffff1673ffffffffffffffffffffffffffffffffffffffff1614611b7f576040517f08c379a0000000000000000000000000000000000000000000000000000000008152600401611b7690614beb565b60405180910390fd5b6000826002015411611bc6576040517f08c379a0000000000000000000000000000000000000000000000000000000008152600401611bbd90614c57565b60405180910390fd5b8160020154600b60019054906101000a900473ffffffffffffffffffffffffffffffffffffffff1673ffffffffffffffffffffffffffffffffffffffff1663dd62ed3e33306040518363ffffffff1660e01b8152600401611c28929190614c77565b602060405180830381865afa158015611c45573d6000803e3d6000fd5b505050506040513d601f19601f82011682018060405250810190611c699190614249565b1015611caa576040517f08c379a0000000000000000000000000000000000000000000000000000000008152600401611ca190614cec565b60405180910390fd5b600b60019054906101000a900473ffffffffffffffffffffffffffffffffffffffff1673ffffffffffffffffffffffffffffffffffffffff166323b872dd333085600201546040518463ffffffff1660e01b8152600401611d0d939291906149b8565b6020604051808303816000875af1158015611d2c573d6000803e3d6000fd5b505050506040513d601f19601f82011682018060405250810190611d509190614337565b611d8f576040517f08c379a0000000000000000000000000000000000000000000000000000000008152600401611d8690614a3b565b60405180910390fd5b338260010160006101000a81548173ffffffffffffffffffffffffffffffffffffffff021916908373ffffffffffffffffffffffffffffffffffffffff16021790555042816000018190555060018160010160006101000a81548160ff021916908315150217905550600b60019054906101000a900473ffffffffffffffffffffffffffffffffffffffff1673ffffffffffffffffffffffffffffffffffffffff1663a9059cbb8360000160009054906101000a900473ffffffffffffffffffffffffffffffffffffffff1684600201546040518363ffffffff1660e01b8152600401611e7d9291906142e2565b6020604051808303816000875af1158015611e9c573d6000803e3d6000fd5b505050506040513d601f19601f82011682018060405250810190611ec09190614337565b611eff576040517f08c379a0000000000000000000000000000000000000000000000000000000008152600401611ef690614d58565b60405180910390fd5b600560003373ffffffffffffffffffffffffffffffffffffffff1673ffffffffffffffffffffffffffffffffffffffff168152602001908152602001600020839080600181540180825580915050600190039060005260206000200160009091909190915055600460008360000160009054906101000a900473ffffffffffffffffffffffffffffffffffffffff1673ffffffffffffffffffffffffffffffffffffffff1673ffffffffffffffffffffffffffffffffffffffff16815260200190815260200160002083908060018154018082558091505060019003906000526020600020016000909190919091505560098390806001815401808255809150506001900390600052602060002001600090919091909150553373ffffffffffffffffffffffffffffffffffffffff16837f15feab5d3eb17171632762cf769709a315dd15f487a556c0dfb8a259c8f186cc60405160405180910390a38160000160009054906101000a900473ffffffffffffffffffffffffffffffffffffffff1673ffffffffffffffffffffffffffffffffffffffff16837f0ceeb4503a2fe0b51298a0af21358f3d89e7eab3f65ae2a7835859c3e2c5160484600201546040516120cb9190613b92565b60405180910390a350506120dd612fae565b50565b600080600080600080868152602001908152602001600020905060006001600087815260200190815260200160002090506000600260008881526020019081526020016000209050600083600201541161216f576040517f08c379a000000000000000000000000000000000000000000000000000000000815260040161216690614b13565b60405180910390fd5b826002015494508160010160009054906101000a900460ff161580156121a357508160010160019054906101000a900460ff165b156121cc578160020154858684600201546121be9190614878565b955095509550505050612274565b60008260010160009054906101000a900460ff161561224a576000826000015403612208578260000154426122019190614878565b905061221b565b8160000154426122189190614878565b90505b6000612230856002015486600401548461333f565b905080836001015461224291906148ac565b955050612252565b816001015494505b8260020154858761226391906148ac565b61226d9190614878565b9650505050505b9193909250565b600c60009054906101000a900473ffffffffffffffffffffffffffffffffffffffff1681565b600c60009054906101000a900473ffffffffffffffffffffffffffffffffffffffff1673ffffffffffffffffffffffffffffffffffffffff163373ffffffffffffffffffffffffffffffffffffffff1614612331576040517f08c379a000000000000000000000000000000000000000000000000000000000815260040161232890614067565b60405180910390fd5b60008211612374576040517f08c379a000000000000000000000000000000000000000000000000000000000815260040161236b90614dea565b60405180910390fd5b8181116123b6576040517f08c379a00000000000000000000000000000000000000000000000000000000081526004016123ad90614e7c565b60405180910390fd5b81601281905550806013819055505050565b600b60019054906101000a900473ffffffffffffffffffffffffffffffffffffffff1681565b60086020528060005260406000206000915090508060000160009054906101000a900473ffffffffffffffffffffffffffffffffffffffff16908060010154908060020160009054906101000a900460ff16905083565b61244d6134ad565b612455612f68565b60008060008481526020019081526020016000209050600060016000858152602001908152602001600020905060006002600086815260200190815260200160002090508160010160009054906101000a900460ff166124ea576040517f08c379a00000000000000000000000000000000000000000000000000000000081526004016124e19061441c565b60405180910390fd5b8260000160009054906101000a900473ffffffffffffffffffffffffffffffffffffffff1673ffffffffffffffffffffffffffffffffffffffff163373ffffffffffffffffffffffffffffffffffffffff161461257c576040517f08c379a0000000000000000000000000000000000000000000000000000000008152600401612573906147ec565b60405180910390fd5b612585856130b7565b600081600101549050600083600201548286600201546125a591906148ac565b6125af9190614878565b9050808611156125f4576040517f08c379a00000000000000000000000000000000000000000000000000000000081526004016125eb90614ee8565b60405180910390fd5b600b60019054906101000a900473ffffffffffffffffffffffffffffffffffffffff1673ffffffffffffffffffffffffffffffffffffffff166323b872dd338760010160009054906101000a900473ffffffffffffffffffffffffffffffffffffffff16896040518463ffffffff1660e01b8152600401612677939291906149b8565b6020604051808303816000875af1158015612696573d6000803e3d6000fd5b505050506040513d601f19601f820116820180604052508101906126ba9190614337565b6126f9576040517f08c379a00000000000000000000000000000000000000000000000000000000081526004016126f090614f54565b60405180910390fd5b8584600201600082825461270d91906148ac565b92505081905550808460020154106127635760018460010160016101000a81548160ff02191690831515021790555060008460010160006101000a81548160ff02191690831515021790555061276287613236565b5b3373ffffffffffffffffffffffffffffffffffffffff16877fb7b6ae626e0094aba4b69388b656d4b64f27860c5101c42c10a2e53fd6b0ce35886040516127aa9190613b92565b60405180910390a350505050506127bf612fae565b5050565b60016020528060005260406000206000915090508060000154908060010160009054906101000a900460ff16908060010160019054906101000a900460ff16908060010160029054906101000a900460ff16908060020154905085565b60026020528060005260406000206000915090508060000154908060010154905082565b60066020528060005260406000206000915090508060000154908060010154908060020154908060030154908060040160009054906101000a900460ff16905085565b600c60009054906101000a900473ffffffffffffffffffffffffffffffffffffffff1673ffffffffffffffffffffffffffffffffffffffff163373ffffffffffffffffffffffffffffffffffffffff1614612917576040517f08c379a000000000000000000000000000000000000000000000000000000000815260040161290e90614067565b60405180910390fd5b606481101561295b576040517f08c379a000000000000000000000000000000000000000000000000000000000815260040161295290614fc0565b60405180910390fd5b8060108190555050565b600f5481565b60125481565b6000600b60019054906101000a900473ffffffffffffffffffffffffffffffffffffffff1673ffffffffffffffffffffffffffffffffffffffff1663dd62ed3e33306040518363ffffffff1660e01b81526004016129d0929190614c77565b602060405180830381865afa1580156129ed573d6000803e3d6000fd5b505050506040513d601f19601f82011682018060405250810190612a119190614249565b905090565b60046020528160005260406000208181548110612a3257600080fd5b90600052602060002001600091509150505481565b60006020528060005260406000206000915090508060000160009054906101000a900473ffffffffffffffffffffffffffffffffffffffff16908060010160009054906101000a900473ffffffffffffffffffffffffffffffffffffffff16908060020154908060030154908060040154908060050160009054906101000a900460ff16908060060154905087565b612ade612f68565b6012548310158015612af257506013548311155b612b31576040517f08c379a0000000000000000000000000000000000000000000000000000000008152600401612b2890614c57565b60405180910390fd5b6000612b3b610d5f565b90506000612b6a82600f54600e60009054906101000a900460ff1660ff16886134ee909392919063ffffffff16565b905080341015612baf576040517f08c379a0000000000000000000000000000000000000000000000000000000008152600401612ba690615052565b60405180910390fd5b60116000815480929190612bc290614122565b9190505550600060066000601154815260200190815260200160002090508581600001819055508481600101819055508381600301819055508342612c0791906148ac565b816002018190555060008160040160006101000a81548160ff0219169083151502179055506040518060e001604052803373ffffffffffffffffffffffffffffffffffffffff168152602001600073ffffffffffffffffffffffffffffffffffffffff16815260200187815260200134815260200186815260200160006001811115612c9657612c95613ed1565b5b815260200185815250600080601154815260200190815260200160002060008201518160000160006101000a81548173ffffffffffffffffffffffffffffffffffffffff021916908373ffffffffffffffffffffffffffffffffffffffff16021790555060208201518160010160006101000a81548173ffffffffffffffffffffffffffffffffffffffff021916908373ffffffffffffffffffffffffffffffffffffffff16021790555060408201518160020155606082015181600301556080820151816004015560a08201518160050160006101000a81548160ff02191690836001811115612d8a57612d89613ed1565b5b021790555060c08201518160060155905050600460003373ffffffffffffffffffffffffffffffffffffffff1673ffffffffffffffffffffffffffffffffffffffff1681526020019081526020016000206011549080600181540180825580915050600190039060005260206000200160009091909190915055612e0f601154613534565b6011547fc8a2bcd3b42e3508cef71e30d8b859819aecaeeb4fdc70998269b264d4b4e3353388348989604051612e49959493929190615072565b60405180910390a281341115612f185760008234612e679190614878565b905060003373ffffffffffffffffffffffffffffffffffffffff1682604051612e8f906150f6565b60006040518083038185875af1925050503d8060008114612ecc576040519150601f19603f3d011682016040523d82523d6000602084013e612ed1565b606091505b5050905080612f15576040517f08c379a0000000000000000000000000000000000000000000000000000000008152600401612f0c90615157565b60405180910390fd5b50505b505050612f23612fae565b505050565b600080612f33610d5f565b9050612f6081600f54600e60009054906101000a900460ff1660ff16866134ee909392919063ffffffff16565b915050919050565b6002600a5403612fa4576040517f3ee5aeb500000000000000000000000000000000000000000000000000000000815260040160405180910390fd5b6002600a81905550565b6001600a81905550565b600080600083815260200190815260200160002090506000816003015490506000826003018190555060008260010160009054906101000a900473ffffffffffffffffffffffffffffffffffffffff1673ffffffffffffffffffffffffffffffffffffffff168260405161302b906150f6565b60006040518083038185875af1925050503d8060008114613068576040519150601f19603f3d011682016040523d82523d6000602084013e61306d565b606091505b50509050806130b1576040517f08c379a00000000000000000000000000000000000000000000000000000000081526004016130a8906151c3565b60405180910390fd5b50505050565b60008060008381526020019081526020016000209050600060026000848152602001908152602001600020905060006001600085815260200190815260200160002090508060010160009054906101000a900460ff1661314c576040517f08c379a00000000000000000000000000000000000000000000000000000000081526004016131439061441c565b60405180910390fd5b6000808360000154036131655783600601549050613178565b8260000154426131759190614878565b90505b600081116131bb576040517f08c379a00000000000000000000000000000000000000000000000000000000081526004016131b290615255565b60405180910390fd5b60006131d0856002015486600401548461333f565b9050808460010160008282546131e691906148ac565b92505081905550428460000181905550857f3d8708181c6452c5711a2b4c6ed3f12149f6ea35f78549aba00a89d041e766ca826040516132269190613b92565b60405180910390a2505050505050565b60008060008381526020019081526020016000209050600081600301549050600081111561333a576000826003018190555060008260000160009054906101000a900473ffffffffffffffffffffffffffffffffffffffff1673ffffffffffffffffffffffffffffffffffffffff16826040516132b2906150f6565b60006040518083038185875af1925050503d80600081146132ef576040519150601f19603f3d011682016040523d82523d6000602084013e6132f4565b606091505b5050905080613338576040517f08c379a000000000000000000000000000000000000000000000000000000000815260040161332f906152c1565b60405180910390fd5b505b505050565b6000808411613383576040517f08c379a000000000000000000000000000000000000000000000000000000000815260040161337a9061532d565b60405180910390fd5b600083116133c6576040517f08c379a00000000000000000000000000000000000000000000000000000000081526004016133bd906153bf565b60405180910390fd5b60008211613409576040517f08c379a000000000000000000000000000000000000000000000000000000000815260040161340090615451565b60405180910390fd5b600063bbf81e00670de0b6b3a7640000856134249190614692565b61342e9190614703565b905060008111613473576040517f08c379a000000000000000000000000000000000000000000000000000000000815260040161346a906154bd565b60405180910390fd5b6000670de0b6b3a764000084838861348b9190614692565b6134959190614692565b61349f9190614703565b905080925050509392505050565b6134b561119d565b156134ec576040517fd93c066500000000000000000000000000000000000000000000000000000000815260040160405180910390fd5b565b60006064846134fd9190614692565b82600a61350a91906154dd565b84876135169190614692565b6135209190614692565b61352a9190614703565b9050949350505050565b600060066000601154815260200190815260200160002090506000807fffffffffffffffffffffffffffffffffffffffffffffffffffffffffffffffff905060005b6009805490508110156136315760006009828154811061359957613598614199565b5b906000526020600020015490508460000154600760008373ffffffffffffffffffffffffffffffffffffffff1673ffffffffffffffffffffffffffffffffffffffff1681526020019081526020016000205410613623576000613600828760000154613678565b90508560010154811115801561361557508381105b15613621578194508093505b505b508080600101915050613576565b50600073ffffffffffffffffffffffffffffffffffffffff168273ffffffffffffffffffffffffffffffffffffffff161461367257613671848383613774565b5b50505050565b600080600760008573ffffffffffffffffffffffffffffffffffffffff1673ffffffffffffffffffffffffffffffffffffffff16815260200190815260200160002054905082811015613700576040517f08c379a00000000000000000000000000000000000000000000000000000000081526004016136f790615574565b60405180910390fd5b6000816064856137109190614692565b61371a9190614703565b90506000600290506000601490506000606483836137389190614878565b856137439190614692565b61374d9190614703565b8361375891906148ac565b905081811115613766578190505b809550505050505092915050565b60008060008581526020019081526020016000209050828160010160006101000a81548173ffffffffffffffffffffffffffffffffffffffff021916908373ffffffffffffffffffffffffffffffffffffffff16021790555081816004018190555060016006600086815260200190815260200160002060040160006101000a81548160ff0219169083151502179055508060000160009054906101000a900473ffffffffffffffffffffffffffffffffffffffff1673ffffffffffffffffffffffffffffffffffffffff168373ffffffffffffffffffffffffffffffffffffffff16857f132aeb8d030dcc11adfc3ead0730a22aa3c0bf449b3532210c732b9a25e83c2060405160405180910390a450505050565b60405180610120016040528060008152602001600073ffffffffffffffffffffffffffffffffffffffff16815260200160008152602001600081526020016000815260200160008152602001600081526020016000151581526020016000151581525090565b600060ff82169050919050565b613906816138f0565b82525050565b600060208201905061392160008301846138fd565b92915050565b600080fd5b6000819050919050565b61393f8161392c565b811461394a57600080fd5b50565b60008135905061395c81613936565b92915050565b60006020828403121561397857613977613927565b5b60006139868482850161394d565b91505092915050565b600081519050919050565b600082825260208201905092915050565b6000819050602082019050919050565b6139c48161392c565b82525050565b600073ffffffffffffffffffffffffffffffffffffffff82169050919050565b60006139f5826139ca565b9050919050565b613a05816139ea565b82525050565b60008115159050919050565b613a2081613a0b565b82525050565b61012082016000820151613a3d60008501826139bb565b506020820151613a5060208501826139fc565b506040820151613a6360408501826139bb565b506060820151613a7660608501826139bb565b506080820151613a8960808501826139bb565b5060a0820151613a9c60a08501826139bb565b5060c0820151613aaf60c08501826139bb565b5060e0820151613ac260e0850182613a17565b50610100820151613ad7610100850182613a17565b50505050565b6000613ae98383613a26565b6101208301905092915050565b6000602082019050919050565b6000613b0e8261398f565b613b18818561399a565b9350613b23836139ab565b8060005b83811015613b54578151613b3b8882613add565b9750613b4683613af6565b925050600181019050613b27565b5085935050505092915050565b60006020820190508181036000830152613b7b8184613b03565b905092915050565b613b8c8161392c565b82525050565b6000602082019050613ba76000830184613b83565b92915050565b613bb6816139ea565b8114613bc157600080fd5b50565b600081359050613bd381613bad565b92915050565b60008060408385031215613bf057613bef613927565b5b6000613bfe8582860161394d565b9250506020613c0f85828601613bc4565b9150509250929050565b600060208284031215613c2f57613c2e613927565b5b6000613c3d84828501613bc4565b91505092915050565b60008060408385031215613c5d57613c5c613927565b5b6000613c6b85828601613bc4565b9250506020613c7c8582860161394d565b9150509250929050565b613c8f81613a0b565b82525050565b6000602082019050613caa6000830184613c86565b92915050565b6000606082019050613cc56000830186613b83565b613cd26020830185613b83565b613cdf6040830184613b83565b949350505050565b613cf0816139ea565b82525050565b6000602082019050613d0b6000830184613ce7565b92915050565b60008060408385031215613d2857613d27613927565b5b6000613d368582860161394d565b9250506020613d478582860161394d565b9150509250929050565b6000819050919050565b6000613d76613d71613d6c846139ca565b613d51565b6139ca565b9050919050565b6000613d8882613d5b565b9050919050565b6000613d9a82613d7d565b9050919050565b613daa81613d8f565b82525050565b6000602082019050613dc56000830184613da1565b92915050565b6000606082019050613de06000830186613ce7565b613ded6020830185613b83565b613dfa6040830184613c86565b949350505050565b600060a082019050613e176000830188613b83565b613e246020830187613c86565b613e316040830186613c86565b613e3e6060830185613c86565b613e4b6080830184613b83565b9695505050505050565b6000604082019050613e6a6000830185613b83565b613e776020830184613b83565b9392505050565b600060a082019050613e936000830188613b83565b613ea06020830187613b83565b613ead6040830186613b83565b613eba6060830185613b83565b613ec76080830184613c86565b9695505050505050565b7f4e487b7100000000000000000000000000000000000000000000000000000000600052602160045260246000fd5b60028110613f1157613f10613ed1565b5b50565b6000819050613f2282613f00565b919050565b6000613f3282613f14565b9050919050565b613f4281613f27565b82525050565b600060e082019050613f5d600083018a613ce7565b613f6a6020830189613ce7565b613f776040830188613b83565b613f846060830187613b83565b613f916080830186613b83565b613f9e60a0830185613f39565b613fab60c0830184613b83565b98975050505050505050565b600080600060608486031215613fd057613fcf613927565b5b6000613fde8682870161394d565b9350506020613fef8682870161394d565b92505060406140008682870161394d565b9150509250925092565b600082825260208201905092915050565b7f4f6e6c79206f776e657200000000000000000000000000000000000000000000600082015250565b6000614051600a8361400a565b915061405c8261401b565b602082019050919050565b6000602082019050818103600083015261408081614044565b9050919050565b7f526174696f20746f6f206c6f7700000000000000000000000000000000000000600082015250565b60006140bd600d8361400a565b91506140c882614087565b602082019050919050565b600060208201905081810360008301526140ec816140b0565b9050919050565b7f4e487b7100000000000000000000000000000000000000000000000000000000600052601160045260246000fd5b600061412d8261392c565b91507fffffffffffffffffffffffffffffffffffffffffffffffffffffffffffffffff820361415f5761415e6140f3565b5b600182019050919050565b7f4e487b7100000000000000000000000000000000000000000000000000000000600052604160045260246000fd5b7f4e487b7100000000000000000000000000000000000000000000000000000000600052603260045260246000fd5b7f5072696365206e6f742073657400000000000000000000000000000000000000600082015250565b60006141fe600d8361400a565b9150614209826141c8565b602082019050919050565b6000602082019050818103600083015261422d816141f1565b9050919050565b60008151905061424381613936565b92915050565b60006020828403121561425f5761425e613927565b5b600061426d84828501614234565b91505092915050565b7f4e6f207265776172647320746f20776974686472617700000000000000000000600082015250565b60006142ac60168361400a565b91506142b782614276565b602082019050919050565b600060208201905081810360008301526142db8161429f565b9050919050565b60006040820190506142f76000830185613ce7565b6143046020830184613b83565b9392505050565b61431481613a0b565b811461431f57600080fd5b50565b6000815190506143318161430b565b92915050565b60006020828403121561434d5761434c613927565b5b600061435b84828501614322565b91505092915050565b7f526577617264207769746864726177616c206661696c65640000000000000000600082015250565b600061439a60188361400a565b91506143a582614364565b602082019050919050565b600060208201905081810360008301526143c98161438d565b9050919050565b7f4c6f616e206e6f74206163746976650000000000000000000000000000000000600082015250565b6000614406600f8361400a565b9150614411826143d0565b602082019050919050565b60006020820190508181036000830152614435816143f9565b9050919050565b7f4c6f616e206e6f74206f76657264756500000000000000000000000000000000600082015250565b600061447260108361400a565b915061447d8261443c565b602082019050919050565b600060208201905081810360008301526144a181614465565b9050919050565b7f4c6f616e20616c72656164792072657061696400000000000000000000000000600082015250565b60006144de60138361400a565b91506144e9826144a8565b602082019050919050565b6000602082019050818103600083015261450d816144d1565b9050919050565b60008160011c9050919050565b6000808291508390505b600185111561456b57808604811115614547576145466140f3565b5b60018516156145565780820291505b808102905061456485614514565b945061452b565b94509492505050565b6000826145845760019050614640565b816145925760009050614640565b81600181146145a857600281146145b2576145e1565b6001915050614640565b60ff8411156145c4576145c36140f3565b5b8360020a9150848211156145db576145da6140f3565b5b50614640565b5060208310610133831016604e8410600b84101617156146165782820a905083811115614611576146106140f3565b5b614640565b6146238484846001614521565b9250905081840481111561463a576146396140f3565b5b81810290505b9392505050565b60006146528261392c565b915061465d836138f0565b925061468a7fffffffffffffffffffffffffffffffffffffffffffffffffffffffffffffffff8484614574565b905092915050565b600061469d8261392c565b91506146a88361392c565b92508282026146b68161392c565b915082820484148315176146cd576146cc6140f3565b5b5092915050565b7f4e487b7100000000000000000000000000000000000000000000000000000000600052601260045260246000fd5b600061470e8261392c565b91506147198361392c565b925082614729576147286146d4565b5b828204905092915050565b7f436f6c6c61746572616c207374696c6c2073756666696369656e740000000000600082015250565b600061476a601b8361400a565b915061477582614734565b602082019050919050565b600060208201905081810360008301526147998161475d565b9050919050565b7f4e6f7420626f72726f7765720000000000000000000000000000000000000000600082015250565b60006147d6600c8361400a565b91506147e1826147a0565b602082019050919050565b60006020820190508181036000830152614805816147c9565b9050919050565b7f4e6f20696e746572657374206163637275656421000000000000000000000000600082015250565b600061484260148361400a565b915061484d8261480c565b602082019050919050565b6000602082019050818103600083015261487181614835565b9050919050565b60006148838261392c565b915061488e8361392c565b92508282039050818111156148a6576148a56140f3565b5b92915050565b60006148b78261392c565b91506148c28361392c565b92508282019050808211156148da576148d96140f3565b5b92915050565b7f496e746572657374206e6f742063616c63756c61746564000000000000000000600082015250565b600061491660178361400a565b9150614921826148e0565b602082019050919050565b6000602082019050818103600083015261494581614909565b9050919050565b7f4e6f207265776172642063616c63756c61746564000000000000000000000000600082015250565b600061498260148361400a565b915061498d8261494c565b602082019050919050565b600060208201905081810360008301526149b181614975565b9050919050565b60006060820190506149cd6000830186613ce7565b6149da6020830185613ce7565b6149e76040830184613b83565b949350505050565b7f5472616e73666572206661696c65640000000000000000000000000000000000600082015250565b6000614a25600f8361400a565b9150614a30826149ef565b602082019050919050565b60006020820190508181036000830152614a5481614a18565b9050919050565b7f5472616e7366657220746f206c656e646572206661696c656400000000000000600082015250565b6000614a9160198361400a565b9150614a9c82614a5b565b602082019050919050565b60006020820190508181036000830152614ac081614a84565b9050919050565b7f4c6f616e20646f6573206e6f7420657869737400000000000000000000000000600082015250565b6000614afd60138361400a565b9150614b0882614ac7565b602082019050919050565b60006020820190508181036000830152614b2c81614af0565b9050919050565b7f4c6f616e20616c72656164792061637469766500000000000000000000000000600082015250565b6000614b6960138361400a565b9150614b7482614b33565b602082019050919050565b60006020820190508181036000830152614b9881614b5c565b9050919050565b7f4c6f616e20616c72656164792066756e64656400000000000000000000000000600082015250565b6000614bd560138361400a565b9150614be082614b9f565b602082019050919050565b60006020820190508181036000830152614c0481614bc8565b9050919050565b7f496e76616c6964206c6f616e20616d6f756e7400000000000000000000000000600082015250565b6000614c4160138361400a565b9150614c4c82614c0b565b602082019050919050565b60006020820190508181036000830152614c7081614c34565b9050919050565b6000604082019050614c8c6000830185613ce7565b614c996020830184613ce7565b9392505050565b7f496e73756666696369656e7420616c6c6f77616e636500000000000000000000600082015250565b6000614cd660168361400a565b9150614ce182614ca0565b602082019050919050565b60006020820190508181036000830152614d0581614cc9565b9050919050565b7f4c6f616e2064697362757273656d656e74206661696c65640000000000000000600082015250565b6000614d4260188361400a565b9150614d4d82614d0c565b602082019050919050565b60006020820190508181036000830152614d7181614d35565b9050919050565b7f4d696e696d756d206c6f616e20616d6f756e74206d757374206265206772656160008201527f746572207468616e203000000000000000000000000000000000000000000000602082015250565b6000614dd4602a8361400a565b9150614ddf82614d78565b604082019050919050565b60006020820190508181036000830152614e0381614dc7565b9050919050565b7f4d6178696d756d206c6f616e20616d6f756e74206d757374206265206772656160008201527f746572207468616e206d696e696d756d206c6f616e20616d6f756e7400000000602082015250565b6000614e66603c8361400a565b9150614e7182614e0a565b604082019050919050565b60006020820190508181036000830152614e9581614e59565b9050919050565b7f52657061796d656e742065786365656473206f77656420616d6f756e74000000600082015250565b6000614ed2601d8361400a565b9150614edd82614e9c565b602082019050919050565b60006020820190508181036000830152614f0181614ec5565b9050919050565b7f5061727469616c2072657061796d656e74206661696c65640000000000000000600082015250565b6000614f3e60188361400a565b9150614f4982614f08565b602082019050919050565b60006020820190508181036000830152614f6d81614f31565b9050919050565b7f5468726573686f6c6420746f6f206c6f77000000000000000000000000000000600082015250565b6000614faa60118361400a565b9150614fb582614f74565b602082019050919050565b60006020820190508181036000830152614fd981614f9d565b9050919050565b7f496e73756666696369656e74206e617469766520746f6b656e20636f6c6c617460008201527f6572616c00000000000000000000000000000000000000000000000000000000602082015250565b600061503c60248361400a565b915061504782614fe0565b604082019050919050565b6000602082019050818103600083015261506b8161502f565b9050919050565b600060a0820190506150876000830188613ce7565b6150946020830187613b83565b6150a16040830186613b83565b6150ae6060830185613b83565b6150bb6080830184613b83565b9695505050505050565b600081905092915050565b50565b60006150e06000836150c5565b91506150eb826150d0565b600082019050919050565b6000615101826150d3565b9150819050919050565b7f526566756e64206661696c656400000000000000000000000000000000000000600082015250565b6000615141600d8361400a565b915061514c8261510b565b602082019050919050565b6000602082019050818103600083015261517081615134565b9050919050565b7f436f6c6c61746572616c207472616e73666572206661696c6564000000000000600082015250565b60006151ad601a8361400a565b91506151b882615177565b602082019050919050565b600060208201905081810360008301526151dc816151a0565b9050919050565b7f4e6f2074696d6520656c617073656420666f7220696e7465726573742061636360008201527f7275616c00000000000000000000000000000000000000000000000000000000602082015250565b600061523f60248361400a565b915061524a826151e3565b604082019050919050565b6000602082019050818103600083015261526e81615232565b9050919050565b7f436f6c6c61746572616c2072657475726e206661696c65640000000000000000600082015250565b60006152ab60188361400a565b91506152b682615275565b602082019050919050565b600060208201905081810360008301526152da8161529e565b9050919050565b7f5072696e636970616c206d7573742062652067726561746572207468616e2030600082015250565b600061531760208361400a565b9150615322826152e1565b602082019050919050565b600060208201905081810360008301526153468161530a565b9050919050565b7f416e6e75616c2072617465206d7573742062652067726561746572207468616e60008201527f2030000000000000000000000000000000000000000000000000000000000000602082015250565b60006153a960228361400a565b91506153b48261534d565b604082019050919050565b600060208201905081810360008301526153d88161539c565b9050919050565b7f54696d6520656c6170736564206d75737420626520677265617465722074686160008201527f6e20300000000000000000000000000000000000000000000000000000000000602082015250565b600061543b60238361400a565b9150615446826153df565b604082019050919050565b6000602082019050818103600083015261546a8161542e565b9050919050565b7f5261746520706572207365636f6e6420697320696e76616c6964000000000000600082015250565b60006154a7601a8361400a565b91506154b282615471565b602082019050919050565b600060208201905081810360008301526154d68161549a565b9050919050565b60006154e88261392c565b91506154f38361392c565b92506155207fffffffffffffffffffffffffffffffffffffffffffffffffffffffffffffffff8484614574565b905092915050565b7f496e73756666696369656e74206c656e6465722066756e647300000000000000600082015250565b600061555e60198361400a565b915061556982615528565b602082019050919050565b6000602082019050818103600083015261558d81615551565b905091905056fea2646970667358221220d67420d543542fab97bb2354e40b8e9008b99fcee9a7524abc5b8cbe2074384e64736f6c63430008180033",
  "linkReferences": {},
  "deployedLinkReferences": {}
}