{
  "_format": "hh-sol-artifact-1",
  "contractName": "MockUsdt",
  "sourceName": "contracts/MockUsdt.sol",
  "abi": [
    {
      "inputs": [],
      "stateMutability": "nonpayable",
      "type": "constructor"
    },
    {
      "inputs": [
        {
          "internalType": "address",
          "name": "spender",
          "type": "address"
        },
        {
          "internalType": "uint256",
          "name": "allowance",
          "type": "uint256"
        },
        {
          "internalType": "uint256",
          "name": "needed",
          "type": "uint256"
        }
      ],
      "name": "ERC20InsufficientAllowance",
      "type": "error"
    },
    {
      "inputs": [
        {
          "internalType": "address",
          "name": "sender",
          "type": "address"
        },
        {
          "internalType": "uint256",
          "name": "balance",
          "type": "uint256"
        },
        {
          "internalType": "uint256",
          "name": "needed",
          "type": "uint256"
        }
      ],
      "name": "ERC20InsufficientBalance",
      "type": "error"
    },
    {
      "inputs": [
        {
          "internalType": "address",
          "name": "approver",
          "type": "address"
        }
      ],
      "name": "ERC20InvalidApprover",
      "type": "error"
    },
    {
      "inputs": [
        {
          "internalType": "address",
          "name": "receiver",
          "type": "address"
        }
      ],
      "name": "ERC20InvalidReceiver",
      "type": "error"
    },
    {
      "inputs": [
        {
          "internalType": "address",
          "name": "sender",
          "type": "address"
        }
      ],
      "name": "ERC20InvalidSender",
      "type": "error"
    },
    {
      "inputs": [
        {
          "internalType": "address",
          "name": "spender",
          "type": "address"
        }
      ],
      "name": "ERC20InvalidSpender",
      "type": "error"
    },
    {
      "inputs": [
        {
          "internalType": "address",
          "name": "owner",
          "type": "address"
        }
      ],
      "name": "OwnableInvalidOwner",
      "type": "error"
    },
    {
      "inputs": [
        {
          "internalType": "address",
          "name": "account",
          "type": "address"
        }
      ],
      "name": "OwnableUnauthorizedAccount",
      "type": "error"
    },
    {
      "anonymous": false,
      "inputs": [
        {
          "indexed": true,
          "internalType": "address",
          "name": "owner",
          "type": "address"
        },
        {
          "indexed": true,
          "internalType": "address",
          "name": "spender",
          "type": "address"
        },
        {
          "indexed": false,
          "internalType": "uint256",
          "name": "value",
          "type": "uint256"
        }
      ],
      "name": "Approval",
      "type": "event"
    },
    {
      "anonymous": false,
      "inputs": [
        {
          "indexed": true,
          "internalType": "address",
          "name": "previousOwner",
          "type": "address"
        },
        {
          "indexed": true,
          "internalType": "address",
          "name": "newOwner",
          "type": "address"
        }
      ],
      "name": "OwnershipTransferred",
      "type": "event"
    },
    {
      "anonymous": false,
      "inputs": [
        {
          "indexed": true,
          "internalType": "address",
          "name": "from",
          "type": "address"
        },
        {
          "indexed": true,
          "internalType": "address",
          "name": "to",
          "type": "address"
        },
        {
          "indexed": false,
          "internalType": "uint256",
          "name": "value",
          "type": "uint256"
        }
      ],
      "name": "Transfer",
      "type": "event"
    },
    {
      "inputs": [
        {
          "internalType": "address",
          "name": "owner",
          "type": "address"
        },
        {
          "internalType": "address",
          "name": "spender",
          "type": "address"
        }
      ],
      "name": "allowance",
      "outputs": [
        {
          "internalType": "uint256",
          "name": "",
          "type": "uint256"
        }
      ],
      "stateMutability": "view",
      "type": "function"
    },
    {
      "inputs": [
        {
          "internalType": "address",
          "name": "spender",
          "type": "address"
        },
        {
          "internalType": "uint256",
          "name": "value",
          "type": "uint256"
        }
      ],
      "name": "approve",
      "outputs": [
        {
          "internalType": "bool",
          "name": "",
          "type": "bool"
        }
      ],
      "stateMutability": "nonpayable",
      "type": "function"
    },
    {
      "inputs": [
        {
          "internalType": "address",
          "name": "account",
          "type": "address"
        }
      ],
      "name": "balanceOf",
      "outputs": [
        {
          "internalType": "uint256",
          "name": "",
          "type": "uint256"
        }
      ],
      "stateMutability": "view",
      "type": "function"
    },
    {
      "inputs": [
        {
          "internalType": "uint256",
          "name": "value",
          "type": "uint256"
        }
      ],
      "name": "burn",
      "outputs": [],
      "stateMutability": "nonpayable",
      "type": "function"
    },
    {
      "inputs": [
        {
          "internalType": "address",
          "name": "account",
          "type": "address"
        },
        {
          "internalType": "uint256",
          "name": "value",
          "type": "uint256"
        }
      ],
      "name": "burnFrom",
      "outputs": [],
      "stateMutability": "nonpayable",
      "type": "function"
    },
    {
      "inputs": [],
      "name": "decimals",
      "outputs": [
        {
          "internalType": "uint8",
          "name": "",
          "type": "uint8"
        }
      ],
      "stateMutability": "view",
      "type": "function"
    },
    {
      "inputs": [],
      "name": "mint",
      "outputs": [],
      "stateMutability": "nonpayable",
      "type": "function"
    },
    {
      "inputs": [],
      "name": "name",
      "outputs": [
        {
          "internalType": "string",
          "name": "",
          "type": "string"
        }
      ],
      "stateMutability": "view",
      "type": "function"
    },
    {
      "inputs": [],
      "name": "owner",
      "outputs": [
        {
          "internalType": "address",
          "name": "",
          "type": "address"
        }
      ],
      "stateMutability": "view",
      "type": "function"
    },
    {
      "inputs": [],
      "name": "renounceOwnership",
      "outputs": [],
      "stateMutability": "nonpayable",
      "type": "function"
    },
    {
      "inputs": [],
      "name": "symbol",
      "outputs": [
        {
          "internalType": "string",
          "name": "",
          "type": "string"
        }
      ],
      "stateMutability": "view",
      "type": "function"
    },
    {
      "inputs": [],
      "name": "totalSupply",
      "outputs": [
        {
          "internalType": "uint256",
          "name": "",
          "type": "uint256"
        }
      ],
      "stateMutability": "view",
      "type": "function"
    },
    {
      "inputs": [
        {
          "internalType": "address",
          "name": "to",
          "type": "address"
        },
        {
          "internalType": "uint256",
          "name": "value",
          "type": "uint256"
        }
      ],
      "name": "transfer",
      "outputs": [
        {
          "internalType": "bool",
          "name": "",
          "type": "bool"
        }
      ],
      "stateMutability": "nonpayable",
      "type": "function"
    },
    {
      "inputs": [
        {
          "internalType": "address",
          "name": "from",
          "type": "address"
        },
        {
          "internalType": "address",
          "name": "to",
          "type": "address"
        },
        {
          "internalType": "uint256",
          "name": "value",
          "type": "uint256"
        }
      ],
      "name": "transferFrom",
      "outputs": [
        {
          "internalType": "bool",
          "name": "",
          "type": "bool"
        }
      ],
      "stateMutability": "nonpayable",
      "type": "function"
    },
    {
      "inputs": [
        {
          "internalType": "address",
          "name": "newOwner",
          "type": "address"
        }
      ],
      "name": "transferOwnership",
      "outputs": [],
      "stateMutability": "nonpayable",
      "type": "function"
    }
  ],
  "bytecode": "0x60806040523480156200001157600080fd5b50336040518060400160405280600981526020017f55736474546f6b656e00000000000000000000000000000000000000000000008152506040518060400160405280600581526020017f6d5553445400000000000000000000000000000000000000000000000000000081525081600390816200009091906200074c565b508060049081620000a291906200074c565b505050600073ffffffffffffffffffffffffffffffffffffffff168173ffffffffffffffffffffffffffffffffffffffff16036200011a5760006040517f1e4fbdf700000000000000000000000000000000000000000000000000000000815260040162000111919062000878565b60405180910390fd5b6200012b816200014f60201b60201c565b5062000149336a0845cb4bddaf0e28a000006200021560201b60201c565b6200096a565b6000600560009054906101000a900473ffffffffffffffffffffffffffffffffffffffff16905081600560006101000a81548173ffffffffffffffffffffffffffffffffffffffff021916908373ffffffffffffffffffffffffffffffffffffffff1602179055508173ffffffffffffffffffffffffffffffffffffffff168173ffffffffffffffffffffffffffffffffffffffff167f8be0079c531659141344cd1fd0a4f28419497f9722a3daafe3b4186f6b6457e060405160405180910390a35050565b600073ffffffffffffffffffffffffffffffffffffffff168273ffffffffffffffffffffffffffffffffffffffff16036200028a5760006040517fec442f0500000000000000000000000000000000000000000000000000000000815260040162000281919062000878565b60405180910390fd5b6200029e60008383620002a260201b60201c565b5050565b600073ffffffffffffffffffffffffffffffffffffffff168373ffffffffffffffffffffffffffffffffffffffff1603620002f8578060026000828254620002eb9190620008c4565b92505081905550620003ce565b60008060008573ffffffffffffffffffffffffffffffffffffffff1673ffffffffffffffffffffffffffffffffffffffff1681526020019081526020016000205490508181101562000387578381836040517fe450d38c0000000000000000000000000000000000000000000000000000000081526004016200037e9392919062000910565b60405180910390fd5b8181036000808673ffffffffffffffffffffffffffffffffffffffff1673ffffffffffffffffffffffffffffffffffffffff16815260200190815260200160002081905550505b600073ffffffffffffffffffffffffffffffffffffffff168273ffffffffffffffffffffffffffffffffffffffff160362000419578060026000828254039250508190555062000466565b806000808473ffffffffffffffffffffffffffffffffffffffff1673ffffffffffffffffffffffffffffffffffffffff168152602001908152602001600020600082825401925050819055505b8173ffffffffffffffffffffffffffffffffffffffff168373ffffffffffffffffffffffffffffffffffffffff167fddf252ad1be2c89b69c2b068fc378daa952ba7f163c4a11628f55a4df523b3ef83604051620004c591906200094d565b60405180910390a3505050565b600081519050919050565b7f4e487b7100000000000000000000000000000000000000000000000000000000600052604160045260246000fd5b7f4e487b7100000000000000000000000000000000000000000000000000000000600052602260045260246000fd5b600060028204905060018216806200055457607f821691505b6020821081036200056a57620005696200050c565b5b50919050565b60008190508160005260206000209050919050565b60006020601f8301049050919050565b600082821b905092915050565b600060088302620005d47fffffffffffffffffffffffffffffffffffffffffffffffffffffffffffffffff8262000595565b620005e0868362000595565b95508019841693508086168417925050509392505050565b6000819050919050565b6000819050919050565b60006200062d620006276200062184620005f8565b62000602565b620005f8565b9050919050565b6000819050919050565b62000649836200060c565b62000661620006588262000634565b848454620005a2565b825550505050565b600090565b6200067862000669565b620006858184846200063e565b505050565b5b81811015620006ad57620006a16000826200066e565b6001810190506200068b565b5050565b601f821115620006fc57620006c68162000570565b620006d18462000585565b81016020851015620006e1578190505b620006f9620006f08562000585565b8301826200068a565b50505b505050565b600082821c905092915050565b6000620007216000198460080262000701565b1980831691505092915050565b60006200073c83836200070e565b9150826002028217905092915050565b6200075782620004d2565b67ffffffffffffffff811115620007735762000772620004dd565b5b6200077f82546200053b565b6200078c828285620006b1565b600060209050601f831160018114620007c45760008415620007af578287015190505b620007bb85826200072e565b8655506200082b565b601f198416620007d48662000570565b60005b82811015620007fe57848901518255600182019150602085019450602081019050620007d7565b868310156200081e57848901516200081a601f8916826200070e565b8355505b6001600288020188555050505b505050505050565b600073ffffffffffffffffffffffffffffffffffffffff82169050919050565b6000620008608262000833565b9050919050565b620008728162000853565b82525050565b60006020820190506200088f600083018462000867565b92915050565b7f4e487b7100000000000000000000000000000000000000000000000000000000600052601160045260246000fd5b6000620008d182620005f8565b9150620008de83620005f8565b9250828201905080821115620008f957620008f862000895565b5b92915050565b6200090a81620005f8565b82525050565b600060608201905062000927600083018662000867565b620009366020830185620008ff565b620009456040830184620008ff565b949350505050565b6000602082019050620009646000830184620008ff565b92915050565b6112cb806200097a6000396000f3fe608060405234801561001057600080fd5b50600436106100f55760003560e01c806370a082311161009757806395d89b411161006657806395d89b411461024e578063a9059cbb1461026c578063dd62ed3e1461029c578063f2fde38b146102cc576100f5565b806370a08231146101da578063715018a61461020a57806379cc6790146102145780638da5cb5b14610230576100f5565b806318160ddd116100d357806318160ddd1461015257806323b872dd14610170578063313ce567146101a057806342966c68146101be576100f5565b806306fdde03146100fa578063095ea7b3146101185780631249c58b14610148575b600080fd5b6101026102e8565b60405161010f9190610ef2565b60405180910390f35b610132600480360381019061012d9190610fad565b61037a565b60405161013f9190611008565b60405180910390f35b61015061039d565b005b61015a6103b4565b6040516101679190611032565b60405180910390f35b61018a6004803603810190610185919061104d565b6103be565b6040516101979190611008565b60405180910390f35b6101a86103ed565b6040516101b591906110bc565b60405180910390f35b6101d860048036038101906101d391906110d7565b6103f6565b005b6101f460048036038101906101ef9190611104565b61040a565b6040516102019190611032565b60405180910390f35b610212610452565b005b61022e60048036038101906102299190610fad565b610466565b005b610238610486565b6040516102459190611140565b60405180910390f35b6102566104b0565b6040516102639190610ef2565b60405180910390f35b61028660048036038101906102819190610fad565b610542565b6040516102939190611008565b60405180910390f35b6102b660048036038101906102b1919061115b565b610565565b6040516102c39190611032565b60405180910390f35b6102e660048036038101906102e19190611104565b6105ec565b005b6060600380546102f7906111ca565b80601f0160208091040260200160405190810160405280929190818152602001828054610323906111ca565b80156103705780601f1061034557610100808354040283529160200191610370565b820191906000526020600020905b81548152906001019060200180831161035357829003601f168201915b5050505050905090565b600080610385610672565b905061039281858561067a565b600191505092915050565b6103b2336a0845cb4bddaf0e28a0000061068c565b565b6000600254905090565b6000806103c9610672565b90506103d685828561070e565b6103e18585856107a3565b60019150509392505050565b60006012905090565b610407610401610672565b82610897565b50565b60008060008373ffffffffffffffffffffffffffffffffffffffff1673ffffffffffffffffffffffffffffffffffffffff168152602001908152602001600020549050919050565b61045a610919565b61046460006109a0565b565b61047882610472610672565b8361070e565b6104828282610897565b5050565b6000600560009054906101000a900473ffffffffffffffffffffffffffffffffffffffff16905090565b6060600480546104bf906111ca565b80601f01602080910402602001604051908101604052809291908181526020018280546104eb906111ca565b80156105385780601f1061050d57610100808354040283529160200191610538565b820191906000526020600020905b81548152906001019060200180831161051b57829003601f168201915b5050505050905090565b60008061054d610672565b905061055a8185856107a3565b600191505092915050565b6000600160008473ffffffffffffffffffffffffffffffffffffffff1673ffffffffffffffffffffffffffffffffffffffff16815260200190815260200160002060008373ffffffffffffffffffffffffffffffffffffffff1673ffffffffffffffffffffffffffffffffffffffff16815260200190815260200160002054905092915050565b6105f4610919565b600073ffffffffffffffffffffffffffffffffffffffff168173ffffffffffffffffffffffffffffffffffffffff16036106665760006040517f1e4fbdf700000000000000000000000000000000000000000000000000000000815260040161065d9190611140565b60405180910390fd5b61066f816109a0565b50565b600033905090565b6106878383836001610a66565b505050565b600073ffffffffffffffffffffffffffffffffffffffff168273ffffffffffffffffffffffffffffffffffffffff16036106fe5760006040517fec442f050000000000000000000000000000000000000000000000000000000081526004016106f59190611140565b60405180910390fd5b61070a60008383610c3d565b5050565b600061071a8484610565565b90507fffffffffffffffffffffffffffffffffffffffffffffffffffffffffffffffff81101561079d578181101561078d578281836040517ffb8f41b2000000000000000000000000000000000000000000000000000000008152600401610784939291906111fb565b60405180910390fd5b61079c84848484036000610a66565b5b50505050565b600073ffffffffffffffffffffffffffffffffffffffff168373ffffffffffffffffffffffffffffffffffffffff16036108155760006040517f96c6fd1e00000000000000000000000000000000000000000000000000000000815260040161080c9190611140565b60405180910390fd5b600073ffffffffffffffffffffffffffffffffffffffff168273ffffffffffffffffffffffffffffffffffffffff16036108875760006040517fec442f0500000000000000000000000000000000000000000000000000000000815260040161087e9190611140565b60405180910390fd5b610892838383610c3d565b505050565b600073ffffffffffffffffffffffffffffffffffffffff168273ffffffffffffffffffffffffffffffffffffffff16036109095760006040517f96c6fd1e0000000000000000000000000000000000000000000000000000000081526004016109009190611140565b60405180910390fd5b61091582600083610c3d565b5050565b610921610672565b73ffffffffffffffffffffffffffffffffffffffff1661093f610486565b73ffffffffffffffffffffffffffffffffffffffff161461099e57610962610672565b6040517f118cdaa70000000000000000000000000000000000000000000000000000000081526004016109959190611140565b60405180910390fd5b565b6000600560009054906101000a900473ffffffffffffffffffffffffffffffffffffffff16905081600560006101000a81548173ffffffffffffffffffffffffffffffffffffffff021916908373ffffffffffffffffffffffffffffffffffffffff1602179055508173ffffffffffffffffffffffffffffffffffffffff168173ffffffffffffffffffffffffffffffffffffffff167f8be0079c531659141344cd1fd0a4f28419497f9722a3daafe3b4186f6b6457e060405160405180910390a35050565b600073ffffffffffffffffffffffffffffffffffffffff168473ffffffffffffffffffffffffffffffffffffffff1603610ad85760006040517fe602df05000000000000000000000000000000000000000000000000000000008152600401610acf9190611140565b60405180910390fd5b600073ffffffffffffffffffffffffffffffffffffffff168373ffffffffffffffffffffffffffffffffffffffff1603610b4a5760006040517f94280d62000000000000000000000000000000000000000000000000000000008152600401610b419190611140565b60405180910390fd5b81600160008673ffffffffffffffffffffffffffffffffffffffff1673ffffffffffffffffffffffffffffffffffffffff16815260200190815260200160002060008573ffffffffffffffffffffffffffffffffffffffff1673ffffffffffffffffffffffffffffffffffffffff168152602001908152602001600020819055508015610c37578273ffffffffffffffffffffffffffffffffffffffff168473ffffffffffffffffffffffffffffffffffffffff167f8c5be1e5ebec7d5bd14f71427d1e84f3dd0314c0f7b2291e5b200ac8c7c3b92584604051610c2e9190611032565b60405180910390a35b50505050565b600073ffffffffffffffffffffffffffffffffffffffff168373ffffffffffffffffffffffffffffffffffffffff1603610c8f578060026000828254610c839190611261565b92505081905550610d62565b60008060008573ffffffffffffffffffffffffffffffffffffffff1673ffffffffffffffffffffffffffffffffffffffff16815260200190815260200160002054905081811015610d1b578381836040517fe450d38c000000000000000000000000000000000000000000000000000000008152600401610d12939291906111fb565b60405180910390fd5b8181036000808673ffffffffffffffffffffffffffffffffffffffff1673ffffffffffffffffffffffffffffffffffffffff16815260200190815260200160002081905550505b600073ffffffffffffffffffffffffffffffffffffffff168273ffffffffffffffffffffffffffffffffffffffff1603610dab5780600260008282540392505081905550610df8565b806000808473ffffffffffffffffffffffffffffffffffffffff1673ffffffffffffffffffffffffffffffffffffffff168152602001908152602001600020600082825401925050819055505b8173ffffffffffffffffffffffffffffffffffffffff168373ffffffffffffffffffffffffffffffffffffffff167fddf252ad1be2c89b69c2b068fc378daa952ba7f163c4a11628f55a4df523b3ef83604051610e559190611032565b60405180910390a3505050565b600081519050919050565b600082825260208201905092915050565b60005b83811015610e9c578082015181840152602081019050610e81565b60008484015250505050565b6000601f19601f8301169050919050565b6000610ec482610e62565b610ece8185610e6d565b9350610ede818560208601610e7e565b610ee781610ea8565b840191505092915050565b60006020820190508181036000830152610f0c8184610eb9565b905092915050565b600080fd5b600073ffffffffffffffffffffffffffffffffffffffff82169050919050565b6000610f4482610f19565b9050919050565b610f5481610f39565b8114610f5f57600080fd5b50565b600081359050610f7181610f4b565b92915050565b6000819050919050565b610f8a81610f77565b8114610f9557600080fd5b50565b600081359050610fa781610f81565b92915050565b60008060408385031215610fc457610fc3610f14565b5b6000610fd285828601610f62565b9250506020610fe385828601610f98565b9150509250929050565b60008115159050919050565b61100281610fed565b82525050565b600060208201905061101d6000830184610ff9565b92915050565b61102c81610f77565b82525050565b60006020820190506110476000830184611023565b92915050565b60008060006060848603121561106657611065610f14565b5b600061107486828701610f62565b935050602061108586828701610f62565b925050604061109686828701610f98565b9150509250925092565b600060ff82169050919050565b6110b6816110a0565b82525050565b60006020820190506110d160008301846110ad565b92915050565b6000602082840312156110ed576110ec610f14565b5b60006110fb84828501610f98565b91505092915050565b60006020828403121561111a57611119610f14565b5b600061112884828501610f62565b91505092915050565b61113a81610f39565b82525050565b60006020820190506111556000830184611131565b92915050565b6000806040838503121561117257611171610f14565b5b600061118085828601610f62565b925050602061119185828601610f62565b9150509250929050565b7f4e487b7100000000000000000000000000000000000000000000000000000000600052602260045260246000fd5b600060028204905060018216806111e257607f821691505b6020821081036111f5576111f461119b565b5b50919050565b60006060820190506112106000830186611131565b61121d6020830185611023565b61122a6040830184611023565b949350505050565b7f4e487b7100000000000000000000000000000000000000000000000000000000600052601160045260246000fd5b600061126c82610f77565b915061127783610f77565b925082820190508082111561128f5761128e611232565b5b9291505056fea2646970667358221220152f1a58a8e674d0ddf7b5cbb5ea987e65995708e12cf2f677a49fea45fdecd564736f6c63430008180033",
  "linkReferences": {},
  "deployedLinkReferences": {}
}