{
  "contracts/LoanManager.sol": {
    "LoanManager": {
      "abi": [
        {
          "inputs": [
            {
              "internalType": "contract IERC20",
              "name": "_usdtToken",
              "type": "address"
            },
            {
              "internalType": "contract IERC20",
              "name": "_pttToken",
              "type": "address"
            },
            {
              "internalType": "uint256",
              "name": "_initialPttUsdtPrice",
              "type": "uint256"
            }
          ],
          "stateMutability": "nonpayable",
          "type": "constructor"
        },
        {
          "inputs": [],
          "name": "EnforcedPause",
          "type": "error"
        },
        {
          "inputs": [],
          "name": "ExpectedPause",
          "type": "error"
        },
        {
          "inputs": [],
          "name": "ReentrancyGuardReentrantCall",
          "type": "error"
        },
        {
          "anonymous": false,
          "inputs": [
            {
              "indexed": true,
              "internalType": "uint256",
              "name": "loanId",
              "type": "uint256"
            },
            {
              "indexed": true,
              "internalType": "address",
              "name": "lender",
              "type": "address"
            },
            {
              "indexed": true,
              "internalType": "address",
              "name": "borrower",
              "type": "address"
            }
          ],
          "name": "AutomaticMatch",
          "type": "event"
        },
        {
          "anonymous": false,
          "inputs": [
            {
              "indexed": true,
              "internalType": "address",
              "name": "token",
              "type": "address"
            },
            {
              "indexed": false,
              "internalType": "uint256",
              "name": "maxLTV",
              "type": "uint256"
            }
          ],
          "name": "CollateralAdded",
          "type": "event"
        },
        {
          "anonymous": false,
          "inputs": [
            {
              "indexed": true,
              "internalType": "uint256",
              "name": "loanId",
              "type": "uint256"
            },
            {
              "indexed": false,
              "internalType": "uint256",
              "name": "amount",
              "type": "uint256"
            }
          ],
          "name": "InterestAccrued",
          "type": "event"
        },
        {
          "anonymous": false,
          "inputs": [
            {
              "indexed": true,
              "internalType": "uint256",
              "name": "loanId",
              "type": "uint256"
            },
            {
              "indexed": true,
              "internalType": "address",
              "name": "borrower",
              "type": "address"
            },
            {
              "indexed": false,
              "internalType": "uint256",
              "name": "loanAmount",
              "type": "uint256"
            }
          ],
          "name": "LoanDisbursed",
          "type": "event"
        },
        {
          "anonymous": false,
          "inputs": [
            {
              "indexed": true,
              "internalType": "uint256",
              "name": "loanId",
              "type": "uint256"
            },
            {
              "indexed": true,
              "internalType": "address",
              "name": "lender",
              "type": "address"
            }
          ],
          "name": "LoanFunded",
          "type": "event"
        },
        {
          "anonymous": false,
          "inputs": [
            {
              "indexed": true,
              "internalType": "uint256",
              "name": "loanId",
              "type": "uint256"
            },
            {
              "indexed": true,
              "internalType": "address",
              "name": "liquidator",
              "type": "address"
            }
          ],
          "name": "LoanLiquidated",
          "type": "event"
        },
        {
          "anonymous": false,
          "inputs": [
            {
              "indexed": true,
              "internalType": "uint256",
              "name": "loanId",
              "type": "uint256"
            },
            {
              "indexed": true,
              "internalType": "address",
              "name": "lender",
              "type": "address"
            },
            {
              "indexed": false,
              "internalType": "uint256",
              "name": "loanAmount",
              "type": "uint256"
            }
          ],
          "name": "LoanLiquidated",
          "type": "event"
        },
        {
          "anonymous": false,
          "inputs": [
            {
              "indexed": true,
              "internalType": "uint256",
              "name": "loanId",
              "type": "uint256"
            },
            {
              "indexed": true,
              "internalType": "address",
              "name": "borrower",
              "type": "address"
            },
            {
              "indexed": false,
              "internalType": "uint256",
              "name": "amount",
              "type": "uint256"
            }
          ],
          "name": "LoanRepaid",
          "type": "event"
        },
        {
          "anonymous": false,
          "inputs": [
            {
              "indexed": true,
              "internalType": "uint256",
              "name": "loanId",
              "type": "uint256"
            },
            {
              "indexed": false,
              "internalType": "address",
              "name": "borrower",
              "type": "address"
            },
            {
              "indexed": false,
              "internalType": "uint256",
              "name": "amount",
              "type": "uint256"
            },
            {
              "indexed": false,
              "internalType": "uint256",
              "name": "collateral",
              "type": "uint256"
            },
            {
              "indexed": false,
              "internalType": "uint256",
              "name": "maxInterestRate",
              "type": "uint256"
            },
            {
              "indexed": false,
              "internalType": "uint256",
              "name": "duration",
              "type": "uint256"
            }
          ],
          "name": "LoanRequested",
          "type": "event"
        },
        {
          "anonymous": false,
          "inputs": [
            {
              "indexed": true,
              "internalType": "uint256",
              "name": "loanId",
              "type": "uint256"
            },
            {
              "indexed": true,
              "internalType": "address",
              "name": "borrower",
              "type": "address"
            },
            {
              "indexed": false,
              "internalType": "uint256",
              "name": "amount",
              "type": "uint256"
            }
          ],
          "name": "PartialRepayment",
          "type": "event"
        },
        {
          "anonymous": false,
          "inputs": [
            {
              "indexed": false,
              "internalType": "address",
              "name": "account",
              "type": "address"
            }
          ],
          "name": "Paused",
          "type": "event"
        },
        {
          "anonymous": false,
          "inputs": [
            {
              "indexed": false,
              "internalType": "uint256",
              "name": "newPrice",
              "type": "uint256"
            }
          ],
          "name": "PriceUpdated",
          "type": "event"
        },
        {
          "anonymous": false,
          "inputs": [
            {
              "indexed": true,
              "internalType": "uint256",
              "name": "loanId",
              "type": "uint256"
            },
            {
              "indexed": false,
              "internalType": "uint256",
              "name": "reward",
              "type": "uint256"
            }
          ],
          "name": "RewardCollected",
          "type": "event"
        },
        {
          "anonymous": false,
          "inputs": [
            {
              "indexed": false,
              "internalType": "address",
              "name": "owner",
              "type": "address"
            },
            {
              "indexed": false,
              "internalType": "uint256",
              "name": "contractBalance",
              "type": "uint256"
            }
          ],
          "name": "RewardsWithdrawn",
          "type": "event"
        },
        {
          "anonymous": false,
          "inputs": [
            {
              "indexed": false,
              "internalType": "address",
              "name": "account",
              "type": "address"
            }
          ],
          "name": "Unpaused",
          "type": "event"
        },
        {
          "inputs": [],
          "name": "allowanceCaller",
          "outputs": [
            {
              "internalType": "uint256",
              "name": "",
              "type": "uint256"
            }
          ],
          "stateMutability": "view",
          "type": "function"
        },
        {
          "inputs": [
            {
              "internalType": "address",
              "name": "",
              "type": "address"
            },
            {
              "internalType": "uint256",
              "name": "",
              "type": "uint256"
            }
          ],
          "name": "borrowerLoans",
          "outputs": [
            {
              "internalType": "uint256",
              "name": "",
              "type": "uint256"
            }
          ],
          "stateMutability": "view",
          "type": "function"
        },
        {
          "inputs": [],
          "name": "collateralizationRatio",
          "outputs": [
            {
              "internalType": "uint256",
              "name": "",
              "type": "uint256"
            }
          ],
          "stateMutability": "view",
          "type": "function"
        },
        {
          "inputs": [
            {
              "internalType": "uint256",
              "name": "loanId",
              "type": "uint256"
            }
          ],
          "name": "fundLoan",
          "outputs": [],
          "stateMutability": "nonpayable",
          "type": "function"
        },
        {
          "inputs": [],
          "name": "getAllLoanRequests",
          "outputs": [
            {
              "components": [
                {
                  "internalType": "uint256",
                  "name": "loanId",
                  "type": "uint256"
                },
                {
                  "internalType": "address",
                  "name": "borrower",
                  "type": "address"
                },
                {
                  "internalType": "uint256",
                  "name": "amount",
                  "type": "uint256"
                },
                {
                  "internalType": "uint256",
                  "name": "maxInterestRate",
                  "type": "uint256"
                },
                {
                  "internalType": "uint256",
                  "name": "dueDate",
                  "type": "uint256"
                },
                {
                  "internalType": "uint256",
                  "name": "duration",
                  "type": "uint256"
                },
                {
                  "internalType": "uint256",
                  "name": "collateralAmount",
                  "type": "uint256"
                },
                {
                  "internalType": "bool",
                  "name": "isActive",
                  "type": "bool"
                },
                {
                  "internalType": "bool",
                  "name": "hasRepaid",
                  "type": "bool"
                }
              ],
              "internalType": "struct LoanStorage.LoanRequestDetail[]",
              "name": "",
              "type": "tuple[]"
            }
          ],
          "stateMutability": "view",
          "type": "function"
        },
        {
          "inputs": [],
          "name": "getPTTPrice",
          "outputs": [
            {
              "internalType": "uint256",
              "name": "",
              "type": "uint256"
            }
          ],
          "stateMutability": "view",
          "type": "function"
        },
        {
          "inputs": [
            {
              "internalType": "uint256",
              "name": "loanAmount",
              "type": "uint256"
            }
          ],
          "name": "getRequiredCollateralAmount",
          "outputs": [
            {
              "internalType": "uint256",
              "name": "",
              "type": "uint256"
            }
          ],
          "stateMutability": "view",
          "type": "function"
        },
        {
          "inputs": [
            {
              "internalType": "uint256",
              "name": "loanId",
              "type": "uint256"
            }
          ],
          "name": "getTotalLoanPayment",
          "outputs": [
            {
              "internalType": "uint256",
              "name": "totalPayment",
              "type": "uint256"
            },
            {
              "internalType": "uint256",
              "name": "principal",
              "type": "uint256"
            },
            {
              "internalType": "uint256",
              "name": "interestAmount",
              "type": "uint256"
            }
          ],
          "stateMutability": "view",
          "type": "function"
        },
        {
          "inputs": [
            {
              "internalType": "address",
              "name": "",
              "type": "address"
            }
          ],
          "name": "lenderAvailableFunds",
          "outputs": [
            {
              "internalType": "uint256",
              "name": "",
              "type": "uint256"
            }
          ],
          "stateMutability": "view",
          "type": "function"
        },
        {
          "inputs": [
            {
              "internalType": "address",
              "name": "",
              "type": "address"
            },
            {
              "internalType": "uint256",
              "name": "",
              "type": "uint256"
            }
          ],
          "name": "lenderLoans",
          "outputs": [
            {
              "internalType": "uint256",
              "name": "",
              "type": "uint256"
            }
          ],
          "stateMutability": "view",
          "type": "function"
        },
        {
          "inputs": [
            {
              "internalType": "uint256",
              "name": "loanId",
              "type": "uint256"
            }
          ],
          "name": "liquidateOverdueLoan",
          "outputs": [],
          "stateMutability": "nonpayable",
          "type": "function"
        },
        {
          "inputs": [],
          "name": "liquidationThreshold",
          "outputs": [
            {
              "internalType": "uint256",
              "name": "",
              "type": "uint256"
            }
          ],
          "stateMutability": "view",
          "type": "function"
        },
        {
          "inputs": [],
          "name": "loanCounter",
          "outputs": [
            {
              "internalType": "uint256",
              "name": "",
              "type": "uint256"
            }
          ],
          "stateMutability": "view",
          "type": "function"
        },
        {
          "inputs": [
            {
              "internalType": "uint256",
              "name": "",
              "type": "uint256"
            }
          ],
          "name": "loanRequests",
          "outputs": [
            {
              "internalType": "uint256",
              "name": "amount",
              "type": "uint256"
            },
            {
              "internalType": "uint256",
              "name": "maxInterestRate",
              "type": "uint256"
            },
            {
              "internalType": "uint256",
              "name": "dueDate",
              "type": "uint256"
            },
            {
              "internalType": "uint256",
              "name": "duration",
              "type": "uint256"
            },
            {
              "internalType": "bool",
              "name": "matched",
              "type": "bool"
            }
          ],
          "stateMutability": "view",
          "type": "function"
        },
        {
          "inputs": [
            {
              "internalType": "uint256",
              "name": "",
              "type": "uint256"
            },
            {
              "internalType": "address",
              "name": "",
              "type": "address"
            }
          ],
          "name": "loansCollateral",
          "outputs": [
            {
              "internalType": "uint256",
              "name": "",
              "type": "uint256"
            }
          ],
          "stateMutability": "view",
          "type": "function"
        },
        {
          "inputs": [
            {
              "internalType": "uint256",
              "name": "",
              "type": "uint256"
            }
          ],
          "name": "loansCore",
          "outputs": [
            {
              "internalType": "address",
              "name": "borrower",
              "type": "address"
            },
            {
              "internalType": "address",
              "name": "lender",
              "type": "address"
            },
            {
              "internalType": "uint256",
              "name": "amount",
              "type": "uint256"
            },
            {
              "internalType": "uint256",
              "name": "collateral",
              "type": "uint256"
            },
            {
              "internalType": "uint256",
              "name": "interestRate",
              "type": "uint256"
            },
            {
              "internalType": "enum ILoanManager.InterestRateType",
              "name": "rateType",
              "type": "uint8"
            },
            {
              "internalType": "uint256",
              "name": "duration",
              "type": "uint256"
            }
          ],
          "stateMutability": "view",
          "type": "function"
        },
        {
          "inputs": [
            {
              "internalType": "uint256",
              "name": "",
              "type": "uint256"
            }
          ],
          "name": "loansInterest",
          "outputs": [
            {
              "internalType": "uint256",
              "name": "lastInterestAccrualTimestamp",
              "type": "uint256"
            },
            {
              "internalType": "uint256",
              "name": "accruedInterest",
              "type": "uint256"
            }
          ],
          "stateMutability": "view",
          "type": "function"
        },
        {
          "inputs": [
            {
              "internalType": "uint256",
              "name": "",
              "type": "uint256"
            }
          ],
          "name": "loansStatus",
          "outputs": [
            {
              "internalType": "uint256",
              "name": "startTime",
              "type": "uint256"
            },
            {
              "internalType": "bool",
              "name": "active",
              "type": "bool"
            },
            {
              "internalType": "bool",
              "name": "repaid",
              "type": "bool"
            },
            {
              "internalType": "bool",
              "name": "defaulted",
              "type": "bool"
            },
            {
              "internalType": "uint256",
              "name": "repaidAmount",
              "type": "uint256"
            }
          ],
          "stateMutability": "view",
          "type": "function"
        },
        {
          "inputs": [
            {
              "internalType": "uint256",
              "name": "loanId",
              "type": "uint256"
            },
            {
              "internalType": "uint256",
              "name": "amount",
              "type": "uint256"
            }
          ],
          "name": "makePartialRepayment",
          "outputs": [],
          "stateMutability": "nonpayable",
          "type": "function"
        },
        {
          "inputs": [],
          "name": "maxLoanAmount",
          "outputs": [
            {
              "internalType": "uint256",
              "name": "",
              "type": "uint256"
            }
          ],
          "stateMutability": "view",
          "type": "function"
        },
        {
          "inputs": [],
          "name": "minLoanAmount",
          "outputs": [
            {
              "internalType": "uint256",
              "name": "",
              "type": "uint256"
            }
          ],
          "stateMutability": "view",
          "type": "function"
        },
        {
          "inputs": [],
          "name": "owner",
          "outputs": [
            {
              "internalType": "address",
              "name": "",
              "type": "address"
            }
          ],
          "stateMutability": "view",
          "type": "function"
        },
        {
          "inputs": [],
          "name": "paused",
          "outputs": [
            {
              "internalType": "bool",
              "name": "",
              "type": "bool"
            }
          ],
          "stateMutability": "view",
          "type": "function"
        },
        {
          "inputs": [],
          "name": "priceDecimals",
          "outputs": [
            {
              "internalType": "uint8",
              "name": "",
              "type": "uint8"
            }
          ],
          "stateMutability": "view",
          "type": "function"
        },
        {
          "inputs": [],
          "name": "pttToken",
          "outputs": [
            {
              "internalType": "contract IERC20",
              "name": "",
              "type": "address"
            }
          ],
          "stateMutability": "view",
          "type": "function"
        },
        {
          "inputs": [],
          "name": "pttUsdtPrice",
          "outputs": [
            {
              "internalType": "uint256",
              "name": "",
              "type": "uint256"
            }
          ],
          "stateMutability": "view",
          "type": "function"
        },
        {
          "inputs": [
            {
              "internalType": "uint256",
              "name": "loanId",
              "type": "uint256"
            }
          ],
          "name": "repayLoanWithReward",
          "outputs": [],
          "stateMutability": "nonpayable",
          "type": "function"
        },
        {
          "inputs": [
            {
              "internalType": "uint256",
              "name": "amount",
              "type": "uint256"
            },
            {
              "internalType": "uint256",
              "name": "maxInterestRate",
              "type": "uint256"
            },
            {
              "internalType": "uint256",
              "name": "duration",
              "type": "uint256"
            }
          ],
          "name": "requestLoan",
          "outputs": [],
          "stateMutability": "nonpayable",
          "type": "function"
        },
        {
          "inputs": [
            {
              "internalType": "uint256",
              "name": "_minLoanAmount",
              "type": "uint256"
            },
            {
              "internalType": "uint256",
              "name": "_maxLoanAmount",
              "type": "uint256"
            }
          ],
          "name": "setLoanLimits",
          "outputs": [],
          "stateMutability": "nonpayable",
          "type": "function"
        },
        {
          "inputs": [
            {
              "internalType": "address",
              "name": "",
              "type": "address"
            }
          ],
          "name": "supportedCollaterals",
          "outputs": [
            {
              "internalType": "address",
              "name": "priceOracle",
              "type": "address"
            },
            {
              "internalType": "uint256",
              "name": "maxLTV",
              "type": "uint256"
            },
            {
              "internalType": "bool",
              "name": "isActive",
              "type": "bool"
            }
          ],
          "stateMutability": "view",
          "type": "function"
        },
        {
          "inputs": [
            {
              "internalType": "uint256",
              "name": "newRatio",
              "type": "uint256"
            }
          ],
          "name": "updateCollateralizationRatio",
          "outputs": [],
          "stateMutability": "nonpayable",
          "type": "function"
        },
        {
          "inputs": [
            {
              "internalType": "uint256",
              "name": "newThreshold",
              "type": "uint256"
            }
          ],
          "name": "updateLiquidationThreshold",
          "outputs": [],
          "stateMutability": "nonpayable",
          "type": "function"
        },
        {
          "inputs": [
            {
              "internalType": "uint256",
              "name": "_newPrice",
              "type": "uint256"
            }
          ],
          "name": "updatePttUsdtPrice",
          "outputs": [],
          "stateMutability": "nonpayable",
          "type": "function"
        },
        {
          "inputs": [],
          "name": "usdtToken",
          "outputs": [
            {
              "internalType": "contract IERC20",
              "name": "",
              "type": "address"
            }
          ],
          "stateMutability": "view",
          "type": "function"
        },
        {
          "inputs": [
            {
              "internalType": "address",
              "name": "_owner",
              "type": "address"
            }
          ],
          "name": "withdrawRewards",
          "outputs": [],
          "stateMutability": "nonpayable",
          "type": "function"
        }
      ],
      "evm": {
        "bytecode": {
          "linkReferences": {},
          "object": "60806040526012600f60006101000a81548160ff021916908360ff1602179055506078601055606e601155670de0b6b3a764000060135569152d02c7e14af68000006014553480156200005157600080fd5b50604051620054dc380380620054dc833981810160405281019062000077919062000226565b6001600a819055506000600b60006101000a81548160ff02191690831515021790555082600b60016101000a81548173ffffffffffffffffffffffffffffffffffffffff021916908373ffffffffffffffffffffffffffffffffffffffff16021790555081600c60006101000a81548173ffffffffffffffffffffffffffffffffffffffff021916908373ffffffffffffffffffffffffffffffffffffffff16021790555080600e8190555033600d60006101000a81548173ffffffffffffffffffffffffffffffffffffffff021916908373ffffffffffffffffffffffffffffffffffffffff16021790555050505062000282565b600080fd5b600073ffffffffffffffffffffffffffffffffffffffff82169050919050565b60006200019f8262000172565b9050919050565b6000620001b38262000192565b9050919050565b620001c581620001a6565b8114620001d157600080fd5b50565b600081519050620001e581620001ba565b92915050565b6000819050919050565b6200020081620001eb565b81146200020c57600080fd5b50565b6000815190506200022081620001f5565b92915050565b6000806000606084860312156200024257620002416200016d565b5b60006200025286828701620001d4565b93505060206200026586828701620001d4565b925050604062000278868287016200020f565b9150509250925092565b61524a80620002926000396000f3fe608060405234801561001057600080fd5b50600436106102115760003560e01c80638da5cb5b11610125578063d1b332f4116100ad578063e16ffcdc1161007c578063e16ffcdc14610625578063e3ed190214610643578063e91349d714610673578063edadbbfe146106a9578063f5ebab0c146106c557610211565b8063d1b332f414610599578063d3b5be1a146105cd578063dcaf9c44146105e9578063e06a91381461060757610211565b8063b29504e9116100f4578063b29504e9146104dc578063b4580a66146104f8578063b9ed46a31461052c578063bda932141461054a578063cc8266461461056857610211565b80638da5cb5b1461045257806397a146c014610470578063a98ad46c1461048c578063aaea7009146104aa57610211565b80633cdb72f1116101a857806361851d651161017757806361851d65146103ae57806372f94365146103ca5780637c6fe270146103e8578063846b909a146104045780638af703151461042057610211565b80633cdb72f1146103265780634031234c1461035657806342d86693146103745780635c975abb1461039057610211565b806317d960e0116101e457806317d960e01461028a578063197428bf146102ba5780631a28bd02146102ea57806334d9289e1461030857610211565b806301ba91c31461021657806305300b28146102325780630607ec70146102505780630c9babc31461026c575b600080fd5b610230600480360381019061022b919061375b565b6106f5565b005b61023a6107c6565b60405161024791906137a4565b60405180910390f35b61026a6004803603810190610265919061375b565b6107d9565b005b6102746108b7565b6040516102819190613991565b60405180910390f35b6102a4600480360381019061029f91906139df565b610cb9565b6040516102b19190613a2e565b60405180910390f35b6102d460048036038101906102cf9190613a49565b610cde565b6040516102e19190613a2e565b60405180910390f35b6102f2610cf6565b6040516102ff9190613a2e565b60405180910390f35b610310610cfc565b60405161031d9190613a2e565b60405180910390f35b610340600480360381019061033b9190613a76565b610d02565b60405161034d9190613a2e565b60405180910390f35b61035e610d33565b60405161036b9190613a2e565b60405180910390f35b61038e60048036038101906103899190613a49565b610d39565b005b610398610fd8565b6040516103a59190613ac5565b60405180910390f35b6103c860048036038101906103c3919061375b565b610fef565b005b6103d261129c565b6040516103df9190613a2e565b60405180910390f35b61040260048036038101906103fd919061375b565b6112a2565b005b61041e6004803603810190610419919061375b565b61181d565b005b61043a6004803603810190610435919061375b565b611e59565b60405161044993929190613ae0565b60405180910390f35b61045a611ff4565b6040516104679190613b26565b60405180910390f35b61048a60048036038101906104859190613b41565b61201a565b005b610494612141565b6040516104a19190613be0565b60405180910390f35b6104c460048036038101906104bf9190613a49565b612167565b6040516104d393929190613bfb565b60405180910390f35b6104f660048036038101906104f19190613b41565b6121be565b005b610512600480360381019061050d919061375b565b61253c565b604051610523959493929190613c32565b60405180910390f35b610534612599565b6040516105419190613be0565b60405180910390f35b6105526125bf565b60405161055f9190613a2e565b60405180910390f35b610582600480360381019061057d919061375b565b61260d565b604051610590929190613c85565b60405180910390f35b6105b360048036038101906105ae919061375b565b612631565b6040516105c4959493929190613cae565b60405180910390f35b6105e760048036038101906105e2919061375b565b612674565b005b6105f1612752565b6040516105fe9190613a2e565b60405180910390f35b61060f612758565b60405161061c9190613a2e565b60405180910390f35b61062d61275e565b60405161063a9190613a2e565b60405180910390f35b61065d60048036038101906106589190613a76565b612803565b60405161066a9190613a2e565b60405180910390f35b61068d6004803603810190610688919061375b565b612834565b6040516106a09796959493929190613d78565b60405180910390f35b6106c360048036038101906106be9190613de7565b6128c3565b005b6106df60048036038101906106da919061375b565b612cf4565b6040516106ec9190613a2e565b60405180910390f35b600d60009054906101000a900473ffffffffffffffffffffffffffffffffffffffff1673ffffffffffffffffffffffffffffffffffffffff163373ffffffffffffffffffffffffffffffffffffffff1614610785576040517f08c379a000000000000000000000000000000000000000000000000000000000815260040161077c90613e97565b60405180910390fd5b80600e819055507f66cbca4f3c64fecf1dcb9ce094abcf7f68c3450a1d4e3a8e917dd621edb4ebe0816040516107bb9190613a2e565b60405180910390a150565b600f60009054906101000a900460ff1681565b600d60009054906101000a900473ffffffffffffffffffffffffffffffffffffffff1673ffffffffffffffffffffffffffffffffffffffff163373ffffffffffffffffffffffffffffffffffffffff1614610869576040517f08c379a000000000000000000000000000000000000000000000000000000000815260040161086090613e97565b60405180910390fd5b60648110156108ad576040517f08c379a00000000000000000000000000000000000000000000000000000000081526004016108a490613f03565b60405180910390fd5b8060108190555050565b6060600080600190505b601254811161095f576000600660008381526020019081526020016000206040518060a0016040529081600082015481526020016001820154815260200160028201548152602001600382015481526020016004820160009054906101000a900460ff161515151581525050905060008160000151111561094b57828061094790613f52565b9350505b50808061095790613f52565b9150506108c1565b5060008167ffffffffffffffff81111561097c5761097b613f9a565b5b6040519080825280602002602001820160405280156109b557816020015b6109a26136ba565b81526020019060019003908161099a5790505b509050600080600190505b6012548111610caf576000600660008381526020019081526020016000206040518060a0016040529081600082015481526020016001820154815260200160028201548152602001600382015481526020016004820160009054906101000a900460ff16151515158152505090506000600160008481526020019081526020016000206040518060a0016040529081600082015481526020016001820160009054906101000a900460ff161515151581526020016001820160019054906101000a900460ff161515151581526020016001820160029054906101000a900460ff16151515158152602001600282015481525050905060008060008581526020019081526020016000206040518060e00160405290816000820160009054906101000a900473ffffffffffffffffffffffffffffffffffffffff1673ffffffffffffffffffffffffffffffffffffffff1673ffffffffffffffffffffffffffffffffffffffff1681526020016001820160009054906101000a900473ffffffffffffffffffffffffffffffffffffffff1673ffffffffffffffffffffffffffffffffffffffff1673ffffffffffffffffffffffffffffffffffffffff1681526020016002820154815260200160038201548152602001600482015481526020016005820160009054906101000a900460ff166001811115610bc357610bc2613d01565b5b6001811115610bd557610bd4613d01565b5b81526020016006820154815250509050600083600001511115610c9957604051806101200160405280858152602001826000015173ffffffffffffffffffffffffffffffffffffffff168152602001846000015181526020018460200151815260200184604001518152602001846060015181526020018260600151815260200183602001511515815260200183604001511515815250868681518110610c7f57610c7e613fc9565b5b60200260200101819052508480610c9590613f52565b9550505b5050508080610ca790613f52565b9150506109c0565b5081935050505090565b6003602052816000526040600020602052806000526040600020600091509150505481565b60076020528060005260406000206000915090505481565b600e5481565b60125481565b60056020528160005260406000208181548110610d1e57600080fd5b90600052602060002001600091509150505481565b60115481565b600d60009054906101000a900473ffffffffffffffffffffffffffffffffffffffff1673ffffffffffffffffffffffffffffffffffffffff163373ffffffffffffffffffffffffffffffffffffffff1614610dc9576040517f08c379a0000000000000000000000000000000000000000000000000000000008152600401610dc090613e97565b60405180910390fd5b610dd1612d34565b6000600b60019054906101000a900473ffffffffffffffffffffffffffffffffffffffff1673ffffffffffffffffffffffffffffffffffffffff166370a08231306040518263ffffffff1660e01b8152600401610e2e9190613b26565b602060405180830381865afa158015610e4b573d6000803e3d6000fd5b505050506040513d601f19601f82011682018060405250810190610e6f919061400d565b905060008111610eb4576040517f08c379a0000000000000000000000000000000000000000000000000000000008152600401610eab90614086565b60405180910390fd5b600b60019054906101000a900473ffffffffffffffffffffffffffffffffffffffff1673ffffffffffffffffffffffffffffffffffffffff1663a9059cbb83836040518363ffffffff1660e01b8152600401610f119291906140a6565b6020604051808303816000875af1158015610f30573d6000803e3d6000fd5b505050506040513d601f19601f82011682018060405250810190610f5491906140fb565b610f93576040517f08c379a0000000000000000000000000000000000000000000000000000000008152600401610f8a90614174565b60405180910390fd5b7f8a43c4352486ec339f487f64af78ca5cbf06cd47833f073d3baf3a193e5031618282604051610fc49291906140a6565b60405180910390a150610fd5612d7a565b50565b6000600b60009054906101000a900460ff16905090565b610ff7612d84565b610fff612d34565b60008060008381526020019081526020016000209050600060016000848152602001908152602001600020905060006006600085815260200190815260200160002090508160010160009054906101000a900460ff16611094576040517f08c379a000000000000000000000000000000000000000000000000000000000815260040161108b906141e0565b60405180910390fd5b806002015442116110da576040517f08c379a00000000000000000000000000000000000000000000000000000000081526004016110d19061424c565b60405180910390fd5b8160010160019054906101000a900460ff161561112c576040517f08c379a0000000000000000000000000000000000000000000000000000000008152600401611123906142b8565b60405180910390fd5b600061113785611e59565b505090506000600f60009054906101000a900460ff16600a611159919061440b565b600e54866003015461116b9190614456565b61117591906144c7565b90506064601154826111879190614456565b61119191906144c7565b82116111d2576040517f08c379a00000000000000000000000000000000000000000000000000000000081526004016111c990614544565b60405180910390fd5b6111db86612dc5565b60008460010160006101000a81548160ff02191690831515021790555060018460010160026101000a81548160ff0219169083151502179055508460010160009054906101000a900473ffffffffffffffffffffffffffffffffffffffff1673ffffffffffffffffffffffffffffffffffffffff16867f0256bdf47e9aff5784070d6cab332d79f81fc6b8c8ed875565982a423a389e3a87600301546040516112849190613a2e565b60405180910390a35050505050611299612d7a565b50565b60145481565b6112aa612d84565b6112b2612d34565b60008060008381526020019081526020016000209050600060016000848152602001908152602001600020905060006002600085815260200190815260200160002090508160010160009054906101000a900460ff16611347576040517f08c379a000000000000000000000000000000000000000000000000000000000815260040161133e906141e0565b60405180910390fd5b8260000160009054906101000a900473ffffffffffffffffffffffffffffffffffffffff1673ffffffffffffffffffffffffffffffffffffffff163373ffffffffffffffffffffffffffffffffffffffff16146113d9576040517f08c379a00000000000000000000000000000000000000000000000000000000081526004016113d0906145b0565b60405180910390fd5b6113e284612ef6565b6000816001015490506000811161142e576040517f08c379a00000000000000000000000000000000000000000000000000000000081526004016114259061461c565b60405180910390fd5b6000606460148361143f9190614456565b61144991906144c7565b905060008183611459919061463c565b90504284600001819055506000856002015484886002015461147b9190614670565b611485919061463c565b9050866002015481116114cd576040517f08c379a00000000000000000000000000000000000000000000000000000000081526004016114c4906146f0565b60405180910390fd5b60008311611510576040517f08c379a00000000000000000000000000000000000000000000000000000000081526004016115079061475c565b60405180910390fd5b600b60019054906101000a900473ffffffffffffffffffffffffffffffffffffffff1673ffffffffffffffffffffffffffffffffffffffff166323b872dd3330846040518463ffffffff1660e01b815260040161156f9392919061477c565b6020604051808303816000875af115801561158e573d6000803e3d6000fd5b505050506040513d601f19601f820116820180604052508101906115b291906140fb565b6115f1576040517f08c379a00000000000000000000000000000000000000000000000000000000081526004016115e8906147ff565b60405180910390fd5b60008288600201546116039190614670565b9050600b60019054906101000a900473ffffffffffffffffffffffffffffffffffffffff1673ffffffffffffffffffffffffffffffffffffffff1663a9059cbb8960010160009054906101000a900473ffffffffffffffffffffffffffffffffffffffff16836040518363ffffffff1660e01b81526004016116869291906140a6565b6020604051808303816000875af11580156116a5573d6000803e3d6000fd5b505050506040513d601f19601f820116820180604052508101906116c991906140fb565b611708576040517f08c379a00000000000000000000000000000000000000000000000000000000081526004016116ff9061486b565b60405180910390fd5b8187600201600082825461171c9190614670565b9250508190555060008760010160006101000a81548160ff02191690831515021790555060018760010160016101000a81548160ff02191690831515021790555060008760010160026101000a81548160ff02191690831515021790555061178389613075565b3373ffffffffffffffffffffffffffffffffffffffff16897f512d3e65b3e58c2187bb1872aa435dba5bd09c1c03823ba56ab70aac411e4a21846040516117ca9190613a2e565b60405180910390a3887f04e1ead5246a36f9da4a7f8ba0922ebab097b2349377e0b60b228a5e9d8ee587856040516118029190613a2e565b60405180910390a2505050505050505061181a612d7a565b50565b611825612d84565b61182d612d34565b6000806000838152602001908152602001600020905060006001600084815260200190815260200160002090508060010160009054906101000a900460ff16156118ac576040517f08c379a00000000000000000000000000000000000000000000000000000000081526004016118a3906148d7565b60405180910390fd5b600073ffffffffffffffffffffffffffffffffffffffff168260010160009054906101000a900473ffffffffffffffffffffffffffffffffffffffff1673ffffffffffffffffffffffffffffffffffffffff161461193f576040517f08c379a000000000000000000000000000000000000000000000000000000000815260040161193690614943565b60405180910390fd5b8160020154600b60019054906101000a900473ffffffffffffffffffffffffffffffffffffffff1673ffffffffffffffffffffffffffffffffffffffff1663dd62ed3e33306040518363ffffffff1660e01b81526004016119a1929190614963565b602060405180830381865afa1580156119be573d6000803e3d6000fd5b505050506040513d601f19601f820116820180604052508101906119e2919061400d565b1015611a23576040517f08c379a0000000000000000000000000000000000000000000000000000000008152600401611a1a906149d8565b60405180910390fd5b600b60019054906101000a900473ffffffffffffffffffffffffffffffffffffffff1673ffffffffffffffffffffffffffffffffffffffff166323b872dd333085600201546040518463ffffffff1660e01b8152600401611a869392919061477c565b6020604051808303816000875af1158015611aa5573d6000803e3d6000fd5b505050506040513d601f19601f82011682018060405250810190611ac991906140fb565b611b08576040517f08c379a0000000000000000000000000000000000000000000000000000000008152600401611aff906147ff565b60405180910390fd5b338260010160006101000a81548173ffffffffffffffffffffffffffffffffffffffff021916908373ffffffffffffffffffffffffffffffffffffffff16021790555042816000018190555060018160010160006101000a81548160ff021916908315150217905550600b60019054906101000a900473ffffffffffffffffffffffffffffffffffffffff1673ffffffffffffffffffffffffffffffffffffffff1663a9059cbb8360000160009054906101000a900473ffffffffffffffffffffffffffffffffffffffff1684600201546040518363ffffffff1660e01b8152600401611bf69291906140a6565b6020604051808303816000875af1158015611c15573d6000803e3d6000fd5b505050506040513d601f19601f82011682018060405250810190611c3991906140fb565b611c78576040517f08c379a0000000000000000000000000000000000000000000000000000000008152600401611c6f90614a44565b60405180910390fd5b600560003373ffffffffffffffffffffffffffffffffffffffff1673ffffffffffffffffffffffffffffffffffffffff168152602001908152602001600020839080600181540180825580915050600190039060005260206000200160009091909190915055600460008360000160009054906101000a900473ffffffffffffffffffffffffffffffffffffffff1673ffffffffffffffffffffffffffffffffffffffff1673ffffffffffffffffffffffffffffffffffffffff16815260200190815260200160002083908060018154018082558091505060019003906000526020600020016000909190919091505560098390806001815401808255809150506001900390600052602060002001600090919091909150553373ffffffffffffffffffffffffffffffffffffffff16837f15feab5d3eb17171632762cf769709a315dd15f487a556c0dfb8a259c8f186cc60405160405180910390a38160000160009054906101000a900473ffffffffffffffffffffffffffffffffffffffff1673ffffffffffffffffffffffffffffffffffffffff16837f0ceeb4503a2fe0b51298a0af21358f3d89e7eab3f65ae2a7835859c3e2c516048460020154604051611e449190613a2e565b60405180910390a35050611e56612d7a565b50565b6000806000806000808681526020019081526020016000209050600060016000878152602001908152602001600020905060006002600088815260200190815260200160002090506000836002015411611ee8576040517f08c379a0000000000000000000000000000000000000000000000000000000008152600401611edf90614ab0565b60405180910390fd5b826002015494508160010160009054906101000a900460ff16158015611f1c57508160010160019054906101000a900460ff165b15611f4557816002015485868460020154611f37919061463c565b955095509550505050611fed565b60008260010160009054906101000a900460ff1615611fc3576000826000015403611f8157826000015442611f7a919061463c565b9050611f94565b816000015442611f91919061463c565b90505b6000611fa985600201548660040154846131b0565b9050808360010154611fbb9190614670565b955050611fcb565b816001015494505b82600201548587611fdc9190614670565b611fe6919061463c565b9650505050505b9193909250565b600d60009054906101000a900473ffffffffffffffffffffffffffffffffffffffff1681565b600d60009054906101000a900473ffffffffffffffffffffffffffffffffffffffff1673ffffffffffffffffffffffffffffffffffffffff163373ffffffffffffffffffffffffffffffffffffffff16146120aa576040517f08c379a00000000000000000000000000000000000000000000000000000000081526004016120a190613e97565b60405180910390fd5b600082116120ed576040517f08c379a00000000000000000000000000000000000000000000000000000000081526004016120e490614b42565b60405180910390fd5b81811161212f576040517f08c379a000000000000000000000000000000000000000000000000000000000815260040161212690614bd4565b60405180910390fd5b81601381905550806014819055505050565b600b60019054906101000a900473ffffffffffffffffffffffffffffffffffffffff1681565b60086020528060005260406000206000915090508060000160009054906101000a900473ffffffffffffffffffffffffffffffffffffffff16908060010154908060020160009054906101000a900460ff16905083565b6121c6612d84565b6121ce612d34565b60008060008481526020019081526020016000209050600060016000858152602001908152602001600020905060006002600086815260200190815260200160002090508160010160009054906101000a900460ff16612263576040517f08c379a000000000000000000000000000000000000000000000000000000000815260040161225a906141e0565b60405180910390fd5b8260000160009054906101000a900473ffffffffffffffffffffffffffffffffffffffff1673ffffffffffffffffffffffffffffffffffffffff163373ffffffffffffffffffffffffffffffffffffffff16146122f5576040517f08c379a00000000000000000000000000000000000000000000000000000000081526004016122ec906145b0565b60405180910390fd5b6122fe85612ef6565b6000816001015490506000836002015482866002015461231e9190614670565b612328919061463c565b90508086111561236d576040517f08c379a000000000000000000000000000000000000000000000000000000000815260040161236490614c40565b60405180910390fd5b600b60019054906101000a900473ffffffffffffffffffffffffffffffffffffffff1673ffffffffffffffffffffffffffffffffffffffff166323b872dd338760010160009054906101000a900473ffffffffffffffffffffffffffffffffffffffff16896040518463ffffffff1660e01b81526004016123f09392919061477c565b6020604051808303816000875af115801561240f573d6000803e3d6000fd5b505050506040513d601f19601f8201168201806040525081019061243391906140fb565b612472576040517f08c379a000000000000000000000000000000000000000000000000000000000815260040161246990614cac565b60405180910390fd5b858460020160008282546124869190614670565b92505081905550808460020154106124dc5760018460010160016101000a81548160ff02191690831515021790555060008460010160006101000a81548160ff0219169083151502179055506124db87613075565b5b3373ffffffffffffffffffffffffffffffffffffffff16877fb7b6ae626e0094aba4b69388b656d4b64f27860c5101c42c10a2e53fd6b0ce35886040516125239190613a2e565b60405180910390a35050505050612538612d7a565b5050565b60016020528060005260406000206000915090508060000154908060010160009054906101000a900460ff16908060010160019054906101000a900460ff16908060010160029054906101000a900460ff16908060020154905085565b600c60009054906101000a900473ffffffffffffffffffffffffffffffffffffffff1681565b600080600e5411612605576040517f08c379a00000000000000000000000000000000000000000000000000000000081526004016125fc90614d18565b60405180910390fd5b600e54905090565b60026020528060005260406000206000915090508060000154908060010154905082565b60066020528060005260406000206000915090508060000154908060010154908060020154908060030154908060040160009054906101000a900460ff16905085565b600d60009054906101000a900473ffffffffffffffffffffffffffffffffffffffff1673ffffffffffffffffffffffffffffffffffffffff163373ffffffffffffffffffffffffffffffffffffffff1614612704576040517f08c379a00000000000000000000000000000000000000000000000000000000081526004016126fb90613e97565b60405180910390fd5b6064811015612748576040517f08c379a000000000000000000000000000000000000000000000000000000000815260040161273f90614d84565b60405180910390fd5b8060118190555050565b60105481565b60135481565b6000600b60019054906101000a900473ffffffffffffffffffffffffffffffffffffffff1673ffffffffffffffffffffffffffffffffffffffff1663dd62ed3e33306040518363ffffffff1660e01b81526004016127bd929190614963565b602060405180830381865afa1580156127da573d6000803e3d6000fd5b505050506040513d601f19601f820116820180604052508101906127fe919061400d565b905090565b6004602052816000526040600020818154811061281f57600080fd5b90600052602060002001600091509150505481565b60006020528060005260406000206000915090508060000160009054906101000a900473ffffffffffffffffffffffffffffffffffffffff16908060010160009054906101000a900473ffffffffffffffffffffffffffffffffffffffff16908060020154908060030154908060040154908060050160009054906101000a900460ff16908060060154905087565b6128cb612d84565b6128d3612d34565b60135483101580156128e757506014548311155b612926576040517f08c379a000000000000000000000000000000000000000000000000000000000815260040161291d90614df0565b60405180910390fd5b60006129306125bf565b9050600061295f82601054600f60009054906101000a900460ff1660ff168861331e909392919063ffffffff16565b9050600c60009054906101000a900473ffffffffffffffffffffffffffffffffffffffff1673ffffffffffffffffffffffffffffffffffffffff166323b872dd3330846040518463ffffffff1660e01b81526004016129c09392919061477c565b6020604051808303816000875af11580156129df573d6000803e3d6000fd5b505050506040513d601f19601f82011682018060405250810190612a0391906140fb565b612a42576040517f08c379a0000000000000000000000000000000000000000000000000000000008152600401612a3990614e5c565b60405180910390fd5b60126000815480929190612a5590613f52565b9190505550600060066000601254815260200190815260200160002090508581600001819055508481600101819055508381600301819055508342612a9a9190614670565b816002018190555060008160040160006101000a81548160ff0219169083151502179055506040518060e001604052803373ffffffffffffffffffffffffffffffffffffffff168152602001600073ffffffffffffffffffffffffffffffffffffffff16815260200187815260200183815260200186815260200160006001811115612b2957612b28613d01565b5b815260200185815250600080601254815260200190815260200160002060008201518160000160006101000a81548173ffffffffffffffffffffffffffffffffffffffff021916908373ffffffffffffffffffffffffffffffffffffffff16021790555060208201518160010160006101000a81548173ffffffffffffffffffffffffffffffffffffffff021916908373ffffffffffffffffffffffffffffffffffffffff16021790555060408201518160020155606082015181600301556080820151816004015560a08201518160050160006101000a81548160ff02191690836001811115612c1d57612c1c613d01565b5b021790555060c08201518160060155905050600460003373ffffffffffffffffffffffffffffffffffffffff1673ffffffffffffffffffffffffffffffffffffffff1681526020019081526020016000206012549080600181540180825580915050600190039060005260206000200160009091909190915055612ca2601254613364565b6012547fc8a2bcd3b42e3508cef71e30d8b859819aecaeeb4fdc70998269b264d4b4e3353388858989604051612cdc959493929190614e7c565b60405180910390a2505050612cef612d7a565b505050565b600080612cff6125bf565b9050612d2c81601054600f60009054906101000a900460ff1660ff168661331e909392919063ffffffff16565b915050919050565b6002600a5403612d70576040517f3ee5aeb500000000000000000000000000000000000000000000000000000000815260040160405180910390fd5b6002600a81905550565b6001600a81905550565b612d8c610fd8565b15612dc3576040517fd93c066500000000000000000000000000000000000000000000000000000000815260040160405180910390fd5b565b6000806000838152602001908152602001600020905060008160030154905060008260030181905550600c60009054906101000a900473ffffffffffffffffffffffffffffffffffffffff1673ffffffffffffffffffffffffffffffffffffffff1663a9059cbb8360010160009054906101000a900473ffffffffffffffffffffffffffffffffffffffff16836040518363ffffffff1660e01b8152600401612e6f9291906140a6565b6020604051808303816000875af1158015612e8e573d6000803e3d6000fd5b505050506040513d601f19601f82011682018060405250810190612eb291906140fb565b612ef1576040517f08c379a0000000000000000000000000000000000000000000000000000000008152600401612ee890614e5c565b60405180910390fd5b505050565b60008060008381526020019081526020016000209050600060026000848152602001908152602001600020905060006001600085815260200190815260200160002090508060010160009054906101000a900460ff16612f8b576040517f08c379a0000000000000000000000000000000000000000000000000000000008152600401612f82906141e0565b60405180910390fd5b600080836000015403612fa45783600601549050612fb7565b826000015442612fb4919061463c565b90505b60008111612ffa576040517f08c379a0000000000000000000000000000000000000000000000000000000008152600401612ff190614f41565b60405180910390fd5b600061300f85600201548660040154846131b0565b9050808460010160008282546130259190614670565b92505081905550428460000181905550857f3d8708181c6452c5711a2b4c6ed3f12149f6ea35f78549aba00a89d041e766ca826040516130659190613a2e565b60405180910390a2505050505050565b6000806000838152602001908152602001600020905060008160030154905060008111156131ab5760008260030181905550600c60009054906101000a900473ffffffffffffffffffffffffffffffffffffffff1673ffffffffffffffffffffffffffffffffffffffff1663a9059cbb8360000160009054906101000a900473ffffffffffffffffffffffffffffffffffffffff16836040518363ffffffff1660e01b81526004016131289291906140a6565b6020604051808303816000875af1158015613147573d6000803e3d6000fd5b505050506040513d601f19601f8201168201806040525081019061316b91906140fb565b6131aa576040517f08c379a00000000000000000000000000000000000000000000000000000000081526004016131a190614e5c565b60405180910390fd5b5b505050565b60008084116131f4576040517f08c379a00000000000000000000000000000000000000000000000000000000081526004016131eb90614fad565b60405180910390fd5b60008311613237576040517f08c379a000000000000000000000000000000000000000000000000000000000815260040161322e9061503f565b60405180910390fd5b6000821161327a576040517f08c379a0000000000000000000000000000000000000000000000000000000008152600401613271906150d1565b60405180910390fd5b600063bbf81e00670de0b6b3a7640000856132959190614456565b61329f91906144c7565b9050600081116132e4576040517f08c379a00000000000000000000000000000000000000000000000000000000081526004016132db9061513d565b60405180910390fd5b6000670de0b6b3a76400008483886132fc9190614456565b6133069190614456565b61331091906144c7565b905080925050509392505050565b600081600a61332d919061515d565b60646133399190614456565b8385876133469190614456565b6133509190614456565b61335a91906144c7565b9050949350505050565b600060066000601254815260200190815260200160002090506000807fffffffffffffffffffffffffffffffffffffffffffffffffffffffffffffffff905060005b600980549050811015613461576000600982815481106133c9576133c8613fc9565b5b906000526020600020015490508460000154600760008373ffffffffffffffffffffffffffffffffffffffff1673ffffffffffffffffffffffffffffffffffffffff16815260200190815260200160002054106134535760006134308287600001546134a8565b90508560010154811115801561344557508381105b15613451578194508093505b505b5080806001019150506133a6565b50600073ffffffffffffffffffffffffffffffffffffffff168273ffffffffffffffffffffffffffffffffffffffff16146134a2576134a18483836135a4565b5b50505050565b600080600760008573ffffffffffffffffffffffffffffffffffffffff1673ffffffffffffffffffffffffffffffffffffffff16815260200190815260200160002054905082811015613530576040517f08c379a0000000000000000000000000000000000000000000000000000000008152600401613527906151f4565b60405180910390fd5b6000816064856135409190614456565b61354a91906144c7565b9050600060029050600060149050600060648383613568919061463c565b856135739190614456565b61357d91906144c7565b836135889190614670565b905081811115613596578190505b809550505050505092915050565b60008060008581526020019081526020016000209050828160010160006101000a81548173ffffffffffffffffffffffffffffffffffffffff021916908373ffffffffffffffffffffffffffffffffffffffff16021790555081816004018190555060016006600086815260200190815260200160002060040160006101000a81548160ff0219169083151502179055508060000160009054906101000a900473ffffffffffffffffffffffffffffffffffffffff1673ffffffffffffffffffffffffffffffffffffffff168373ffffffffffffffffffffffffffffffffffffffff16857f132aeb8d030dcc11adfc3ead0730a22aa3c0bf449b3532210c732b9a25e83c2060405160405180910390a450505050565b60405180610120016040528060008152602001600073ffffffffffffffffffffffffffffffffffffffff16815260200160008152602001600081526020016000815260200160008152602001600081526020016000151581526020016000151581525090565b600080fd5b6000819050919050565b61373881613725565b811461374357600080fd5b50565b6000813590506137558161372f565b92915050565b60006020828403121561377157613770613720565b5b600061377f84828501613746565b91505092915050565b600060ff82169050919050565b61379e81613788565b82525050565b60006020820190506137b96000830184613795565b92915050565b600081519050919050565b600082825260208201905092915050565b6000819050602082019050919050565b6137f481613725565b82525050565b600073ffffffffffffffffffffffffffffffffffffffff82169050919050565b6000613825826137fa565b9050919050565b6138358161381a565b82525050565b60008115159050919050565b6138508161383b565b82525050565b6101208201600082015161386d60008501826137eb565b506020820151613880602085018261382c565b50604082015161389360408501826137eb565b5060608201516138a660608501826137eb565b5060808201516138b960808501826137eb565b5060a08201516138cc60a08501826137eb565b5060c08201516138df60c08501826137eb565b5060e08201516138f260e0850182613847565b50610100820151613907610100850182613847565b50505050565b60006139198383613856565b6101208301905092915050565b6000602082019050919050565b600061393e826137bf565b61394881856137ca565b9350613953836137db565b8060005b8381101561398457815161396b888261390d565b975061397683613926565b925050600181019050613957565b5085935050505092915050565b600060208201905081810360008301526139ab8184613933565b905092915050565b6139bc8161381a565b81146139c757600080fd5b50565b6000813590506139d9816139b3565b92915050565b600080604083850312156139f6576139f5613720565b5b6000613a0485828601613746565b9250506020613a15858286016139ca565b9150509250929050565b613a2881613725565b82525050565b6000602082019050613a436000830184613a1f565b92915050565b600060208284031215613a5f57613a5e613720565b5b6000613a6d848285016139ca565b91505092915050565b60008060408385031215613a8d57613a8c613720565b5b6000613a9b858286016139ca565b9250506020613aac85828601613746565b9150509250929050565b613abf8161383b565b82525050565b6000602082019050613ada6000830184613ab6565b92915050565b6000606082019050613af56000830186613a1f565b613b026020830185613a1f565b613b0f6040830184613a1f565b949350505050565b613b208161381a565b82525050565b6000602082019050613b3b6000830184613b17565b92915050565b60008060408385031215613b5857613b57613720565b5b6000613b6685828601613746565b9250506020613b7785828601613746565b9150509250929050565b6000819050919050565b6000613ba6613ba1613b9c846137fa565b613b81565b6137fa565b9050919050565b6000613bb882613b8b565b9050919050565b6000613bca82613bad565b9050919050565b613bda81613bbf565b82525050565b6000602082019050613bf56000830184613bd1565b92915050565b6000606082019050613c106000830186613b17565b613c1d6020830185613a1f565b613c2a6040830184613ab6565b949350505050565b600060a082019050613c476000830188613a1f565b613c546020830187613ab6565b613c616040830186613ab6565b613c6e6060830185613ab6565b613c7b6080830184613a1f565b9695505050505050565b6000604082019050613c9a6000830185613a1f565b613ca76020830184613a1f565b9392505050565b600060a082019050613cc36000830188613a1f565b613cd06020830187613a1f565b613cdd6040830186613a1f565b613cea6060830185613a1f565b613cf76080830184613ab6565b9695505050505050565b7f4e487b7100000000000000000000000000000000000000000000000000000000600052602160045260246000fd5b60028110613d4157613d40613d01565b5b50565b6000819050613d5282613d30565b919050565b6000613d6282613d44565b9050919050565b613d7281613d57565b82525050565b600060e082019050613d8d600083018a613b17565b613d9a6020830189613b17565b613da76040830188613a1f565b613db46060830187613a1f565b613dc16080830186613a1f565b613dce60a0830185613d69565b613ddb60c0830184613a1f565b98975050505050505050565b600080600060608486031215613e0057613dff613720565b5b6000613e0e86828701613746565b9350506020613e1f86828701613746565b9250506040613e3086828701613746565b9150509250925092565b600082825260208201905092915050565b7f4f6e6c79206f776e657200000000000000000000000000000000000000000000600082015250565b6000613e81600a83613e3a565b9150613e8c82613e4b565b602082019050919050565b60006020820190508181036000830152613eb081613e74565b9050919050565b7f526174696f20746f6f206c6f7700000000000000000000000000000000000000600082015250565b6000613eed600d83613e3a565b9150613ef882613eb7565b602082019050919050565b60006020820190508181036000830152613f1c81613ee0565b9050919050565b7f4e487b7100000000000000000000000000000000000000000000000000000000600052601160045260246000fd5b6000613f5d82613725565b91507fffffffffffffffffffffffffffffffffffffffffffffffffffffffffffffffff8203613f8f57613f8e613f23565b5b600182019050919050565b7f4e487b7100000000000000000000000000000000000000000000000000000000600052604160045260246000fd5b7f4e487b7100000000000000000000000000000000000000000000000000000000600052603260045260246000fd5b6000815190506140078161372f565b92915050565b60006020828403121561402357614022613720565b5b600061403184828501613ff8565b91505092915050565b7f4e6f207265776172647320746f20776974686472617700000000000000000000600082015250565b6000614070601683613e3a565b915061407b8261403a565b602082019050919050565b6000602082019050818103600083015261409f81614063565b9050919050565b60006040820190506140bb6000830185613b17565b6140c86020830184613a1f565b9392505050565b6140d88161383b565b81146140e357600080fd5b50565b6000815190506140f5816140cf565b92915050565b60006020828403121561411157614110613720565b5b600061411f848285016140e6565b91505092915050565b7f526577617264207769746864726177616c206661696c65640000000000000000600082015250565b600061415e601883613e3a565b915061416982614128565b602082019050919050565b6000602082019050818103600083015261418d81614151565b9050919050565b7f4c6f616e206e6f74206163746976650000000000000000000000000000000000600082015250565b60006141ca600f83613e3a565b91506141d582614194565b602082019050919050565b600060208201905081810360008301526141f9816141bd565b9050919050565b7f4c6f616e206e6f74206f76657264756500000000000000000000000000000000600082015250565b6000614236601083613e3a565b915061424182614200565b602082019050919050565b6000602082019050818103600083015261426581614229565b9050919050565b7f4c6f616e20616c72656164792072657061696400000000000000000000000000600082015250565b60006142a2601383613e3a565b91506142ad8261426c565b602082019050919050565b600060208201905081810360008301526142d181614295565b9050919050565b60008160011c9050919050565b6000808291508390505b600185111561432f5780860481111561430b5761430a613f23565b5b600185161561431a5780820291505b8081029050614328856142d8565b94506142ef565b94509492505050565b6000826143485760019050614404565b816143565760009050614404565b816001811461436c5760028114614376576143a5565b6001915050614404565b60ff84111561438857614387613f23565b5b8360020a91508482111561439f5761439e613f23565b5b50614404565b5060208310610133831016604e8410600b84101617156143da5782820a9050838111156143d5576143d4613f23565b5b614404565b6143e784848460016142e5565b925090508184048111156143fe576143fd613f23565b5b81810290505b9392505050565b600061441682613725565b915061442183613788565b925061444e7fffffffffffffffffffffffffffffffffffffffffffffffffffffffffffffffff8484614338565b905092915050565b600061446182613725565b915061446c83613725565b925082820261447a81613725565b9150828204841483151761449157614490613f23565b5b5092915050565b7f4e487b7100000000000000000000000000000000000000000000000000000000600052601260045260246000fd5b60006144d282613725565b91506144dd83613725565b9250826144ed576144ec614498565b5b828204905092915050565b7f436f6c6c61746572616c207374696c6c2073756666696369656e740000000000600082015250565b600061452e601b83613e3a565b9150614539826144f8565b602082019050919050565b6000602082019050818103600083015261455d81614521565b9050919050565b7f4e6f7420626f72726f7765720000000000000000000000000000000000000000600082015250565b600061459a600c83613e3a565b91506145a582614564565b602082019050919050565b600060208201905081810360008301526145c98161458d565b9050919050565b7f4e6f20696e746572657374206163637275656421000000000000000000000000600082015250565b6000614606601483613e3a565b9150614611826145d0565b602082019050919050565b60006020820190508181036000830152614635816145f9565b9050919050565b600061464782613725565b915061465283613725565b925082820390508181111561466a57614669613f23565b5b92915050565b600061467b82613725565b915061468683613725565b925082820190508082111561469e5761469d613f23565b5b92915050565b7f496e746572657374206e6f742063616c63756c61746564000000000000000000600082015250565b60006146da601783613e3a565b91506146e5826146a4565b602082019050919050565b60006020820190508181036000830152614709816146cd565b9050919050565b7f4e6f207265776172642063616c63756c61746564000000000000000000000000600082015250565b6000614746601483613e3a565b915061475182614710565b602082019050919050565b6000602082019050818103600083015261477581614739565b9050919050565b60006060820190506147916000830186613b17565b61479e6020830185613b17565b6147ab6040830184613a1f565b949350505050565b7f5472616e73666572206661696c65640000000000000000000000000000000000600082015250565b60006147e9600f83613e3a565b91506147f4826147b3565b602082019050919050565b60006020820190508181036000830152614818816147dc565b9050919050565b7f5472616e7366657220746f206c656e646572206661696c656400000000000000600082015250565b6000614855601983613e3a565b91506148608261481f565b602082019050919050565b6000602082019050818103600083015261488481614848565b9050919050565b7f4c6f616e20616c72656164792061637469766500000000000000000000000000600082015250565b60006148c1601383613e3a565b91506148cc8261488b565b602082019050919050565b600060208201905081810360008301526148f0816148b4565b9050919050565b7f4c6f616e20616c72656164792066756e64656400000000000000000000000000600082015250565b600061492d601383613e3a565b9150614938826148f7565b602082019050919050565b6000602082019050818103600083015261495c81614920565b9050919050565b60006040820190506149786000830185613b17565b6149856020830184613b17565b9392505050565b7f496e73756666696369656e7420616c6c6f77616e636500000000000000000000600082015250565b60006149c2601683613e3a565b91506149cd8261498c565b602082019050919050565b600060208201905081810360008301526149f1816149b5565b9050919050565b7f4c6f616e2064697362757273656d656e74206661696c65640000000000000000600082015250565b6000614a2e601883613e3a565b9150614a39826149f8565b602082019050919050565b60006020820190508181036000830152614a5d81614a21565b9050919050565b7f4c6f616e20646f6573206e6f7420657869737400000000000000000000000000600082015250565b6000614a9a601383613e3a565b9150614aa582614a64565b602082019050919050565b60006020820190508181036000830152614ac981614a8d565b9050919050565b7f4d696e696d756d206c6f616e20616d6f756e74206d757374206265206772656160008201527f746572207468616e203000000000000000000000000000000000000000000000602082015250565b6000614b2c602a83613e3a565b9150614b3782614ad0565b604082019050919050565b60006020820190508181036000830152614b5b81614b1f565b9050919050565b7f4d6178696d756d206c6f616e20616d6f756e74206d757374206265206772656160008201527f746572207468616e206d696e696d756d206c6f616e20616d6f756e7400000000602082015250565b6000614bbe603c83613e3a565b9150614bc982614b62565b604082019050919050565b60006020820190508181036000830152614bed81614bb1565b9050919050565b7f52657061796d656e742065786365656473206f77656420616d6f756e74000000600082015250565b6000614c2a601d83613e3a565b9150614c3582614bf4565b602082019050919050565b60006020820190508181036000830152614c5981614c1d565b9050919050565b7f5061727469616c2072657061796d656e74206661696c65640000000000000000600082015250565b6000614c96601883613e3a565b9150614ca182614c60565b602082019050919050565b60006020820190508181036000830152614cc581614c89565b9050919050565b7f5072696365206e6f742073657400000000000000000000000000000000000000600082015250565b6000614d02600d83613e3a565b9150614d0d82614ccc565b602082019050919050565b60006020820190508181036000830152614d3181614cf5565b9050919050565b7f5468726573686f6c6420746f6f206c6f77000000000000000000000000000000600082015250565b6000614d6e601183613e3a565b9150614d7982614d38565b602082019050919050565b60006020820190508181036000830152614d9d81614d61565b9050919050565b7f496e76616c6964206c6f616e20616d6f756e7400000000000000000000000000600082015250565b6000614dda601383613e3a565b9150614de582614da4565b602082019050919050565b60006020820190508181036000830152614e0981614dcd565b9050919050565b7f436f6c6c61746572616c207472616e73666572206661696c6564000000000000600082015250565b6000614e46601a83613e3a565b9150614e5182614e10565b602082019050919050565b60006020820190508181036000830152614e7581614e39565b9050919050565b600060a082019050614e916000830188613b17565b614e9e6020830187613a1f565b614eab6040830186613a1f565b614eb86060830185613a1f565b614ec56080830184613a1f565b9695505050505050565b7f4e6f2074696d6520656c617073656420666f7220696e7465726573742061636360008201527f7275616c00000000000000000000000000000000000000000000000000000000602082015250565b6000614f2b602483613e3a565b9150614f3682614ecf565b604082019050919050565b60006020820190508181036000830152614f5a81614f1e565b9050919050565b7f5072696e636970616c206d7573742062652067726561746572207468616e2030600082015250565b6000614f97602083613e3a565b9150614fa282614f61565b602082019050919050565b60006020820190508181036000830152614fc681614f8a565b9050919050565b7f416e6e75616c2072617465206d7573742062652067726561746572207468616e60008201527f2030000000000000000000000000000000000000000000000000000000000000602082015250565b6000615029602283613e3a565b915061503482614fcd565b604082019050919050565b600060208201905081810360008301526150588161501c565b9050919050565b7f54696d6520656c6170736564206d75737420626520677265617465722074686160008201527f6e20300000000000000000000000000000000000000000000000000000000000602082015250565b60006150bb602383613e3a565b91506150c68261505f565b604082019050919050565b600060208201905081810360008301526150ea816150ae565b9050919050565b7f5261746520706572207365636f6e6420697320696e76616c6964000000000000600082015250565b6000615127601a83613e3a565b9150615132826150f1565b602082019050919050565b600060208201905081810360008301526151568161511a565b9050919050565b600061516882613725565b915061517383613725565b92506151a07fffffffffffffffffffffffffffffffffffffffffffffffffffffffffffffffff8484614338565b905092915050565b7f496e73756666696369656e74206c656e6465722066756e647300000000000000600082015250565b60006151de601983613e3a565b91506151e9826151a8565b602082019050919050565b6000602082019050818103600083015261520d816151d1565b905091905056fea2646970667358221220203a890ab0f8e01ce90659feb5b546378d22af86edf6ff846ceb5a81ceaec9ec64736f6c63430008180033",
          "opcodes": "PUSH1 0x80 PUSH1 0x40 MSTORE PUSH1 0x12 PUSH1 0xF PUSH1 0x0 PUSH2 0x100 EXP DUP2 SLOAD DUP2 PUSH1 0xFF MUL NOT AND SWAP1 DUP4 PUSH1 0xFF AND MUL OR SWAP1 SSTORE POP PUSH1 0x78 PUSH1 0x10 SSTORE PUSH1 0x6E PUSH1 0x11 SSTORE PUSH8 0xDE0B6B3A7640000 PUSH1 0x13 SSTORE PUSH10 0x152D02C7E14AF6800000 PUSH1 0x14 SSTORE CALLVALUE DUP1 ISZERO PUSH3 0x51 JUMPI PUSH1 0x0 DUP1 REVERT JUMPDEST POP PUSH1 0x40 MLOAD PUSH3 0x54DC CODESIZE SUB DUP1 PUSH3 0x54DC DUP4 CODECOPY DUP2 DUP2 ADD PUSH1 0x40 MSTORE DUP2 ADD SWAP1 PUSH3 0x77 SWAP2 SWAP1 PUSH3 0x226 JUMP JUMPDEST PUSH1 0x1 PUSH1 0xA DUP2 SWAP1 SSTORE POP PUSH1 0x0 PUSH1 0xB PUSH1 0x0 PUSH2 0x100 EXP DUP2 SLOAD DUP2 PUSH1 0xFF MUL NOT AND SWAP1 DUP4 ISZERO ISZERO MUL OR SWAP1 SSTORE POP DUP3 PUSH1 0xB PUSH1 0x1 PUSH2 0x100 EXP DUP2 SLOAD DUP2 PUSH20 0xFFFFFFFFFFFFFFFFFFFFFFFFFFFFFFFFFFFFFFFF MUL NOT AND SWAP1 DUP4 PUSH20 0xFFFFFFFFFFFFFFFFFFFFFFFFFFFFFFFFFFFFFFFF AND MUL OR SWAP1 SSTORE POP DUP2 PUSH1 0xC PUSH1 0x0 PUSH2 0x100 EXP DUP2 SLOAD DUP2 PUSH20 0xFFFFFFFFFFFFFFFFFFFFFFFFFFFFFFFFFFFFFFFF MUL NOT AND SWAP1 DUP4 PUSH20 0xFFFFFFFFFFFFFFFFFFFFFFFFFFFFFFFFFFFFFFFF AND MUL OR SWAP1 SSTORE POP DUP1 PUSH1 0xE DUP2 SWAP1 SSTORE POP CALLER PUSH1 0xD PUSH1 0x0 PUSH2 0x100 EXP DUP2 SLOAD DUP2 PUSH20 0xFFFFFFFFFFFFFFFFFFFFFFFFFFFFFFFFFFFFFFFF MUL NOT AND SWAP1 DUP4 PUSH20 0xFFFFFFFFFFFFFFFFFFFFFFFFFFFFFFFFFFFFFFFF AND MUL OR SWAP1 SSTORE POP POP POP POP PUSH3 0x282 JUMP JUMPDEST PUSH1 0x0 DUP1 REVERT JUMPDEST PUSH1 0x0 PUSH20 0xFFFFFFFFFFFFFFFFFFFFFFFFFFFFFFFFFFFFFFFF DUP3 AND SWAP1 POP SWAP2 SWAP1 POP JUMP JUMPDEST PUSH1 0x0 PUSH3 0x19F DUP3 PUSH3 0x172 JUMP JUMPDEST SWAP1 POP SWAP2 SWAP1 POP JUMP JUMPDEST PUSH1 0x0 PUSH3 0x1B3 DUP3 PUSH3 0x192 JUMP JUMPDEST SWAP1 POP SWAP2 SWAP1 POP JUMP JUMPDEST PUSH3 0x1C5 DUP2 PUSH3 0x1A6 JUMP JUMPDEST DUP2 EQ PUSH3 0x1D1 JUMPI PUSH1 0x0 DUP1 REVERT JUMPDEST POP JUMP JUMPDEST PUSH1 0x0 DUP2 MLOAD SWAP1 POP PUSH3 0x1E5 DUP2 PUSH3 0x1BA JUMP JUMPDEST SWAP3 SWAP2 POP POP JUMP JUMPDEST PUSH1 0x0 DUP2 SWAP1 POP SWAP2 SWAP1 POP JUMP JUMPDEST PUSH3 0x200 DUP2 PUSH3 0x1EB JUMP JUMPDEST DUP2 EQ PUSH3 0x20C JUMPI PUSH1 0x0 DUP1 REVERT JUMPDEST POP JUMP JUMPDEST PUSH1 0x0 DUP2 MLOAD SWAP1 POP PUSH3 0x220 DUP2 PUSH3 0x1F5 JUMP JUMPDEST SWAP3 SWAP2 POP POP JUMP JUMPDEST PUSH1 0x0 DUP1 PUSH1 0x0 PUSH1 0x60 DUP5 DUP7 SUB SLT ISZERO PUSH3 0x242 JUMPI PUSH3 0x241 PUSH3 0x16D JUMP JUMPDEST JUMPDEST PUSH1 0x0 PUSH3 0x252 DUP7 DUP3 DUP8 ADD PUSH3 0x1D4 JUMP JUMPDEST SWAP4 POP POP PUSH1 0x20 PUSH3 0x265 DUP7 DUP3 DUP8 ADD PUSH3 0x1D4 JUMP JUMPDEST SWAP3 POP POP PUSH1 0x40 PUSH3 0x278 DUP7 DUP3 DUP8 ADD PUSH3 0x20F JUMP JUMPDEST SWAP2 POP POP SWAP3 POP SWAP3 POP SWAP3 JUMP JUMPDEST PUSH2 0x524A DUP1 PUSH3 0x292 PUSH1 0x0 CODECOPY PUSH1 0x0 RETURN INVALID PUSH1 0x80 PUSH1 0x40 MSTORE CALLVALUE DUP1 ISZERO PUSH2 0x10 JUMPI PUSH1 0x0 DUP1 REVERT JUMPDEST POP PUSH1 0x4 CALLDATASIZE LT PUSH2 0x211 JUMPI PUSH1 0x0 CALLDATALOAD PUSH1 0xE0 SHR DUP1 PUSH4 0x8DA5CB5B GT PUSH2 0x125 JUMPI DUP1 PUSH4 0xD1B332F4 GT PUSH2 0xAD JUMPI DUP1 PUSH4 0xE16FFCDC GT PUSH2 0x7C JUMPI DUP1 PUSH4 0xE16FFCDC EQ PUSH2 0x625 JUMPI DUP1 PUSH4 0xE3ED1902 EQ PUSH2 0x643 JUMPI DUP1 PUSH4 0xE91349D7 EQ PUSH2 0x673 JUMPI DUP1 PUSH4 0xEDADBBFE EQ PUSH2 0x6A9 JUMPI DUP1 PUSH4 0xF5EBAB0C EQ PUSH2 0x6C5 JUMPI PUSH2 0x211 JUMP JUMPDEST DUP1 PUSH4 0xD1B332F4 EQ PUSH2 0x599 JUMPI DUP1 PUSH4 0xD3B5BE1A EQ PUSH2 0x5CD JUMPI DUP1 PUSH4 0xDCAF9C44 EQ PUSH2 0x5E9 JUMPI DUP1 PUSH4 0xE06A9138 EQ PUSH2 0x607 JUMPI PUSH2 0x211 JUMP JUMPDEST DUP1 PUSH4 0xB29504E9 GT PUSH2 0xF4 JUMPI DUP1 PUSH4 0xB29504E9 EQ PUSH2 0x4DC JUMPI DUP1 PUSH4 0xB4580A66 EQ PUSH2 0x4F8 JUMPI DUP1 PUSH4 0xB9ED46A3 EQ PUSH2 0x52C JUMPI DUP1 PUSH4 0xBDA93214 EQ PUSH2 0x54A JUMPI DUP1 PUSH4 0xCC826646 EQ PUSH2 0x568 JUMPI PUSH2 0x211 JUMP JUMPDEST DUP1 PUSH4 0x8DA5CB5B EQ PUSH2 0x452 JUMPI DUP1 PUSH4 0x97A146C0 EQ PUSH2 0x470 JUMPI DUP1 PUSH4 0xA98AD46C EQ PUSH2 0x48C JUMPI DUP1 PUSH4 0xAAEA7009 EQ PUSH2 0x4AA JUMPI PUSH2 0x211 JUMP JUMPDEST DUP1 PUSH4 0x3CDB72F1 GT PUSH2 0x1A8 JUMPI DUP1 PUSH4 0x61851D65 GT PUSH2 0x177 JUMPI DUP1 PUSH4 0x61851D65 EQ PUSH2 0x3AE JUMPI DUP1 PUSH4 0x72F94365 EQ PUSH2 0x3CA JUMPI DUP1 PUSH4 0x7C6FE270 EQ PUSH2 0x3E8 JUMPI DUP1 PUSH4 0x846B909A EQ PUSH2 0x404 JUMPI DUP1 PUSH4 0x8AF70315 EQ PUSH2 0x420 JUMPI PUSH2 0x211 JUMP JUMPDEST DUP1 PUSH4 0x3CDB72F1 EQ PUSH2 0x326 JUMPI DUP1 PUSH4 0x4031234C EQ PUSH2 0x356 JUMPI DUP1 PUSH4 0x42D86693 EQ PUSH2 0x374 JUMPI DUP1 PUSH4 0x5C975ABB EQ PUSH2 0x390 JUMPI PUSH2 0x211 JUMP JUMPDEST DUP1 PUSH4 0x17D960E0 GT PUSH2 0x1E4 JUMPI DUP1 PUSH4 0x17D960E0 EQ PUSH2 0x28A JUMPI DUP1 PUSH4 0x197428BF EQ PUSH2 0x2BA JUMPI DUP1 PUSH4 0x1A28BD02 EQ PUSH2 0x2EA JUMPI DUP1 PUSH4 0x34D9289E EQ PUSH2 0x308 JUMPI PUSH2 0x211 JUMP JUMPDEST DUP1 PUSH4 0x1BA91C3 EQ PUSH2 0x216 JUMPI DUP1 PUSH4 0x5300B28 EQ PUSH2 0x232 JUMPI DUP1 PUSH4 0x607EC70 EQ PUSH2 0x250 JUMPI DUP1 PUSH4 0xC9BABC3 EQ PUSH2 0x26C JUMPI JUMPDEST PUSH1 0x0 DUP1 REVERT JUMPDEST PUSH2 0x230 PUSH1 0x4 DUP1 CALLDATASIZE SUB DUP2 ADD SWAP1 PUSH2 0x22B SWAP2 SWAP1 PUSH2 0x375B JUMP JUMPDEST PUSH2 0x6F5 JUMP JUMPDEST STOP JUMPDEST PUSH2 0x23A PUSH2 0x7C6 JUMP JUMPDEST PUSH1 0x40 MLOAD PUSH2 0x247 SWAP2 SWAP1 PUSH2 0x37A4 JUMP JUMPDEST PUSH1 0x40 MLOAD DUP1 SWAP2 SUB SWAP1 RETURN JUMPDEST PUSH2 0x26A PUSH1 0x4 DUP1 CALLDATASIZE SUB DUP2 ADD SWAP1 PUSH2 0x265 SWAP2 SWAP1 PUSH2 0x375B JUMP JUMPDEST PUSH2 0x7D9 JUMP JUMPDEST STOP JUMPDEST PUSH2 0x274 PUSH2 0x8B7 JUMP JUMPDEST PUSH1 0x40 MLOAD PUSH2 0x281 SWAP2 SWAP1 PUSH2 0x3991 JUMP JUMPDEST PUSH1 0x40 MLOAD DUP1 SWAP2 SUB SWAP1 RETURN JUMPDEST PUSH2 0x2A4 PUSH1 0x4 DUP1 CALLDATASIZE SUB DUP2 ADD SWAP1 PUSH2 0x29F SWAP2 SWAP1 PUSH2 0x39DF JUMP JUMPDEST PUSH2 0xCB9 JUMP JUMPDEST PUSH1 0x40 MLOAD PUSH2 0x2B1 SWAP2 SWAP1 PUSH2 0x3A2E JUMP JUMPDEST PUSH1 0x40 MLOAD DUP1 SWAP2 SUB SWAP1 RETURN JUMPDEST PUSH2 0x2D4 PUSH1 0x4 DUP1 CALLDATASIZE SUB DUP2 ADD SWAP1 PUSH2 0x2CF SWAP2 SWAP1 PUSH2 0x3A49 JUMP JUMPDEST PUSH2 0xCDE JUMP JUMPDEST PUSH1 0x40 MLOAD PUSH2 0x2E1 SWAP2 SWAP1 PUSH2 0x3A2E JUMP JUMPDEST PUSH1 0x40 MLOAD DUP1 SWAP2 SUB SWAP1 RETURN JUMPDEST PUSH2 0x2F2 PUSH2 0xCF6 JUMP JUMPDEST PUSH1 0x40 MLOAD PUSH2 0x2FF SWAP2 SWAP1 PUSH2 0x3A2E JUMP JUMPDEST PUSH1 0x40 MLOAD DUP1 SWAP2 SUB SWAP1 RETURN JUMPDEST PUSH2 0x310 PUSH2 0xCFC JUMP JUMPDEST PUSH1 0x40 MLOAD PUSH2 0x31D SWAP2 SWAP1 PUSH2 0x3A2E JUMP JUMPDEST PUSH1 0x40 MLOAD DUP1 SWAP2 SUB SWAP1 RETURN JUMPDEST PUSH2 0x340 PUSH1 0x4 DUP1 CALLDATASIZE SUB DUP2 ADD SWAP1 PUSH2 0x33B SWAP2 SWAP1 PUSH2 0x3A76 JUMP JUMPDEST PUSH2 0xD02 JUMP JUMPDEST PUSH1 0x40 MLOAD PUSH2 0x34D SWAP2 SWAP1 PUSH2 0x3A2E JUMP JUMPDEST PUSH1 0x40 MLOAD DUP1 SWAP2 SUB SWAP1 RETURN JUMPDEST PUSH2 0x35E PUSH2 0xD33 JUMP JUMPDEST PUSH1 0x40 MLOAD PUSH2 0x36B SWAP2 SWAP1 PUSH2 0x3A2E JUMP JUMPDEST PUSH1 0x40 MLOAD DUP1 SWAP2 SUB SWAP1 RETURN JUMPDEST PUSH2 0x38E PUSH1 0x4 DUP1 CALLDATASIZE SUB DUP2 ADD SWAP1 PUSH2 0x389 SWAP2 SWAP1 PUSH2 0x3A49 JUMP JUMPDEST PUSH2 0xD39 JUMP JUMPDEST STOP JUMPDEST PUSH2 0x398 PUSH2 0xFD8 JUMP JUMPDEST PUSH1 0x40 MLOAD PUSH2 0x3A5 SWAP2 SWAP1 PUSH2 0x3AC5 JUMP JUMPDEST PUSH1 0x40 MLOAD DUP1 SWAP2 SUB SWAP1 RETURN JUMPDEST PUSH2 0x3C8 PUSH1 0x4 DUP1 CALLDATASIZE SUB DUP2 ADD SWAP1 PUSH2 0x3C3 SWAP2 SWAP1 PUSH2 0x375B JUMP JUMPDEST PUSH2 0xFEF JUMP JUMPDEST STOP JUMPDEST PUSH2 0x3D2 PUSH2 0x129C JUMP JUMPDEST PUSH1 0x40 MLOAD PUSH2 0x3DF SWAP2 SWAP1 PUSH2 0x3A2E JUMP JUMPDEST PUSH1 0x40 MLOAD DUP1 SWAP2 SUB SWAP1 RETURN JUMPDEST PUSH2 0x402 PUSH1 0x4 DUP1 CALLDATASIZE SUB DUP2 ADD SWAP1 PUSH2 0x3FD SWAP2 SWAP1 PUSH2 0x375B JUMP JUMPDEST PUSH2 0x12A2 JUMP JUMPDEST STOP JUMPDEST PUSH2 0x41E PUSH1 0x4 DUP1 CALLDATASIZE SUB DUP2 ADD SWAP1 PUSH2 0x419 SWAP2 SWAP1 PUSH2 0x375B JUMP JUMPDEST PUSH2 0x181D JUMP JUMPDEST STOP JUMPDEST PUSH2 0x43A PUSH1 0x4 DUP1 CALLDATASIZE SUB DUP2 ADD SWAP1 PUSH2 0x435 SWAP2 SWAP1 PUSH2 0x375B JUMP JUMPDEST PUSH2 0x1E59 JUMP JUMPDEST PUSH1 0x40 MLOAD PUSH2 0x449 SWAP4 SWAP3 SWAP2 SWAP1 PUSH2 0x3AE0 JUMP JUMPDEST PUSH1 0x40 MLOAD DUP1 SWAP2 SUB SWAP1 RETURN JUMPDEST PUSH2 0x45A PUSH2 0x1FF4 JUMP JUMPDEST PUSH1 0x40 MLOAD PUSH2 0x467 SWAP2 SWAP1 PUSH2 0x3B26 JUMP JUMPDEST PUSH1 0x40 MLOAD DUP1 SWAP2 SUB SWAP1 RETURN JUMPDEST PUSH2 0x48A PUSH1 0x4 DUP1 CALLDATASIZE SUB DUP2 ADD SWAP1 PUSH2 0x485 SWAP2 SWAP1 PUSH2 0x3B41 JUMP JUMPDEST PUSH2 0x201A JUMP JUMPDEST STOP JUMPDEST PUSH2 0x494 PUSH2 0x2141 JUMP JUMPDEST PUSH1 0x40 MLOAD PUSH2 0x4A1 SWAP2 SWAP1 PUSH2 0x3BE0 JUMP JUMPDEST PUSH1 0x40 MLOAD DUP1 SWAP2 SUB SWAP1 RETURN JUMPDEST PUSH2 0x4C4 PUSH1 0x4 DUP1 CALLDATASIZE SUB DUP2 ADD SWAP1 PUSH2 0x4BF SWAP2 SWAP1 PUSH2 0x3A49 JUMP JUMPDEST PUSH2 0x2167 JUMP JUMPDEST PUSH1 0x40 MLOAD PUSH2 0x4D3 SWAP4 SWAP3 SWAP2 SWAP1 PUSH2 0x3BFB JUMP JUMPDEST PUSH1 0x40 MLOAD DUP1 SWAP2 SUB SWAP1 RETURN JUMPDEST PUSH2 0x4F6 PUSH1 0x4 DUP1 CALLDATASIZE SUB DUP2 ADD SWAP1 PUSH2 0x4F1 SWAP2 SWAP1 PUSH2 0x3B41 JUMP JUMPDEST PUSH2 0x21BE JUMP JUMPDEST STOP JUMPDEST PUSH2 0x512 PUSH1 0x4 DUP1 CALLDATASIZE SUB DUP2 ADD SWAP1 PUSH2 0x50D SWAP2 SWAP1 PUSH2 0x375B JUMP JUMPDEST PUSH2 0x253C JUMP JUMPDEST PUSH1 0x40 MLOAD PUSH2 0x523 SWAP6 SWAP5 SWAP4 SWAP3 SWAP2 SWAP1 PUSH2 0x3C32 JUMP JUMPDEST PUSH1 0x40 MLOAD DUP1 SWAP2 SUB SWAP1 RETURN JUMPDEST PUSH2 0x534 PUSH2 0x2599 JUMP JUMPDEST PUSH1 0x40 MLOAD PUSH2 0x541 SWAP2 SWAP1 PUSH2 0x3BE0 JUMP JUMPDEST PUSH1 0x40 MLOAD DUP1 SWAP2 SUB SWAP1 RETURN JUMPDEST PUSH2 0x552 PUSH2 0x25BF JUMP JUMPDEST PUSH1 0x40 MLOAD PUSH2 0x55F SWAP2 SWAP1 PUSH2 0x3A2E JUMP JUMPDEST PUSH1 0x40 MLOAD DUP1 SWAP2 SUB SWAP1 RETURN JUMPDEST PUSH2 0x582 PUSH1 0x4 DUP1 CALLDATASIZE SUB DUP2 ADD SWAP1 PUSH2 0x57D SWAP2 SWAP1 PUSH2 0x375B JUMP JUMPDEST PUSH2 0x260D JUMP JUMPDEST PUSH1 0x40 MLOAD PUSH2 0x590 SWAP3 SWAP2 SWAP1 PUSH2 0x3C85 JUMP JUMPDEST PUSH1 0x40 MLOAD DUP1 SWAP2 SUB SWAP1 RETURN JUMPDEST PUSH2 0x5B3 PUSH1 0x4 DUP1 CALLDATASIZE SUB DUP2 ADD SWAP1 PUSH2 0x5AE SWAP2 SWAP1 PUSH2 0x375B JUMP JUMPDEST PUSH2 0x2631 JUMP JUMPDEST PUSH1 0x40 MLOAD PUSH2 0x5C4 SWAP6 SWAP5 SWAP4 SWAP3 SWAP2 SWAP1 PUSH2 0x3CAE JUMP JUMPDEST PUSH1 0x40 MLOAD DUP1 SWAP2 SUB SWAP1 RETURN JUMPDEST PUSH2 0x5E7 PUSH1 0x4 DUP1 CALLDATASIZE SUB DUP2 ADD SWAP1 PUSH2 0x5E2 SWAP2 SWAP1 PUSH2 0x375B JUMP JUMPDEST PUSH2 0x2674 JUMP JUMPDEST STOP JUMPDEST PUSH2 0x5F1 PUSH2 0x2752 JUMP JUMPDEST PUSH1 0x40 MLOAD PUSH2 0x5FE SWAP2 SWAP1 PUSH2 0x3A2E JUMP JUMPDEST PUSH1 0x40 MLOAD DUP1 SWAP2 SUB SWAP1 RETURN JUMPDEST PUSH2 0x60F PUSH2 0x2758 JUMP JUMPDEST PUSH1 0x40 MLOAD PUSH2 0x61C SWAP2 SWAP1 PUSH2 0x3A2E JUMP JUMPDEST PUSH1 0x40 MLOAD DUP1 SWAP2 SUB SWAP1 RETURN JUMPDEST PUSH2 0x62D PUSH2 0x275E JUMP JUMPDEST PUSH1 0x40 MLOAD PUSH2 0x63A SWAP2 SWAP1 PUSH2 0x3A2E JUMP JUMPDEST PUSH1 0x40 MLOAD DUP1 SWAP2 SUB SWAP1 RETURN JUMPDEST PUSH2 0x65D PUSH1 0x4 DUP1 CALLDATASIZE SUB DUP2 ADD SWAP1 PUSH2 0x658 SWAP2 SWAP1 PUSH2 0x3A76 JUMP JUMPDEST PUSH2 0x2803 JUMP JUMPDEST PUSH1 0x40 MLOAD PUSH2 0x66A SWAP2 SWAP1 PUSH2 0x3A2E JUMP JUMPDEST PUSH1 0x40 MLOAD DUP1 SWAP2 SUB SWAP1 RETURN JUMPDEST PUSH2 0x68D PUSH1 0x4 DUP1 CALLDATASIZE SUB DUP2 ADD SWAP1 PUSH2 0x688 SWAP2 SWAP1 PUSH2 0x375B JUMP JUMPDEST PUSH2 0x2834 JUMP JUMPDEST PUSH1 0x40 MLOAD PUSH2 0x6A0 SWAP8 SWAP7 SWAP6 SWAP5 SWAP4 SWAP3 SWAP2 SWAP1 PUSH2 0x3D78 JUMP JUMPDEST PUSH1 0x40 MLOAD DUP1 SWAP2 SUB SWAP1 RETURN JUMPDEST PUSH2 0x6C3 PUSH1 0x4 DUP1 CALLDATASIZE SUB DUP2 ADD SWAP1 PUSH2 0x6BE SWAP2 SWAP1 PUSH2 0x3DE7 JUMP JUMPDEST PUSH2 0x28C3 JUMP JUMPDEST STOP JUMPDEST PUSH2 0x6DF PUSH1 0x4 DUP1 CALLDATASIZE SUB DUP2 ADD SWAP1 PUSH2 0x6DA SWAP2 SWAP1 PUSH2 0x375B JUMP JUMPDEST PUSH2 0x2CF4 JUMP JUMPDEST PUSH1 0x40 MLOAD PUSH2 0x6EC SWAP2 SWAP1 PUSH2 0x3A2E JUMP JUMPDEST PUSH1 0x40 MLOAD DUP1 SWAP2 SUB SWAP1 RETURN JUMPDEST PUSH1 0xD PUSH1 0x0 SWAP1 SLOAD SWAP1 PUSH2 0x100 EXP SWAP1 DIV PUSH20 0xFFFFFFFFFFFFFFFFFFFFFFFFFFFFFFFFFFFFFFFF AND PUSH20 0xFFFFFFFFFFFFFFFFFFFFFFFFFFFFFFFFFFFFFFFF AND CALLER PUSH20 0xFFFFFFFFFFFFFFFFFFFFFFFFFFFFFFFFFFFFFFFF AND EQ PUSH2 0x785 JUMPI PUSH1 0x40 MLOAD PUSH32 0x8C379A000000000000000000000000000000000000000000000000000000000 DUP2 MSTORE PUSH1 0x4 ADD PUSH2 0x77C SWAP1 PUSH2 0x3E97 JUMP JUMPDEST PUSH1 0x40 MLOAD DUP1 SWAP2 SUB SWAP1 REVERT JUMPDEST DUP1 PUSH1 0xE DUP2 SWAP1 SSTORE POP PUSH32 0x66CBCA4F3C64FECF1DCB9CE094ABCF7F68C3450A1D4E3A8E917DD621EDB4EBE0 DUP2 PUSH1 0x40 MLOAD PUSH2 0x7BB SWAP2 SWAP1 PUSH2 0x3A2E JUMP JUMPDEST PUSH1 0x40 MLOAD DUP1 SWAP2 SUB SWAP1 LOG1 POP JUMP JUMPDEST PUSH1 0xF PUSH1 0x0 SWAP1 SLOAD SWAP1 PUSH2 0x100 EXP SWAP1 DIV PUSH1 0xFF AND DUP2 JUMP JUMPDEST PUSH1 0xD PUSH1 0x0 SWAP1 SLOAD SWAP1 PUSH2 0x100 EXP SWAP1 DIV PUSH20 0xFFFFFFFFFFFFFFFFFFFFFFFFFFFFFFFFFFFFFFFF AND PUSH20 0xFFFFFFFFFFFFFFFFFFFFFFFFFFFFFFFFFFFFFFFF AND CALLER PUSH20 0xFFFFFFFFFFFFFFFFFFFFFFFFFFFFFFFFFFFFFFFF AND EQ PUSH2 0x869 JUMPI PUSH1 0x40 MLOAD PUSH32 0x8C379A000000000000000000000000000000000000000000000000000000000 DUP2 MSTORE PUSH1 0x4 ADD PUSH2 0x860 SWAP1 PUSH2 0x3E97 JUMP JUMPDEST PUSH1 0x40 MLOAD DUP1 SWAP2 SUB SWAP1 REVERT JUMPDEST PUSH1 0x64 DUP2 LT ISZERO PUSH2 0x8AD JUMPI PUSH1 0x40 MLOAD PUSH32 0x8C379A000000000000000000000000000000000000000000000000000000000 DUP2 MSTORE PUSH1 0x4 ADD PUSH2 0x8A4 SWAP1 PUSH2 0x3F03 JUMP JUMPDEST PUSH1 0x40 MLOAD DUP1 SWAP2 SUB SWAP1 REVERT JUMPDEST DUP1 PUSH1 0x10 DUP2 SWAP1 SSTORE POP POP JUMP JUMPDEST PUSH1 0x60 PUSH1 0x0 DUP1 PUSH1 0x1 SWAP1 POP JUMPDEST PUSH1 0x12 SLOAD DUP2 GT PUSH2 0x95F JUMPI PUSH1 0x0 PUSH1 0x6 PUSH1 0x0 DUP4 DUP2 MSTORE PUSH1 0x20 ADD SWAP1 DUP2 MSTORE PUSH1 0x20 ADD PUSH1 0x0 KECCAK256 PUSH1 0x40 MLOAD DUP1 PUSH1 0xA0 ADD PUSH1 0x40 MSTORE SWAP1 DUP2 PUSH1 0x0 DUP3 ADD SLOAD DUP2 MSTORE PUSH1 0x20 ADD PUSH1 0x1 DUP3 ADD SLOAD DUP2 MSTORE PUSH1 0x20 ADD PUSH1 0x2 DUP3 ADD SLOAD DUP2 MSTORE PUSH1 0x20 ADD PUSH1 0x3 DUP3 ADD SLOAD DUP2 MSTORE PUSH1 0x20 ADD PUSH1 0x4 DUP3 ADD PUSH1 0x0 SWAP1 SLOAD SWAP1 PUSH2 0x100 EXP SWAP1 DIV PUSH1 0xFF AND ISZERO ISZERO ISZERO ISZERO DUP2 MSTORE POP POP SWAP1 POP PUSH1 0x0 DUP2 PUSH1 0x0 ADD MLOAD GT ISZERO PUSH2 0x94B JUMPI DUP3 DUP1 PUSH2 0x947 SWAP1 PUSH2 0x3F52 JUMP JUMPDEST SWAP4 POP POP JUMPDEST POP DUP1 DUP1 PUSH2 0x957 SWAP1 PUSH2 0x3F52 JUMP JUMPDEST SWAP2 POP POP PUSH2 0x8C1 JUMP JUMPDEST POP PUSH1 0x0 DUP2 PUSH8 0xFFFFFFFFFFFFFFFF DUP2 GT ISZERO PUSH2 0x97C JUMPI PUSH2 0x97B PUSH2 0x3F9A JUMP JUMPDEST JUMPDEST PUSH1 0x40 MLOAD SWAP1 DUP1 DUP3 MSTORE DUP1 PUSH1 0x20 MUL PUSH1 0x20 ADD DUP3 ADD PUSH1 0x40 MSTORE DUP1 ISZERO PUSH2 0x9B5 JUMPI DUP2 PUSH1 0x20 ADD JUMPDEST PUSH2 0x9A2 PUSH2 0x36BA JUMP JUMPDEST DUP2 MSTORE PUSH1 0x20 ADD SWAP1 PUSH1 0x1 SWAP1 SUB SWAP1 DUP2 PUSH2 0x99A JUMPI SWAP1 POP JUMPDEST POP SWAP1 POP PUSH1 0x0 DUP1 PUSH1 0x1 SWAP1 POP JUMPDEST PUSH1 0x12 SLOAD DUP2 GT PUSH2 0xCAF JUMPI PUSH1 0x0 PUSH1 0x6 PUSH1 0x0 DUP4 DUP2 MSTORE PUSH1 0x20 ADD SWAP1 DUP2 MSTORE PUSH1 0x20 ADD PUSH1 0x0 KECCAK256 PUSH1 0x40 MLOAD DUP1 PUSH1 0xA0 ADD PUSH1 0x40 MSTORE SWAP1 DUP2 PUSH1 0x0 DUP3 ADD SLOAD DUP2 MSTORE PUSH1 0x20 ADD PUSH1 0x1 DUP3 ADD SLOAD DUP2 MSTORE PUSH1 0x20 ADD PUSH1 0x2 DUP3 ADD SLOAD DUP2 MSTORE PUSH1 0x20 ADD PUSH1 0x3 DUP3 ADD SLOAD DUP2 MSTORE PUSH1 0x20 ADD PUSH1 0x4 DUP3 ADD PUSH1 0x0 SWAP1 SLOAD SWAP1 PUSH2 0x100 EXP SWAP1 DIV PUSH1 0xFF AND ISZERO ISZERO ISZERO ISZERO DUP2 MSTORE POP POP SWAP1 POP PUSH1 0x0 PUSH1 0x1 PUSH1 0x0 DUP5 DUP2 MSTORE PUSH1 0x20 ADD SWAP1 DUP2 MSTORE PUSH1 0x20 ADD PUSH1 0x0 KECCAK256 PUSH1 0x40 MLOAD DUP1 PUSH1 0xA0 ADD PUSH1 0x40 MSTORE SWAP1 DUP2 PUSH1 0x0 DUP3 ADD SLOAD DUP2 MSTORE PUSH1 0x20 ADD PUSH1 0x1 DUP3 ADD PUSH1 0x0 SWAP1 SLOAD SWAP1 PUSH2 0x100 EXP SWAP1 DIV PUSH1 0xFF AND ISZERO ISZERO ISZERO ISZERO DUP2 MSTORE PUSH1 0x20 ADD PUSH1 0x1 DUP3 ADD PUSH1 0x1 SWAP1 SLOAD SWAP1 PUSH2 0x100 EXP SWAP1 DIV PUSH1 0xFF AND ISZERO ISZERO ISZERO ISZERO DUP2 MSTORE PUSH1 0x20 ADD PUSH1 0x1 DUP3 ADD PUSH1 0x2 SWAP1 SLOAD SWAP1 PUSH2 0x100 EXP SWAP1 DIV PUSH1 0xFF AND ISZERO ISZERO ISZERO ISZERO DUP2 MSTORE PUSH1 0x20 ADD PUSH1 0x2 DUP3 ADD SLOAD DUP2 MSTORE POP POP SWAP1 POP PUSH1 0x0 DUP1 PUSH1 0x0 DUP6 DUP2 MSTORE PUSH1 0x20 ADD SWAP1 DUP2 MSTORE PUSH1 0x20 ADD PUSH1 0x0 KECCAK256 PUSH1 0x40 MLOAD DUP1 PUSH1 0xE0 ADD PUSH1 0x40 MSTORE SWAP1 DUP2 PUSH1 0x0 DUP3 ADD PUSH1 0x0 SWAP1 SLOAD SWAP1 PUSH2 0x100 EXP SWAP1 DIV PUSH20 0xFFFFFFFFFFFFFFFFFFFFFFFFFFFFFFFFFFFFFFFF AND PUSH20 0xFFFFFFFFFFFFFFFFFFFFFFFFFFFFFFFFFFFFFFFF AND PUSH20 0xFFFFFFFFFFFFFFFFFFFFFFFFFFFFFFFFFFFFFFFF AND DUP2 MSTORE PUSH1 0x20 ADD PUSH1 0x1 DUP3 ADD PUSH1 0x0 SWAP1 SLOAD SWAP1 PUSH2 0x100 EXP SWAP1 DIV PUSH20 0xFFFFFFFFFFFFFFFFFFFFFFFFFFFFFFFFFFFFFFFF AND PUSH20 0xFFFFFFFFFFFFFFFFFFFFFFFFFFFFFFFFFFFFFFFF AND PUSH20 0xFFFFFFFFFFFFFFFFFFFFFFFFFFFFFFFFFFFFFFFF AND DUP2 MSTORE PUSH1 0x20 ADD PUSH1 0x2 DUP3 ADD SLOAD DUP2 MSTORE PUSH1 0x20 ADD PUSH1 0x3 DUP3 ADD SLOAD DUP2 MSTORE PUSH1 0x20 ADD PUSH1 0x4 DUP3 ADD SLOAD DUP2 MSTORE PUSH1 0x20 ADD PUSH1 0x5 DUP3 ADD PUSH1 0x0 SWAP1 SLOAD SWAP1 PUSH2 0x100 EXP SWAP1 DIV PUSH1 0xFF AND PUSH1 0x1 DUP2 GT ISZERO PUSH2 0xBC3 JUMPI PUSH2 0xBC2 PUSH2 0x3D01 JUMP JUMPDEST JUMPDEST PUSH1 0x1 DUP2 GT ISZERO PUSH2 0xBD5 JUMPI PUSH2 0xBD4 PUSH2 0x3D01 JUMP JUMPDEST JUMPDEST DUP2 MSTORE PUSH1 0x20 ADD PUSH1 0x6 DUP3 ADD SLOAD DUP2 MSTORE POP POP SWAP1 POP PUSH1 0x0 DUP4 PUSH1 0x0 ADD MLOAD GT ISZERO PUSH2 0xC99 JUMPI PUSH1 0x40 MLOAD DUP1 PUSH2 0x120 ADD PUSH1 0x40 MSTORE DUP1 DUP6 DUP2 MSTORE PUSH1 0x20 ADD DUP3 PUSH1 0x0 ADD MLOAD PUSH20 0xFFFFFFFFFFFFFFFFFFFFFFFFFFFFFFFFFFFFFFFF AND DUP2 MSTORE PUSH1 0x20 ADD DUP5 PUSH1 0x0 ADD MLOAD DUP2 MSTORE PUSH1 0x20 ADD DUP5 PUSH1 0x20 ADD MLOAD DUP2 MSTORE PUSH1 0x20 ADD DUP5 PUSH1 0x40 ADD MLOAD DUP2 MSTORE PUSH1 0x20 ADD DUP5 PUSH1 0x60 ADD MLOAD DUP2 MSTORE PUSH1 0x20 ADD DUP3 PUSH1 0x60 ADD MLOAD DUP2 MSTORE PUSH1 0x20 ADD DUP4 PUSH1 0x20 ADD MLOAD ISZERO ISZERO DUP2 MSTORE PUSH1 0x20 ADD DUP4 PUSH1 0x40 ADD MLOAD ISZERO ISZERO DUP2 MSTORE POP DUP7 DUP7 DUP2 MLOAD DUP2 LT PUSH2 0xC7F JUMPI PUSH2 0xC7E PUSH2 0x3FC9 JUMP JUMPDEST JUMPDEST PUSH1 0x20 MUL PUSH1 0x20 ADD ADD DUP2 SWAP1 MSTORE POP DUP5 DUP1 PUSH2 0xC95 SWAP1 PUSH2 0x3F52 JUMP JUMPDEST SWAP6 POP POP JUMPDEST POP POP POP DUP1 DUP1 PUSH2 0xCA7 SWAP1 PUSH2 0x3F52 JUMP JUMPDEST SWAP2 POP POP PUSH2 0x9C0 JUMP JUMPDEST POP DUP2 SWAP4 POP POP POP POP SWAP1 JUMP JUMPDEST PUSH1 0x3 PUSH1 0x20 MSTORE DUP2 PUSH1 0x0 MSTORE PUSH1 0x40 PUSH1 0x0 KECCAK256 PUSH1 0x20 MSTORE DUP1 PUSH1 0x0 MSTORE PUSH1 0x40 PUSH1 0x0 KECCAK256 PUSH1 0x0 SWAP2 POP SWAP2 POP POP SLOAD DUP2 JUMP JUMPDEST PUSH1 0x7 PUSH1 0x20 MSTORE DUP1 PUSH1 0x0 MSTORE PUSH1 0x40 PUSH1 0x0 KECCAK256 PUSH1 0x0 SWAP2 POP SWAP1 POP SLOAD DUP2 JUMP JUMPDEST PUSH1 0xE SLOAD DUP2 JUMP JUMPDEST PUSH1 0x12 SLOAD DUP2 JUMP JUMPDEST PUSH1 0x5 PUSH1 0x20 MSTORE DUP2 PUSH1 0x0 MSTORE PUSH1 0x40 PUSH1 0x0 KECCAK256 DUP2 DUP2 SLOAD DUP2 LT PUSH2 0xD1E JUMPI PUSH1 0x0 DUP1 REVERT JUMPDEST SWAP1 PUSH1 0x0 MSTORE PUSH1 0x20 PUSH1 0x0 KECCAK256 ADD PUSH1 0x0 SWAP2 POP SWAP2 POP POP SLOAD DUP2 JUMP JUMPDEST PUSH1 0x11 SLOAD DUP2 JUMP JUMPDEST PUSH1 0xD PUSH1 0x0 SWAP1 SLOAD SWAP1 PUSH2 0x100 EXP SWAP1 DIV PUSH20 0xFFFFFFFFFFFFFFFFFFFFFFFFFFFFFFFFFFFFFFFF AND PUSH20 0xFFFFFFFFFFFFFFFFFFFFFFFFFFFFFFFFFFFFFFFF AND CALLER PUSH20 0xFFFFFFFFFFFFFFFFFFFFFFFFFFFFFFFFFFFFFFFF AND EQ PUSH2 0xDC9 JUMPI PUSH1 0x40 MLOAD PUSH32 0x8C379A000000000000000000000000000000000000000000000000000000000 DUP2 MSTORE PUSH1 0x4 ADD PUSH2 0xDC0 SWAP1 PUSH2 0x3E97 JUMP JUMPDEST PUSH1 0x40 MLOAD DUP1 SWAP2 SUB SWAP1 REVERT JUMPDEST PUSH2 0xDD1 PUSH2 0x2D34 JUMP JUMPDEST PUSH1 0x0 PUSH1 0xB PUSH1 0x1 SWAP1 SLOAD SWAP1 PUSH2 0x100 EXP SWAP1 DIV PUSH20 0xFFFFFFFFFFFFFFFFFFFFFFFFFFFFFFFFFFFFFFFF AND PUSH20 0xFFFFFFFFFFFFFFFFFFFFFFFFFFFFFFFFFFFFFFFF AND PUSH4 0x70A08231 ADDRESS PUSH1 0x40 MLOAD DUP3 PUSH4 0xFFFFFFFF AND PUSH1 0xE0 SHL DUP2 MSTORE PUSH1 0x4 ADD PUSH2 0xE2E SWAP2 SWAP1 PUSH2 0x3B26 JUMP JUMPDEST PUSH1 0x20 PUSH1 0x40 MLOAD DUP1 DUP4 SUB DUP2 DUP7 GAS STATICCALL ISZERO DUP1 ISZERO PUSH2 0xE4B JUMPI RETURNDATASIZE PUSH1 0x0 DUP1 RETURNDATACOPY RETURNDATASIZE PUSH1 0x0 REVERT JUMPDEST POP POP POP POP PUSH1 0x40 MLOAD RETURNDATASIZE PUSH1 0x1F NOT PUSH1 0x1F DUP3 ADD AND DUP3 ADD DUP1 PUSH1 0x40 MSTORE POP DUP2 ADD SWAP1 PUSH2 0xE6F SWAP2 SWAP1 PUSH2 0x400D JUMP JUMPDEST SWAP1 POP PUSH1 0x0 DUP2 GT PUSH2 0xEB4 JUMPI PUSH1 0x40 MLOAD PUSH32 0x8C379A000000000000000000000000000000000000000000000000000000000 DUP2 MSTORE PUSH1 0x4 ADD PUSH2 0xEAB SWAP1 PUSH2 0x4086 JUMP JUMPDEST PUSH1 0x40 MLOAD DUP1 SWAP2 SUB SWAP1 REVERT JUMPDEST PUSH1 0xB PUSH1 0x1 SWAP1 SLOAD SWAP1 PUSH2 0x100 EXP SWAP1 DIV PUSH20 0xFFFFFFFFFFFFFFFFFFFFFFFFFFFFFFFFFFFFFFFF AND PUSH20 0xFFFFFFFFFFFFFFFFFFFFFFFFFFFFFFFFFFFFFFFF AND PUSH4 0xA9059CBB DUP4 DUP4 PUSH1 0x40 MLOAD DUP4 PUSH4 0xFFFFFFFF AND PUSH1 0xE0 SHL DUP2 MSTORE PUSH1 0x4 ADD PUSH2 0xF11 SWAP3 SWAP2 SWAP1 PUSH2 0x40A6 JUMP JUMPDEST PUSH1 0x20 PUSH1 0x40 MLOAD DUP1 DUP4 SUB DUP2 PUSH1 0x0 DUP8 GAS CALL ISZERO DUP1 ISZERO PUSH2 0xF30 JUMPI RETURNDATASIZE PUSH1 0x0 DUP1 RETURNDATACOPY RETURNDATASIZE PUSH1 0x0 REVERT JUMPDEST POP POP POP POP PUSH1 0x40 MLOAD RETURNDATASIZE PUSH1 0x1F NOT PUSH1 0x1F DUP3 ADD AND DUP3 ADD DUP1 PUSH1 0x40 MSTORE POP DUP2 ADD SWAP1 PUSH2 0xF54 SWAP2 SWAP1 PUSH2 0x40FB JUMP JUMPDEST PUSH2 0xF93 JUMPI PUSH1 0x40 MLOAD PUSH32 0x8C379A000000000000000000000000000000000000000000000000000000000 DUP2 MSTORE PUSH1 0x4 ADD PUSH2 0xF8A SWAP1 PUSH2 0x4174 JUMP JUMPDEST PUSH1 0x40 MLOAD DUP1 SWAP2 SUB SWAP1 REVERT JUMPDEST PUSH32 0x8A43C4352486EC339F487F64AF78CA5CBF06CD47833F073D3BAF3A193E503161 DUP3 DUP3 PUSH1 0x40 MLOAD PUSH2 0xFC4 SWAP3 SWAP2 SWAP1 PUSH2 0x40A6 JUMP JUMPDEST PUSH1 0x40 MLOAD DUP1 SWAP2 SUB SWAP1 LOG1 POP PUSH2 0xFD5 PUSH2 0x2D7A JUMP JUMPDEST POP JUMP JUMPDEST PUSH1 0x0 PUSH1 0xB PUSH1 0x0 SWAP1 SLOAD SWAP1 PUSH2 0x100 EXP SWAP1 DIV PUSH1 0xFF AND SWAP1 POP SWAP1 JUMP JUMPDEST PUSH2 0xFF7 PUSH2 0x2D84 JUMP JUMPDEST PUSH2 0xFFF PUSH2 0x2D34 JUMP JUMPDEST PUSH1 0x0 DUP1 PUSH1 0x0 DUP4 DUP2 MSTORE PUSH1 0x20 ADD SWAP1 DUP2 MSTORE PUSH1 0x20 ADD PUSH1 0x0 KECCAK256 SWAP1 POP PUSH1 0x0 PUSH1 0x1 PUSH1 0x0 DUP5 DUP2 MSTORE PUSH1 0x20 ADD SWAP1 DUP2 MSTORE PUSH1 0x20 ADD PUSH1 0x0 KECCAK256 SWAP1 POP PUSH1 0x0 PUSH1 0x6 PUSH1 0x0 DUP6 DUP2 MSTORE PUSH1 0x20 ADD SWAP1 DUP2 MSTORE PUSH1 0x20 ADD PUSH1 0x0 KECCAK256 SWAP1 POP DUP2 PUSH1 0x1 ADD PUSH1 0x0 SWAP1 SLOAD SWAP1 PUSH2 0x100 EXP SWAP1 DIV PUSH1 0xFF AND PUSH2 0x1094 JUMPI PUSH1 0x40 MLOAD PUSH32 0x8C379A000000000000000000000000000000000000000000000000000000000 DUP2 MSTORE PUSH1 0x4 ADD PUSH2 0x108B SWAP1 PUSH2 0x41E0 JUMP JUMPDEST PUSH1 0x40 MLOAD DUP1 SWAP2 SUB SWAP1 REVERT JUMPDEST DUP1 PUSH1 0x2 ADD SLOAD TIMESTAMP GT PUSH2 0x10DA JUMPI PUSH1 0x40 MLOAD PUSH32 0x8C379A000000000000000000000000000000000000000000000000000000000 DUP2 MSTORE PUSH1 0x4 ADD PUSH2 0x10D1 SWAP1 PUSH2 0x424C JUMP JUMPDEST PUSH1 0x40 MLOAD DUP1 SWAP2 SUB SWAP1 REVERT JUMPDEST DUP2 PUSH1 0x1 ADD PUSH1 0x1 SWAP1 SLOAD SWAP1 PUSH2 0x100 EXP SWAP1 DIV PUSH1 0xFF AND ISZERO PUSH2 0x112C JUMPI PUSH1 0x40 MLOAD PUSH32 0x8C379A000000000000000000000000000000000000000000000000000000000 DUP2 MSTORE PUSH1 0x4 ADD PUSH2 0x1123 SWAP1 PUSH2 0x42B8 JUMP JUMPDEST PUSH1 0x40 MLOAD DUP1 SWAP2 SUB SWAP1 REVERT JUMPDEST PUSH1 0x0 PUSH2 0x1137 DUP6 PUSH2 0x1E59 JUMP JUMPDEST POP POP SWAP1 POP PUSH1 0x0 PUSH1 0xF PUSH1 0x0 SWAP1 SLOAD SWAP1 PUSH2 0x100 EXP SWAP1 DIV PUSH1 0xFF AND PUSH1 0xA PUSH2 0x1159 SWAP2 SWAP1 PUSH2 0x440B JUMP JUMPDEST PUSH1 0xE SLOAD DUP7 PUSH1 0x3 ADD SLOAD PUSH2 0x116B SWAP2 SWAP1 PUSH2 0x4456 JUMP JUMPDEST PUSH2 0x1175 SWAP2 SWAP1 PUSH2 0x44C7 JUMP JUMPDEST SWAP1 POP PUSH1 0x64 PUSH1 0x11 SLOAD DUP3 PUSH2 0x1187 SWAP2 SWAP1 PUSH2 0x4456 JUMP JUMPDEST PUSH2 0x1191 SWAP2 SWAP1 PUSH2 0x44C7 JUMP JUMPDEST DUP3 GT PUSH2 0x11D2 JUMPI PUSH1 0x40 MLOAD PUSH32 0x8C379A000000000000000000000000000000000000000000000000000000000 DUP2 MSTORE PUSH1 0x4 ADD PUSH2 0x11C9 SWAP1 PUSH2 0x4544 JUMP JUMPDEST PUSH1 0x40 MLOAD DUP1 SWAP2 SUB SWAP1 REVERT JUMPDEST PUSH2 0x11DB DUP7 PUSH2 0x2DC5 JUMP JUMPDEST PUSH1 0x0 DUP5 PUSH1 0x1 ADD PUSH1 0x0 PUSH2 0x100 EXP DUP2 SLOAD DUP2 PUSH1 0xFF MUL NOT AND SWAP1 DUP4 ISZERO ISZERO MUL OR SWAP1 SSTORE POP PUSH1 0x1 DUP5 PUSH1 0x1 ADD PUSH1 0x2 PUSH2 0x100 EXP DUP2 SLOAD DUP2 PUSH1 0xFF MUL NOT AND SWAP1 DUP4 ISZERO ISZERO MUL OR SWAP1 SSTORE POP DUP5 PUSH1 0x1 ADD PUSH1 0x0 SWAP1 SLOAD SWAP1 PUSH2 0x100 EXP SWAP1 DIV PUSH20 0xFFFFFFFFFFFFFFFFFFFFFFFFFFFFFFFFFFFFFFFF AND PUSH20 0xFFFFFFFFFFFFFFFFFFFFFFFFFFFFFFFFFFFFFFFF AND DUP7 PUSH32 0x256BDF47E9AFF5784070D6CAB332D79F81FC6B8C8ED875565982A423A389E3A DUP8 PUSH1 0x3 ADD SLOAD PUSH1 0x40 MLOAD PUSH2 0x1284 SWAP2 SWAP1 PUSH2 0x3A2E JUMP JUMPDEST PUSH1 0x40 MLOAD DUP1 SWAP2 SUB SWAP1 LOG3 POP POP POP POP POP PUSH2 0x1299 PUSH2 0x2D7A JUMP JUMPDEST POP JUMP JUMPDEST PUSH1 0x14 SLOAD DUP2 JUMP JUMPDEST PUSH2 0x12AA PUSH2 0x2D84 JUMP JUMPDEST PUSH2 0x12B2 PUSH2 0x2D34 JUMP JUMPDEST PUSH1 0x0 DUP1 PUSH1 0x0 DUP4 DUP2 MSTORE PUSH1 0x20 ADD SWAP1 DUP2 MSTORE PUSH1 0x20 ADD PUSH1 0x0 KECCAK256 SWAP1 POP PUSH1 0x0 PUSH1 0x1 PUSH1 0x0 DUP5 DUP2 MSTORE PUSH1 0x20 ADD SWAP1 DUP2 MSTORE PUSH1 0x20 ADD PUSH1 0x0 KECCAK256 SWAP1 POP PUSH1 0x0 PUSH1 0x2 PUSH1 0x0 DUP6 DUP2 MSTORE PUSH1 0x20 ADD SWAP1 DUP2 MSTORE PUSH1 0x20 ADD PUSH1 0x0 KECCAK256 SWAP1 POP DUP2 PUSH1 0x1 ADD PUSH1 0x0 SWAP1 SLOAD SWAP1 PUSH2 0x100 EXP SWAP1 DIV PUSH1 0xFF AND PUSH2 0x1347 JUMPI PUSH1 0x40 MLOAD PUSH32 0x8C379A000000000000000000000000000000000000000000000000000000000 DUP2 MSTORE PUSH1 0x4 ADD PUSH2 0x133E SWAP1 PUSH2 0x41E0 JUMP JUMPDEST PUSH1 0x40 MLOAD DUP1 SWAP2 SUB SWAP1 REVERT JUMPDEST DUP3 PUSH1 0x0 ADD PUSH1 0x0 SWAP1 SLOAD SWAP1 PUSH2 0x100 EXP SWAP1 DIV PUSH20 0xFFFFFFFFFFFFFFFFFFFFFFFFFFFFFFFFFFFFFFFF AND PUSH20 0xFFFFFFFFFFFFFFFFFFFFFFFFFFFFFFFFFFFFFFFF AND CALLER PUSH20 0xFFFFFFFFFFFFFFFFFFFFFFFFFFFFFFFFFFFFFFFF AND EQ PUSH2 0x13D9 JUMPI PUSH1 0x40 MLOAD PUSH32 0x8C379A000000000000000000000000000000000000000000000000000000000 DUP2 MSTORE PUSH1 0x4 ADD PUSH2 0x13D0 SWAP1 PUSH2 0x45B0 JUMP JUMPDEST PUSH1 0x40 MLOAD DUP1 SWAP2 SUB SWAP1 REVERT JUMPDEST PUSH2 0x13E2 DUP5 PUSH2 0x2EF6 JUMP JUMPDEST PUSH1 0x0 DUP2 PUSH1 0x1 ADD SLOAD SWAP1 POP PUSH1 0x0 DUP2 GT PUSH2 0x142E JUMPI PUSH1 0x40 MLOAD PUSH32 0x8C379A000000000000000000000000000000000000000000000000000000000 DUP2 MSTORE PUSH1 0x4 ADD PUSH2 0x1425 SWAP1 PUSH2 0x461C JUMP JUMPDEST PUSH1 0x40 MLOAD DUP1 SWAP2 SUB SWAP1 REVERT JUMPDEST PUSH1 0x0 PUSH1 0x64 PUSH1 0x14 DUP4 PUSH2 0x143F SWAP2 SWAP1 PUSH2 0x4456 JUMP JUMPDEST PUSH2 0x1449 SWAP2 SWAP1 PUSH2 0x44C7 JUMP JUMPDEST SWAP1 POP PUSH1 0x0 DUP2 DUP4 PUSH2 0x1459 SWAP2 SWAP1 PUSH2 0x463C JUMP JUMPDEST SWAP1 POP TIMESTAMP DUP5 PUSH1 0x0 ADD DUP2 SWAP1 SSTORE POP PUSH1 0x0 DUP6 PUSH1 0x2 ADD SLOAD DUP5 DUP9 PUSH1 0x2 ADD SLOAD PUSH2 0x147B SWAP2 SWAP1 PUSH2 0x4670 JUMP JUMPDEST PUSH2 0x1485 SWAP2 SWAP1 PUSH2 0x463C JUMP JUMPDEST SWAP1 POP DUP7 PUSH1 0x2 ADD SLOAD DUP2 GT PUSH2 0x14CD JUMPI PUSH1 0x40 MLOAD PUSH32 0x8C379A000000000000000000000000000000000000000000000000000000000 DUP2 MSTORE PUSH1 0x4 ADD PUSH2 0x14C4 SWAP1 PUSH2 0x46F0 JUMP JUMPDEST PUSH1 0x40 MLOAD DUP1 SWAP2 SUB SWAP1 REVERT JUMPDEST PUSH1 0x0 DUP4 GT PUSH2 0x1510 JUMPI PUSH1 0x40 MLOAD PUSH32 0x8C379A000000000000000000000000000000000000000000000000000000000 DUP2 MSTORE PUSH1 0x4 ADD PUSH2 0x1507 SWAP1 PUSH2 0x475C JUMP JUMPDEST PUSH1 0x40 MLOAD DUP1 SWAP2 SUB SWAP1 REVERT JUMPDEST PUSH1 0xB PUSH1 0x1 SWAP1 SLOAD SWAP1 PUSH2 0x100 EXP SWAP1 DIV PUSH20 0xFFFFFFFFFFFFFFFFFFFFFFFFFFFFFFFFFFFFFFFF AND PUSH20 0xFFFFFFFFFFFFFFFFFFFFFFFFFFFFFFFFFFFFFFFF AND PUSH4 0x23B872DD CALLER ADDRESS DUP5 PUSH1 0x40 MLOAD DUP5 PUSH4 0xFFFFFFFF AND PUSH1 0xE0 SHL DUP2 MSTORE PUSH1 0x4 ADD PUSH2 0x156F SWAP4 SWAP3 SWAP2 SWAP1 PUSH2 0x477C JUMP JUMPDEST PUSH1 0x20 PUSH1 0x40 MLOAD DUP1 DUP4 SUB DUP2 PUSH1 0x0 DUP8 GAS CALL ISZERO DUP1 ISZERO PUSH2 0x158E JUMPI RETURNDATASIZE PUSH1 0x0 DUP1 RETURNDATACOPY RETURNDATASIZE PUSH1 0x0 REVERT JUMPDEST POP POP POP POP PUSH1 0x40 MLOAD RETURNDATASIZE PUSH1 0x1F NOT PUSH1 0x1F DUP3 ADD AND DUP3 ADD DUP1 PUSH1 0x40 MSTORE POP DUP2 ADD SWAP1 PUSH2 0x15B2 SWAP2 SWAP1 PUSH2 0x40FB JUMP JUMPDEST PUSH2 0x15F1 JUMPI PUSH1 0x40 MLOAD PUSH32 0x8C379A000000000000000000000000000000000000000000000000000000000 DUP2 MSTORE PUSH1 0x4 ADD PUSH2 0x15E8 SWAP1 PUSH2 0x47FF JUMP JUMPDEST PUSH1 0x40 MLOAD DUP1 SWAP2 SUB SWAP1 REVERT JUMPDEST PUSH1 0x0 DUP3 DUP9 PUSH1 0x2 ADD SLOAD PUSH2 0x1603 SWAP2 SWAP1 PUSH2 0x4670 JUMP JUMPDEST SWAP1 POP PUSH1 0xB PUSH1 0x1 SWAP1 SLOAD SWAP1 PUSH2 0x100 EXP SWAP1 DIV PUSH20 0xFFFFFFFFFFFFFFFFFFFFFFFFFFFFFFFFFFFFFFFF AND PUSH20 0xFFFFFFFFFFFFFFFFFFFFFFFFFFFFFFFFFFFFFFFF AND PUSH4 0xA9059CBB DUP10 PUSH1 0x1 ADD PUSH1 0x0 SWAP1 SLOAD SWAP1 PUSH2 0x100 EXP SWAP1 DIV PUSH20 0xFFFFFFFFFFFFFFFFFFFFFFFFFFFFFFFFFFFFFFFF AND DUP4 PUSH1 0x40 MLOAD DUP4 PUSH4 0xFFFFFFFF AND PUSH1 0xE0 SHL DUP2 MSTORE PUSH1 0x4 ADD PUSH2 0x1686 SWAP3 SWAP2 SWAP1 PUSH2 0x40A6 JUMP JUMPDEST PUSH1 0x20 PUSH1 0x40 MLOAD DUP1 DUP4 SUB DUP2 PUSH1 0x0 DUP8 GAS CALL ISZERO DUP1 ISZERO PUSH2 0x16A5 JUMPI RETURNDATASIZE PUSH1 0x0 DUP1 RETURNDATACOPY RETURNDATASIZE PUSH1 0x0 REVERT JUMPDEST POP POP POP POP PUSH1 0x40 MLOAD RETURNDATASIZE PUSH1 0x1F NOT PUSH1 0x1F DUP3 ADD AND DUP3 ADD DUP1 PUSH1 0x40 MSTORE POP DUP2 ADD SWAP1 PUSH2 0x16C9 SWAP2 SWAP1 PUSH2 0x40FB JUMP JUMPDEST PUSH2 0x1708 JUMPI PUSH1 0x40 MLOAD PUSH32 0x8C379A000000000000000000000000000000000000000000000000000000000 DUP2 MSTORE PUSH1 0x4 ADD PUSH2 0x16FF SWAP1 PUSH2 0x486B JUMP JUMPDEST PUSH1 0x40 MLOAD DUP1 SWAP2 SUB SWAP1 REVERT JUMPDEST DUP2 DUP8 PUSH1 0x2 ADD PUSH1 0x0 DUP3 DUP3 SLOAD PUSH2 0x171C SWAP2 SWAP1 PUSH2 0x4670 JUMP JUMPDEST SWAP3 POP POP DUP2 SWAP1 SSTORE POP PUSH1 0x0 DUP8 PUSH1 0x1 ADD PUSH1 0x0 PUSH2 0x100 EXP DUP2 SLOAD DUP2 PUSH1 0xFF MUL NOT AND SWAP1 DUP4 ISZERO ISZERO MUL OR SWAP1 SSTORE POP PUSH1 0x1 DUP8 PUSH1 0x1 ADD PUSH1 0x1 PUSH2 0x100 EXP DUP2 SLOAD DUP2 PUSH1 0xFF MUL NOT AND SWAP1 DUP4 ISZERO ISZERO MUL OR SWAP1 SSTORE POP PUSH1 0x0 DUP8 PUSH1 0x1 ADD PUSH1 0x2 PUSH2 0x100 EXP DUP2 SLOAD DUP2 PUSH1 0xFF MUL NOT AND SWAP1 DUP4 ISZERO ISZERO MUL OR SWAP1 SSTORE POP PUSH2 0x1783 DUP10 PUSH2 0x3075 JUMP JUMPDEST CALLER PUSH20 0xFFFFFFFFFFFFFFFFFFFFFFFFFFFFFFFFFFFFFFFF AND DUP10 PUSH32 0x512D3E65B3E58C2187BB1872AA435DBA5BD09C1C03823BA56AB70AAC411E4A21 DUP5 PUSH1 0x40 MLOAD PUSH2 0x17CA SWAP2 SWAP1 PUSH2 0x3A2E JUMP JUMPDEST PUSH1 0x40 MLOAD DUP1 SWAP2 SUB SWAP1 LOG3 DUP9 PUSH32 0x4E1EAD5246A36F9DA4A7F8BA0922EBAB097B2349377E0B60B228A5E9D8EE587 DUP6 PUSH1 0x40 MLOAD PUSH2 0x1802 SWAP2 SWAP1 PUSH2 0x3A2E JUMP JUMPDEST PUSH1 0x40 MLOAD DUP1 SWAP2 SUB SWAP1 LOG2 POP POP POP POP POP POP POP POP PUSH2 0x181A PUSH2 0x2D7A JUMP JUMPDEST POP JUMP JUMPDEST PUSH2 0x1825 PUSH2 0x2D84 JUMP JUMPDEST PUSH2 0x182D PUSH2 0x2D34 JUMP JUMPDEST PUSH1 0x0 DUP1 PUSH1 0x0 DUP4 DUP2 MSTORE PUSH1 0x20 ADD SWAP1 DUP2 MSTORE PUSH1 0x20 ADD PUSH1 0x0 KECCAK256 SWAP1 POP PUSH1 0x0 PUSH1 0x1 PUSH1 0x0 DUP5 DUP2 MSTORE PUSH1 0x20 ADD SWAP1 DUP2 MSTORE PUSH1 0x20 ADD PUSH1 0x0 KECCAK256 SWAP1 POP DUP1 PUSH1 0x1 ADD PUSH1 0x0 SWAP1 SLOAD SWAP1 PUSH2 0x100 EXP SWAP1 DIV PUSH1 0xFF AND ISZERO PUSH2 0x18AC JUMPI PUSH1 0x40 MLOAD PUSH32 0x8C379A000000000000000000000000000000000000000000000000000000000 DUP2 MSTORE PUSH1 0x4 ADD PUSH2 0x18A3 SWAP1 PUSH2 0x48D7 JUMP JUMPDEST PUSH1 0x40 MLOAD DUP1 SWAP2 SUB SWAP1 REVERT JUMPDEST PUSH1 0x0 PUSH20 0xFFFFFFFFFFFFFFFFFFFFFFFFFFFFFFFFFFFFFFFF AND DUP3 PUSH1 0x1 ADD PUSH1 0x0 SWAP1 SLOAD SWAP1 PUSH2 0x100 EXP SWAP1 DIV PUSH20 0xFFFFFFFFFFFFFFFFFFFFFFFFFFFFFFFFFFFFFFFF AND PUSH20 0xFFFFFFFFFFFFFFFFFFFFFFFFFFFFFFFFFFFFFFFF AND EQ PUSH2 0x193F JUMPI PUSH1 0x40 MLOAD PUSH32 0x8C379A000000000000000000000000000000000000000000000000000000000 DUP2 MSTORE PUSH1 0x4 ADD PUSH2 0x1936 SWAP1 PUSH2 0x4943 JUMP JUMPDEST PUSH1 0x40 MLOAD DUP1 SWAP2 SUB SWAP1 REVERT JUMPDEST DUP2 PUSH1 0x2 ADD SLOAD PUSH1 0xB PUSH1 0x1 SWAP1 SLOAD SWAP1 PUSH2 0x100 EXP SWAP1 DIV PUSH20 0xFFFFFFFFFFFFFFFFFFFFFFFFFFFFFFFFFFFFFFFF AND PUSH20 0xFFFFFFFFFFFFFFFFFFFFFFFFFFFFFFFFFFFFFFFF AND PUSH4 0xDD62ED3E CALLER ADDRESS PUSH1 0x40 MLOAD DUP4 PUSH4 0xFFFFFFFF AND PUSH1 0xE0 SHL DUP2 MSTORE PUSH1 0x4 ADD PUSH2 0x19A1 SWAP3 SWAP2 SWAP1 PUSH2 0x4963 JUMP JUMPDEST PUSH1 0x20 PUSH1 0x40 MLOAD DUP1 DUP4 SUB DUP2 DUP7 GAS STATICCALL ISZERO DUP1 ISZERO PUSH2 0x19BE JUMPI RETURNDATASIZE PUSH1 0x0 DUP1 RETURNDATACOPY RETURNDATASIZE PUSH1 0x0 REVERT JUMPDEST POP POP POP POP PUSH1 0x40 MLOAD RETURNDATASIZE PUSH1 0x1F NOT PUSH1 0x1F DUP3 ADD AND DUP3 ADD DUP1 PUSH1 0x40 MSTORE POP DUP2 ADD SWAP1 PUSH2 0x19E2 SWAP2 SWAP1 PUSH2 0x400D JUMP JUMPDEST LT ISZERO PUSH2 0x1A23 JUMPI PUSH1 0x40 MLOAD PUSH32 0x8C379A000000000000000000000000000000000000000000000000000000000 DUP2 MSTORE PUSH1 0x4 ADD PUSH2 0x1A1A SWAP1 PUSH2 0x49D8 JUMP JUMPDEST PUSH1 0x40 MLOAD DUP1 SWAP2 SUB SWAP1 REVERT JUMPDEST PUSH1 0xB PUSH1 0x1 SWAP1 SLOAD SWAP1 PUSH2 0x100 EXP SWAP1 DIV PUSH20 0xFFFFFFFFFFFFFFFFFFFFFFFFFFFFFFFFFFFFFFFF AND PUSH20 0xFFFFFFFFFFFFFFFFFFFFFFFFFFFFFFFFFFFFFFFF AND PUSH4 0x23B872DD CALLER ADDRESS DUP6 PUSH1 0x2 ADD SLOAD PUSH1 0x40 MLOAD DUP5 PUSH4 0xFFFFFFFF AND PUSH1 0xE0 SHL DUP2 MSTORE PUSH1 0x4 ADD PUSH2 0x1A86 SWAP4 SWAP3 SWAP2 SWAP1 PUSH2 0x477C JUMP JUMPDEST PUSH1 0x20 PUSH1 0x40 MLOAD DUP1 DUP4 SUB DUP2 PUSH1 0x0 DUP8 GAS CALL ISZERO DUP1 ISZERO PUSH2 0x1AA5 JUMPI RETURNDATASIZE PUSH1 0x0 DUP1 RETURNDATACOPY RETURNDATASIZE PUSH1 0x0 REVERT JUMPDEST POP POP POP POP PUSH1 0x40 MLOAD RETURNDATASIZE PUSH1 0x1F NOT PUSH1 0x1F DUP3 ADD AND DUP3 ADD DUP1 PUSH1 0x40 MSTORE POP DUP2 ADD SWAP1 PUSH2 0x1AC9 SWAP2 SWAP1 PUSH2 0x40FB JUMP JUMPDEST PUSH2 0x1B08 JUMPI PUSH1 0x40 MLOAD PUSH32 0x8C379A000000000000000000000000000000000000000000000000000000000 DUP2 MSTORE PUSH1 0x4 ADD PUSH2 0x1AFF SWAP1 PUSH2 0x47FF JUMP JUMPDEST PUSH1 0x40 MLOAD DUP1 SWAP2 SUB SWAP1 REVERT JUMPDEST CALLER DUP3 PUSH1 0x1 ADD PUSH1 0x0 PUSH2 0x100 EXP DUP2 SLOAD DUP2 PUSH20 0xFFFFFFFFFFFFFFFFFFFFFFFFFFFFFFFFFFFFFFFF MUL NOT AND SWAP1 DUP4 PUSH20 0xFFFFFFFFFFFFFFFFFFFFFFFFFFFFFFFFFFFFFFFF AND MUL OR SWAP1 SSTORE POP TIMESTAMP DUP2 PUSH1 0x0 ADD DUP2 SWAP1 SSTORE POP PUSH1 0x1 DUP2 PUSH1 0x1 ADD PUSH1 0x0 PUSH2 0x100 EXP DUP2 SLOAD DUP2 PUSH1 0xFF MUL NOT AND SWAP1 DUP4 ISZERO ISZERO MUL OR SWAP1 SSTORE POP PUSH1 0xB PUSH1 0x1 SWAP1 SLOAD SWAP1 PUSH2 0x100 EXP SWAP1 DIV PUSH20 0xFFFFFFFFFFFFFFFFFFFFFFFFFFFFFFFFFFFFFFFF AND PUSH20 0xFFFFFFFFFFFFFFFFFFFFFFFFFFFFFFFFFFFFFFFF AND PUSH4 0xA9059CBB DUP4 PUSH1 0x0 ADD PUSH1 0x0 SWAP1 SLOAD SWAP1 PUSH2 0x100 EXP SWAP1 DIV PUSH20 0xFFFFFFFFFFFFFFFFFFFFFFFFFFFFFFFFFFFFFFFF AND DUP5 PUSH1 0x2 ADD SLOAD PUSH1 0x40 MLOAD DUP4 PUSH4 0xFFFFFFFF AND PUSH1 0xE0 SHL DUP2 MSTORE PUSH1 0x4 ADD PUSH2 0x1BF6 SWAP3 SWAP2 SWAP1 PUSH2 0x40A6 JUMP JUMPDEST PUSH1 0x20 PUSH1 0x40 MLOAD DUP1 DUP4 SUB DUP2 PUSH1 0x0 DUP8 GAS CALL ISZERO DUP1 ISZERO PUSH2 0x1C15 JUMPI RETURNDATASIZE PUSH1 0x0 DUP1 RETURNDATACOPY RETURNDATASIZE PUSH1 0x0 REVERT JUMPDEST POP POP POP POP PUSH1 0x40 MLOAD RETURNDATASIZE PUSH1 0x1F NOT PUSH1 0x1F DUP3 ADD AND DUP3 ADD DUP1 PUSH1 0x40 MSTORE POP DUP2 ADD SWAP1 PUSH2 0x1C39 SWAP2 SWAP1 PUSH2 0x40FB JUMP JUMPDEST PUSH2 0x1C78 JUMPI PUSH1 0x40 MLOAD PUSH32 0x8C379A000000000000000000000000000000000000000000000000000000000 DUP2 MSTORE PUSH1 0x4 ADD PUSH2 0x1C6F SWAP1 PUSH2 0x4A44 JUMP JUMPDEST PUSH1 0x40 MLOAD DUP1 SWAP2 SUB SWAP1 REVERT JUMPDEST PUSH1 0x5 PUSH1 0x0 CALLER PUSH20 0xFFFFFFFFFFFFFFFFFFFFFFFFFFFFFFFFFFFFFFFF AND PUSH20 0xFFFFFFFFFFFFFFFFFFFFFFFFFFFFFFFFFFFFFFFF AND DUP2 MSTORE PUSH1 0x20 ADD SWAP1 DUP2 MSTORE PUSH1 0x20 ADD PUSH1 0x0 KECCAK256 DUP4 SWAP1 DUP1 PUSH1 0x1 DUP2 SLOAD ADD DUP1 DUP3 SSTORE DUP1 SWAP2 POP POP PUSH1 0x1 SWAP1 SUB SWAP1 PUSH1 0x0 MSTORE PUSH1 0x20 PUSH1 0x0 KECCAK256 ADD PUSH1 0x0 SWAP1 SWAP2 SWAP1 SWAP2 SWAP1 SWAP2 POP SSTORE PUSH1 0x4 PUSH1 0x0 DUP4 PUSH1 0x0 ADD PUSH1 0x0 SWAP1 SLOAD SWAP1 PUSH2 0x100 EXP SWAP1 DIV PUSH20 0xFFFFFFFFFFFFFFFFFFFFFFFFFFFFFFFFFFFFFFFF AND PUSH20 0xFFFFFFFFFFFFFFFFFFFFFFFFFFFFFFFFFFFFFFFF AND PUSH20 0xFFFFFFFFFFFFFFFFFFFFFFFFFFFFFFFFFFFFFFFF AND DUP2 MSTORE PUSH1 0x20 ADD SWAP1 DUP2 MSTORE PUSH1 0x20 ADD PUSH1 0x0 KECCAK256 DUP4 SWAP1 DUP1 PUSH1 0x1 DUP2 SLOAD ADD DUP1 DUP3 SSTORE DUP1 SWAP2 POP POP PUSH1 0x1 SWAP1 SUB SWAP1 PUSH1 0x0 MSTORE PUSH1 0x20 PUSH1 0x0 KECCAK256 ADD PUSH1 0x0 SWAP1 SWAP2 SWAP1 SWAP2 SWAP1 SWAP2 POP SSTORE PUSH1 0x9 DUP4 SWAP1 DUP1 PUSH1 0x1 DUP2 SLOAD ADD DUP1 DUP3 SSTORE DUP1 SWAP2 POP POP PUSH1 0x1 SWAP1 SUB SWAP1 PUSH1 0x0 MSTORE PUSH1 0x20 PUSH1 0x0 KECCAK256 ADD PUSH1 0x0 SWAP1 SWAP2 SWAP1 SWAP2 SWAP1 SWAP2 POP SSTORE CALLER PUSH20 0xFFFFFFFFFFFFFFFFFFFFFFFFFFFFFFFFFFFFFFFF AND DUP4 PUSH32 0x15FEAB5D3EB17171632762CF769709A315DD15F487A556C0DFB8A259C8F186CC PUSH1 0x40 MLOAD PUSH1 0x40 MLOAD DUP1 SWAP2 SUB SWAP1 LOG3 DUP2 PUSH1 0x0 ADD PUSH1 0x0 SWAP1 SLOAD SWAP1 PUSH2 0x100 EXP SWAP1 DIV PUSH20 0xFFFFFFFFFFFFFFFFFFFFFFFFFFFFFFFFFFFFFFFF AND PUSH20 0xFFFFFFFFFFFFFFFFFFFFFFFFFFFFFFFFFFFFFFFF AND DUP4 PUSH32 0xCEEB4503A2FE0B51298A0AF21358F3D89E7EAB3F65AE2A7835859C3E2C51604 DUP5 PUSH1 0x2 ADD SLOAD PUSH1 0x40 MLOAD PUSH2 0x1E44 SWAP2 SWAP1 PUSH2 0x3A2E JUMP JUMPDEST PUSH1 0x40 MLOAD DUP1 SWAP2 SUB SWAP1 LOG3 POP POP PUSH2 0x1E56 PUSH2 0x2D7A JUMP JUMPDEST POP JUMP JUMPDEST PUSH1 0x0 DUP1 PUSH1 0x0 DUP1 PUSH1 0x0 DUP1 DUP7 DUP2 MSTORE PUSH1 0x20 ADD SWAP1 DUP2 MSTORE PUSH1 0x20 ADD PUSH1 0x0 KECCAK256 SWAP1 POP PUSH1 0x0 PUSH1 0x1 PUSH1 0x0 DUP8 DUP2 MSTORE PUSH1 0x20 ADD SWAP1 DUP2 MSTORE PUSH1 0x20 ADD PUSH1 0x0 KECCAK256 SWAP1 POP PUSH1 0x0 PUSH1 0x2 PUSH1 0x0 DUP9 DUP2 MSTORE PUSH1 0x20 ADD SWAP1 DUP2 MSTORE PUSH1 0x20 ADD PUSH1 0x0 KECCAK256 SWAP1 POP PUSH1 0x0 DUP4 PUSH1 0x2 ADD SLOAD GT PUSH2 0x1EE8 JUMPI PUSH1 0x40 MLOAD PUSH32 0x8C379A000000000000000000000000000000000000000000000000000000000 DUP2 MSTORE PUSH1 0x4 ADD PUSH2 0x1EDF SWAP1 PUSH2 0x4AB0 JUMP JUMPDEST PUSH1 0x40 MLOAD DUP1 SWAP2 SUB SWAP1 REVERT JUMPDEST DUP3 PUSH1 0x2 ADD SLOAD SWAP5 POP DUP2 PUSH1 0x1 ADD PUSH1 0x0 SWAP1 SLOAD SWAP1 PUSH2 0x100 EXP SWAP1 DIV PUSH1 0xFF AND ISZERO DUP1 ISZERO PUSH2 0x1F1C JUMPI POP DUP2 PUSH1 0x1 ADD PUSH1 0x1 SWAP1 SLOAD SWAP1 PUSH2 0x100 EXP SWAP1 DIV PUSH1 0xFF AND JUMPDEST ISZERO PUSH2 0x1F45 JUMPI DUP2 PUSH1 0x2 ADD SLOAD DUP6 DUP7 DUP5 PUSH1 0x2 ADD SLOAD PUSH2 0x1F37 SWAP2 SWAP1 PUSH2 0x463C JUMP JUMPDEST SWAP6 POP SWAP6 POP SWAP6 POP POP POP POP PUSH2 0x1FED JUMP JUMPDEST PUSH1 0x0 DUP3 PUSH1 0x1 ADD PUSH1 0x0 SWAP1 SLOAD SWAP1 PUSH2 0x100 EXP SWAP1 DIV PUSH1 0xFF AND ISZERO PUSH2 0x1FC3 JUMPI PUSH1 0x0 DUP3 PUSH1 0x0 ADD SLOAD SUB PUSH2 0x1F81 JUMPI DUP3 PUSH1 0x0 ADD SLOAD TIMESTAMP PUSH2 0x1F7A SWAP2 SWAP1 PUSH2 0x463C JUMP JUMPDEST SWAP1 POP PUSH2 0x1F94 JUMP JUMPDEST DUP2 PUSH1 0x0 ADD SLOAD TIMESTAMP PUSH2 0x1F91 SWAP2 SWAP1 PUSH2 0x463C JUMP JUMPDEST SWAP1 POP JUMPDEST PUSH1 0x0 PUSH2 0x1FA9 DUP6 PUSH1 0x2 ADD SLOAD DUP7 PUSH1 0x4 ADD SLOAD DUP5 PUSH2 0x31B0 JUMP JUMPDEST SWAP1 POP DUP1 DUP4 PUSH1 0x1 ADD SLOAD PUSH2 0x1FBB SWAP2 SWAP1 PUSH2 0x4670 JUMP JUMPDEST SWAP6 POP POP PUSH2 0x1FCB JUMP JUMPDEST DUP2 PUSH1 0x1 ADD SLOAD SWAP5 POP JUMPDEST DUP3 PUSH1 0x2 ADD SLOAD DUP6 DUP8 PUSH2 0x1FDC SWAP2 SWAP1 PUSH2 0x4670 JUMP JUMPDEST PUSH2 0x1FE6 SWAP2 SWAP1 PUSH2 0x463C JUMP JUMPDEST SWAP7 POP POP POP POP POP JUMPDEST SWAP2 SWAP4 SWAP1 SWAP3 POP JUMP JUMPDEST PUSH1 0xD PUSH1 0x0 SWAP1 SLOAD SWAP1 PUSH2 0x100 EXP SWAP1 DIV PUSH20 0xFFFFFFFFFFFFFFFFFFFFFFFFFFFFFFFFFFFFFFFF AND DUP2 JUMP JUMPDEST PUSH1 0xD PUSH1 0x0 SWAP1 SLOAD SWAP1 PUSH2 0x100 EXP SWAP1 DIV PUSH20 0xFFFFFFFFFFFFFFFFFFFFFFFFFFFFFFFFFFFFFFFF AND PUSH20 0xFFFFFFFFFFFFFFFFFFFFFFFFFFFFFFFFFFFFFFFF AND CALLER PUSH20 0xFFFFFFFFFFFFFFFFFFFFFFFFFFFFFFFFFFFFFFFF AND EQ PUSH2 0x20AA JUMPI PUSH1 0x40 MLOAD PUSH32 0x8C379A000000000000000000000000000000000000000000000000000000000 DUP2 MSTORE PUSH1 0x4 ADD PUSH2 0x20A1 SWAP1 PUSH2 0x3E97 JUMP JUMPDEST PUSH1 0x40 MLOAD DUP1 SWAP2 SUB SWAP1 REVERT JUMPDEST PUSH1 0x0 DUP3 GT PUSH2 0x20ED JUMPI PUSH1 0x40 MLOAD PUSH32 0x8C379A000000000000000000000000000000000000000000000000000000000 DUP2 MSTORE PUSH1 0x4 ADD PUSH2 0x20E4 SWAP1 PUSH2 0x4B42 JUMP JUMPDEST PUSH1 0x40 MLOAD DUP1 SWAP2 SUB SWAP1 REVERT JUMPDEST DUP2 DUP2 GT PUSH2 0x212F JUMPI PUSH1 0x40 MLOAD PUSH32 0x8C379A000000000000000000000000000000000000000000000000000000000 DUP2 MSTORE PUSH1 0x4 ADD PUSH2 0x2126 SWAP1 PUSH2 0x4BD4 JUMP JUMPDEST PUSH1 0x40 MLOAD DUP1 SWAP2 SUB SWAP1 REVERT JUMPDEST DUP2 PUSH1 0x13 DUP2 SWAP1 SSTORE POP DUP1 PUSH1 0x14 DUP2 SWAP1 SSTORE POP POP POP JUMP JUMPDEST PUSH1 0xB PUSH1 0x1 SWAP1 SLOAD SWAP1 PUSH2 0x100 EXP SWAP1 DIV PUSH20 0xFFFFFFFFFFFFFFFFFFFFFFFFFFFFFFFFFFFFFFFF AND DUP2 JUMP JUMPDEST PUSH1 0x8 PUSH1 0x20 MSTORE DUP1 PUSH1 0x0 MSTORE PUSH1 0x40 PUSH1 0x0 KECCAK256 PUSH1 0x0 SWAP2 POP SWAP1 POP DUP1 PUSH1 0x0 ADD PUSH1 0x0 SWAP1 SLOAD SWAP1 PUSH2 0x100 EXP SWAP1 DIV PUSH20 0xFFFFFFFFFFFFFFFFFFFFFFFFFFFFFFFFFFFFFFFF AND SWAP1 DUP1 PUSH1 0x1 ADD SLOAD SWAP1 DUP1 PUSH1 0x2 ADD PUSH1 0x0 SWAP1 SLOAD SWAP1 PUSH2 0x100 EXP SWAP1 DIV PUSH1 0xFF AND SWAP1 POP DUP4 JUMP JUMPDEST PUSH2 0x21C6 PUSH2 0x2D84 JUMP JUMPDEST PUSH2 0x21CE PUSH2 0x2D34 JUMP JUMPDEST PUSH1 0x0 DUP1 PUSH1 0x0 DUP5 DUP2 MSTORE PUSH1 0x20 ADD SWAP1 DUP2 MSTORE PUSH1 0x20 ADD PUSH1 0x0 KECCAK256 SWAP1 POP PUSH1 0x0 PUSH1 0x1 PUSH1 0x0 DUP6 DUP2 MSTORE PUSH1 0x20 ADD SWAP1 DUP2 MSTORE PUSH1 0x20 ADD PUSH1 0x0 KECCAK256 SWAP1 POP PUSH1 0x0 PUSH1 0x2 PUSH1 0x0 DUP7 DUP2 MSTORE PUSH1 0x20 ADD SWAP1 DUP2 MSTORE PUSH1 0x20 ADD PUSH1 0x0 KECCAK256 SWAP1 POP DUP2 PUSH1 0x1 ADD PUSH1 0x0 SWAP1 SLOAD SWAP1 PUSH2 0x100 EXP SWAP1 DIV PUSH1 0xFF AND PUSH2 0x2263 JUMPI PUSH1 0x40 MLOAD PUSH32 0x8C379A000000000000000000000000000000000000000000000000000000000 DUP2 MSTORE PUSH1 0x4 ADD PUSH2 0x225A SWAP1 PUSH2 0x41E0 JUMP JUMPDEST PUSH1 0x40 MLOAD DUP1 SWAP2 SUB SWAP1 REVERT JUMPDEST DUP3 PUSH1 0x0 ADD PUSH1 0x0 SWAP1 SLOAD SWAP1 PUSH2 0x100 EXP SWAP1 DIV PUSH20 0xFFFFFFFFFFFFFFFFFFFFFFFFFFFFFFFFFFFFFFFF AND PUSH20 0xFFFFFFFFFFFFFFFFFFFFFFFFFFFFFFFFFFFFFFFF AND CALLER PUSH20 0xFFFFFFFFFFFFFFFFFFFFFFFFFFFFFFFFFFFFFFFF AND EQ PUSH2 0x22F5 JUMPI PUSH1 0x40 MLOAD PUSH32 0x8C379A000000000000000000000000000000000000000000000000000000000 DUP2 MSTORE PUSH1 0x4 ADD PUSH2 0x22EC SWAP1 PUSH2 0x45B0 JUMP JUMPDEST PUSH1 0x40 MLOAD DUP1 SWAP2 SUB SWAP1 REVERT JUMPDEST PUSH2 0x22FE DUP6 PUSH2 0x2EF6 JUMP JUMPDEST PUSH1 0x0 DUP2 PUSH1 0x1 ADD SLOAD SWAP1 POP PUSH1 0x0 DUP4 PUSH1 0x2 ADD SLOAD DUP3 DUP7 PUSH1 0x2 ADD SLOAD PUSH2 0x231E SWAP2 SWAP1 PUSH2 0x4670 JUMP JUMPDEST PUSH2 0x2328 SWAP2 SWAP1 PUSH2 0x463C JUMP JUMPDEST SWAP1 POP DUP1 DUP7 GT ISZERO PUSH2 0x236D JUMPI PUSH1 0x40 MLOAD PUSH32 0x8C379A000000000000000000000000000000000000000000000000000000000 DUP2 MSTORE PUSH1 0x4 ADD PUSH2 0x2364 SWAP1 PUSH2 0x4C40 JUMP JUMPDEST PUSH1 0x40 MLOAD DUP1 SWAP2 SUB SWAP1 REVERT JUMPDEST PUSH1 0xB PUSH1 0x1 SWAP1 SLOAD SWAP1 PUSH2 0x100 EXP SWAP1 DIV PUSH20 0xFFFFFFFFFFFFFFFFFFFFFFFFFFFFFFFFFFFFFFFF AND PUSH20 0xFFFFFFFFFFFFFFFFFFFFFFFFFFFFFFFFFFFFFFFF AND PUSH4 0x23B872DD CALLER DUP8 PUSH1 0x1 ADD PUSH1 0x0 SWAP1 SLOAD SWAP1 PUSH2 0x100 EXP SWAP1 DIV PUSH20 0xFFFFFFFFFFFFFFFFFFFFFFFFFFFFFFFFFFFFFFFF AND DUP10 PUSH1 0x40 MLOAD DUP5 PUSH4 0xFFFFFFFF AND PUSH1 0xE0 SHL DUP2 MSTORE PUSH1 0x4 ADD PUSH2 0x23F0 SWAP4 SWAP3 SWAP2 SWAP1 PUSH2 0x477C JUMP JUMPDEST PUSH1 0x20 PUSH1 0x40 MLOAD DUP1 DUP4 SUB DUP2 PUSH1 0x0 DUP8 GAS CALL ISZERO DUP1 ISZERO PUSH2 0x240F JUMPI RETURNDATASIZE PUSH1 0x0 DUP1 RETURNDATACOPY RETURNDATASIZE PUSH1 0x0 REVERT JUMPDEST POP POP POP POP PUSH1 0x40 MLOAD RETURNDATASIZE PUSH1 0x1F NOT PUSH1 0x1F DUP3 ADD AND DUP3 ADD DUP1 PUSH1 0x40 MSTORE POP DUP2 ADD SWAP1 PUSH2 0x2433 SWAP2 SWAP1 PUSH2 0x40FB JUMP JUMPDEST PUSH2 0x2472 JUMPI PUSH1 0x40 MLOAD PUSH32 0x8C379A000000000000000000000000000000000000000000000000000000000 DUP2 MSTORE PUSH1 0x4 ADD PUSH2 0x2469 SWAP1 PUSH2 0x4CAC JUMP JUMPDEST PUSH1 0x40 MLOAD DUP1 SWAP2 SUB SWAP1 REVERT JUMPDEST DUP6 DUP5 PUSH1 0x2 ADD PUSH1 0x0 DUP3 DUP3 SLOAD PUSH2 0x2486 SWAP2 SWAP1 PUSH2 0x4670 JUMP JUMPDEST SWAP3 POP POP DUP2 SWAP1 SSTORE POP DUP1 DUP5 PUSH1 0x2 ADD SLOAD LT PUSH2 0x24DC JUMPI PUSH1 0x1 DUP5 PUSH1 0x1 ADD PUSH1 0x1 PUSH2 0x100 EXP DUP2 SLOAD DUP2 PUSH1 0xFF MUL NOT AND SWAP1 DUP4 ISZERO ISZERO MUL OR SWAP1 SSTORE POP PUSH1 0x0 DUP5 PUSH1 0x1 ADD PUSH1 0x0 PUSH2 0x100 EXP DUP2 SLOAD DUP2 PUSH1 0xFF MUL NOT AND SWAP1 DUP4 ISZERO ISZERO MUL OR SWAP1 SSTORE POP PUSH2 0x24DB DUP8 PUSH2 0x3075 JUMP JUMPDEST JUMPDEST CALLER PUSH20 0xFFFFFFFFFFFFFFFFFFFFFFFFFFFFFFFFFFFFFFFF AND DUP8 PUSH32 0xB7B6AE626E0094ABA4B69388B656D4B64F27860C5101C42C10A2E53FD6B0CE35 DUP9 PUSH1 0x40 MLOAD PUSH2 0x2523 SWAP2 SWAP1 PUSH2 0x3A2E JUMP JUMPDEST PUSH1 0x40 MLOAD DUP1 SWAP2 SUB SWAP1 LOG3 POP POP POP POP POP PUSH2 0x2538 PUSH2 0x2D7A JUMP JUMPDEST POP POP JUMP JUMPDEST PUSH1 0x1 PUSH1 0x20 MSTORE DUP1 PUSH1 0x0 MSTORE PUSH1 0x40 PUSH1 0x0 KECCAK256 PUSH1 0x0 SWAP2 POP SWAP1 POP DUP1 PUSH1 0x0 ADD SLOAD SWAP1 DUP1 PUSH1 0x1 ADD PUSH1 0x0 SWAP1 SLOAD SWAP1 PUSH2 0x100 EXP SWAP1 DIV PUSH1 0xFF AND SWAP1 DUP1 PUSH1 0x1 ADD PUSH1 0x1 SWAP1 SLOAD SWAP1 PUSH2 0x100 EXP SWAP1 DIV PUSH1 0xFF AND SWAP1 DUP1 PUSH1 0x1 ADD PUSH1 0x2 SWAP1 SLOAD SWAP1 PUSH2 0x100 EXP SWAP1 DIV PUSH1 0xFF AND SWAP1 DUP1 PUSH1 0x2 ADD SLOAD SWAP1 POP DUP6 JUMP JUMPDEST PUSH1 0xC PUSH1 0x0 SWAP1 SLOAD SWAP1 PUSH2 0x100 EXP SWAP1 DIV PUSH20 0xFFFFFFFFFFFFFFFFFFFFFFFFFFFFFFFFFFFFFFFF AND DUP2 JUMP JUMPDEST PUSH1 0x0 DUP1 PUSH1 0xE SLOAD GT PUSH2 0x2605 JUMPI PUSH1 0x40 MLOAD PUSH32 0x8C379A000000000000000000000000000000000000000000000000000000000 DUP2 MSTORE PUSH1 0x4 ADD PUSH2 0x25FC SWAP1 PUSH2 0x4D18 JUMP JUMPDEST PUSH1 0x40 MLOAD DUP1 SWAP2 SUB SWAP1 REVERT JUMPDEST PUSH1 0xE SLOAD SWAP1 POP SWAP1 JUMP JUMPDEST PUSH1 0x2 PUSH1 0x20 MSTORE DUP1 PUSH1 0x0 MSTORE PUSH1 0x40 PUSH1 0x0 KECCAK256 PUSH1 0x0 SWAP2 POP SWAP1 POP DUP1 PUSH1 0x0 ADD SLOAD SWAP1 DUP1 PUSH1 0x1 ADD SLOAD SWAP1 POP DUP3 JUMP JUMPDEST PUSH1 0x6 PUSH1 0x20 MSTORE DUP1 PUSH1 0x0 MSTORE PUSH1 0x40 PUSH1 0x0 KECCAK256 PUSH1 0x0 SWAP2 POP SWAP1 POP DUP1 PUSH1 0x0 ADD SLOAD SWAP1 DUP1 PUSH1 0x1 ADD SLOAD SWAP1 DUP1 PUSH1 0x2 ADD SLOAD SWAP1 DUP1 PUSH1 0x3 ADD SLOAD SWAP1 DUP1 PUSH1 0x4 ADD PUSH1 0x0 SWAP1 SLOAD SWAP1 PUSH2 0x100 EXP SWAP1 DIV PUSH1 0xFF AND SWAP1 POP DUP6 JUMP JUMPDEST PUSH1 0xD PUSH1 0x0 SWAP1 SLOAD SWAP1 PUSH2 0x100 EXP SWAP1 DIV PUSH20 0xFFFFFFFFFFFFFFFFFFFFFFFFFFFFFFFFFFFFFFFF AND PUSH20 0xFFFFFFFFFFFFFFFFFFFFFFFFFFFFFFFFFFFFFFFF AND CALLER PUSH20 0xFFFFFFFFFFFFFFFFFFFFFFFFFFFFFFFFFFFFFFFF AND EQ PUSH2 0x2704 JUMPI PUSH1 0x40 MLOAD PUSH32 0x8C379A000000000000000000000000000000000000000000000000000000000 DUP2 MSTORE PUSH1 0x4 ADD PUSH2 0x26FB SWAP1 PUSH2 0x3E97 JUMP JUMPDEST PUSH1 0x40 MLOAD DUP1 SWAP2 SUB SWAP1 REVERT JUMPDEST PUSH1 0x64 DUP2 LT ISZERO PUSH2 0x2748 JUMPI PUSH1 0x40 MLOAD PUSH32 0x8C379A000000000000000000000000000000000000000000000000000000000 DUP2 MSTORE PUSH1 0x4 ADD PUSH2 0x273F SWAP1 PUSH2 0x4D84 JUMP JUMPDEST PUSH1 0x40 MLOAD DUP1 SWAP2 SUB SWAP1 REVERT JUMPDEST DUP1 PUSH1 0x11 DUP2 SWAP1 SSTORE POP POP JUMP JUMPDEST PUSH1 0x10 SLOAD DUP2 JUMP JUMPDEST PUSH1 0x13 SLOAD DUP2 JUMP JUMPDEST PUSH1 0x0 PUSH1 0xB PUSH1 0x1 SWAP1 SLOAD SWAP1 PUSH2 0x100 EXP SWAP1 DIV PUSH20 0xFFFFFFFFFFFFFFFFFFFFFFFFFFFFFFFFFFFFFFFF AND PUSH20 0xFFFFFFFFFFFFFFFFFFFFFFFFFFFFFFFFFFFFFFFF AND PUSH4 0xDD62ED3E CALLER ADDRESS PUSH1 0x40 MLOAD DUP4 PUSH4 0xFFFFFFFF AND PUSH1 0xE0 SHL DUP2 MSTORE PUSH1 0x4 ADD PUSH2 0x27BD SWAP3 SWAP2 SWAP1 PUSH2 0x4963 JUMP JUMPDEST PUSH1 0x20 PUSH1 0x40 MLOAD DUP1 DUP4 SUB DUP2 DUP7 GAS STATICCALL ISZERO DUP1 ISZERO PUSH2 0x27DA JUMPI RETURNDATASIZE PUSH1 0x0 DUP1 RETURNDATACOPY RETURNDATASIZE PUSH1 0x0 REVERT JUMPDEST POP POP POP POP PUSH1 0x40 MLOAD RETURNDATASIZE PUSH1 0x1F NOT PUSH1 0x1F DUP3 ADD AND DUP3 ADD DUP1 PUSH1 0x40 MSTORE POP DUP2 ADD SWAP1 PUSH2 0x27FE SWAP2 SWAP1 PUSH2 0x400D JUMP JUMPDEST SWAP1 POP SWAP1 JUMP JUMPDEST PUSH1 0x4 PUSH1 0x20 MSTORE DUP2 PUSH1 0x0 MSTORE PUSH1 0x40 PUSH1 0x0 KECCAK256 DUP2 DUP2 SLOAD DUP2 LT PUSH2 0x281F JUMPI PUSH1 0x0 DUP1 REVERT JUMPDEST SWAP1 PUSH1 0x0 MSTORE PUSH1 0x20 PUSH1 0x0 KECCAK256 ADD PUSH1 0x0 SWAP2 POP SWAP2 POP POP SLOAD DUP2 JUMP JUMPDEST PUSH1 0x0 PUSH1 0x20 MSTORE DUP1 PUSH1 0x0 MSTORE PUSH1 0x40 PUSH1 0x0 KECCAK256 PUSH1 0x0 SWAP2 POP SWAP1 POP DUP1 PUSH1 0x0 ADD PUSH1 0x0 SWAP1 SLOAD SWAP1 PUSH2 0x100 EXP SWAP1 DIV PUSH20 0xFFFFFFFFFFFFFFFFFFFFFFFFFFFFFFFFFFFFFFFF AND SWAP1 DUP1 PUSH1 0x1 ADD PUSH1 0x0 SWAP1 SLOAD SWAP1 PUSH2 0x100 EXP SWAP1 DIV PUSH20 0xFFFFFFFFFFFFFFFFFFFFFFFFFFFFFFFFFFFFFFFF AND SWAP1 DUP1 PUSH1 0x2 ADD SLOAD SWAP1 DUP1 PUSH1 0x3 ADD SLOAD SWAP1 DUP1 PUSH1 0x4 ADD SLOAD SWAP1 DUP1 PUSH1 0x5 ADD PUSH1 0x0 SWAP1 SLOAD SWAP1 PUSH2 0x100 EXP SWAP1 DIV PUSH1 0xFF AND SWAP1 DUP1 PUSH1 0x6 ADD SLOAD SWAP1 POP DUP8 JUMP JUMPDEST PUSH2 0x28CB PUSH2 0x2D84 JUMP JUMPDEST PUSH2 0x28D3 PUSH2 0x2D34 JUMP JUMPDEST PUSH1 0x13 SLOAD DUP4 LT ISZERO DUP1 ISZERO PUSH2 0x28E7 JUMPI POP PUSH1 0x14 SLOAD DUP4 GT ISZERO JUMPDEST PUSH2 0x2926 JUMPI PUSH1 0x40 MLOAD PUSH32 0x8C379A000000000000000000000000000000000000000000000000000000000 DUP2 MSTORE PUSH1 0x4 ADD PUSH2 0x291D SWAP1 PUSH2 0x4DF0 JUMP JUMPDEST PUSH1 0x40 MLOAD DUP1 SWAP2 SUB SWAP1 REVERT JUMPDEST PUSH1 0x0 PUSH2 0x2930 PUSH2 0x25BF JUMP JUMPDEST SWAP1 POP PUSH1 0x0 PUSH2 0x295F DUP3 PUSH1 0x10 SLOAD PUSH1 0xF PUSH1 0x0 SWAP1 SLOAD SWAP1 PUSH2 0x100 EXP SWAP1 DIV PUSH1 0xFF AND PUSH1 0xFF AND DUP9 PUSH2 0x331E SWAP1 SWAP4 SWAP3 SWAP2 SWAP1 PUSH4 0xFFFFFFFF AND JUMP JUMPDEST SWAP1 POP PUSH1 0xC PUSH1 0x0 SWAP1 SLOAD SWAP1 PUSH2 0x100 EXP SWAP1 DIV PUSH20 0xFFFFFFFFFFFFFFFFFFFFFFFFFFFFFFFFFFFFFFFF AND PUSH20 0xFFFFFFFFFFFFFFFFFFFFFFFFFFFFFFFFFFFFFFFF AND PUSH4 0x23B872DD CALLER ADDRESS DUP5 PUSH1 0x40 MLOAD DUP5 PUSH4 0xFFFFFFFF AND PUSH1 0xE0 SHL DUP2 MSTORE PUSH1 0x4 ADD PUSH2 0x29C0 SWAP4 SWAP3 SWAP2 SWAP1 PUSH2 0x477C JUMP JUMPDEST PUSH1 0x20 PUSH1 0x40 MLOAD DUP1 DUP4 SUB DUP2 PUSH1 0x0 DUP8 GAS CALL ISZERO DUP1 ISZERO PUSH2 0x29DF JUMPI RETURNDATASIZE PUSH1 0x0 DUP1 RETURNDATACOPY RETURNDATASIZE PUSH1 0x0 REVERT JUMPDEST POP POP POP POP PUSH1 0x40 MLOAD RETURNDATASIZE PUSH1 0x1F NOT PUSH1 0x1F DUP3 ADD AND DUP3 ADD DUP1 PUSH1 0x40 MSTORE POP DUP2 ADD SWAP1 PUSH2 0x2A03 SWAP2 SWAP1 PUSH2 0x40FB JUMP JUMPDEST PUSH2 0x2A42 JUMPI PUSH1 0x40 MLOAD PUSH32 0x8C379A000000000000000000000000000000000000000000000000000000000 DUP2 MSTORE PUSH1 0x4 ADD PUSH2 0x2A39 SWAP1 PUSH2 0x4E5C JUMP JUMPDEST PUSH1 0x40 MLOAD DUP1 SWAP2 SUB SWAP1 REVERT JUMPDEST PUSH1 0x12 PUSH1 0x0 DUP2 SLOAD DUP1 SWAP3 SWAP2 SWAP1 PUSH2 0x2A55 SWAP1 PUSH2 0x3F52 JUMP JUMPDEST SWAP2 SWAP1 POP SSTORE POP PUSH1 0x0 PUSH1 0x6 PUSH1 0x0 PUSH1 0x12 SLOAD DUP2 MSTORE PUSH1 0x20 ADD SWAP1 DUP2 MSTORE PUSH1 0x20 ADD PUSH1 0x0 KECCAK256 SWAP1 POP DUP6 DUP2 PUSH1 0x0 ADD DUP2 SWAP1 SSTORE POP DUP5 DUP2 PUSH1 0x1 ADD DUP2 SWAP1 SSTORE POP DUP4 DUP2 PUSH1 0x3 ADD DUP2 SWAP1 SSTORE POP DUP4 TIMESTAMP PUSH2 0x2A9A SWAP2 SWAP1 PUSH2 0x4670 JUMP JUMPDEST DUP2 PUSH1 0x2 ADD DUP2 SWAP1 SSTORE POP PUSH1 0x0 DUP2 PUSH1 0x4 ADD PUSH1 0x0 PUSH2 0x100 EXP DUP2 SLOAD DUP2 PUSH1 0xFF MUL NOT AND SWAP1 DUP4 ISZERO ISZERO MUL OR SWAP1 SSTORE POP PUSH1 0x40 MLOAD DUP1 PUSH1 0xE0 ADD PUSH1 0x40 MSTORE DUP1 CALLER PUSH20 0xFFFFFFFFFFFFFFFFFFFFFFFFFFFFFFFFFFFFFFFF AND DUP2 MSTORE PUSH1 0x20 ADD PUSH1 0x0 PUSH20 0xFFFFFFFFFFFFFFFFFFFFFFFFFFFFFFFFFFFFFFFF AND DUP2 MSTORE PUSH1 0x20 ADD DUP8 DUP2 MSTORE PUSH1 0x20 ADD DUP4 DUP2 MSTORE PUSH1 0x20 ADD DUP7 DUP2 MSTORE PUSH1 0x20 ADD PUSH1 0x0 PUSH1 0x1 DUP2 GT ISZERO PUSH2 0x2B29 JUMPI PUSH2 0x2B28 PUSH2 0x3D01 JUMP JUMPDEST JUMPDEST DUP2 MSTORE PUSH1 0x20 ADD DUP6 DUP2 MSTORE POP PUSH1 0x0 DUP1 PUSH1 0x12 SLOAD DUP2 MSTORE PUSH1 0x20 ADD SWAP1 DUP2 MSTORE PUSH1 0x20 ADD PUSH1 0x0 KECCAK256 PUSH1 0x0 DUP3 ADD MLOAD DUP2 PUSH1 0x0 ADD PUSH1 0x0 PUSH2 0x100 EXP DUP2 SLOAD DUP2 PUSH20 0xFFFFFFFFFFFFFFFFFFFFFFFFFFFFFFFFFFFFFFFF MUL NOT AND SWAP1 DUP4 PUSH20 0xFFFFFFFFFFFFFFFFFFFFFFFFFFFFFFFFFFFFFFFF AND MUL OR SWAP1 SSTORE POP PUSH1 0x20 DUP3 ADD MLOAD DUP2 PUSH1 0x1 ADD PUSH1 0x0 PUSH2 0x100 EXP DUP2 SLOAD DUP2 PUSH20 0xFFFFFFFFFFFFFFFFFFFFFFFFFFFFFFFFFFFFFFFF MUL NOT AND SWAP1 DUP4 PUSH20 0xFFFFFFFFFFFFFFFFFFFFFFFFFFFFFFFFFFFFFFFF AND MUL OR SWAP1 SSTORE POP PUSH1 0x40 DUP3 ADD MLOAD DUP2 PUSH1 0x2 ADD SSTORE PUSH1 0x60 DUP3 ADD MLOAD DUP2 PUSH1 0x3 ADD SSTORE PUSH1 0x80 DUP3 ADD MLOAD DUP2 PUSH1 0x4 ADD SSTORE PUSH1 0xA0 DUP3 ADD MLOAD DUP2 PUSH1 0x5 ADD PUSH1 0x0 PUSH2 0x100 EXP DUP2 SLOAD DUP2 PUSH1 0xFF MUL NOT AND SWAP1 DUP4 PUSH1 0x1 DUP2 GT ISZERO PUSH2 0x2C1D JUMPI PUSH2 0x2C1C PUSH2 0x3D01 JUMP JUMPDEST JUMPDEST MUL OR SWAP1 SSTORE POP PUSH1 0xC0 DUP3 ADD MLOAD DUP2 PUSH1 0x6 ADD SSTORE SWAP1 POP POP PUSH1 0x4 PUSH1 0x0 CALLER PUSH20 0xFFFFFFFFFFFFFFFFFFFFFFFFFFFFFFFFFFFFFFFF AND PUSH20 0xFFFFFFFFFFFFFFFFFFFFFFFFFFFFFFFFFFFFFFFF AND DUP2 MSTORE PUSH1 0x20 ADD SWAP1 DUP2 MSTORE PUSH1 0x20 ADD PUSH1 0x0 KECCAK256 PUSH1 0x12 SLOAD SWAP1 DUP1 PUSH1 0x1 DUP2 SLOAD ADD DUP1 DUP3 SSTORE DUP1 SWAP2 POP POP PUSH1 0x1 SWAP1 SUB SWAP1 PUSH1 0x0 MSTORE PUSH1 0x20 PUSH1 0x0 KECCAK256 ADD PUSH1 0x0 SWAP1 SWAP2 SWAP1 SWAP2 SWAP1 SWAP2 POP SSTORE PUSH2 0x2CA2 PUSH1 0x12 SLOAD PUSH2 0x3364 JUMP JUMPDEST PUSH1 0x12 SLOAD PUSH32 0xC8A2BCD3B42E3508CEF71E30D8B859819AECAEEB4FDC70998269B264D4B4E335 CALLER DUP9 DUP6 DUP10 DUP10 PUSH1 0x40 MLOAD PUSH2 0x2CDC SWAP6 SWAP5 SWAP4 SWAP3 SWAP2 SWAP1 PUSH2 0x4E7C JUMP JUMPDEST PUSH1 0x40 MLOAD DUP1 SWAP2 SUB SWAP1 LOG2 POP POP POP PUSH2 0x2CEF PUSH2 0x2D7A JUMP JUMPDEST POP POP POP JUMP JUMPDEST PUSH1 0x0 DUP1 PUSH2 0x2CFF PUSH2 0x25BF JUMP JUMPDEST SWAP1 POP PUSH2 0x2D2C DUP2 PUSH1 0x10 SLOAD PUSH1 0xF PUSH1 0x0 SWAP1 SLOAD SWAP1 PUSH2 0x100 EXP SWAP1 DIV PUSH1 0xFF AND PUSH1 0xFF AND DUP7 PUSH2 0x331E SWAP1 SWAP4 SWAP3 SWAP2 SWAP1 PUSH4 0xFFFFFFFF AND JUMP JUMPDEST SWAP2 POP POP SWAP2 SWAP1 POP JUMP JUMPDEST PUSH1 0x2 PUSH1 0xA SLOAD SUB PUSH2 0x2D70 JUMPI PUSH1 0x40 MLOAD PUSH32 0x3EE5AEB500000000000000000000000000000000000000000000000000000000 DUP2 MSTORE PUSH1 0x4 ADD PUSH1 0x40 MLOAD DUP1 SWAP2 SUB SWAP1 REVERT JUMPDEST PUSH1 0x2 PUSH1 0xA DUP2 SWAP1 SSTORE POP JUMP JUMPDEST PUSH1 0x1 PUSH1 0xA DUP2 SWAP1 SSTORE POP JUMP JUMPDEST PUSH2 0x2D8C PUSH2 0xFD8 JUMP JUMPDEST ISZERO PUSH2 0x2DC3 JUMPI PUSH1 0x40 MLOAD PUSH32 0xD93C066500000000000000000000000000000000000000000000000000000000 DUP2 MSTORE PUSH1 0x4 ADD PUSH1 0x40 MLOAD DUP1 SWAP2 SUB SWAP1 REVERT JUMPDEST JUMP JUMPDEST PUSH1 0x0 DUP1 PUSH1 0x0 DUP4 DUP2 MSTORE PUSH1 0x20 ADD SWAP1 DUP2 MSTORE PUSH1 0x20 ADD PUSH1 0x0 KECCAK256 SWAP1 POP PUSH1 0x0 DUP2 PUSH1 0x3 ADD SLOAD SWAP1 POP PUSH1 0x0 DUP3 PUSH1 0x3 ADD DUP2 SWAP1 SSTORE POP PUSH1 0xC PUSH1 0x0 SWAP1 SLOAD SWAP1 PUSH2 0x100 EXP SWAP1 DIV PUSH20 0xFFFFFFFFFFFFFFFFFFFFFFFFFFFFFFFFFFFFFFFF AND PUSH20 0xFFFFFFFFFFFFFFFFFFFFFFFFFFFFFFFFFFFFFFFF AND PUSH4 0xA9059CBB DUP4 PUSH1 0x1 ADD PUSH1 0x0 SWAP1 SLOAD SWAP1 PUSH2 0x100 EXP SWAP1 DIV PUSH20 0xFFFFFFFFFFFFFFFFFFFFFFFFFFFFFFFFFFFFFFFF AND DUP4 PUSH1 0x40 MLOAD DUP4 PUSH4 0xFFFFFFFF AND PUSH1 0xE0 SHL DUP2 MSTORE PUSH1 0x4 ADD PUSH2 0x2E6F SWAP3 SWAP2 SWAP1 PUSH2 0x40A6 JUMP JUMPDEST PUSH1 0x20 PUSH1 0x40 MLOAD DUP1 DUP4 SUB DUP2 PUSH1 0x0 DUP8 GAS CALL ISZERO DUP1 ISZERO PUSH2 0x2E8E JUMPI RETURNDATASIZE PUSH1 0x0 DUP1 RETURNDATACOPY RETURNDATASIZE PUSH1 0x0 REVERT JUMPDEST POP POP POP POP PUSH1 0x40 MLOAD RETURNDATASIZE PUSH1 0x1F NOT PUSH1 0x1F DUP3 ADD AND DUP3 ADD DUP1 PUSH1 0x40 MSTORE POP DUP2 ADD SWAP1 PUSH2 0x2EB2 SWAP2 SWAP1 PUSH2 0x40FB JUMP JUMPDEST PUSH2 0x2EF1 JUMPI PUSH1 0x40 MLOAD PUSH32 0x8C379A000000000000000000000000000000000000000000000000000000000 DUP2 MSTORE PUSH1 0x4 ADD PUSH2 0x2EE8 SWAP1 PUSH2 0x4E5C JUMP JUMPDEST PUSH1 0x40 MLOAD DUP1 SWAP2 SUB SWAP1 REVERT JUMPDEST POP POP POP JUMP JUMPDEST PUSH1 0x0 DUP1 PUSH1 0x0 DUP4 DUP2 MSTORE PUSH1 0x20 ADD SWAP1 DUP2 MSTORE PUSH1 0x20 ADD PUSH1 0x0 KECCAK256 SWAP1 POP PUSH1 0x0 PUSH1 0x2 PUSH1 0x0 DUP5 DUP2 MSTORE PUSH1 0x20 ADD SWAP1 DUP2 MSTORE PUSH1 0x20 ADD PUSH1 0x0 KECCAK256 SWAP1 POP PUSH1 0x0 PUSH1 0x1 PUSH1 0x0 DUP6 DUP2 MSTORE PUSH1 0x20 ADD SWAP1 DUP2 MSTORE PUSH1 0x20 ADD PUSH1 0x0 KECCAK256 SWAP1 POP DUP1 PUSH1 0x1 ADD PUSH1 0x0 SWAP1 SLOAD SWAP1 PUSH2 0x100 EXP SWAP1 DIV PUSH1 0xFF AND PUSH2 0x2F8B JUMPI PUSH1 0x40 MLOAD PUSH32 0x8C379A000000000000000000000000000000000000000000000000000000000 DUP2 MSTORE PUSH1 0x4 ADD PUSH2 0x2F82 SWAP1 PUSH2 0x41E0 JUMP JUMPDEST PUSH1 0x40 MLOAD DUP1 SWAP2 SUB SWAP1 REVERT JUMPDEST PUSH1 0x0 DUP1 DUP4 PUSH1 0x0 ADD SLOAD SUB PUSH2 0x2FA4 JUMPI DUP4 PUSH1 0x6 ADD SLOAD SWAP1 POP PUSH2 0x2FB7 JUMP JUMPDEST DUP3 PUSH1 0x0 ADD SLOAD TIMESTAMP PUSH2 0x2FB4 SWAP2 SWAP1 PUSH2 0x463C JUMP JUMPDEST SWAP1 POP JUMPDEST PUSH1 0x0 DUP2 GT PUSH2 0x2FFA JUMPI PUSH1 0x40 MLOAD PUSH32 0x8C379A000000000000000000000000000000000000000000000000000000000 DUP2 MSTORE PUSH1 0x4 ADD PUSH2 0x2FF1 SWAP1 PUSH2 0x4F41 JUMP JUMPDEST PUSH1 0x40 MLOAD DUP1 SWAP2 SUB SWAP1 REVERT JUMPDEST PUSH1 0x0 PUSH2 0x300F DUP6 PUSH1 0x2 ADD SLOAD DUP7 PUSH1 0x4 ADD SLOAD DUP5 PUSH2 0x31B0 JUMP JUMPDEST SWAP1 POP DUP1 DUP5 PUSH1 0x1 ADD PUSH1 0x0 DUP3 DUP3 SLOAD PUSH2 0x3025 SWAP2 SWAP1 PUSH2 0x4670 JUMP JUMPDEST SWAP3 POP POP DUP2 SWAP1 SSTORE POP TIMESTAMP DUP5 PUSH1 0x0 ADD DUP2 SWAP1 SSTORE POP DUP6 PUSH32 0x3D8708181C6452C5711A2B4C6ED3F12149F6EA35F78549ABA00A89D041E766CA DUP3 PUSH1 0x40 MLOAD PUSH2 0x3065 SWAP2 SWAP1 PUSH2 0x3A2E JUMP JUMPDEST PUSH1 0x40 MLOAD DUP1 SWAP2 SUB SWAP1 LOG2 POP POP POP POP POP POP JUMP JUMPDEST PUSH1 0x0 DUP1 PUSH1 0x0 DUP4 DUP2 MSTORE PUSH1 0x20 ADD SWAP1 DUP2 MSTORE PUSH1 0x20 ADD PUSH1 0x0 KECCAK256 SWAP1 POP PUSH1 0x0 DUP2 PUSH1 0x3 ADD SLOAD SWAP1 POP PUSH1 0x0 DUP2 GT ISZERO PUSH2 0x31AB JUMPI PUSH1 0x0 DUP3 PUSH1 0x3 ADD DUP2 SWAP1 SSTORE POP PUSH1 0xC PUSH1 0x0 SWAP1 SLOAD SWAP1 PUSH2 0x100 EXP SWAP1 DIV PUSH20 0xFFFFFFFFFFFFFFFFFFFFFFFFFFFFFFFFFFFFFFFF AND PUSH20 0xFFFFFFFFFFFFFFFFFFFFFFFFFFFFFFFFFFFFFFFF AND PUSH4 0xA9059CBB DUP4 PUSH1 0x0 ADD PUSH1 0x0 SWAP1 SLOAD SWAP1 PUSH2 0x100 EXP SWAP1 DIV PUSH20 0xFFFFFFFFFFFFFFFFFFFFFFFFFFFFFFFFFFFFFFFF AND DUP4 PUSH1 0x40 MLOAD DUP4 PUSH4 0xFFFFFFFF AND PUSH1 0xE0 SHL DUP2 MSTORE PUSH1 0x4 ADD PUSH2 0x3128 SWAP3 SWAP2 SWAP1 PUSH2 0x40A6 JUMP JUMPDEST PUSH1 0x20 PUSH1 0x40 MLOAD DUP1 DUP4 SUB DUP2 PUSH1 0x0 DUP8 GAS CALL ISZERO DUP1 ISZERO PUSH2 0x3147 JUMPI RETURNDATASIZE PUSH1 0x0 DUP1 RETURNDATACOPY RETURNDATASIZE PUSH1 0x0 REVERT JUMPDEST POP POP POP POP PUSH1 0x40 MLOAD RETURNDATASIZE PUSH1 0x1F NOT PUSH1 0x1F DUP3 ADD AND DUP3 ADD DUP1 PUSH1 0x40 MSTORE POP DUP2 ADD SWAP1 PUSH2 0x316B SWAP2 SWAP1 PUSH2 0x40FB JUMP JUMPDEST PUSH2 0x31AA JUMPI PUSH1 0x40 MLOAD PUSH32 0x8C379A000000000000000000000000000000000000000000000000000000000 DUP2 MSTORE PUSH1 0x4 ADD PUSH2 0x31A1 SWAP1 PUSH2 0x4E5C JUMP JUMPDEST PUSH1 0x40 MLOAD DUP1 SWAP2 SUB SWAP1 REVERT JUMPDEST JUMPDEST POP POP POP JUMP JUMPDEST PUSH1 0x0 DUP1 DUP5 GT PUSH2 0x31F4 JUMPI PUSH1 0x40 MLOAD PUSH32 0x8C379A000000000000000000000000000000000000000000000000000000000 DUP2 MSTORE PUSH1 0x4 ADD PUSH2 0x31EB SWAP1 PUSH2 0x4FAD JUMP JUMPDEST PUSH1 0x40 MLOAD DUP1 SWAP2 SUB SWAP1 REVERT JUMPDEST PUSH1 0x0 DUP4 GT PUSH2 0x3237 JUMPI PUSH1 0x40 MLOAD PUSH32 0x8C379A000000000000000000000000000000000000000000000000000000000 DUP2 MSTORE PUSH1 0x4 ADD PUSH2 0x322E SWAP1 PUSH2 0x503F JUMP JUMPDEST PUSH1 0x40 MLOAD DUP1 SWAP2 SUB SWAP1 REVERT JUMPDEST PUSH1 0x0 DUP3 GT PUSH2 0x327A JUMPI PUSH1 0x40 MLOAD PUSH32 0x8C379A000000000000000000000000000000000000000000000000000000000 DUP2 MSTORE PUSH1 0x4 ADD PUSH2 0x3271 SWAP1 PUSH2 0x50D1 JUMP JUMPDEST PUSH1 0x40 MLOAD DUP1 SWAP2 SUB SWAP1 REVERT JUMPDEST PUSH1 0x0 PUSH4 0xBBF81E00 PUSH8 0xDE0B6B3A7640000 DUP6 PUSH2 0x3295 SWAP2 SWAP1 PUSH2 0x4456 JUMP JUMPDEST PUSH2 0x329F SWAP2 SWAP1 PUSH2 0x44C7 JUMP JUMPDEST SWAP1 POP PUSH1 0x0 DUP2 GT PUSH2 0x32E4 JUMPI PUSH1 0x40 MLOAD PUSH32 0x8C379A000000000000000000000000000000000000000000000000000000000 DUP2 MSTORE PUSH1 0x4 ADD PUSH2 0x32DB SWAP1 PUSH2 0x513D JUMP JUMPDEST PUSH1 0x40 MLOAD DUP1 SWAP2 SUB SWAP1 REVERT JUMPDEST PUSH1 0x0 PUSH8 0xDE0B6B3A7640000 DUP5 DUP4 DUP9 PUSH2 0x32FC SWAP2 SWAP1 PUSH2 0x4456 JUMP JUMPDEST PUSH2 0x3306 SWAP2 SWAP1 PUSH2 0x4456 JUMP JUMPDEST PUSH2 0x3310 SWAP2 SWAP1 PUSH2 0x44C7 JUMP JUMPDEST SWAP1 POP DUP1 SWAP3 POP POP POP SWAP4 SWAP3 POP POP POP JUMP JUMPDEST PUSH1 0x0 DUP2 PUSH1 0xA PUSH2 0x332D SWAP2 SWAP1 PUSH2 0x515D JUMP JUMPDEST PUSH1 0x64 PUSH2 0x3339 SWAP2 SWAP1 PUSH2 0x4456 JUMP JUMPDEST DUP4 DUP6 DUP8 PUSH2 0x3346 SWAP2 SWAP1 PUSH2 0x4456 JUMP JUMPDEST PUSH2 0x3350 SWAP2 SWAP1 PUSH2 0x4456 JUMP JUMPDEST PUSH2 0x335A SWAP2 SWAP1 PUSH2 0x44C7 JUMP JUMPDEST SWAP1 POP SWAP5 SWAP4 POP POP POP POP JUMP JUMPDEST PUSH1 0x0 PUSH1 0x6 PUSH1 0x0 PUSH1 0x12 SLOAD DUP2 MSTORE PUSH1 0x20 ADD SWAP1 DUP2 MSTORE PUSH1 0x20 ADD PUSH1 0x0 KECCAK256 SWAP1 POP PUSH1 0x0 DUP1 PUSH32 0xFFFFFFFFFFFFFFFFFFFFFFFFFFFFFFFFFFFFFFFFFFFFFFFFFFFFFFFFFFFFFFFF SWAP1 POP PUSH1 0x0 JUMPDEST PUSH1 0x9 DUP1 SLOAD SWAP1 POP DUP2 LT ISZERO PUSH2 0x3461 JUMPI PUSH1 0x0 PUSH1 0x9 DUP3 DUP2 SLOAD DUP2 LT PUSH2 0x33C9 JUMPI PUSH2 0x33C8 PUSH2 0x3FC9 JUMP JUMPDEST JUMPDEST SWAP1 PUSH1 0x0 MSTORE PUSH1 0x20 PUSH1 0x0 KECCAK256 ADD SLOAD SWAP1 POP DUP5 PUSH1 0x0 ADD SLOAD PUSH1 0x7 PUSH1 0x0 DUP4 PUSH20 0xFFFFFFFFFFFFFFFFFFFFFFFFFFFFFFFFFFFFFFFF AND PUSH20 0xFFFFFFFFFFFFFFFFFFFFFFFFFFFFFFFFFFFFFFFF AND DUP2 MSTORE PUSH1 0x20 ADD SWAP1 DUP2 MSTORE PUSH1 0x20 ADD PUSH1 0x0 KECCAK256 SLOAD LT PUSH2 0x3453 JUMPI PUSH1 0x0 PUSH2 0x3430 DUP3 DUP8 PUSH1 0x0 ADD SLOAD PUSH2 0x34A8 JUMP JUMPDEST SWAP1 POP DUP6 PUSH1 0x1 ADD SLOAD DUP2 GT ISZERO DUP1 ISZERO PUSH2 0x3445 JUMPI POP DUP4 DUP2 LT JUMPDEST ISZERO PUSH2 0x3451 JUMPI DUP2 SWAP5 POP DUP1 SWAP4 POP JUMPDEST POP JUMPDEST POP DUP1 DUP1 PUSH1 0x1 ADD SWAP2 POP POP PUSH2 0x33A6 JUMP JUMPDEST POP PUSH1 0x0 PUSH20 0xFFFFFFFFFFFFFFFFFFFFFFFFFFFFFFFFFFFFFFFF AND DUP3 PUSH20 0xFFFFFFFFFFFFFFFFFFFFFFFFFFFFFFFFFFFFFFFF AND EQ PUSH2 0x34A2 JUMPI PUSH2 0x34A1 DUP5 DUP4 DUP4 PUSH2 0x35A4 JUMP JUMPDEST JUMPDEST POP POP POP POP JUMP JUMPDEST PUSH1 0x0 DUP1 PUSH1 0x7 PUSH1 0x0 DUP6 PUSH20 0xFFFFFFFFFFFFFFFFFFFFFFFFFFFFFFFFFFFFFFFF AND PUSH20 0xFFFFFFFFFFFFFFFFFFFFFFFFFFFFFFFFFFFFFFFF AND DUP2 MSTORE PUSH1 0x20 ADD SWAP1 DUP2 MSTORE PUSH1 0x20 ADD PUSH1 0x0 KECCAK256 SLOAD SWAP1 POP DUP3 DUP2 LT ISZERO PUSH2 0x3530 JUMPI PUSH1 0x40 MLOAD PUSH32 0x8C379A000000000000000000000000000000000000000000000000000000000 DUP2 MSTORE PUSH1 0x4 ADD PUSH2 0x3527 SWAP1 PUSH2 0x51F4 JUMP JUMPDEST PUSH1 0x40 MLOAD DUP1 SWAP2 SUB SWAP1 REVERT JUMPDEST PUSH1 0x0 DUP2 PUSH1 0x64 DUP6 PUSH2 0x3540 SWAP2 SWAP1 PUSH2 0x4456 JUMP JUMPDEST PUSH2 0x354A SWAP2 SWAP1 PUSH2 0x44C7 JUMP JUMPDEST SWAP1 POP PUSH1 0x0 PUSH1 0x2 SWAP1 POP PUSH1 0x0 PUSH1 0x14 SWAP1 POP PUSH1 0x0 PUSH1 0x64 DUP4 DUP4 PUSH2 0x3568 SWAP2 SWAP1 PUSH2 0x463C JUMP JUMPDEST DUP6 PUSH2 0x3573 SWAP2 SWAP1 PUSH2 0x4456 JUMP JUMPDEST PUSH2 0x357D SWAP2 SWAP1 PUSH2 0x44C7 JUMP JUMPDEST DUP4 PUSH2 0x3588 SWAP2 SWAP1 PUSH2 0x4670 JUMP JUMPDEST SWAP1 POP DUP2 DUP2 GT ISZERO PUSH2 0x3596 JUMPI DUP2 SWAP1 POP JUMPDEST DUP1 SWAP6 POP POP POP POP POP POP SWAP3 SWAP2 POP POP JUMP JUMPDEST PUSH1 0x0 DUP1 PUSH1 0x0 DUP6 DUP2 MSTORE PUSH1 0x20 ADD SWAP1 DUP2 MSTORE PUSH1 0x20 ADD PUSH1 0x0 KECCAK256 SWAP1 POP DUP3 DUP2 PUSH1 0x1 ADD PUSH1 0x0 PUSH2 0x100 EXP DUP2 SLOAD DUP2 PUSH20 0xFFFFFFFFFFFFFFFFFFFFFFFFFFFFFFFFFFFFFFFF MUL NOT AND SWAP1 DUP4 PUSH20 0xFFFFFFFFFFFFFFFFFFFFFFFFFFFFFFFFFFFFFFFF AND MUL OR SWAP1 SSTORE POP DUP2 DUP2 PUSH1 0x4 ADD DUP2 SWAP1 SSTORE POP PUSH1 0x1 PUSH1 0x6 PUSH1 0x0 DUP7 DUP2 MSTORE PUSH1 0x20 ADD SWAP1 DUP2 MSTORE PUSH1 0x20 ADD PUSH1 0x0 KECCAK256 PUSH1 0x4 ADD PUSH1 0x0 PUSH2 0x100 EXP DUP2 SLOAD DUP2 PUSH1 0xFF MUL NOT AND SWAP1 DUP4 ISZERO ISZERO MUL OR SWAP1 SSTORE POP DUP1 PUSH1 0x0 ADD PUSH1 0x0 SWAP1 SLOAD SWAP1 PUSH2 0x100 EXP SWAP1 DIV PUSH20 0xFFFFFFFFFFFFFFFFFFFFFFFFFFFFFFFFFFFFFFFF AND PUSH20 0xFFFFFFFFFFFFFFFFFFFFFFFFFFFFFFFFFFFFFFFF AND DUP4 PUSH20 0xFFFFFFFFFFFFFFFFFFFFFFFFFFFFFFFFFFFFFFFF AND DUP6 PUSH32 0x132AEB8D030DCC11ADFC3EAD0730A22AA3C0BF449B3532210C732B9A25E83C20 PUSH1 0x40 MLOAD PUSH1 0x40 MLOAD DUP1 SWAP2 SUB SWAP1 LOG4 POP POP POP POP JUMP JUMPDEST PUSH1 0x40 MLOAD DUP1 PUSH2 0x120 ADD PUSH1 0x40 MSTORE DUP1 PUSH1 0x0 DUP2 MSTORE PUSH1 0x20 ADD PUSH1 0x0 PUSH20 0xFFFFFFFFFFFFFFFFFFFFFFFFFFFFFFFFFFFFFFFF AND DUP2 MSTORE PUSH1 0x20 ADD PUSH1 0x0 DUP2 MSTORE PUSH1 0x20 ADD PUSH1 0x0 DUP2 MSTORE PUSH1 0x20 ADD PUSH1 0x0 DUP2 MSTORE PUSH1 0x20 ADD PUSH1 0x0 DUP2 MSTORE PUSH1 0x20 ADD PUSH1 0x0 DUP2 MSTORE PUSH1 0x20 ADD PUSH1 0x0 ISZERO ISZERO DUP2 MSTORE PUSH1 0x20 ADD PUSH1 0x0 ISZERO ISZERO DUP2 MSTORE POP SWAP1 JUMP JUMPDEST PUSH1 0x0 DUP1 REVERT JUMPDEST PUSH1 0x0 DUP2 SWAP1 POP SWAP2 SWAP1 POP JUMP JUMPDEST PUSH2 0x3738 DUP2 PUSH2 0x3725 JUMP JUMPDEST DUP2 EQ PUSH2 0x3743 JUMPI PUSH1 0x0 DUP1 REVERT JUMPDEST POP JUMP JUMPDEST PUSH1 0x0 DUP2 CALLDATALOAD SWAP1 POP PUSH2 0x3755 DUP2 PUSH2 0x372F JUMP JUMPDEST SWAP3 SWAP2 POP POP JUMP JUMPDEST PUSH1 0x0 PUSH1 0x20 DUP3 DUP5 SUB SLT ISZERO PUSH2 0x3771 JUMPI PUSH2 0x3770 PUSH2 0x3720 JUMP JUMPDEST JUMPDEST PUSH1 0x0 PUSH2 0x377F DUP5 DUP3 DUP6 ADD PUSH2 0x3746 JUMP JUMPDEST SWAP2 POP POP SWAP3 SWAP2 POP POP JUMP JUMPDEST PUSH1 0x0 PUSH1 0xFF DUP3 AND SWAP1 POP SWAP2 SWAP1 POP JUMP JUMPDEST PUSH2 0x379E DUP2 PUSH2 0x3788 JUMP JUMPDEST DUP3 MSTORE POP POP JUMP JUMPDEST PUSH1 0x0 PUSH1 0x20 DUP3 ADD SWAP1 POP PUSH2 0x37B9 PUSH1 0x0 DUP4 ADD DUP5 PUSH2 0x3795 JUMP JUMPDEST SWAP3 SWAP2 POP POP JUMP JUMPDEST PUSH1 0x0 DUP2 MLOAD SWAP1 POP SWAP2 SWAP1 POP JUMP JUMPDEST PUSH1 0x0 DUP3 DUP3 MSTORE PUSH1 0x20 DUP3 ADD SWAP1 POP SWAP3 SWAP2 POP POP JUMP JUMPDEST PUSH1 0x0 DUP2 SWAP1 POP PUSH1 0x20 DUP3 ADD SWAP1 POP SWAP2 SWAP1 POP JUMP JUMPDEST PUSH2 0x37F4 DUP2 PUSH2 0x3725 JUMP JUMPDEST DUP3 MSTORE POP POP JUMP JUMPDEST PUSH1 0x0 PUSH20 0xFFFFFFFFFFFFFFFFFFFFFFFFFFFFFFFFFFFFFFFF DUP3 AND SWAP1 POP SWAP2 SWAP1 POP JUMP JUMPDEST PUSH1 0x0 PUSH2 0x3825 DUP3 PUSH2 0x37FA JUMP JUMPDEST SWAP1 POP SWAP2 SWAP1 POP JUMP JUMPDEST PUSH2 0x3835 DUP2 PUSH2 0x381A JUMP JUMPDEST DUP3 MSTORE POP POP JUMP JUMPDEST PUSH1 0x0 DUP2 ISZERO ISZERO SWAP1 POP SWAP2 SWAP1 POP JUMP JUMPDEST PUSH2 0x3850 DUP2 PUSH2 0x383B JUMP JUMPDEST DUP3 MSTORE POP POP JUMP JUMPDEST PUSH2 0x120 DUP3 ADD PUSH1 0x0 DUP3 ADD MLOAD PUSH2 0x386D PUSH1 0x0 DUP6 ADD DUP3 PUSH2 0x37EB JUMP JUMPDEST POP PUSH1 0x20 DUP3 ADD MLOAD PUSH2 0x3880 PUSH1 0x20 DUP6 ADD DUP3 PUSH2 0x382C JUMP JUMPDEST POP PUSH1 0x40 DUP3 ADD MLOAD PUSH2 0x3893 PUSH1 0x40 DUP6 ADD DUP3 PUSH2 0x37EB JUMP JUMPDEST POP PUSH1 0x60 DUP3 ADD MLOAD PUSH2 0x38A6 PUSH1 0x60 DUP6 ADD DUP3 PUSH2 0x37EB JUMP JUMPDEST POP PUSH1 0x80 DUP3 ADD MLOAD PUSH2 0x38B9 PUSH1 0x80 DUP6 ADD DUP3 PUSH2 0x37EB JUMP JUMPDEST POP PUSH1 0xA0 DUP3 ADD MLOAD PUSH2 0x38CC PUSH1 0xA0 DUP6 ADD DUP3 PUSH2 0x37EB JUMP JUMPDEST POP PUSH1 0xC0 DUP3 ADD MLOAD PUSH2 0x38DF PUSH1 0xC0 DUP6 ADD DUP3 PUSH2 0x37EB JUMP JUMPDEST POP PUSH1 0xE0 DUP3 ADD MLOAD PUSH2 0x38F2 PUSH1 0xE0 DUP6 ADD DUP3 PUSH2 0x3847 JUMP JUMPDEST POP PUSH2 0x100 DUP3 ADD MLOAD PUSH2 0x3907 PUSH2 0x100 DUP6 ADD DUP3 PUSH2 0x3847 JUMP JUMPDEST POP POP POP POP JUMP JUMPDEST PUSH1 0x0 PUSH2 0x3919 DUP4 DUP4 PUSH2 0x3856 JUMP JUMPDEST PUSH2 0x120 DUP4 ADD SWAP1 POP SWAP3 SWAP2 POP POP JUMP JUMPDEST PUSH1 0x0 PUSH1 0x20 DUP3 ADD SWAP1 POP SWAP2 SWAP1 POP JUMP JUMPDEST PUSH1 0x0 PUSH2 0x393E DUP3 PUSH2 0x37BF JUMP JUMPDEST PUSH2 0x3948 DUP2 DUP6 PUSH2 0x37CA JUMP JUMPDEST SWAP4 POP PUSH2 0x3953 DUP4 PUSH2 0x37DB JUMP JUMPDEST DUP1 PUSH1 0x0 JUMPDEST DUP4 DUP2 LT ISZERO PUSH2 0x3984 JUMPI DUP2 MLOAD PUSH2 0x396B DUP9 DUP3 PUSH2 0x390D JUMP JUMPDEST SWAP8 POP PUSH2 0x3976 DUP4 PUSH2 0x3926 JUMP JUMPDEST SWAP3 POP POP PUSH1 0x1 DUP2 ADD SWAP1 POP PUSH2 0x3957 JUMP JUMPDEST POP DUP6 SWAP4 POP POP POP POP SWAP3 SWAP2 POP POP JUMP JUMPDEST PUSH1 0x0 PUSH1 0x20 DUP3 ADD SWAP1 POP DUP2 DUP2 SUB PUSH1 0x0 DUP4 ADD MSTORE PUSH2 0x39AB DUP2 DUP5 PUSH2 0x3933 JUMP JUMPDEST SWAP1 POP SWAP3 SWAP2 POP POP JUMP JUMPDEST PUSH2 0x39BC DUP2 PUSH2 0x381A JUMP JUMPDEST DUP2 EQ PUSH2 0x39C7 JUMPI PUSH1 0x0 DUP1 REVERT JUMPDEST POP JUMP JUMPDEST PUSH1 0x0 DUP2 CALLDATALOAD SWAP1 POP PUSH2 0x39D9 DUP2 PUSH2 0x39B3 JUMP JUMPDEST SWAP3 SWAP2 POP POP JUMP JUMPDEST PUSH1 0x0 DUP1 PUSH1 0x40 DUP4 DUP6 SUB SLT ISZERO PUSH2 0x39F6 JUMPI PUSH2 0x39F5 PUSH2 0x3720 JUMP JUMPDEST JUMPDEST PUSH1 0x0 PUSH2 0x3A04 DUP6 DUP3 DUP7 ADD PUSH2 0x3746 JUMP JUMPDEST SWAP3 POP POP PUSH1 0x20 PUSH2 0x3A15 DUP6 DUP3 DUP7 ADD PUSH2 0x39CA JUMP JUMPDEST SWAP2 POP POP SWAP3 POP SWAP3 SWAP1 POP JUMP JUMPDEST PUSH2 0x3A28 DUP2 PUSH2 0x3725 JUMP JUMPDEST DUP3 MSTORE POP POP JUMP JUMPDEST PUSH1 0x0 PUSH1 0x20 DUP3 ADD SWAP1 POP PUSH2 0x3A43 PUSH1 0x0 DUP4 ADD DUP5 PUSH2 0x3A1F JUMP JUMPDEST SWAP3 SWAP2 POP POP JUMP JUMPDEST PUSH1 0x0 PUSH1 0x20 DUP3 DUP5 SUB SLT ISZERO PUSH2 0x3A5F JUMPI PUSH2 0x3A5E PUSH2 0x3720 JUMP JUMPDEST JUMPDEST PUSH1 0x0 PUSH2 0x3A6D DUP5 DUP3 DUP6 ADD PUSH2 0x39CA JUMP JUMPDEST SWAP2 POP POP SWAP3 SWAP2 POP POP JUMP JUMPDEST PUSH1 0x0 DUP1 PUSH1 0x40 DUP4 DUP6 SUB SLT ISZERO PUSH2 0x3A8D JUMPI PUSH2 0x3A8C PUSH2 0x3720 JUMP JUMPDEST JUMPDEST PUSH1 0x0 PUSH2 0x3A9B DUP6 DUP3 DUP7 ADD PUSH2 0x39CA JUMP JUMPDEST SWAP3 POP POP PUSH1 0x20 PUSH2 0x3AAC DUP6 DUP3 DUP7 ADD PUSH2 0x3746 JUMP JUMPDEST SWAP2 POP POP SWAP3 POP SWAP3 SWAP1 POP JUMP JUMPDEST PUSH2 0x3ABF DUP2 PUSH2 0x383B JUMP JUMPDEST DUP3 MSTORE POP POP JUMP JUMPDEST PUSH1 0x0 PUSH1 0x20 DUP3 ADD SWAP1 POP PUSH2 0x3ADA PUSH1 0x0 DUP4 ADD DUP5 PUSH2 0x3AB6 JUMP JUMPDEST SWAP3 SWAP2 POP POP JUMP JUMPDEST PUSH1 0x0 PUSH1 0x60 DUP3 ADD SWAP1 POP PUSH2 0x3AF5 PUSH1 0x0 DUP4 ADD DUP7 PUSH2 0x3A1F JUMP JUMPDEST PUSH2 0x3B02 PUSH1 0x20 DUP4 ADD DUP6 PUSH2 0x3A1F JUMP JUMPDEST PUSH2 0x3B0F PUSH1 0x40 DUP4 ADD DUP5 PUSH2 0x3A1F JUMP JUMPDEST SWAP5 SWAP4 POP POP POP POP JUMP JUMPDEST PUSH2 0x3B20 DUP2 PUSH2 0x381A JUMP JUMPDEST DUP3 MSTORE POP POP JUMP JUMPDEST PUSH1 0x0 PUSH1 0x20 DUP3 ADD SWAP1 POP PUSH2 0x3B3B PUSH1 0x0 DUP4 ADD DUP5 PUSH2 0x3B17 JUMP JUMPDEST SWAP3 SWAP2 POP POP JUMP JUMPDEST PUSH1 0x0 DUP1 PUSH1 0x40 DUP4 DUP6 SUB SLT ISZERO PUSH2 0x3B58 JUMPI PUSH2 0x3B57 PUSH2 0x3720 JUMP JUMPDEST JUMPDEST PUSH1 0x0 PUSH2 0x3B66 DUP6 DUP3 DUP7 ADD PUSH2 0x3746 JUMP JUMPDEST SWAP3 POP POP PUSH1 0x20 PUSH2 0x3B77 DUP6 DUP3 DUP7 ADD PUSH2 0x3746 JUMP JUMPDEST SWAP2 POP POP SWAP3 POP SWAP3 SWAP1 POP JUMP JUMPDEST PUSH1 0x0 DUP2 SWAP1 POP SWAP2 SWAP1 POP JUMP JUMPDEST PUSH1 0x0 PUSH2 0x3BA6 PUSH2 0x3BA1 PUSH2 0x3B9C DUP5 PUSH2 0x37FA JUMP JUMPDEST PUSH2 0x3B81 JUMP JUMPDEST PUSH2 0x37FA JUMP JUMPDEST SWAP1 POP SWAP2 SWAP1 POP JUMP JUMPDEST PUSH1 0x0 PUSH2 0x3BB8 DUP3 PUSH2 0x3B8B JUMP JUMPDEST SWAP1 POP SWAP2 SWAP1 POP JUMP JUMPDEST PUSH1 0x0 PUSH2 0x3BCA DUP3 PUSH2 0x3BAD JUMP JUMPDEST SWAP1 POP SWAP2 SWAP1 POP JUMP JUMPDEST PUSH2 0x3BDA DUP2 PUSH2 0x3BBF JUMP JUMPDEST DUP3 MSTORE POP POP JUMP JUMPDEST PUSH1 0x0 PUSH1 0x20 DUP3 ADD SWAP1 POP PUSH2 0x3BF5 PUSH1 0x0 DUP4 ADD DUP5 PUSH2 0x3BD1 JUMP JUMPDEST SWAP3 SWAP2 POP POP JUMP JUMPDEST PUSH1 0x0 PUSH1 0x60 DUP3 ADD SWAP1 POP PUSH2 0x3C10 PUSH1 0x0 DUP4 ADD DUP7 PUSH2 0x3B17 JUMP JUMPDEST PUSH2 0x3C1D PUSH1 0x20 DUP4 ADD DUP6 PUSH2 0x3A1F JUMP JUMPDEST PUSH2 0x3C2A PUSH1 0x40 DUP4 ADD DUP5 PUSH2 0x3AB6 JUMP JUMPDEST SWAP5 SWAP4 POP POP POP POP JUMP JUMPDEST PUSH1 0x0 PUSH1 0xA0 DUP3 ADD SWAP1 POP PUSH2 0x3C47 PUSH1 0x0 DUP4 ADD DUP9 PUSH2 0x3A1F JUMP JUMPDEST PUSH2 0x3C54 PUSH1 0x20 DUP4 ADD DUP8 PUSH2 0x3AB6 JUMP JUMPDEST PUSH2 0x3C61 PUSH1 0x40 DUP4 ADD DUP7 PUSH2 0x3AB6 JUMP JUMPDEST PUSH2 0x3C6E PUSH1 0x60 DUP4 ADD DUP6 PUSH2 0x3AB6 JUMP JUMPDEST PUSH2 0x3C7B PUSH1 0x80 DUP4 ADD DUP5 PUSH2 0x3A1F JUMP JUMPDEST SWAP7 SWAP6 POP POP POP POP POP POP JUMP JUMPDEST PUSH1 0x0 PUSH1 0x40 DUP3 ADD SWAP1 POP PUSH2 0x3C9A PUSH1 0x0 DUP4 ADD DUP6 PUSH2 0x3A1F JUMP JUMPDEST PUSH2 0x3CA7 PUSH1 0x20 DUP4 ADD DUP5 PUSH2 0x3A1F JUMP JUMPDEST SWAP4 SWAP3 POP POP POP JUMP JUMPDEST PUSH1 0x0 PUSH1 0xA0 DUP3 ADD SWAP1 POP PUSH2 0x3CC3 PUSH1 0x0 DUP4 ADD DUP9 PUSH2 0x3A1F JUMP JUMPDEST PUSH2 0x3CD0 PUSH1 0x20 DUP4 ADD DUP8 PUSH2 0x3A1F JUMP JUMPDEST PUSH2 0x3CDD PUSH1 0x40 DUP4 ADD DUP7 PUSH2 0x3A1F JUMP JUMPDEST PUSH2 0x3CEA PUSH1 0x60 DUP4 ADD DUP6 PUSH2 0x3A1F JUMP JUMPDEST PUSH2 0x3CF7 PUSH1 0x80 DUP4 ADD DUP5 PUSH2 0x3AB6 JUMP JUMPDEST SWAP7 SWAP6 POP POP POP POP POP POP JUMP JUMPDEST PUSH32 0x4E487B7100000000000000000000000000000000000000000000000000000000 PUSH1 0x0 MSTORE PUSH1 0x21 PUSH1 0x4 MSTORE PUSH1 0x24 PUSH1 0x0 REVERT JUMPDEST PUSH1 0x2 DUP2 LT PUSH2 0x3D41 JUMPI PUSH2 0x3D40 PUSH2 0x3D01 JUMP JUMPDEST JUMPDEST POP JUMP JUMPDEST PUSH1 0x0 DUP2 SWAP1 POP PUSH2 0x3D52 DUP3 PUSH2 0x3D30 JUMP JUMPDEST SWAP2 SWAP1 POP JUMP JUMPDEST PUSH1 0x0 PUSH2 0x3D62 DUP3 PUSH2 0x3D44 JUMP JUMPDEST SWAP1 POP SWAP2 SWAP1 POP JUMP JUMPDEST PUSH2 0x3D72 DUP2 PUSH2 0x3D57 JUMP JUMPDEST DUP3 MSTORE POP POP JUMP JUMPDEST PUSH1 0x0 PUSH1 0xE0 DUP3 ADD SWAP1 POP PUSH2 0x3D8D PUSH1 0x0 DUP4 ADD DUP11 PUSH2 0x3B17 JUMP JUMPDEST PUSH2 0x3D9A PUSH1 0x20 DUP4 ADD DUP10 PUSH2 0x3B17 JUMP JUMPDEST PUSH2 0x3DA7 PUSH1 0x40 DUP4 ADD DUP9 PUSH2 0x3A1F JUMP JUMPDEST PUSH2 0x3DB4 PUSH1 0x60 DUP4 ADD DUP8 PUSH2 0x3A1F JUMP JUMPDEST PUSH2 0x3DC1 PUSH1 0x80 DUP4 ADD DUP7 PUSH2 0x3A1F JUMP JUMPDEST PUSH2 0x3DCE PUSH1 0xA0 DUP4 ADD DUP6 PUSH2 0x3D69 JUMP JUMPDEST PUSH2 0x3DDB PUSH1 0xC0 DUP4 ADD DUP5 PUSH2 0x3A1F JUMP JUMPDEST SWAP9 SWAP8 POP POP POP POP POP POP POP POP JUMP JUMPDEST PUSH1 0x0 DUP1 PUSH1 0x0 PUSH1 0x60 DUP5 DUP7 SUB SLT ISZERO PUSH2 0x3E00 JUMPI PUSH2 0x3DFF PUSH2 0x3720 JUMP JUMPDEST JUMPDEST PUSH1 0x0 PUSH2 0x3E0E DUP7 DUP3 DUP8 ADD PUSH2 0x3746 JUMP JUMPDEST SWAP4 POP POP PUSH1 0x20 PUSH2 0x3E1F DUP7 DUP3 DUP8 ADD PUSH2 0x3746 JUMP JUMPDEST SWAP3 POP POP PUSH1 0x40 PUSH2 0x3E30 DUP7 DUP3 DUP8 ADD PUSH2 0x3746 JUMP JUMPDEST SWAP2 POP POP SWAP3 POP SWAP3 POP SWAP3 JUMP JUMPDEST PUSH1 0x0 DUP3 DUP3 MSTORE PUSH1 0x20 DUP3 ADD SWAP1 POP SWAP3 SWAP2 POP POP JUMP JUMPDEST PUSH32 0x4F6E6C79206F776E657200000000000000000000000000000000000000000000 PUSH1 0x0 DUP3 ADD MSTORE POP JUMP JUMPDEST PUSH1 0x0 PUSH2 0x3E81 PUSH1 0xA DUP4 PUSH2 0x3E3A JUMP JUMPDEST SWAP2 POP PUSH2 0x3E8C DUP3 PUSH2 0x3E4B JUMP JUMPDEST PUSH1 0x20 DUP3 ADD SWAP1 POP SWAP2 SWAP1 POP JUMP JUMPDEST PUSH1 0x0 PUSH1 0x20 DUP3 ADD SWAP1 POP DUP2 DUP2 SUB PUSH1 0x0 DUP4 ADD MSTORE PUSH2 0x3EB0 DUP2 PUSH2 0x3E74 JUMP JUMPDEST SWAP1 POP SWAP2 SWAP1 POP JUMP JUMPDEST PUSH32 0x526174696F20746F6F206C6F7700000000000000000000000000000000000000 PUSH1 0x0 DUP3 ADD MSTORE POP JUMP JUMPDEST PUSH1 0x0 PUSH2 0x3EED PUSH1 0xD DUP4 PUSH2 0x3E3A JUMP JUMPDEST SWAP2 POP PUSH2 0x3EF8 DUP3 PUSH2 0x3EB7 JUMP JUMPDEST PUSH1 0x20 DUP3 ADD SWAP1 POP SWAP2 SWAP1 POP JUMP JUMPDEST PUSH1 0x0 PUSH1 0x20 DUP3 ADD SWAP1 POP DUP2 DUP2 SUB PUSH1 0x0 DUP4 ADD MSTORE PUSH2 0x3F1C DUP2 PUSH2 0x3EE0 JUMP JUMPDEST SWAP1 POP SWAP2 SWAP1 POP JUMP JUMPDEST PUSH32 0x4E487B7100000000000000000000000000000000000000000000000000000000 PUSH1 0x0 MSTORE PUSH1 0x11 PUSH1 0x4 MSTORE PUSH1 0x24 PUSH1 0x0 REVERT JUMPDEST PUSH1 0x0 PUSH2 0x3F5D DUP3 PUSH2 0x3725 JUMP JUMPDEST SWAP2 POP PUSH32 0xFFFFFFFFFFFFFFFFFFFFFFFFFFFFFFFFFFFFFFFFFFFFFFFFFFFFFFFFFFFFFFFF DUP3 SUB PUSH2 0x3F8F JUMPI PUSH2 0x3F8E PUSH2 0x3F23 JUMP JUMPDEST JUMPDEST PUSH1 0x1 DUP3 ADD SWAP1 POP SWAP2 SWAP1 POP JUMP JUMPDEST PUSH32 0x4E487B7100000000000000000000000000000000000000000000000000000000 PUSH1 0x0 MSTORE PUSH1 0x41 PUSH1 0x4 MSTORE PUSH1 0x24 PUSH1 0x0 REVERT JUMPDEST PUSH32 0x4E487B7100000000000000000000000000000000000000000000000000000000 PUSH1 0x0 MSTORE PUSH1 0x32 PUSH1 0x4 MSTORE PUSH1 0x24 PUSH1 0x0 REVERT JUMPDEST PUSH1 0x0 DUP2 MLOAD SWAP1 POP PUSH2 0x4007 DUP2 PUSH2 0x372F JUMP JUMPDEST SWAP3 SWAP2 POP POP JUMP JUMPDEST PUSH1 0x0 PUSH1 0x20 DUP3 DUP5 SUB SLT ISZERO PUSH2 0x4023 JUMPI PUSH2 0x4022 PUSH2 0x3720 JUMP JUMPDEST JUMPDEST PUSH1 0x0 PUSH2 0x4031 DUP5 DUP3 DUP6 ADD PUSH2 0x3FF8 JUMP JUMPDEST SWAP2 POP POP SWAP3 SWAP2 POP POP JUMP JUMPDEST PUSH32 0x4E6F207265776172647320746F20776974686472617700000000000000000000 PUSH1 0x0 DUP3 ADD MSTORE POP JUMP JUMPDEST PUSH1 0x0 PUSH2 0x4070 PUSH1 0x16 DUP4 PUSH2 0x3E3A JUMP JUMPDEST SWAP2 POP PUSH2 0x407B DUP3 PUSH2 0x403A JUMP JUMPDEST PUSH1 0x20 DUP3 ADD SWAP1 POP SWAP2 SWAP1 POP JUMP JUMPDEST PUSH1 0x0 PUSH1 0x20 DUP3 ADD SWAP1 POP DUP2 DUP2 SUB PUSH1 0x0 DUP4 ADD MSTORE PUSH2 0x409F DUP2 PUSH2 0x4063 JUMP JUMPDEST SWAP1 POP SWAP2 SWAP1 POP JUMP JUMPDEST PUSH1 0x0 PUSH1 0x40 DUP3 ADD SWAP1 POP PUSH2 0x40BB PUSH1 0x0 DUP4 ADD DUP6 PUSH2 0x3B17 JUMP JUMPDEST PUSH2 0x40C8 PUSH1 0x20 DUP4 ADD DUP5 PUSH2 0x3A1F JUMP JUMPDEST SWAP4 SWAP3 POP POP POP JUMP JUMPDEST PUSH2 0x40D8 DUP2 PUSH2 0x383B JUMP JUMPDEST DUP2 EQ PUSH2 0x40E3 JUMPI PUSH1 0x0 DUP1 REVERT JUMPDEST POP JUMP JUMPDEST PUSH1 0x0 DUP2 MLOAD SWAP1 POP PUSH2 0x40F5 DUP2 PUSH2 0x40CF JUMP JUMPDEST SWAP3 SWAP2 POP POP JUMP JUMPDEST PUSH1 0x0 PUSH1 0x20 DUP3 DUP5 SUB SLT ISZERO PUSH2 0x4111 JUMPI PUSH2 0x4110 PUSH2 0x3720 JUMP JUMPDEST JUMPDEST PUSH1 0x0 PUSH2 0x411F DUP5 DUP3 DUP6 ADD PUSH2 0x40E6 JUMP JUMPDEST SWAP2 POP POP SWAP3 SWAP2 POP POP JUMP JUMPDEST PUSH32 0x526577617264207769746864726177616C206661696C65640000000000000000 PUSH1 0x0 DUP3 ADD MSTORE POP JUMP JUMPDEST PUSH1 0x0 PUSH2 0x415E PUSH1 0x18 DUP4 PUSH2 0x3E3A JUMP JUMPDEST SWAP2 POP PUSH2 0x4169 DUP3 PUSH2 0x4128 JUMP JUMPDEST PUSH1 0x20 DUP3 ADD SWAP1 POP SWAP2 SWAP1 POP JUMP JUMPDEST PUSH1 0x0 PUSH1 0x20 DUP3 ADD SWAP1 POP DUP2 DUP2 SUB PUSH1 0x0 DUP4 ADD MSTORE PUSH2 0x418D DUP2 PUSH2 0x4151 JUMP JUMPDEST SWAP1 POP SWAP2 SWAP1 POP JUMP JUMPDEST PUSH32 0x4C6F616E206E6F74206163746976650000000000000000000000000000000000 PUSH1 0x0 DUP3 ADD MSTORE POP JUMP JUMPDEST PUSH1 0x0 PUSH2 0x41CA PUSH1 0xF DUP4 PUSH2 0x3E3A JUMP JUMPDEST SWAP2 POP PUSH2 0x41D5 DUP3 PUSH2 0x4194 JUMP JUMPDEST PUSH1 0x20 DUP3 ADD SWAP1 POP SWAP2 SWAP1 POP JUMP JUMPDEST PUSH1 0x0 PUSH1 0x20 DUP3 ADD SWAP1 POP DUP2 DUP2 SUB PUSH1 0x0 DUP4 ADD MSTORE PUSH2 0x41F9 DUP2 PUSH2 0x41BD JUMP JUMPDEST SWAP1 POP SWAP2 SWAP1 POP JUMP JUMPDEST PUSH32 0x4C6F616E206E6F74206F76657264756500000000000000000000000000000000 PUSH1 0x0 DUP3 ADD MSTORE POP JUMP JUMPDEST PUSH1 0x0 PUSH2 0x4236 PUSH1 0x10 DUP4 PUSH2 0x3E3A JUMP JUMPDEST SWAP2 POP PUSH2 0x4241 DUP3 PUSH2 0x4200 JUMP JUMPDEST PUSH1 0x20 DUP3 ADD SWAP1 POP SWAP2 SWAP1 POP JUMP JUMPDEST PUSH1 0x0 PUSH1 0x20 DUP3 ADD SWAP1 POP DUP2 DUP2 SUB PUSH1 0x0 DUP4 ADD MSTORE PUSH2 0x4265 DUP2 PUSH2 0x4229 JUMP JUMPDEST SWAP1 POP SWAP2 SWAP1 POP JUMP JUMPDEST PUSH32 0x4C6F616E20616C72656164792072657061696400000000000000000000000000 PUSH1 0x0 DUP3 ADD MSTORE POP JUMP JUMPDEST PUSH1 0x0 PUSH2 0x42A2 PUSH1 0x13 DUP4 PUSH2 0x3E3A JUMP JUMPDEST SWAP2 POP PUSH2 0x42AD DUP3 PUSH2 0x426C JUMP JUMPDEST PUSH1 0x20 DUP3 ADD SWAP1 POP SWAP2 SWAP1 POP JUMP JUMPDEST PUSH1 0x0 PUSH1 0x20 DUP3 ADD SWAP1 POP DUP2 DUP2 SUB PUSH1 0x0 DUP4 ADD MSTORE PUSH2 0x42D1 DUP2 PUSH2 0x4295 JUMP JUMPDEST SWAP1 POP SWAP2 SWAP1 POP JUMP JUMPDEST PUSH1 0x0 DUP2 PUSH1 0x1 SHR SWAP1 POP SWAP2 SWAP1 POP JUMP JUMPDEST PUSH1 0x0 DUP1 DUP3 SWAP2 POP DUP4 SWAP1 POP JUMPDEST PUSH1 0x1 DUP6 GT ISZERO PUSH2 0x432F JUMPI DUP1 DUP7 DIV DUP2 GT ISZERO PUSH2 0x430B JUMPI PUSH2 0x430A PUSH2 0x3F23 JUMP JUMPDEST JUMPDEST PUSH1 0x1 DUP6 AND ISZERO PUSH2 0x431A JUMPI DUP1 DUP3 MUL SWAP2 POP JUMPDEST DUP1 DUP2 MUL SWAP1 POP PUSH2 0x4328 DUP6 PUSH2 0x42D8 JUMP JUMPDEST SWAP5 POP PUSH2 0x42EF JUMP JUMPDEST SWAP5 POP SWAP5 SWAP3 POP POP POP JUMP JUMPDEST PUSH1 0x0 DUP3 PUSH2 0x4348 JUMPI PUSH1 0x1 SWAP1 POP PUSH2 0x4404 JUMP JUMPDEST DUP2 PUSH2 0x4356 JUMPI PUSH1 0x0 SWAP1 POP PUSH2 0x4404 JUMP JUMPDEST DUP2 PUSH1 0x1 DUP2 EQ PUSH2 0x436C JUMPI PUSH1 0x2 DUP2 EQ PUSH2 0x4376 JUMPI PUSH2 0x43A5 JUMP JUMPDEST PUSH1 0x1 SWAP2 POP POP PUSH2 0x4404 JUMP JUMPDEST PUSH1 0xFF DUP5 GT ISZERO PUSH2 0x4388 JUMPI PUSH2 0x4387 PUSH2 0x3F23 JUMP JUMPDEST JUMPDEST DUP4 PUSH1 0x2 EXP SWAP2 POP DUP5 DUP3 GT ISZERO PUSH2 0x439F JUMPI PUSH2 0x439E PUSH2 0x3F23 JUMP JUMPDEST JUMPDEST POP PUSH2 0x4404 JUMP JUMPDEST POP PUSH1 0x20 DUP4 LT PUSH2 0x133 DUP4 LT AND PUSH1 0x4E DUP5 LT PUSH1 0xB DUP5 LT AND OR ISZERO PUSH2 0x43DA JUMPI DUP3 DUP3 EXP SWAP1 POP DUP4 DUP2 GT ISZERO PUSH2 0x43D5 JUMPI PUSH2 0x43D4 PUSH2 0x3F23 JUMP JUMPDEST JUMPDEST PUSH2 0x4404 JUMP JUMPDEST PUSH2 0x43E7 DUP5 DUP5 DUP5 PUSH1 0x1 PUSH2 0x42E5 JUMP JUMPDEST SWAP3 POP SWAP1 POP DUP2 DUP5 DIV DUP2 GT ISZERO PUSH2 0x43FE JUMPI PUSH2 0x43FD PUSH2 0x3F23 JUMP JUMPDEST JUMPDEST DUP2 DUP2 MUL SWAP1 POP JUMPDEST SWAP4 SWAP3 POP POP POP JUMP JUMPDEST PUSH1 0x0 PUSH2 0x4416 DUP3 PUSH2 0x3725 JUMP JUMPDEST SWAP2 POP PUSH2 0x4421 DUP4 PUSH2 0x3788 JUMP JUMPDEST SWAP3 POP PUSH2 0x444E PUSH32 0xFFFFFFFFFFFFFFFFFFFFFFFFFFFFFFFFFFFFFFFFFFFFFFFFFFFFFFFFFFFFFFFF DUP5 DUP5 PUSH2 0x4338 JUMP JUMPDEST SWAP1 POP SWAP3 SWAP2 POP POP JUMP JUMPDEST PUSH1 0x0 PUSH2 0x4461 DUP3 PUSH2 0x3725 JUMP JUMPDEST SWAP2 POP PUSH2 0x446C DUP4 PUSH2 0x3725 JUMP JUMPDEST SWAP3 POP DUP3 DUP3 MUL PUSH2 0x447A DUP2 PUSH2 0x3725 JUMP JUMPDEST SWAP2 POP DUP3 DUP3 DIV DUP5 EQ DUP4 ISZERO OR PUSH2 0x4491 JUMPI PUSH2 0x4490 PUSH2 0x3F23 JUMP JUMPDEST JUMPDEST POP SWAP3 SWAP2 POP POP JUMP JUMPDEST PUSH32 0x4E487B7100000000000000000000000000000000000000000000000000000000 PUSH1 0x0 MSTORE PUSH1 0x12 PUSH1 0x4 MSTORE PUSH1 0x24 PUSH1 0x0 REVERT JUMPDEST PUSH1 0x0 PUSH2 0x44D2 DUP3 PUSH2 0x3725 JUMP JUMPDEST SWAP2 POP PUSH2 0x44DD DUP4 PUSH2 0x3725 JUMP JUMPDEST SWAP3 POP DUP3 PUSH2 0x44ED JUMPI PUSH2 0x44EC PUSH2 0x4498 JUMP JUMPDEST JUMPDEST DUP3 DUP3 DIV SWAP1 POP SWAP3 SWAP2 POP POP JUMP JUMPDEST PUSH32 0x436F6C6C61746572616C207374696C6C2073756666696369656E740000000000 PUSH1 0x0 DUP3 ADD MSTORE POP JUMP JUMPDEST PUSH1 0x0 PUSH2 0x452E PUSH1 0x1B DUP4 PUSH2 0x3E3A JUMP JUMPDEST SWAP2 POP PUSH2 0x4539 DUP3 PUSH2 0x44F8 JUMP JUMPDEST PUSH1 0x20 DUP3 ADD SWAP1 POP SWAP2 SWAP1 POP JUMP JUMPDEST PUSH1 0x0 PUSH1 0x20 DUP3 ADD SWAP1 POP DUP2 DUP2 SUB PUSH1 0x0 DUP4 ADD MSTORE PUSH2 0x455D DUP2 PUSH2 0x4521 JUMP JUMPDEST SWAP1 POP SWAP2 SWAP1 POP JUMP JUMPDEST PUSH32 0x4E6F7420626F72726F7765720000000000000000000000000000000000000000 PUSH1 0x0 DUP3 ADD MSTORE POP JUMP JUMPDEST PUSH1 0x0 PUSH2 0x459A PUSH1 0xC DUP4 PUSH2 0x3E3A JUMP JUMPDEST SWAP2 POP PUSH2 0x45A5 DUP3 PUSH2 0x4564 JUMP JUMPDEST PUSH1 0x20 DUP3 ADD SWAP1 POP SWAP2 SWAP1 POP JUMP JUMPDEST PUSH1 0x0 PUSH1 0x20 DUP3 ADD SWAP1 POP DUP2 DUP2 SUB PUSH1 0x0 DUP4 ADD MSTORE PUSH2 0x45C9 DUP2 PUSH2 0x458D JUMP JUMPDEST SWAP1 POP SWAP2 SWAP1 POP JUMP JUMPDEST PUSH32 0x4E6F20696E746572657374206163637275656421000000000000000000000000 PUSH1 0x0 DUP3 ADD MSTORE POP JUMP JUMPDEST PUSH1 0x0 PUSH2 0x4606 PUSH1 0x14 DUP4 PUSH2 0x3E3A JUMP JUMPDEST SWAP2 POP PUSH2 0x4611 DUP3 PUSH2 0x45D0 JUMP JUMPDEST PUSH1 0x20 DUP3 ADD SWAP1 POP SWAP2 SWAP1 POP JUMP JUMPDEST PUSH1 0x0 PUSH1 0x20 DUP3 ADD SWAP1 POP DUP2 DUP2 SUB PUSH1 0x0 DUP4 ADD MSTORE PUSH2 0x4635 DUP2 PUSH2 0x45F9 JUMP JUMPDEST SWAP1 POP SWAP2 SWAP1 POP JUMP JUMPDEST PUSH1 0x0 PUSH2 0x4647 DUP3 PUSH2 0x3725 JUMP JUMPDEST SWAP2 POP PUSH2 0x4652 DUP4 PUSH2 0x3725 JUMP JUMPDEST SWAP3 POP DUP3 DUP3 SUB SWAP1 POP DUP2 DUP2 GT ISZERO PUSH2 0x466A JUMPI PUSH2 0x4669 PUSH2 0x3F23 JUMP JUMPDEST JUMPDEST SWAP3 SWAP2 POP POP JUMP JUMPDEST PUSH1 0x0 PUSH2 0x467B DUP3 PUSH2 0x3725 JUMP JUMPDEST SWAP2 POP PUSH2 0x4686 DUP4 PUSH2 0x3725 JUMP JUMPDEST SWAP3 POP DUP3 DUP3 ADD SWAP1 POP DUP1 DUP3 GT ISZERO PUSH2 0x469E JUMPI PUSH2 0x469D PUSH2 0x3F23 JUMP JUMPDEST JUMPDEST SWAP3 SWAP2 POP POP JUMP JUMPDEST PUSH32 0x496E746572657374206E6F742063616C63756C61746564000000000000000000 PUSH1 0x0 DUP3 ADD MSTORE POP JUMP JUMPDEST PUSH1 0x0 PUSH2 0x46DA PUSH1 0x17 DUP4 PUSH2 0x3E3A JUMP JUMPDEST SWAP2 POP PUSH2 0x46E5 DUP3 PUSH2 0x46A4 JUMP JUMPDEST PUSH1 0x20 DUP3 ADD SWAP1 POP SWAP2 SWAP1 POP JUMP JUMPDEST PUSH1 0x0 PUSH1 0x20 DUP3 ADD SWAP1 POP DUP2 DUP2 SUB PUSH1 0x0 DUP4 ADD MSTORE PUSH2 0x4709 DUP2 PUSH2 0x46CD JUMP JUMPDEST SWAP1 POP SWAP2 SWAP1 POP JUMP JUMPDEST PUSH32 0x4E6F207265776172642063616C63756C61746564000000000000000000000000 PUSH1 0x0 DUP3 ADD MSTORE POP JUMP JUMPDEST PUSH1 0x0 PUSH2 0x4746 PUSH1 0x14 DUP4 PUSH2 0x3E3A JUMP JUMPDEST SWAP2 POP PUSH2 0x4751 DUP3 PUSH2 0x4710 JUMP JUMPDEST PUSH1 0x20 DUP3 ADD SWAP1 POP SWAP2 SWAP1 POP JUMP JUMPDEST PUSH1 0x0 PUSH1 0x20 DUP3 ADD SWAP1 POP DUP2 DUP2 SUB PUSH1 0x0 DUP4 ADD MSTORE PUSH2 0x4775 DUP2 PUSH2 0x4739 JUMP JUMPDEST SWAP1 POP SWAP2 SWAP1 POP JUMP JUMPDEST PUSH1 0x0 PUSH1 0x60 DUP3 ADD SWAP1 POP PUSH2 0x4791 PUSH1 0x0 DUP4 ADD DUP7 PUSH2 0x3B17 JUMP JUMPDEST PUSH2 0x479E PUSH1 0x20 DUP4 ADD DUP6 PUSH2 0x3B17 JUMP JUMPDEST PUSH2 0x47AB PUSH1 0x40 DUP4 ADD DUP5 PUSH2 0x3A1F JUMP JUMPDEST SWAP5 SWAP4 POP POP POP POP JUMP JUMPDEST PUSH32 0x5472616E73666572206661696C65640000000000000000000000000000000000 PUSH1 0x0 DUP3 ADD MSTORE POP JUMP JUMPDEST PUSH1 0x0 PUSH2 0x47E9 PUSH1 0xF DUP4 PUSH2 0x3E3A JUMP JUMPDEST SWAP2 POP PUSH2 0x47F4 DUP3 PUSH2 0x47B3 JUMP JUMPDEST PUSH1 0x20 DUP3 ADD SWAP1 POP SWAP2 SWAP1 POP JUMP JUMPDEST PUSH1 0x0 PUSH1 0x20 DUP3 ADD SWAP1 POP DUP2 DUP2 SUB PUSH1 0x0 DUP4 ADD MSTORE PUSH2 0x4818 DUP2 PUSH2 0x47DC JUMP JUMPDEST SWAP1 POP SWAP2 SWAP1 POP JUMP JUMPDEST PUSH32 0x5472616E7366657220746F206C656E646572206661696C656400000000000000 PUSH1 0x0 DUP3 ADD MSTORE POP JUMP JUMPDEST PUSH1 0x0 PUSH2 0x4855 PUSH1 0x19 DUP4 PUSH2 0x3E3A JUMP JUMPDEST SWAP2 POP PUSH2 0x4860 DUP3 PUSH2 0x481F JUMP JUMPDEST PUSH1 0x20 DUP3 ADD SWAP1 POP SWAP2 SWAP1 POP JUMP JUMPDEST PUSH1 0x0 PUSH1 0x20 DUP3 ADD SWAP1 POP DUP2 DUP2 SUB PUSH1 0x0 DUP4 ADD MSTORE PUSH2 0x4884 DUP2 PUSH2 0x4848 JUMP JUMPDEST SWAP1 POP SWAP2 SWAP1 POP JUMP JUMPDEST PUSH32 0x4C6F616E20616C72656164792061637469766500000000000000000000000000 PUSH1 0x0 DUP3 ADD MSTORE POP JUMP JUMPDEST PUSH1 0x0 PUSH2 0x48C1 PUSH1 0x13 DUP4 PUSH2 0x3E3A JUMP JUMPDEST SWAP2 POP PUSH2 0x48CC DUP3 PUSH2 0x488B JUMP JUMPDEST PUSH1 0x20 DUP3 ADD SWAP1 POP SWAP2 SWAP1 POP JUMP JUMPDEST PUSH1 0x0 PUSH1 0x20 DUP3 ADD SWAP1 POP DUP2 DUP2 SUB PUSH1 0x0 DUP4 ADD MSTORE PUSH2 0x48F0 DUP2 PUSH2 0x48B4 JUMP JUMPDEST SWAP1 POP SWAP2 SWAP1 POP JUMP JUMPDEST PUSH32 0x4C6F616E20616C72656164792066756E64656400000000000000000000000000 PUSH1 0x0 DUP3 ADD MSTORE POP JUMP JUMPDEST PUSH1 0x0 PUSH2 0x492D PUSH1 0x13 DUP4 PUSH2 0x3E3A JUMP JUMPDEST SWAP2 POP PUSH2 0x4938 DUP3 PUSH2 0x48F7 JUMP JUMPDEST PUSH1 0x20 DUP3 ADD SWAP1 POP SWAP2 SWAP1 POP JUMP JUMPDEST PUSH1 0x0 PUSH1 0x20 DUP3 ADD SWAP1 POP DUP2 DUP2 SUB PUSH1 0x0 DUP4 ADD MSTORE PUSH2 0x495C DUP2 PUSH2 0x4920 JUMP JUMPDEST SWAP1 POP SWAP2 SWAP1 POP JUMP JUMPDEST PUSH1 0x0 PUSH1 0x40 DUP3 ADD SWAP1 POP PUSH2 0x4978 PUSH1 0x0 DUP4 ADD DUP6 PUSH2 0x3B17 JUMP JUMPDEST PUSH2 0x4985 PUSH1 0x20 DUP4 ADD DUP5 PUSH2 0x3B17 JUMP JUMPDEST SWAP4 SWAP3 POP POP POP JUMP JUMPDEST PUSH32 0x496E73756666696369656E7420616C6C6F77616E636500000000000000000000 PUSH1 0x0 DUP3 ADD MSTORE POP JUMP JUMPDEST PUSH1 0x0 PUSH2 0x49C2 PUSH1 0x16 DUP4 PUSH2 0x3E3A JUMP JUMPDEST SWAP2 POP PUSH2 0x49CD DUP3 PUSH2 0x498C JUMP JUMPDEST PUSH1 0x20 DUP3 ADD SWAP1 POP SWAP2 SWAP1 POP JUMP JUMPDEST PUSH1 0x0 PUSH1 0x20 DUP3 ADD SWAP1 POP DUP2 DUP2 SUB PUSH1 0x0 DUP4 ADD MSTORE PUSH2 0x49F1 DUP2 PUSH2 0x49B5 JUMP JUMPDEST SWAP1 POP SWAP2 SWAP1 POP JUMP JUMPDEST PUSH32 0x4C6F616E2064697362757273656D656E74206661696C65640000000000000000 PUSH1 0x0 DUP3 ADD MSTORE POP JUMP JUMPDEST PUSH1 0x0 PUSH2 0x4A2E PUSH1 0x18 DUP4 PUSH2 0x3E3A JUMP JUMPDEST SWAP2 POP PUSH2 0x4A39 DUP3 PUSH2 0x49F8 JUMP JUMPDEST PUSH1 0x20 DUP3 ADD SWAP1 POP SWAP2 SWAP1 POP JUMP JUMPDEST PUSH1 0x0 PUSH1 0x20 DUP3 ADD SWAP1 POP DUP2 DUP2 SUB PUSH1 0x0 DUP4 ADD MSTORE PUSH2 0x4A5D DUP2 PUSH2 0x4A21 JUMP JUMPDEST SWAP1 POP SWAP2 SWAP1 POP JUMP JUMPDEST PUSH32 0x4C6F616E20646F6573206E6F7420657869737400000000000000000000000000 PUSH1 0x0 DUP3 ADD MSTORE POP JUMP JUMPDEST PUSH1 0x0 PUSH2 0x4A9A PUSH1 0x13 DUP4 PUSH2 0x3E3A JUMP JUMPDEST SWAP2 POP PUSH2 0x4AA5 DUP3 PUSH2 0x4A64 JUMP JUMPDEST PUSH1 0x20 DUP3 ADD SWAP1 POP SWAP2 SWAP1 POP JUMP JUMPDEST PUSH1 0x0 PUSH1 0x20 DUP3 ADD SWAP1 POP DUP2 DUP2 SUB PUSH1 0x0 DUP4 ADD MSTORE PUSH2 0x4AC9 DUP2 PUSH2 0x4A8D JUMP JUMPDEST SWAP1 POP SWAP2 SWAP1 POP JUMP JUMPDEST PUSH32 0x4D696E696D756D206C6F616E20616D6F756E74206D7573742062652067726561 PUSH1 0x0 DUP3 ADD MSTORE PUSH32 0x746572207468616E203000000000000000000000000000000000000000000000 PUSH1 0x20 DUP3 ADD MSTORE POP JUMP JUMPDEST PUSH1 0x0 PUSH2 0x4B2C PUSH1 0x2A DUP4 PUSH2 0x3E3A JUMP JUMPDEST SWAP2 POP PUSH2 0x4B37 DUP3 PUSH2 0x4AD0 JUMP JUMPDEST PUSH1 0x40 DUP3 ADD SWAP1 POP SWAP2 SWAP1 POP JUMP JUMPDEST PUSH1 0x0 PUSH1 0x20 DUP3 ADD SWAP1 POP DUP2 DUP2 SUB PUSH1 0x0 DUP4 ADD MSTORE PUSH2 0x4B5B DUP2 PUSH2 0x4B1F JUMP JUMPDEST SWAP1 POP SWAP2 SWAP1 POP JUMP JUMPDEST PUSH32 0x4D6178696D756D206C6F616E20616D6F756E74206D7573742062652067726561 PUSH1 0x0 DUP3 ADD MSTORE PUSH32 0x746572207468616E206D696E696D756D206C6F616E20616D6F756E7400000000 PUSH1 0x20 DUP3 ADD MSTORE POP JUMP JUMPDEST PUSH1 0x0 PUSH2 0x4BBE PUSH1 0x3C DUP4 PUSH2 0x3E3A JUMP JUMPDEST SWAP2 POP PUSH2 0x4BC9 DUP3 PUSH2 0x4B62 JUMP JUMPDEST PUSH1 0x40 DUP3 ADD SWAP1 POP SWAP2 SWAP1 POP JUMP JUMPDEST PUSH1 0x0 PUSH1 0x20 DUP3 ADD SWAP1 POP DUP2 DUP2 SUB PUSH1 0x0 DUP4 ADD MSTORE PUSH2 0x4BED DUP2 PUSH2 0x4BB1 JUMP JUMPDEST SWAP1 POP SWAP2 SWAP1 POP JUMP JUMPDEST PUSH32 0x52657061796D656E742065786365656473206F77656420616D6F756E74000000 PUSH1 0x0 DUP3 ADD MSTORE POP JUMP JUMPDEST PUSH1 0x0 PUSH2 0x4C2A PUSH1 0x1D DUP4 PUSH2 0x3E3A JUMP JUMPDEST SWAP2 POP PUSH2 0x4C35 DUP3 PUSH2 0x4BF4 JUMP JUMPDEST PUSH1 0x20 DUP3 ADD SWAP1 POP SWAP2 SWAP1 POP JUMP JUMPDEST PUSH1 0x0 PUSH1 0x20 DUP3 ADD SWAP1 POP DUP2 DUP2 SUB PUSH1 0x0 DUP4 ADD MSTORE PUSH2 0x4C59 DUP2 PUSH2 0x4C1D JUMP JUMPDEST SWAP1 POP SWAP2 SWAP1 POP JUMP JUMPDEST PUSH32 0x5061727469616C2072657061796D656E74206661696C65640000000000000000 PUSH1 0x0 DUP3 ADD MSTORE POP JUMP JUMPDEST PUSH1 0x0 PUSH2 0x4C96 PUSH1 0x18 DUP4 PUSH2 0x3E3A JUMP JUMPDEST SWAP2 POP PUSH2 0x4CA1 DUP3 PUSH2 0x4C60 JUMP JUMPDEST PUSH1 0x20 DUP3 ADD SWAP1 POP SWAP2 SWAP1 POP JUMP JUMPDEST PUSH1 0x0 PUSH1 0x20 DUP3 ADD SWAP1 POP DUP2 DUP2 SUB PUSH1 0x0 DUP4 ADD MSTORE PUSH2 0x4CC5 DUP2 PUSH2 0x4C89 JUMP JUMPDEST SWAP1 POP SWAP2 SWAP1 POP JUMP JUMPDEST PUSH32 0x5072696365206E6F742073657400000000000000000000000000000000000000 PUSH1 0x0 DUP3 ADD MSTORE POP JUMP JUMPDEST PUSH1 0x0 PUSH2 0x4D02 PUSH1 0xD DUP4 PUSH2 0x3E3A JUMP JUMPDEST SWAP2 POP PUSH2 0x4D0D DUP3 PUSH2 0x4CCC JUMP JUMPDEST PUSH1 0x20 DUP3 ADD SWAP1 POP SWAP2 SWAP1 POP JUMP JUMPDEST PUSH1 0x0 PUSH1 0x20 DUP3 ADD SWAP1 POP DUP2 DUP2 SUB PUSH1 0x0 DUP4 ADD MSTORE PUSH2 0x4D31 DUP2 PUSH2 0x4CF5 JUMP JUMPDEST SWAP1 POP SWAP2 SWAP1 POP JUMP JUMPDEST PUSH32 0x5468726573686F6C6420746F6F206C6F77000000000000000000000000000000 PUSH1 0x0 DUP3 ADD MSTORE POP JUMP JUMPDEST PUSH1 0x0 PUSH2 0x4D6E PUSH1 0x11 DUP4 PUSH2 0x3E3A JUMP JUMPDEST SWAP2 POP PUSH2 0x4D79 DUP3 PUSH2 0x4D38 JUMP JUMPDEST PUSH1 0x20 DUP3 ADD SWAP1 POP SWAP2 SWAP1 POP JUMP JUMPDEST PUSH1 0x0 PUSH1 0x20 DUP3 ADD SWAP1 POP DUP2 DUP2 SUB PUSH1 0x0 DUP4 ADD MSTORE PUSH2 0x4D9D DUP2 PUSH2 0x4D61 JUMP JUMPDEST SWAP1 POP SWAP2 SWAP1 POP JUMP JUMPDEST PUSH32 0x496E76616C6964206C6F616E20616D6F756E7400000000000000000000000000 PUSH1 0x0 DUP3 ADD MSTORE POP JUMP JUMPDEST PUSH1 0x0 PUSH2 0x4DDA PUSH1 0x13 DUP4 PUSH2 0x3E3A JUMP JUMPDEST SWAP2 POP PUSH2 0x4DE5 DUP3 PUSH2 0x4DA4 JUMP JUMPDEST PUSH1 0x20 DUP3 ADD SWAP1 POP SWAP2 SWAP1 POP JUMP JUMPDEST PUSH1 0x0 PUSH1 0x20 DUP3 ADD SWAP1 POP DUP2 DUP2 SUB PUSH1 0x0 DUP4 ADD MSTORE PUSH2 0x4E09 DUP2 PUSH2 0x4DCD JUMP JUMPDEST SWAP1 POP SWAP2 SWAP1 POP JUMP JUMPDEST PUSH32 0x436F6C6C61746572616C207472616E73666572206661696C6564000000000000 PUSH1 0x0 DUP3 ADD MSTORE POP JUMP JUMPDEST PUSH1 0x0 PUSH2 0x4E46 PUSH1 0x1A DUP4 PUSH2 0x3E3A JUMP JUMPDEST SWAP2 POP PUSH2 0x4E51 DUP3 PUSH2 0x4E10 JUMP JUMPDEST PUSH1 0x20 DUP3 ADD SWAP1 POP SWAP2 SWAP1 POP JUMP JUMPDEST PUSH1 0x0 PUSH1 0x20 DUP3 ADD SWAP1 POP DUP2 DUP2 SUB PUSH1 0x0 DUP4 ADD MSTORE PUSH2 0x4E75 DUP2 PUSH2 0x4E39 JUMP JUMPDEST SWAP1 POP SWAP2 SWAP1 POP JUMP JUMPDEST PUSH1 0x0 PUSH1 0xA0 DUP3 ADD SWAP1 POP PUSH2 0x4E91 PUSH1 0x0 DUP4 ADD DUP9 PUSH2 0x3B17 JUMP JUMPDEST PUSH2 0x4E9E PUSH1 0x20 DUP4 ADD DUP8 PUSH2 0x3A1F JUMP JUMPDEST PUSH2 0x4EAB PUSH1 0x40 DUP4 ADD DUP7 PUSH2 0x3A1F JUMP JUMPDEST PUSH2 0x4EB8 PUSH1 0x60 DUP4 ADD DUP6 PUSH2 0x3A1F JUMP JUMPDEST PUSH2 0x4EC5 PUSH1 0x80 DUP4 ADD DUP5 PUSH2 0x3A1F JUMP JUMPDEST SWAP7 SWAP6 POP POP POP POP POP POP JUMP JUMPDEST PUSH32 0x4E6F2074696D6520656C617073656420666F7220696E74657265737420616363 PUSH1 0x0 DUP3 ADD MSTORE PUSH32 0x7275616C00000000000000000000000000000000000000000000000000000000 PUSH1 0x20 DUP3 ADD MSTORE POP JUMP JUMPDEST PUSH1 0x0 PUSH2 0x4F2B PUSH1 0x24 DUP4 PUSH2 0x3E3A JUMP JUMPDEST SWAP2 POP PUSH2 0x4F36 DUP3 PUSH2 0x4ECF JUMP JUMPDEST PUSH1 0x40 DUP3 ADD SWAP1 POP SWAP2 SWAP1 POP JUMP JUMPDEST PUSH1 0x0 PUSH1 0x20 DUP3 ADD SWAP1 POP DUP2 DUP2 SUB PUSH1 0x0 DUP4 ADD MSTORE PUSH2 0x4F5A DUP2 PUSH2 0x4F1E JUMP JUMPDEST SWAP1 POP SWAP2 SWAP1 POP JUMP JUMPDEST PUSH32 0x5072696E636970616C206D7573742062652067726561746572207468616E2030 PUSH1 0x0 DUP3 ADD MSTORE POP JUMP JUMPDEST PUSH1 0x0 PUSH2 0x4F97 PUSH1 0x20 DUP4 PUSH2 0x3E3A JUMP JUMPDEST SWAP2 POP PUSH2 0x4FA2 DUP3 PUSH2 0x4F61 JUMP JUMPDEST PUSH1 0x20 DUP3 ADD SWAP1 POP SWAP2 SWAP1 POP JUMP JUMPDEST PUSH1 0x0 PUSH1 0x20 DUP3 ADD SWAP1 POP DUP2 DUP2 SUB PUSH1 0x0 DUP4 ADD MSTORE PUSH2 0x4FC6 DUP2 PUSH2 0x4F8A JUMP JUMPDEST SWAP1 POP SWAP2 SWAP1 POP JUMP JUMPDEST PUSH32 0x416E6E75616C2072617465206D7573742062652067726561746572207468616E PUSH1 0x0 DUP3 ADD MSTORE PUSH32 0x2030000000000000000000000000000000000000000000000000000000000000 PUSH1 0x20 DUP3 ADD MSTORE POP JUMP JUMPDEST PUSH1 0x0 PUSH2 0x5029 PUSH1 0x22 DUP4 PUSH2 0x3E3A JUMP JUMPDEST SWAP2 POP PUSH2 0x5034 DUP3 PUSH2 0x4FCD JUMP JUMPDEST PUSH1 0x40 DUP3 ADD SWAP1 POP SWAP2 SWAP1 POP JUMP JUMPDEST PUSH1 0x0 PUSH1 0x20 DUP3 ADD SWAP1 POP DUP2 DUP2 SUB PUSH1 0x0 DUP4 ADD MSTORE PUSH2 0x5058 DUP2 PUSH2 0x501C JUMP JUMPDEST SWAP1 POP SWAP2 SWAP1 POP JUMP JUMPDEST PUSH32 0x54696D6520656C6170736564206D757374206265206772656174657220746861 PUSH1 0x0 DUP3 ADD MSTORE PUSH32 0x6E20300000000000000000000000000000000000000000000000000000000000 PUSH1 0x20 DUP3 ADD MSTORE POP JUMP JUMPDEST PUSH1 0x0 PUSH2 0x50BB PUSH1 0x23 DUP4 PUSH2 0x3E3A JUMP JUMPDEST SWAP2 POP PUSH2 0x50C6 DUP3 PUSH2 0x505F JUMP JUMPDEST PUSH1 0x40 DUP3 ADD SWAP1 POP SWAP2 SWAP1 POP JUMP JUMPDEST PUSH1 0x0 PUSH1 0x20 DUP3 ADD SWAP1 POP DUP2 DUP2 SUB PUSH1 0x0 DUP4 ADD MSTORE PUSH2 0x50EA DUP2 PUSH2 0x50AE JUMP JUMPDEST SWAP1 POP SWAP2 SWAP1 POP JUMP JUMPDEST PUSH32 0x5261746520706572207365636F6E6420697320696E76616C6964000000000000 PUSH1 0x0 DUP3 ADD MSTORE POP JUMP JUMPDEST PUSH1 0x0 PUSH2 0x5127 PUSH1 0x1A DUP4 PUSH2 0x3E3A JUMP JUMPDEST SWAP2 POP PUSH2 0x5132 DUP3 PUSH2 0x50F1 JUMP JUMPDEST PUSH1 0x20 DUP3 ADD SWAP1 POP SWAP2 SWAP1 POP JUMP JUMPDEST PUSH1 0x0 PUSH1 0x20 DUP3 ADD SWAP1 POP DUP2 DUP2 SUB PUSH1 0x0 DUP4 ADD MSTORE PUSH2 0x5156 DUP2 PUSH2 0x511A JUMP JUMPDEST SWAP1 POP SWAP2 SWAP1 POP JUMP JUMPDEST PUSH1 0x0 PUSH2 0x5168 DUP3 PUSH2 0x3725 JUMP JUMPDEST SWAP2 POP PUSH2 0x5173 DUP4 PUSH2 0x3725 JUMP JUMPDEST SWAP3 POP PUSH2 0x51A0 PUSH32 0xFFFFFFFFFFFFFFFFFFFFFFFFFFFFFFFFFFFFFFFFFFFFFFFFFFFFFFFFFFFFFFFF DUP5 DUP5 PUSH2 0x4338 JUMP JUMPDEST SWAP1 POP SWAP3 SWAP2 POP POP JUMP JUMPDEST PUSH32 0x496E73756666696369656E74206C656E6465722066756E647300000000000000 PUSH1 0x0 DUP3 ADD MSTORE POP JUMP JUMPDEST PUSH1 0x0 PUSH2 0x51DE PUSH1 0x19 DUP4 PUSH2 0x3E3A JUMP JUMPDEST SWAP2 POP PUSH2 0x51E9 DUP3 PUSH2 0x51A8 JUMP JUMPDEST PUSH1 0x20 DUP3 ADD SWAP1 POP SWAP2 SWAP1 POP JUMP JUMPDEST PUSH1 0x0 PUSH1 0x20 DUP3 ADD SWAP1 POP DUP2 DUP2 SUB PUSH1 0x0 DUP4 ADD MSTORE PUSH2 0x520D DUP2 PUSH2 0x51D1 JUMP JUMPDEST SWAP1 POP SWAP2 SWAP1 POP JUMP INVALID LOG2 PUSH5 0x6970667358 0x22 SLT KECCAK256 KECCAK256 GASPRICE DUP10 EXP 0xB0 0xF8 0xE0 SHR 0xE9 MOD MSIZE INVALID 0xB5 0xB5 CHAINID CALLDATACOPY DUP14 0x22 0xAF DUP7 0xED 0xF6 SELFDESTRUCT DUP5 PUSH13 0xEB5A81CEAEC9EC64736F6C6343 STOP ADDMOD XOR STOP CALLER "
        },
        "methodIdentifiers": {
          "allowanceCaller()": "e16ffcdc",
          "borrowerLoans(address,uint256)": "e3ed1902",
          "collateralizationRatio()": "dcaf9c44",
          "fundLoan(uint256)": "846b909a",
          "getAllLoanRequests()": "0c9babc3",
          "getPTTPrice()": "bda93214",
          "getRequiredCollateralAmount(uint256)": "f5ebab0c",
          "getTotalLoanPayment(uint256)": "8af70315",
          "lenderAvailableFunds(address)": "197428bf",
          "lenderLoans(address,uint256)": "3cdb72f1",
          "liquidateOverdueLoan(uint256)": "61851d65",
          "liquidationThreshold()": "4031234c",
          "loanCounter()": "34d9289e",
          "loanRequests(uint256)": "d1b332f4",
          "loansCollateral(uint256,address)": "17d960e0",
          "loansCore(uint256)": "e91349d7",
          "loansInterest(uint256)": "cc826646",
          "loansStatus(uint256)": "b4580a66",
          "makePartialRepayment(uint256,uint256)": "b29504e9",
          "maxLoanAmount()": "72f94365",
          "minLoanAmount()": "e06a9138",
          "owner()": "8da5cb5b",
          "paused()": "5c975abb",
          "priceDecimals()": "05300b28",
          "pttToken()": "b9ed46a3",
          "pttUsdtPrice()": "1a28bd02",
          "repayLoanWithReward(uint256)": "7c6fe270",
          "requestLoan(uint256,uint256,uint256)": "edadbbfe",
          "setLoanLimits(uint256,uint256)": "97a146c0",
          "supportedCollaterals(address)": "aaea7009",
          "updateCollateralizationRatio(uint256)": "0607ec70",
          "updateLiquidationThreshold(uint256)": "d3b5be1a",
          "updatePttUsdtPrice(uint256)": "01ba91c3",
          "usdtToken()": "a98ad46c",
          "withdrawRewards(address)": "42d86693"
        }
      }
    }
  }
}