{
  "_format": "hh-sol-artifact-1",
  "contractName": "LoanManager",
  "sourceName": "contracts/LoanManager.sol",
  "abi": [
    {
      "inputs": [
        {
          "internalType": "contract IERC20",
          "name": "_usdtToken",
          "type": "address"
        },
        {
          "internalType": "uint256",
          "name": "_initialNativeUsdtPrice",
          "type": "uint256"
        }
      ],
      "stateMutability": "nonpayable",
      "type": "constructor"
    },
    {
      "inputs": [],
      "name": "EnforcedPause",
      "type": "error"
    },
    {
      "inputs": [],
      "name": "ExpectedPause",
      "type": "error"
    },
    {
      "inputs": [],
      "name": "ReentrancyGuardReentrantCall",
      "type": "error"
    },
    {
      "anonymous": false,
      "inputs": [
        {
          "indexed": true,
          "internalType": "uint256",
          "name": "loanId",
          "type": "uint256"
        },
        {
          "indexed": true,
          "internalType": "address",
          "name": "lender",
          "type": "address"
        },
        {
          "indexed": true,
          "internalType": "address",
          "name": "borrower",
          "type": "address"
        }
      ],
      "name": "AutomaticMatch",
      "type": "event"
    },
    {
      "anonymous": false,
      "inputs": [
        {
          "indexed": true,
          "internalType": "address",
          "name": "token",
          "type": "address"
        },
        {
          "indexed": false,
          "internalType": "uint256",
          "name": "maxLTV",
          "type": "uint256"
        }
      ],
      "name": "CollateralAdded",
      "type": "event"
    },
    {
      "anonymous": false,
      "inputs": [
        {
          "indexed": true,
          "internalType": "uint256",
          "name": "loanId",
          "type": "uint256"
        },
        {
          "indexed": false,
          "internalType": "uint256",
          "name": "amount",
          "type": "uint256"
        }
      ],
      "name": "InterestAccrued",
      "type": "event"
    },
    {
      "anonymous": false,
      "inputs": [
        {
          "indexed": true,
          "internalType": "uint256",
          "name": "loanId",
          "type": "uint256"
        },
        {
          "indexed": true,
          "internalType": "address",
          "name": "borrower",
          "type": "address"
        },
        {
          "indexed": false,
          "internalType": "uint256",
          "name": "loanAmount",
          "type": "uint256"
        }
      ],
      "name": "LoanDisbursed",
      "type": "event"
    },
    {
      "anonymous": false,
      "inputs": [
        {
          "indexed": true,
          "internalType": "uint256",
          "name": "loanId",
          "type": "uint256"
        },
        {
          "indexed": true,
          "internalType": "address",
          "name": "lender",
          "type": "address"
        }
      ],
      "name": "LoanFunded",
      "type": "event"
    },
    {
      "anonymous": false,
      "inputs": [
        {
          "indexed": true,
          "internalType": "uint256",
          "name": "loanId",
          "type": "uint256"
        },
        {
          "indexed": true,
          "internalType": "address",
          "name": "liquidator",
          "type": "address"
        }
      ],
      "name": "LoanLiquidated",
      "type": "event"
    },
    {
      "anonymous": false,
      "inputs": [
        {
          "indexed": true,
          "internalType": "uint256",
          "name": "loanId",
          "type": "uint256"
        },
        {
          "indexed": true,
          "internalType": "address",
          "name": "lender",
          "type": "address"
        },
        {
          "indexed": false,
          "internalType": "uint256",
          "name": "loanAmount",
          "type": "uint256"
        }
      ],
      "name": "LoanLiquidated",
      "type": "event"
    },
    {
      "anonymous": false,
      "inputs": [
        {
          "indexed": true,
          "internalType": "uint256",
          "name": "loanId",
          "type": "uint256"
        },
        {
          "indexed": true,
          "internalType": "address",
          "name": "borrower",
          "type": "address"
        },
        {
          "indexed": false,
          "internalType": "uint256",
          "name": "amount",
          "type": "uint256"
        }
      ],
      "name": "LoanRepaid",
      "type": "event"
    },
    {
      "anonymous": false,
      "inputs": [
        {
          "indexed": true,
          "internalType": "uint256",
          "name": "loanId",
          "type": "uint256"
        },
        {
          "indexed": false,
          "internalType": "address",
          "name": "borrower",
          "type": "address"
        },
        {
          "indexed": false,
          "internalType": "uint256",
          "name": "amount",
          "type": "uint256"
        },
        {
          "indexed": false,
          "internalType": "uint256",
          "name": "collateral",
          "type": "uint256"
        },
        {
          "indexed": false,
          "internalType": "uint256",
          "name": "maxInterestRate",
          "type": "uint256"
        },
        {
          "indexed": false,
          "internalType": "uint256",
          "name": "duration",
          "type": "uint256"
        }
      ],
      "name": "LoanRequested",
      "type": "event"
    },
    {
      "anonymous": false,
      "inputs": [
        {
          "indexed": true,
          "internalType": "uint256",
          "name": "loanId",
          "type": "uint256"
        },
        {
          "indexed": true,
          "internalType": "address",
          "name": "borrower",
          "type": "address"
        },
        {
          "indexed": false,
          "internalType": "uint256",
          "name": "amount",
          "type": "uint256"
        }
      ],
      "name": "PartialRepayment",
      "type": "event"
    },
    {
      "anonymous": false,
      "inputs": [
        {
          "indexed": false,
          "internalType": "address",
          "name": "account",
          "type": "address"
        }
      ],
      "name": "Paused",
      "type": "event"
    },
    {
      "anonymous": false,
      "inputs": [
        {
          "indexed": false,
          "internalType": "uint256",
          "name": "newPrice",
          "type": "uint256"
        }
      ],
      "name": "PriceUpdated",
      "type": "event"
    },
    {
      "anonymous": false,
      "inputs": [
        {
          "indexed": true,
          "internalType": "uint256",
          "name": "loanId",
          "type": "uint256"
        },
        {
          "indexed": false,
          "internalType": "uint256",
          "name": "reward",
          "type": "uint256"
        }
      ],
      "name": "RewardCollected",
      "type": "event"
    },
    {
      "anonymous": false,
      "inputs": [
        {
          "indexed": false,
          "internalType": "address",
          "name": "owner",
          "type": "address"
        },
        {
          "indexed": false,
          "internalType": "uint256",
          "name": "contractBalance",
          "type": "uint256"
        }
      ],
      "name": "RewardsWithdrawn",
      "type": "event"
    },
    {
      "anonymous": false,
      "inputs": [
        {
          "indexed": false,
          "internalType": "address",
          "name": "account",
          "type": "address"
        }
      ],
      "name": "Unpaused",
      "type": "event"
    },
    {
      "inputs": [],
      "name": "allowanceCaller",
      "outputs": [
        {
          "internalType": "uint256",
          "name": "",
          "type": "uint256"
        }
      ],
      "stateMutability": "view",
      "type": "function"
    },
    {
      "inputs": [
        {
          "internalType": "address",
          "name": "",
          "type": "address"
        },
        {
          "internalType": "uint256",
          "name": "",
          "type": "uint256"
        }
      ],
      "name": "borrowerLoans",
      "outputs": [
        {
          "internalType": "uint256",
          "name": "",
          "type": "uint256"
        }
      ],
      "stateMutability": "view",
      "type": "function"
    },
    {
      "inputs": [],
      "name": "collateralizationRatio",
      "outputs": [
        {
          "internalType": "uint256",
          "name": "",
          "type": "uint256"
        }
      ],
      "stateMutability": "view",
      "type": "function"
    },
    {
      "inputs": [
        {
          "internalType": "uint256",
          "name": "loanId",
          "type": "uint256"
        }
      ],
      "name": "fundLoan",
      "outputs": [],
      "stateMutability": "nonpayable",
      "type": "function"
    },
    {
      "inputs": [],
      "name": "getAllLoanRequests",
      "outputs": [
        {
          "components": [
            {
              "internalType": "uint256",
              "name": "loanId",
              "type": "uint256"
            },
            {
              "internalType": "address",
              "name": "borrower",
              "type": "address"
            },
            {
              "internalType": "uint256",
              "name": "amount",
              "type": "uint256"
            },
            {
              "internalType": "uint256",
              "name": "maxInterestRate",
              "type": "uint256"
            },
            {
              "internalType": "uint256",
              "name": "dueDate",
              "type": "uint256"
            },
            {
              "internalType": "uint256",
              "name": "duration",
              "type": "uint256"
            },
            {
              "internalType": "uint256",
              "name": "collateralAmount",
              "type": "uint256"
            },
            {
              "internalType": "bool",
              "name": "isActive",
              "type": "bool"
            },
            {
              "internalType": "bool",
              "name": "hasRepaid",
              "type": "bool"
            }
          ],
          "internalType": "struct LoanStorage.LoanRequestDetail[]",
          "name": "",
          "type": "tuple[]"
        }
      ],
      "stateMutability": "view",
      "type": "function"
    },
    {
      "inputs": [],
      "name": "getNativePrice",
      "outputs": [
        {
          "internalType": "uint256",
          "name": "",
          "type": "uint256"
        }
      ],
      "stateMutability": "view",
      "type": "function"
    },
    {
      "inputs": [
        {
          "internalType": "uint256",
          "name": "loanAmount",
          "type": "uint256"
        }
      ],
      "name": "getRequiredCollateralAmount",
      "outputs": [
        {
          "internalType": "uint256",
          "name": "",
          "type": "uint256"
        }
      ],
      "stateMutability": "view",
      "type": "function"
    },
    {
      "inputs": [
        {
          "internalType": "uint256",
          "name": "loanId",
          "type": "uint256"
        }
      ],
      "name": "getTotalLoanPayment",
      "outputs": [
        {
          "internalType": "uint256",
          "name": "totalPayment",
          "type": "uint256"
        },
        {
          "internalType": "uint256",
          "name": "principal",
          "type": "uint256"
        },
        {
          "internalType": "uint256",
          "name": "interestAmount",
          "type": "uint256"
        }
      ],
      "stateMutability": "view",
      "type": "function"
    },
    {
      "inputs": [
        {
          "internalType": "address",
          "name": "",
          "type": "address"
        }
      ],
      "name": "lenderAvailableFunds",
      "outputs": [
        {
          "internalType": "uint256",
          "name": "",
          "type": "uint256"
        }
      ],
      "stateMutability": "view",
      "type": "function"
    },
    {
      "inputs": [
        {
          "internalType": "address",
          "name": "",
          "type": "address"
        },
        {
          "internalType": "uint256",
          "name": "",
          "type": "uint256"
        }
      ],
      "name": "lenderLoans",
      "outputs": [
        {
          "internalType": "uint256",
          "name": "",
          "type": "uint256"
        }
      ],
      "stateMutability": "view",
      "type": "function"
    },
    {
      "inputs": [
        {
          "internalType": "uint256",
          "name": "loanId",
          "type": "uint256"
        }
      ],
      "name": "liquidateOverdueLoan",
      "outputs": [],
      "stateMutability": "nonpayable",
      "type": "function"
    },
    {
      "inputs": [],
      "name": "liquidationThreshold",
      "outputs": [
        {
          "internalType": "uint256",
          "name": "",
          "type": "uint256"
        }
      ],
      "stateMutability": "view",
      "type": "function"
    },
    {
      "inputs": [],
      "name": "loanCounter",
      "outputs": [
        {
          "internalType": "uint256",
          "name": "",
          "type": "uint256"
        }
      ],
      "stateMutability": "view",
      "type": "function"
    },
    {
      "inputs": [
        {
          "internalType": "uint256",
          "name": "",
          "type": "uint256"
        }
      ],
      "name": "loanRequests",
      "outputs": [
        {
          "internalType": "uint256",
          "name": "amount",
          "type": "uint256"
        },
        {
          "internalType": "uint256",
          "name": "maxInterestRate",
          "type": "uint256"
        },
        {
          "internalType": "uint256",
          "name": "dueDate",
          "type": "uint256"
        },
        {
          "internalType": "uint256",
          "name": "duration",
          "type": "uint256"
        },
        {
          "internalType": "bool",
          "name": "matched",
          "type": "bool"
        }
      ],
      "stateMutability": "view",
      "type": "function"
    },
    {
      "inputs": [
        {
          "internalType": "uint256",
          "name": "",
          "type": "uint256"
        },
        {
          "internalType": "address",
          "name": "",
          "type": "address"
        }
      ],
      "name": "loansCollateral",
      "outputs": [
        {
          "internalType": "uint256",
          "name": "",
          "type": "uint256"
        }
      ],
      "stateMutability": "view",
      "type": "function"
    },
    {
      "inputs": [
        {
          "internalType": "uint256",
          "name": "",
          "type": "uint256"
        }
      ],
      "name": "loansCore",
      "outputs": [
        {
          "internalType": "address",
          "name": "borrower",
          "type": "address"
        },
        {
          "internalType": "address",
          "name": "lender",
          "type": "address"
        },
        {
          "internalType": "uint256",
          "name": "amount",
          "type": "uint256"
        },
        {
          "internalType": "uint256",
          "name": "collateral",
          "type": "uint256"
        },
        {
          "internalType": "uint256",
          "name": "interestRate",
          "type": "uint256"
        },
        {
          "internalType": "enum ILoanManager.InterestRateType",
          "name": "rateType",
          "type": "uint8"
        },
        {
          "internalType": "uint256",
          "name": "duration",
          "type": "uint256"
        }
      ],
      "stateMutability": "view",
      "type": "function"
    },
    {
      "inputs": [
        {
          "internalType": "uint256",
          "name": "",
          "type": "uint256"
        }
      ],
      "name": "loansInterest",
      "outputs": [
        {
          "internalType": "uint256",
          "name": "lastInterestAccrualTimestamp",
          "type": "uint256"
        },
        {
          "internalType": "uint256",
          "name": "accruedInterest",
          "type": "uint256"
        }
      ],
      "stateMutability": "view",
      "type": "function"
    },
    {
      "inputs": [
        {
          "internalType": "uint256",
          "name": "",
          "type": "uint256"
        }
      ],
      "name": "loansStatus",
      "outputs": [
        {
          "internalType": "uint256",
          "name": "startTime",
          "type": "uint256"
        },
        {
          "internalType": "bool",
          "name": "active",
          "type": "bool"
        },
        {
          "internalType": "bool",
          "name": "repaid",
          "type": "bool"
        },
        {
          "internalType": "bool",
          "name": "defaulted",
          "type": "bool"
        },
        {
          "internalType": "uint256",
          "name": "repaidAmount",
          "type": "uint256"
        }
      ],
      "stateMutability": "view",
      "type": "function"
    },
    {
      "inputs": [
        {
          "internalType": "uint256",
          "name": "loanId",
          "type": "uint256"
        },
        {
          "internalType": "uint256",
          "name": "amount",
          "type": "uint256"
        }
      ],
      "name": "makePartialRepayment",
      "outputs": [],
      "stateMutability": "nonpayable",
      "type": "function"
    },
    {
      "inputs": [],
      "name": "maxLoanAmount",
      "outputs": [
        {
          "internalType": "uint256",
          "name": "",
          "type": "uint256"
        }
      ],
      "stateMutability": "view",
      "type": "function"
    },
    {
      "inputs": [],
      "name": "minLoanAmount",
      "outputs": [
        {
          "internalType": "uint256",
          "name": "",
          "type": "uint256"
        }
      ],
      "stateMutability": "view",
      "type": "function"
    },
    {
      "inputs": [],
      "name": "nativeUsdtPrice",
      "outputs": [
        {
          "internalType": "uint256",
          "name": "",
          "type": "uint256"
        }
      ],
      "stateMutability": "view",
      "type": "function"
    },
    {
      "inputs": [],
      "name": "owner",
      "outputs": [
        {
          "internalType": "address",
          "name": "",
          "type": "address"
        }
      ],
      "stateMutability": "view",
      "type": "function"
    },
    {
      "inputs": [],
      "name": "paused",
      "outputs": [
        {
          "internalType": "bool",
          "name": "",
          "type": "bool"
        }
      ],
      "stateMutability": "view",
      "type": "function"
    },
    {
      "inputs": [],
      "name": "priceDecimals",
      "outputs": [
        {
          "internalType": "uint8",
          "name": "",
          "type": "uint8"
        }
      ],
      "stateMutability": "view",
      "type": "function"
    },
    {
      "inputs": [
        {
          "internalType": "uint256",
          "name": "loanId",
          "type": "uint256"
        }
      ],
      "name": "repayLoanWithReward",
      "outputs": [],
      "stateMutability": "nonpayable",
      "type": "function"
    },
    {
      "inputs": [
        {
          "internalType": "uint256",
          "name": "amount",
          "type": "uint256"
        },
        {
          "internalType": "uint256",
          "name": "maxInterestRate",
          "type": "uint256"
        },
        {
          "internalType": "uint256",
          "name": "duration",
          "type": "uint256"
        }
      ],
      "name": "requestLoan",
      "outputs": [],
      "stateMutability": "payable",
      "type": "function"
    },
    {
      "inputs": [
        {
          "internalType": "uint256",
          "name": "_minLoanAmount",
          "type": "uint256"
        },
        {
          "internalType": "uint256",
          "name": "_maxLoanAmount",
          "type": "uint256"
        }
      ],
      "name": "setLoanLimits",
      "outputs": [],
      "stateMutability": "nonpayable",
      "type": "function"
    },
    {
      "inputs": [
        {
          "internalType": "address",
          "name": "",
          "type": "address"
        }
      ],
      "name": "supportedCollaterals",
      "outputs": [
        {
          "internalType": "address",
          "name": "priceOracle",
          "type": "address"
        },
        {
          "internalType": "uint256",
          "name": "maxLTV",
          "type": "uint256"
        },
        {
          "internalType": "bool",
          "name": "isActive",
          "type": "bool"
        }
      ],
      "stateMutability": "view",
      "type": "function"
    },
    {
      "inputs": [
        {
          "internalType": "uint256",
          "name": "newRatio",
          "type": "uint256"
        }
      ],
      "name": "updateCollateralizationRatio",
      "outputs": [],
      "stateMutability": "nonpayable",
      "type": "function"
    },
    {
      "inputs": [
        {
          "internalType": "uint256",
          "name": "newThreshold",
          "type": "uint256"
        }
      ],
      "name": "updateLiquidationThreshold",
      "outputs": [],
      "stateMutability": "nonpayable",
      "type": "function"
    },
    {
      "inputs": [
        {
          "internalType": "uint256",
          "name": "_newPrice",
          "type": "uint256"
        }
      ],
      "name": "updateNativeUsdtPrice",
      "outputs": [],
      "stateMutability": "nonpayable",
      "type": "function"
    },
    {
      "inputs": [],
      "name": "usdtToken",
      "outputs": [
        {
          "internalType": "contract IERC20",
          "name": "",
          "type": "address"
        }
      ],
      "stateMutability": "view",
      "type": "function"
    },
    {
      "inputs": [
        {
          "internalType": "address",
          "name": "_owner",
          "type": "address"
        }
      ],
      "name": "withdrawRewards",
      "outputs": [],
      "stateMutability": "nonpayable",
      "type": "function"
    }
  ],
  "bytecode": "0x60806040526012600e60006101000a81548160ff021916908360ff1602179055506078600f55606e601055670de0b6b3a764000060125569152d02c7e14af68000006013553480156200005157600080fd5b506040516200574b3803806200574b8339818101604052810190620000779190620001e4565b6001600a819055506000600b60006101000a81548160ff02191690831515021790555081600b60016101000a81548173ffffffffffffffffffffffffffffffffffffffff021916908373ffffffffffffffffffffffffffffffffffffffff16021790555080600d8190555033600c60006101000a81548173ffffffffffffffffffffffffffffffffffffffff021916908373ffffffffffffffffffffffffffffffffffffffff16021790555050506200022b565b600080fd5b600073ffffffffffffffffffffffffffffffffffffffff82169050919050565b60006200015d8262000130565b9050919050565b6000620001718262000150565b9050919050565b620001838162000164565b81146200018f57600080fd5b50565b600081519050620001a38162000178565b92915050565b6000819050919050565b620001be81620001a9565b8114620001ca57600080fd5b50565b600081519050620001de81620001b3565b92915050565b60008060408385031215620001fe57620001fd6200012b565b5b60006200020e8582860162000192565b92505060206200022185828601620001cd565b9150509250929050565b615510806200023b6000396000f3fe6080604052600436106101f95760003560e01c80638af703151161010d578063d1b332f4116100a0578063e16ffcdc1161006f578063e16ffcdc14610768578063e3ed190214610793578063e91349d7146107d0578063edadbbfe14610813578063f5ebab0c1461082f576101f9565b8063d1b332f4146106a8578063d3b5be1a146106e9578063dcaf9c4414610712578063e06a91381461073d576101f9565b8063aaea7009116100dc578063aaea7009146105c1578063b29504e914610600578063b4580a6614610629578063cc8266461461066a576101f9565b80638af70315146105035780638da5cb5b1461054257806397a146c01461056d578063a98ad46c14610596576101f9565b80633cdb72f1116101905780635c975abb1161015f5780635c975abb1461043257806361851d651461045d57806372f94365146104865780637c6fe270146104b1578063846b909a146104da576101f9565b80633cdb72f1146103785780634031234c146103b557806342d86693146103e057806344992d1d14610409576101f9565b806317d960e0116101cc57806317d960e0146102a8578063197428bf146102e557806334d9289e146103225780633789cb881461034d576101f9565b806305300b28146101fe5780630607ec70146102295780630c9babc31461025257806317430c9e1461027d575b600080fd5b34801561020a57600080fd5b5061021361086c565b6040516102209190613852565b60405180910390f35b34801561023557600080fd5b50610250600480360381019061024b91906138a8565b61087f565b005b34801561025e57600080fd5b5061026761095d565b6040516102749190613aa7565b60405180910390f35b34801561028957600080fd5b50610292610d5f565b60405161029f9190613ad8565b60405180910390f35b3480156102b457600080fd5b506102cf60048036038101906102ca9190613b1f565b610dad565b6040516102dc9190613ad8565b60405180910390f35b3480156102f157600080fd5b5061030c60048036038101906103079190613b5f565b610dd2565b6040516103199190613ad8565b60405180910390f35b34801561032e57600080fd5b50610337610dea565b6040516103449190613ad8565b60405180910390f35b34801561035957600080fd5b50610362610df0565b60405161036f9190613ad8565b60405180910390f35b34801561038457600080fd5b5061039f600480360381019061039a9190613b8c565b610df6565b6040516103ac9190613ad8565b60405180910390f35b3480156103c157600080fd5b506103ca610e27565b6040516103d79190613ad8565b60405180910390f35b3480156103ec57600080fd5b5061040760048036038101906104029190613b5f565b610e2d565b005b34801561041557600080fd5b50610430600480360381019061042b91906138a8565b6110cc565b005b34801561043e57600080fd5b5061044761119d565b6040516104549190613bdb565b60405180910390f35b34801561046957600080fd5b50610484600480360381019061047f91906138a8565b6111b4565b005b34801561049257600080fd5b5061049b611461565b6040516104a89190613ad8565b60405180910390f35b3480156104bd57600080fd5b506104d860048036038101906104d391906138a8565b611467565b005b3480156104e657600080fd5b5061050160048036038101906104fc91906138a8565b6119e2565b005b34801561050f57600080fd5b5061052a600480360381019061052591906138a8565b61201e565b60405161053993929190613bf6565b60405180910390f35b34801561054e57600080fd5b506105576121b9565b6040516105649190613c3c565b60405180910390f35b34801561057957600080fd5b50610594600480360381019061058f9190613c57565b6121df565b005b3480156105a257600080fd5b506105ab612306565b6040516105b89190613cf6565b60405180910390f35b3480156105cd57600080fd5b506105e860048036038101906105e39190613b5f565b61232c565b6040516105f793929190613d11565b60405180910390f35b34801561060c57600080fd5b5061062760048036038101906106229190613c57565b612383565b005b34801561063557600080fd5b50610650600480360381019061064b91906138a8565b612701565b604051610661959493929190613d48565b60405180910390f35b34801561067657600080fd5b50610691600480360381019061068c91906138a8565b61275e565b60405161069f929190613d9b565b60405180910390f35b3480156106b457600080fd5b506106cf60048036038101906106ca91906138a8565b612782565b6040516106e0959493929190613dc4565b60405180910390f35b3480156106f557600080fd5b50610710600480360381019061070b91906138a8565b6127c5565b005b34801561071e57600080fd5b506107276128a3565b6040516107349190613ad8565b60405180910390f35b34801561074957600080fd5b506107526128a9565b60405161075f9190613ad8565b60405180910390f35b34801561077457600080fd5b5061077d6128af565b60405161078a9190613ad8565b60405180910390f35b34801561079f57600080fd5b506107ba60048036038101906107b59190613b8c565b612954565b6040516107c79190613ad8565b60405180910390f35b3480156107dc57600080fd5b506107f760048036038101906107f291906138a8565b612985565b60405161080a9796959493929190613e8e565b60405180910390f35b61082d60048036038101906108289190613efd565b612a14565b005b34801561083b57600080fd5b50610856600480360381019061085191906138a8565b612e6e565b6040516108639190613ad8565b60405180910390f35b600e60009054906101000a900460ff1681565b600c60009054906101000a900473ffffffffffffffffffffffffffffffffffffffff1673ffffffffffffffffffffffffffffffffffffffff163373ffffffffffffffffffffffffffffffffffffffff161461090f576040517f08c379a000000000000000000000000000000000000000000000000000000000815260040161090690613fad565b60405180910390fd5b6064811015610953576040517f08c379a000000000000000000000000000000000000000000000000000000000815260040161094a90614019565b60405180910390fd5b80600f8190555050565b6060600080600190505b6011548111610a05576000600660008381526020019081526020016000206040518060a0016040529081600082015481526020016001820154815260200160028201548152602001600382015481526020016004820160009054906101000a900460ff16151515158152505090506000816000015111156109f15782806109ed90614068565b9350505b5080806109fd90614068565b915050610967565b5060008167ffffffffffffffff811115610a2257610a216140b0565b5b604051908082528060200260200182016040528015610a5b57816020015b610a486137d0565b815260200190600190039081610a405790505b509050600080600190505b6011548111610d55576000600660008381526020019081526020016000206040518060a0016040529081600082015481526020016001820154815260200160028201548152602001600382015481526020016004820160009054906101000a900460ff16151515158152505090506000600160008481526020019081526020016000206040518060a0016040529081600082015481526020016001820160009054906101000a900460ff161515151581526020016001820160019054906101000a900460ff161515151581526020016001820160029054906101000a900460ff16151515158152602001600282015481525050905060008060008581526020019081526020016000206040518060e00160405290816000820160009054906101000a900473ffffffffffffffffffffffffffffffffffffffff1673ffffffffffffffffffffffffffffffffffffffff1673ffffffffffffffffffffffffffffffffffffffff1681526020016001820160009054906101000a900473ffffffffffffffffffffffffffffffffffffffff1673ffffffffffffffffffffffffffffffffffffffff1673ffffffffffffffffffffffffffffffffffffffff1681526020016002820154815260200160038201548152602001600482015481526020016005820160009054906101000a900460ff166001811115610c6957610c68613e17565b5b6001811115610c7b57610c7a613e17565b5b81526020016006820154815250509050600083600001511115610d3f57604051806101200160405280858152602001826000015173ffffffffffffffffffffffffffffffffffffffff168152602001846000015181526020018460200151815260200184604001518152602001846060015181526020018260600151815260200183602001511515815260200183604001511515815250868681518110610d2557610d246140df565b5b60200260200101819052508480610d3b90614068565b9550505b5050508080610d4d90614068565b915050610a66565b5081935050505090565b600080600d5411610da5576040517f08c379a0000000000000000000000000000000000000000000000000000000008152600401610d9c9061415a565b60405180910390fd5b600d54905090565b6003602052816000526040600020602052806000526040600020600091509150505481565b60076020528060005260406000206000915090505481565b60115481565b600d5481565b60056020528160005260406000208181548110610e1257600080fd5b90600052602060002001600091509150505481565b60105481565b600c60009054906101000a900473ffffffffffffffffffffffffffffffffffffffff1673ffffffffffffffffffffffffffffffffffffffff163373ffffffffffffffffffffffffffffffffffffffff1614610ebd576040517f08c379a0000000000000000000000000000000000000000000000000000000008152600401610eb490613fad565b60405180910390fd5b610ec5612eae565b6000600b60019054906101000a900473ffffffffffffffffffffffffffffffffffffffff1673ffffffffffffffffffffffffffffffffffffffff166370a08231306040518263ffffffff1660e01b8152600401610f229190613c3c565b602060405180830381865afa158015610f3f573d6000803e3d6000fd5b505050506040513d601f19601f82011682018060405250810190610f63919061418f565b905060008111610fa8576040517f08c379a0000000000000000000000000000000000000000000000000000000008152600401610f9f90614208565b60405180910390fd5b600b60019054906101000a900473ffffffffffffffffffffffffffffffffffffffff1673ffffffffffffffffffffffffffffffffffffffff1663a9059cbb83836040518363ffffffff1660e01b8152600401611005929190614228565b6020604051808303816000875af1158015611024573d6000803e3d6000fd5b505050506040513d601f19601f82011682018060405250810190611048919061427d565b611087576040517f08c379a000000000000000000000000000000000000000000000000000000000815260040161107e906142f6565b60405180910390fd5b7f8a43c4352486ec339f487f64af78ca5cbf06cd47833f073d3baf3a193e50316182826040516110b8929190614228565b60405180910390a1506110c9612ef4565b50565b600c60009054906101000a900473ffffffffffffffffffffffffffffffffffffffff1673ffffffffffffffffffffffffffffffffffffffff163373ffffffffffffffffffffffffffffffffffffffff161461115c576040517f08c379a000000000000000000000000000000000000000000000000000000000815260040161115390613fad565b60405180910390fd5b80600d819055507f66cbca4f3c64fecf1dcb9ce094abcf7f68c3450a1d4e3a8e917dd621edb4ebe0816040516111929190613ad8565b60405180910390a150565b6000600b60009054906101000a900460ff16905090565b6111bc612efe565b6111c4612eae565b60008060008381526020019081526020016000209050600060016000848152602001908152602001600020905060006006600085815260200190815260200160002090508160010160009054906101000a900460ff16611259576040517f08c379a000000000000000000000000000000000000000000000000000000000815260040161125090614362565b60405180910390fd5b8060020154421161129f576040517f08c379a0000000000000000000000000000000000000000000000000000000008152600401611296906143ce565b60405180910390fd5b8160010160019054906101000a900460ff16156112f1576040517f08c379a00000000000000000000000000000000000000000000000000000000081526004016112e89061443a565b60405180910390fd5b60006112fc8561201e565b505090506000600e60009054906101000a900460ff16600a61131e919061458d565b600d54866003015461133091906145d8565b61133a9190614649565b905060646010548261134c91906145d8565b6113569190614649565b8211611397576040517f08c379a000000000000000000000000000000000000000000000000000000000815260040161138e906146c6565b60405180910390fd5b6113a086612f3f565b60008460010160006101000a81548160ff02191690831515021790555060018460010160026101000a81548160ff0219169083151502179055508460010160009054906101000a900473ffffffffffffffffffffffffffffffffffffffff1673ffffffffffffffffffffffffffffffffffffffff16867f0256bdf47e9aff5784070d6cab332d79f81fc6b8c8ed875565982a423a389e3a87600301546040516114499190613ad8565b60405180910390a3505050505061145e612ef4565b50565b60135481565b61146f612efe565b611477612eae565b60008060008381526020019081526020016000209050600060016000848152602001908152602001600020905060006002600085815260200190815260200160002090508160010160009054906101000a900460ff1661150c576040517f08c379a000000000000000000000000000000000000000000000000000000000815260040161150390614362565b60405180910390fd5b8260000160009054906101000a900473ffffffffffffffffffffffffffffffffffffffff1673ffffffffffffffffffffffffffffffffffffffff163373ffffffffffffffffffffffffffffffffffffffff161461159e576040517f08c379a000000000000000000000000000000000000000000000000000000000815260040161159590614732565b60405180910390fd5b6115a78461303e565b600081600101549050600081116115f3576040517f08c379a00000000000000000000000000000000000000000000000000000000081526004016115ea9061479e565b60405180910390fd5b6000606460148361160491906145d8565b61160e9190614649565b90506000818361161e91906147be565b90504284600001819055506000856002015484886002015461164091906147f2565b61164a91906147be565b905086600201548111611692576040517f08c379a000000000000000000000000000000000000000000000000000000000815260040161168990614872565b60405180910390fd5b600083116116d5576040517f08c379a00000000000000000000000000000000000000000000000000000000081526004016116cc906148de565b60405180910390fd5b600b60019054906101000a900473ffffffffffffffffffffffffffffffffffffffff1673ffffffffffffffffffffffffffffffffffffffff166323b872dd3330846040518463ffffffff1660e01b8152600401611734939291906148fe565b6020604051808303816000875af1158015611753573d6000803e3d6000fd5b505050506040513d601f19601f82011682018060405250810190611777919061427d565b6117b6576040517f08c379a00000000000000000000000000000000000000000000000000000000081526004016117ad90614981565b60405180910390fd5b60008288600201546117c891906147f2565b9050600b60019054906101000a900473ffffffffffffffffffffffffffffffffffffffff1673ffffffffffffffffffffffffffffffffffffffff1663a9059cbb8960010160009054906101000a900473ffffffffffffffffffffffffffffffffffffffff16836040518363ffffffff1660e01b815260040161184b929190614228565b6020604051808303816000875af115801561186a573d6000803e3d6000fd5b505050506040513d601f19601f8201168201806040525081019061188e919061427d565b6118cd576040517f08c379a00000000000000000000000000000000000000000000000000000000081526004016118c4906149ed565b60405180910390fd5b818760020160008282546118e191906147f2565b9250508190555060008760010160006101000a81548160ff02191690831515021790555060018760010160016101000a81548160ff02191690831515021790555060008760010160026101000a81548160ff021916908315150217905550611948896131bd565b3373ffffffffffffffffffffffffffffffffffffffff16897f512d3e65b3e58c2187bb1872aa435dba5bd09c1c03823ba56ab70aac411e4a218460405161198f9190613ad8565b60405180910390a3887f04e1ead5246a36f9da4a7f8ba0922ebab097b2349377e0b60b228a5e9d8ee587856040516119c79190613ad8565b60405180910390a250505050505050506119df612ef4565b50565b6119ea612efe565b6119f2612eae565b6000806000838152602001908152602001600020905060006001600084815260200190815260200160002090508060010160009054906101000a900460ff1615611a71576040517f08c379a0000000000000000000000000000000000000000000000000000000008152600401611a6890614a59565b60405180910390fd5b600073ffffffffffffffffffffffffffffffffffffffff168260010160009054906101000a900473ffffffffffffffffffffffffffffffffffffffff1673ffffffffffffffffffffffffffffffffffffffff1614611b04576040517f08c379a0000000000000000000000000000000000000000000000000000000008152600401611afb90614ac5565b60405180910390fd5b8160020154600b60019054906101000a900473ffffffffffffffffffffffffffffffffffffffff1673ffffffffffffffffffffffffffffffffffffffff1663dd62ed3e33306040518363ffffffff1660e01b8152600401611b66929190614ae5565b602060405180830381865afa158015611b83573d6000803e3d6000fd5b505050506040513d601f19601f82011682018060405250810190611ba7919061418f565b1015611be8576040517f08c379a0000000000000000000000000000000000000000000000000000000008152600401611bdf90614b5a565b60405180910390fd5b600b60019054906101000a900473ffffffffffffffffffffffffffffffffffffffff1673ffffffffffffffffffffffffffffffffffffffff166323b872dd333085600201546040518463ffffffff1660e01b8152600401611c4b939291906148fe565b6020604051808303816000875af1158015611c6a573d6000803e3d6000fd5b505050506040513d601f19601f82011682018060405250810190611c8e919061427d565b611ccd576040517f08c379a0000000000000000000000000000000000000000000000000000000008152600401611cc490614981565b60405180910390fd5b338260010160006101000a81548173ffffffffffffffffffffffffffffffffffffffff021916908373ffffffffffffffffffffffffffffffffffffffff16021790555042816000018190555060018160010160006101000a81548160ff021916908315150217905550600b60019054906101000a900473ffffffffffffffffffffffffffffffffffffffff1673ffffffffffffffffffffffffffffffffffffffff1663a9059cbb8360000160009054906101000a900473ffffffffffffffffffffffffffffffffffffffff1684600201546040518363ffffffff1660e01b8152600401611dbb929190614228565b6020604051808303816000875af1158015611dda573d6000803e3d6000fd5b505050506040513d601f19601f82011682018060405250810190611dfe919061427d565b611e3d576040517f08c379a0000000000000000000000000000000000000000000000000000000008152600401611e3490614bc6565b60405180910390fd5b600560003373ffffffffffffffffffffffffffffffffffffffff1673ffffffffffffffffffffffffffffffffffffffff168152602001908152602001600020839080600181540180825580915050600190039060005260206000200160009091909190915055600460008360000160009054906101000a900473ffffffffffffffffffffffffffffffffffffffff1673ffffffffffffffffffffffffffffffffffffffff1673ffffffffffffffffffffffffffffffffffffffff16815260200190815260200160002083908060018154018082558091505060019003906000526020600020016000909190919091505560098390806001815401808255809150506001900390600052602060002001600090919091909150553373ffffffffffffffffffffffffffffffffffffffff16837f15feab5d3eb17171632762cf769709a315dd15f487a556c0dfb8a259c8f186cc60405160405180910390a38160000160009054906101000a900473ffffffffffffffffffffffffffffffffffffffff1673ffffffffffffffffffffffffffffffffffffffff16837f0ceeb4503a2fe0b51298a0af21358f3d89e7eab3f65ae2a7835859c3e2c5160484600201546040516120099190613ad8565b60405180910390a3505061201b612ef4565b50565b60008060008060008086815260200190815260200160002090506000600160008781526020019081526020016000209050600060026000888152602001908152602001600020905060008360020154116120ad576040517f08c379a00000000000000000000000000000000000000000000000000000000081526004016120a490614c32565b60405180910390fd5b826002015494508160010160009054906101000a900460ff161580156120e157508160010160019054906101000a900460ff165b1561210a578160020154858684600201546120fc91906147be565b9550955095505050506121b2565b60008260010160009054906101000a900460ff16156121885760008260000154036121465782600001544261213f91906147be565b9050612159565b81600001544261215691906147be565b90505b600061216e85600201548660040154846132c6565b905080836001015461218091906147f2565b955050612190565b816001015494505b826002015485876121a191906147f2565b6121ab91906147be565b9650505050505b9193909250565b600c60009054906101000a900473ffffffffffffffffffffffffffffffffffffffff1681565b600c60009054906101000a900473ffffffffffffffffffffffffffffffffffffffff1673ffffffffffffffffffffffffffffffffffffffff163373ffffffffffffffffffffffffffffffffffffffff161461226f576040517f08c379a000000000000000000000000000000000000000000000000000000000815260040161226690613fad565b60405180910390fd5b600082116122b2576040517f08c379a00000000000000000000000000000000000000000000000000000000081526004016122a990614cc4565b60405180910390fd5b8181116122f4576040517f08c379a00000000000000000000000000000000000000000000000000000000081526004016122eb90614d56565b60405180910390fd5b81601281905550806013819055505050565b600b60019054906101000a900473ffffffffffffffffffffffffffffffffffffffff1681565b60086020528060005260406000206000915090508060000160009054906101000a900473ffffffffffffffffffffffffffffffffffffffff16908060010154908060020160009054906101000a900460ff16905083565b61238b612efe565b612393612eae565b60008060008481526020019081526020016000209050600060016000858152602001908152602001600020905060006002600086815260200190815260200160002090508160010160009054906101000a900460ff16612428576040517f08c379a000000000000000000000000000000000000000000000000000000000815260040161241f90614362565b60405180910390fd5b8260000160009054906101000a900473ffffffffffffffffffffffffffffffffffffffff1673ffffffffffffffffffffffffffffffffffffffff163373ffffffffffffffffffffffffffffffffffffffff16146124ba576040517f08c379a00000000000000000000000000000000000000000000000000000000081526004016124b190614732565b60405180910390fd5b6124c38561303e565b600081600101549050600083600201548286600201546124e391906147f2565b6124ed91906147be565b905080861115612532576040517f08c379a000000000000000000000000000000000000000000000000000000000815260040161252990614dc2565b60405180910390fd5b600b60019054906101000a900473ffffffffffffffffffffffffffffffffffffffff1673ffffffffffffffffffffffffffffffffffffffff166323b872dd338760010160009054906101000a900473ffffffffffffffffffffffffffffffffffffffff16896040518463ffffffff1660e01b81526004016125b5939291906148fe565b6020604051808303816000875af11580156125d4573d6000803e3d6000fd5b505050506040513d601f19601f820116820180604052508101906125f8919061427d565b612637576040517f08c379a000000000000000000000000000000000000000000000000000000000815260040161262e90614e2e565b60405180910390fd5b8584600201600082825461264b91906147f2565b92505081905550808460020154106126a15760018460010160016101000a81548160ff02191690831515021790555060008460010160006101000a81548160ff0219169083151502179055506126a0876131bd565b5b3373ffffffffffffffffffffffffffffffffffffffff16877fb7b6ae626e0094aba4b69388b656d4b64f27860c5101c42c10a2e53fd6b0ce35886040516126e89190613ad8565b60405180910390a350505050506126fd612ef4565b5050565b60016020528060005260406000206000915090508060000154908060010160009054906101000a900460ff16908060010160019054906101000a900460ff16908060010160029054906101000a900460ff16908060020154905085565b60026020528060005260406000206000915090508060000154908060010154905082565b60066020528060005260406000206000915090508060000154908060010154908060020154908060030154908060040160009054906101000a900460ff16905085565b600c60009054906101000a900473ffffffffffffffffffffffffffffffffffffffff1673ffffffffffffffffffffffffffffffffffffffff163373ffffffffffffffffffffffffffffffffffffffff1614612855576040517f08c379a000000000000000000000000000000000000000000000000000000000815260040161284c90613fad565b60405180910390fd5b6064811015612899576040517f08c379a000000000000000000000000000000000000000000000000000000000815260040161289090614e9a565b60405180910390fd5b8060108190555050565b600f5481565b60125481565b6000600b60019054906101000a900473ffffffffffffffffffffffffffffffffffffffff1673ffffffffffffffffffffffffffffffffffffffff1663dd62ed3e33306040518363ffffffff1660e01b815260040161290e929190614ae5565b602060405180830381865afa15801561292b573d6000803e3d6000fd5b505050506040513d601f19601f8201168201806040525081019061294f919061418f565b905090565b6004602052816000526040600020818154811061297057600080fd5b90600052602060002001600091509150505481565b60006020528060005260406000206000915090508060000160009054906101000a900473ffffffffffffffffffffffffffffffffffffffff16908060010160009054906101000a900473ffffffffffffffffffffffffffffffffffffffff16908060020154908060030154908060040154908060050160009054906101000a900460ff16908060060154905087565b612a1c612efe565b612a24612eae565b6012548310158015612a3857506013548311155b612a77576040517f08c379a0000000000000000000000000000000000000000000000000000000008152600401612a6e90614f06565b60405180910390fd5b6000612a81610d5f565b90506000612ab082600f54600e60009054906101000a900460ff1660ff1688613434909392919063ffffffff16565b905080341015612af5576040517f08c379a0000000000000000000000000000000000000000000000000000000008152600401612aec90614f98565b60405180910390fd5b60116000815480929190612b0890614068565b9190505550600060066000601154815260200190815260200160002090508581600001819055508481600101819055508381600301819055508342612b4d91906147f2565b816002018190555060008160040160006101000a81548160ff0219169083151502179055506040518060e001604052803373ffffffffffffffffffffffffffffffffffffffff168152602001600073ffffffffffffffffffffffffffffffffffffffff16815260200187815260200134815260200186815260200160006001811115612bdc57612bdb613e17565b5b815260200185815250600080601154815260200190815260200160002060008201518160000160006101000a81548173ffffffffffffffffffffffffffffffffffffffff021916908373ffffffffffffffffffffffffffffffffffffffff16021790555060208201518160010160006101000a81548173ffffffffffffffffffffffffffffffffffffffff021916908373ffffffffffffffffffffffffffffffffffffffff16021790555060408201518160020155606082015181600301556080820151816004015560a08201518160050160006101000a81548160ff02191690836001811115612cd057612ccf613e17565b5b021790555060c08201518160060155905050600460003373ffffffffffffffffffffffffffffffffffffffff1673ffffffffffffffffffffffffffffffffffffffff1681526020019081526020016000206011549080600181540180825580915050600190039060005260206000200160009091909190915055612d5560115461347a565b6011547fc8a2bcd3b42e3508cef71e30d8b859819aecaeeb4fdc70998269b264d4b4e3353388348989604051612d8f959493929190614fb8565b60405180910390a281341115612e5e5760008234612dad91906147be565b905060003373ffffffffffffffffffffffffffffffffffffffff1682604051612dd59061503c565b60006040518083038185875af1925050503d8060008114612e12576040519150601f19603f3d011682016040523d82523d6000602084013e612e17565b606091505b5050905080612e5b576040517f08c379a0000000000000000000000000000000000000000000000000000000008152600401612e529061509d565b60405180910390fd5b50505b505050612e69612ef4565b505050565b600080612e79610d5f565b9050612ea681600f54600e60009054906101000a900460ff1660ff1686613434909392919063ffffffff16565b915050919050565b6002600a5403612eea576040517f3ee5aeb500000000000000000000000000000000000000000000000000000000815260040160405180910390fd5b6002600a81905550565b6001600a81905550565b612f0661119d565b15612f3d576040517fd93c066500000000000000000000000000000000000000000000000000000000815260040160405180910390fd5b565b600080600083815260200190815260200160002090506000816003015490506000826003018190555060008260010160009054906101000a900473ffffffffffffffffffffffffffffffffffffffff1673ffffffffffffffffffffffffffffffffffffffff1682604051612fb29061503c565b60006040518083038185875af1925050503d8060008114612fef576040519150601f19603f3d011682016040523d82523d6000602084013e612ff4565b606091505b5050905080613038576040517f08c379a000000000000000000000000000000000000000000000000000000000815260040161302f90615109565b60405180910390fd5b50505050565b60008060008381526020019081526020016000209050600060026000848152602001908152602001600020905060006001600085815260200190815260200160002090508060010160009054906101000a900460ff166130d3576040517f08c379a00000000000000000000000000000000000000000000000000000000081526004016130ca90614362565b60405180910390fd5b6000808360000154036130ec57836006015490506130ff565b8260000154426130fc91906147be565b90505b60008111613142576040517f08c379a00000000000000000000000000000000000000000000000000000000081526004016131399061519b565b60405180910390fd5b600061315785600201548660040154846132c6565b90508084600101600082825461316d91906147f2565b92505081905550428460000181905550857f3d8708181c6452c5711a2b4c6ed3f12149f6ea35f78549aba00a89d041e766ca826040516131ad9190613ad8565b60405180910390a2505050505050565b6000806000838152602001908152602001600020905060008160030154905060008111156132c1576000826003018190555060008260000160009054906101000a900473ffffffffffffffffffffffffffffffffffffffff1673ffffffffffffffffffffffffffffffffffffffff16826040516132399061503c565b60006040518083038185875af1925050503d8060008114613276576040519150601f19603f3d011682016040523d82523d6000602084013e61327b565b606091505b50509050806132bf576040517f08c379a00000000000000000000000000000000000000000000000000000000081526004016132b690615207565b60405180910390fd5b505b505050565b600080841161330a576040517f08c379a000000000000000000000000000000000000000000000000000000000815260040161330190615273565b60405180910390fd5b6000831161334d576040517f08c379a000000000000000000000000000000000000000000000000000000000815260040161334490615305565b60405180910390fd5b60008211613390576040517f08c379a000000000000000000000000000000000000000000000000000000000815260040161338790615397565b60405180910390fd5b600063bbf81e00670de0b6b3a7640000856133ab91906145d8565b6133b59190614649565b9050600081116133fa576040517f08c379a00000000000000000000000000000000000000000000000000000000081526004016133f190615403565b60405180910390fd5b6000670de0b6b3a764000084838861341291906145d8565b61341c91906145d8565b6134269190614649565b905080925050509392505050565b600060648461344391906145d8565b82600a6134509190615423565b848761345c91906145d8565b61346691906145d8565b6134709190614649565b9050949350505050565b600060066000601154815260200190815260200160002090506000807fffffffffffffffffffffffffffffffffffffffffffffffffffffffffffffffff905060005b600980549050811015613577576000600982815481106134df576134de6140df565b5b906000526020600020015490508460000154600760008373ffffffffffffffffffffffffffffffffffffffff1673ffffffffffffffffffffffffffffffffffffffff16815260200190815260200160002054106135695760006135468287600001546135be565b90508560010154811115801561355b57508381105b15613567578194508093505b505b5080806001019150506134bc565b50600073ffffffffffffffffffffffffffffffffffffffff168273ffffffffffffffffffffffffffffffffffffffff16146135b8576135b78483836136ba565b5b50505050565b600080600760008573ffffffffffffffffffffffffffffffffffffffff1673ffffffffffffffffffffffffffffffffffffffff16815260200190815260200160002054905082811015613646576040517f08c379a000000000000000000000000000000000000000000000000000000000815260040161363d906154ba565b60405180910390fd5b60008160648561365691906145d8565b6136609190614649565b905060006002905060006014905060006064838361367e91906147be565b8561368991906145d8565b6136939190614649565b8361369e91906147f2565b9050818111156136ac578190505b809550505050505092915050565b60008060008581526020019081526020016000209050828160010160006101000a81548173ffffffffffffffffffffffffffffffffffffffff021916908373ffffffffffffffffffffffffffffffffffffffff16021790555081816004018190555060016006600086815260200190815260200160002060040160006101000a81548160ff0219169083151502179055508060000160009054906101000a900473ffffffffffffffffffffffffffffffffffffffff1673ffffffffffffffffffffffffffffffffffffffff168373ffffffffffffffffffffffffffffffffffffffff16857f132aeb8d030dcc11adfc3ead0730a22aa3c0bf449b3532210c732b9a25e83c2060405160405180910390a450505050565b60405180610120016040528060008152602001600073ffffffffffffffffffffffffffffffffffffffff16815260200160008152602001600081526020016000815260200160008152602001600081526020016000151581526020016000151581525090565b600060ff82169050919050565b61384c81613836565b82525050565b60006020820190506138676000830184613843565b92915050565b600080fd5b6000819050919050565b61388581613872565b811461389057600080fd5b50565b6000813590506138a28161387c565b92915050565b6000602082840312156138be576138bd61386d565b5b60006138cc84828501613893565b91505092915050565b600081519050919050565b600082825260208201905092915050565b6000819050602082019050919050565b61390a81613872565b82525050565b600073ffffffffffffffffffffffffffffffffffffffff82169050919050565b600061393b82613910565b9050919050565b61394b81613930565b82525050565b60008115159050919050565b61396681613951565b82525050565b610120820160008201516139836000850182613901565b5060208201516139966020850182613942565b5060408201516139a96040850182613901565b5060608201516139bc6060850182613901565b5060808201516139cf6080850182613901565b5060a08201516139e260a0850182613901565b5060c08201516139f560c0850182613901565b5060e0820151613a0860e085018261395d565b50610100820151613a1d61010085018261395d565b50505050565b6000613a2f838361396c565b6101208301905092915050565b6000602082019050919050565b6000613a54826138d5565b613a5e81856138e0565b9350613a69836138f1565b8060005b83811015613a9a578151613a818882613a23565b9750613a8c83613a3c565b925050600181019050613a6d565b5085935050505092915050565b60006020820190508181036000830152613ac18184613a49565b905092915050565b613ad281613872565b82525050565b6000602082019050613aed6000830184613ac9565b92915050565b613afc81613930565b8114613b0757600080fd5b50565b600081359050613b1981613af3565b92915050565b60008060408385031215613b3657613b3561386d565b5b6000613b4485828601613893565b9250506020613b5585828601613b0a565b9150509250929050565b600060208284031215613b7557613b7461386d565b5b6000613b8384828501613b0a565b91505092915050565b60008060408385031215613ba357613ba261386d565b5b6000613bb185828601613b0a565b9250506020613bc285828601613893565b9150509250929050565b613bd581613951565b82525050565b6000602082019050613bf06000830184613bcc565b92915050565b6000606082019050613c0b6000830186613ac9565b613c186020830185613ac9565b613c256040830184613ac9565b949350505050565b613c3681613930565b82525050565b6000602082019050613c516000830184613c2d565b92915050565b60008060408385031215613c6e57613c6d61386d565b5b6000613c7c85828601613893565b9250506020613c8d85828601613893565b9150509250929050565b6000819050919050565b6000613cbc613cb7613cb284613910565b613c97565b613910565b9050919050565b6000613cce82613ca1565b9050919050565b6000613ce082613cc3565b9050919050565b613cf081613cd5565b82525050565b6000602082019050613d0b6000830184613ce7565b92915050565b6000606082019050613d266000830186613c2d565b613d336020830185613ac9565b613d406040830184613bcc565b949350505050565b600060a082019050613d5d6000830188613ac9565b613d6a6020830187613bcc565b613d776040830186613bcc565b613d846060830185613bcc565b613d916080830184613ac9565b9695505050505050565b6000604082019050613db06000830185613ac9565b613dbd6020830184613ac9565b9392505050565b600060a082019050613dd96000830188613ac9565b613de66020830187613ac9565b613df36040830186613ac9565b613e006060830185613ac9565b613e0d6080830184613bcc565b9695505050505050565b7f4e487b7100000000000000000000000000000000000000000000000000000000600052602160045260246000fd5b60028110613e5757613e56613e17565b5b50565b6000819050613e6882613e46565b919050565b6000613e7882613e5a565b9050919050565b613e8881613e6d565b82525050565b600060e082019050613ea3600083018a613c2d565b613eb06020830189613c2d565b613ebd6040830188613ac9565b613eca6060830187613ac9565b613ed76080830186613ac9565b613ee460a0830185613e7f565b613ef160c0830184613ac9565b98975050505050505050565b600080600060608486031215613f1657613f1561386d565b5b6000613f2486828701613893565b9350506020613f3586828701613893565b9250506040613f4686828701613893565b9150509250925092565b600082825260208201905092915050565b7f4f6e6c79206f776e657200000000000000000000000000000000000000000000600082015250565b6000613f97600a83613f50565b9150613fa282613f61565b602082019050919050565b60006020820190508181036000830152613fc681613f8a565b9050919050565b7f526174696f20746f6f206c6f7700000000000000000000000000000000000000600082015250565b6000614003600d83613f50565b915061400e82613fcd565b602082019050919050565b6000602082019050818103600083015261403281613ff6565b9050919050565b7f4e487b7100000000000000000000000000000000000000000000000000000000600052601160045260246000fd5b600061407382613872565b91507fffffffffffffffffffffffffffffffffffffffffffffffffffffffffffffffff82036140a5576140a4614039565b5b600182019050919050565b7f4e487b7100000000000000000000000000000000000000000000000000000000600052604160045260246000fd5b7f4e487b7100000000000000000000000000000000000000000000000000000000600052603260045260246000fd5b7f5072696365206e6f742073657400000000000000000000000000000000000000600082015250565b6000614144600d83613f50565b915061414f8261410e565b602082019050919050565b6000602082019050818103600083015261417381614137565b9050919050565b6000815190506141898161387c565b92915050565b6000602082840312156141a5576141a461386d565b5b60006141b38482850161417a565b91505092915050565b7f4e6f207265776172647320746f20776974686472617700000000000000000000600082015250565b60006141f2601683613f50565b91506141fd826141bc565b602082019050919050565b60006020820190508181036000830152614221816141e5565b9050919050565b600060408201905061423d6000830185613c2d565b61424a6020830184613ac9565b9392505050565b61425a81613951565b811461426557600080fd5b50565b60008151905061427781614251565b92915050565b6000602082840312156142935761429261386d565b5b60006142a184828501614268565b91505092915050565b7f526577617264207769746864726177616c206661696c65640000000000000000600082015250565b60006142e0601883613f50565b91506142eb826142aa565b602082019050919050565b6000602082019050818103600083015261430f816142d3565b9050919050565b7f4c6f616e206e6f74206163746976650000000000000000000000000000000000600082015250565b600061434c600f83613f50565b915061435782614316565b602082019050919050565b6000602082019050818103600083015261437b8161433f565b9050919050565b7f4c6f616e206e6f74206f76657264756500000000000000000000000000000000600082015250565b60006143b8601083613f50565b91506143c382614382565b602082019050919050565b600060208201905081810360008301526143e7816143ab565b9050919050565b7f4c6f616e20616c72656164792072657061696400000000000000000000000000600082015250565b6000614424601383613f50565b915061442f826143ee565b602082019050919050565b6000602082019050818103600083015261445381614417565b9050919050565b60008160011c9050919050565b6000808291508390505b60018511156144b15780860481111561448d5761448c614039565b5b600185161561449c5780820291505b80810290506144aa8561445a565b9450614471565b94509492505050565b6000826144ca5760019050614586565b816144d85760009050614586565b81600181146144ee57600281146144f857614527565b6001915050614586565b60ff84111561450a57614509614039565b5b8360020a91508482111561452157614520614039565b5b50614586565b5060208310610133831016604e8410600b841016171561455c5782820a90508381111561455757614556614039565b5b614586565b6145698484846001614467565b925090508184048111156145805761457f614039565b5b81810290505b9392505050565b600061459882613872565b91506145a383613836565b92506145d07fffffffffffffffffffffffffffffffffffffffffffffffffffffffffffffffff84846144ba565b905092915050565b60006145e382613872565b91506145ee83613872565b92508282026145fc81613872565b9150828204841483151761461357614612614039565b5b5092915050565b7f4e487b7100000000000000000000000000000000000000000000000000000000600052601260045260246000fd5b600061465482613872565b915061465f83613872565b92508261466f5761466e61461a565b5b828204905092915050565b7f436f6c6c61746572616c207374696c6c2073756666696369656e740000000000600082015250565b60006146b0601b83613f50565b91506146bb8261467a565b602082019050919050565b600060208201905081810360008301526146df816146a3565b9050919050565b7f4e6f7420626f72726f7765720000000000000000000000000000000000000000600082015250565b600061471c600c83613f50565b9150614727826146e6565b602082019050919050565b6000602082019050818103600083015261474b8161470f565b9050919050565b7f4e6f20696e746572657374206163637275656421000000000000000000000000600082015250565b6000614788601483613f50565b915061479382614752565b602082019050919050565b600060208201905081810360008301526147b78161477b565b9050919050565b60006147c982613872565b91506147d483613872565b92508282039050818111156147ec576147eb614039565b5b92915050565b60006147fd82613872565b915061480883613872565b92508282019050808211156148205761481f614039565b5b92915050565b7f496e746572657374206e6f742063616c63756c61746564000000000000000000600082015250565b600061485c601783613f50565b915061486782614826565b602082019050919050565b6000602082019050818103600083015261488b8161484f565b9050919050565b7f4e6f207265776172642063616c63756c61746564000000000000000000000000600082015250565b60006148c8601483613f50565b91506148d382614892565b602082019050919050565b600060208201905081810360008301526148f7816148bb565b9050919050565b60006060820190506149136000830186613c2d565b6149206020830185613c2d565b61492d6040830184613ac9565b949350505050565b7f5472616e73666572206661696c65640000000000000000000000000000000000600082015250565b600061496b600f83613f50565b915061497682614935565b602082019050919050565b6000602082019050818103600083015261499a8161495e565b9050919050565b7f5472616e7366657220746f206c656e646572206661696c656400000000000000600082015250565b60006149d7601983613f50565b91506149e2826149a1565b602082019050919050565b60006020820190508181036000830152614a06816149ca565b9050919050565b7f4c6f616e20616c72656164792061637469766500000000000000000000000000600082015250565b6000614a43601383613f50565b9150614a4e82614a0d565b602082019050919050565b60006020820190508181036000830152614a7281614a36565b9050919050565b7f4c6f616e20616c72656164792066756e64656400000000000000000000000000600082015250565b6000614aaf601383613f50565b9150614aba82614a79565b602082019050919050565b60006020820190508181036000830152614ade81614aa2565b9050919050565b6000604082019050614afa6000830185613c2d565b614b076020830184613c2d565b9392505050565b7f496e73756666696369656e7420616c6c6f77616e636500000000000000000000600082015250565b6000614b44601683613f50565b9150614b4f82614b0e565b602082019050919050565b60006020820190508181036000830152614b7381614b37565b9050919050565b7f4c6f616e2064697362757273656d656e74206661696c65640000000000000000600082015250565b6000614bb0601883613f50565b9150614bbb82614b7a565b602082019050919050565b60006020820190508181036000830152614bdf81614ba3565b9050919050565b7f4c6f616e20646f6573206e6f7420657869737400000000000000000000000000600082015250565b6000614c1c601383613f50565b9150614c2782614be6565b602082019050919050565b60006020820190508181036000830152614c4b81614c0f565b9050919050565b7f4d696e696d756d206c6f616e20616d6f756e74206d757374206265206772656160008201527f746572207468616e203000000000000000000000000000000000000000000000602082015250565b6000614cae602a83613f50565b9150614cb982614c52565b604082019050919050565b60006020820190508181036000830152614cdd81614ca1565b9050919050565b7f4d6178696d756d206c6f616e20616d6f756e74206d757374206265206772656160008201527f746572207468616e206d696e696d756d206c6f616e20616d6f756e7400000000602082015250565b6000614d40603c83613f50565b9150614d4b82614ce4565b604082019050919050565b60006020820190508181036000830152614d6f81614d33565b9050919050565b7f52657061796d656e742065786365656473206f77656420616d6f756e74000000600082015250565b6000614dac601d83613f50565b9150614db782614d76565b602082019050919050565b60006020820190508181036000830152614ddb81614d9f565b9050919050565b7f5061727469616c2072657061796d656e74206661696c65640000000000000000600082015250565b6000614e18601883613f50565b9150614e2382614de2565b602082019050919050565b60006020820190508181036000830152614e4781614e0b565b9050919050565b7f5468726573686f6c6420746f6f206c6f77000000000000000000000000000000600082015250565b6000614e84601183613f50565b9150614e8f82614e4e565b602082019050919050565b60006020820190508181036000830152614eb381614e77565b9050919050565b7f496e76616c6964206c6f616e20616d6f756e7400000000000000000000000000600082015250565b6000614ef0601383613f50565b9150614efb82614eba565b602082019050919050565b60006020820190508181036000830152614f1f81614ee3565b9050919050565b7f496e73756666696369656e74206e617469766520746f6b656e20636f6c6c617460008201527f6572616c00000000000000000000000000000000000000000000000000000000602082015250565b6000614f82602483613f50565b9150614f8d82614f26565b604082019050919050565b60006020820190508181036000830152614fb181614f75565b9050919050565b600060a082019050614fcd6000830188613c2d565b614fda6020830187613ac9565b614fe76040830186613ac9565b614ff46060830185613ac9565b6150016080830184613ac9565b9695505050505050565b600081905092915050565b50565b600061502660008361500b565b915061503182615016565b600082019050919050565b600061504782615019565b9150819050919050565b7f526566756e64206661696c656400000000000000000000000000000000000000600082015250565b6000615087600d83613f50565b915061509282615051565b602082019050919050565b600060208201905081810360008301526150b68161507a565b9050919050565b7f436f6c6c61746572616c207472616e73666572206661696c6564000000000000600082015250565b60006150f3601a83613f50565b91506150fe826150bd565b602082019050919050565b60006020820190508181036000830152615122816150e6565b9050919050565b7f4e6f2074696d6520656c617073656420666f7220696e7465726573742061636360008201527f7275616c00000000000000000000000000000000000000000000000000000000602082015250565b6000615185602483613f50565b915061519082615129565b604082019050919050565b600060208201905081810360008301526151b481615178565b9050919050565b7f436f6c6c61746572616c2072657475726e206661696c65640000000000000000600082015250565b60006151f1601883613f50565b91506151fc826151bb565b602082019050919050565b60006020820190508181036000830152615220816151e4565b9050919050565b7f5072696e636970616c206d7573742062652067726561746572207468616e2030600082015250565b600061525d602083613f50565b915061526882615227565b602082019050919050565b6000602082019050818103600083015261528c81615250565b9050919050565b7f416e6e75616c2072617465206d7573742062652067726561746572207468616e60008201527f2030000000000000000000000000000000000000000000000000000000000000602082015250565b60006152ef602283613f50565b91506152fa82615293565b604082019050919050565b6000602082019050818103600083015261531e816152e2565b9050919050565b7f54696d6520656c6170736564206d75737420626520677265617465722074686160008201527f6e20300000000000000000000000000000000000000000000000000000000000602082015250565b6000615381602383613f50565b915061538c82615325565b604082019050919050565b600060208201905081810360008301526153b081615374565b9050919050565b7f5261746520706572207365636f6e6420697320696e76616c6964000000000000600082015250565b60006153ed601a83613f50565b91506153f8826153b7565b602082019050919050565b6000602082019050818103600083015261541c816153e0565b9050919050565b600061542e82613872565b915061543983613872565b92506154667fffffffffffffffffffffffffffffffffffffffffffffffffffffffffffffffff84846144ba565b905092915050565b7f496e73756666696369656e74206c656e6465722066756e647300000000000000600082015250565b60006154a4601983613f50565b91506154af8261546e565b602082019050919050565b600060208201905081810360008301526154d381615497565b905091905056fea26469706673582212202f8a6e9ea3a8f8f8f49a1f216178a77539e84c6b05c467614266a471c2ec068d64736f6c63430008180033",
  "linkReferences": {},
  "deployedLinkReferences": {}
}